:100000000C9426030C9445030C9445030C9445036F
:100010000C9445030C9445030C9445030C94450340
:100020000C9445030C9445030C9445030C94450330
:100030000C9445030C9445030C9445030C94450320
:100040000C9414040C9445030C9445030C94450340
:100050000C944C1F0C9445030C94081F0C944503FE
:100060000C9445030C9445030C9445030C944503F0
:100070000C9445030C9445030C9445030C944503E0
:100080000C9445030C9445030C94450353796E631B
:1000900068726F6E697A61636A6120437A61737511
:1000A000004272616B20776F6C6E79636820706FAD
:1000B0007A79636A69205375706572205573657229
:1000C00020283739352D38303029004E756D65724E
:1000D000206A757A206973746E69656A6520772075
:1000E00073797374656D696500FF41424344000094
:1000F00000A2A3A4A6A7A8A9942B6370696E3F00D1
:10010000000000000000002B636E6D693D322C3151
:100110002C322C31002B6D6F72696E673D310000FF
:100120000000002B636C69703D310000000000008E
:10013000002B646465743D312C31302C3100002B70
:1001400063616C6D3D31000000000000002B6372A4
:10015000736C3D31000000000000002B6375736478
:100160003D31000000000000002B637062773D32DB
:10017000362C22312200002B636C74733D3000005A
:1001800000000000002B636D69633D302C313500A9
:100190002B636D6764613D36002B6370696E3D2291
:1001A0003139373622002B6966633D322C32002B01
:1001B00063706D733D22534D222C22534D222C220D
:1001C000534D22002B6364736362002B63636C6B7B
:1001D0003F002B636F70733F002B637062723D3280
:1001E00036002B637265673F002B637371002B76BB
:1001F00074733D3100610068002B434D54493A004F
:100200002B636D67643D002B636D67723D002B634C
:100210006D67733D002B434D54493A002B44544DB8
:10022000463A002B434C49503A003E002B434D4781
:10023000523A002B434F50533A002B435245473A12
:10024000002B4353513A002B4350494E3A2052451C
:10025000414459002B43434C4B3A00313D524356E5
:1002600020323D42535920333D434E5420343D51BA
:10027000534D20353D51414C20363D464E442037AC
:100280003D414444002055373D002055363D002077
:1002900055353D0055343D002055333D0020553245
:1002A0003D0055313D00534B525942413A004445BF
:1002B0004255470A007777772E736F6E66792E70F6
:1002C0006C002D2D2D2D004D6F6A206E723A20008E
:1002D000536B727962613A2057796C61637A6F6E01
:1002E0006100536B727962613A20576C61637A6F77
:1002F0006E61004861726D3A2057796C61637A6F64
:100300006E79002044544D460020434C495000541F
:100310007279623A205075626C69637A6E79005422
:100320007279623A205072797761746E79005374F1
:10033000617475733A20416B7479776E79005374E8
:10034000617475733A205A61626C6F6B6F77616E7E
:100350007900557A79746B6F776E696379200055EF
:100360007A79743A200047534D3A2000437A6173FA
:100370003A200041433830302D44544D2D54530021
:100380002B435553443A002B434D53204552524F73
:10039000523A002B434D45204552524F523A0042AB
:1003A000555359004E4F204449414C544F4E45003F
:1003B0004E4F2043415252494552002B434D544920
:1003C0003A002B44544D463A002B434C49503A00D6
:1003D0004D4F20434F4E4E4543544544004D4F2012
:1003E00052494E47004552524F52002B434D4753FE
:1003F0003A004E756D6572207A61706973616E792D
:100400003A20004F4646004F4E004F464600546982
:100410006D653A2000433344340004434F444500A3
:10042000000003414444000000000344454C000028
:1004300000000458585858000000065245504F52CA
:1004400054000455534552000000044F50454E00DF
:10045000000005434C4F5345000004434C495000F5
:1004600000000444544D460000000353455400006E
:1004700000000454494D4500000006534B525942B8
:10048000410005444542554700000553544152542C
:1004900000000453544F5000000003535542000025
:1004A0000000054D594E554D000030313233343582
:1004B000363738392B2A2321210030313233343575
:1004C00036373839414243444546003F3F3F3F3F7E
:1004D0003F3F3F3F3F0A3F3F0D3F3F3F3F3F3F3F93
:1004E0003F3F3F3F3F3F3F3F3F3F3F2021222302CF
:1004F00025262728292A2B2C2D2E2F303132333434
:1005000035363738393A3B3C3D3E3F004142434463
:1005100045464748494A4B4C4D4E4F505152535413
:1005200055565758595A3F3F3F3F113F61626364E8
:1005300065666768696A6B6C6D6E6F7071727374F3
:1005400075767778797A3F3F3F3F3F3F3F3F3F3F68
:100550003F3F3F3F3F3F3F3F3F3F3F3F3F3F3F3FAB
:100560003F3F3F3F3F3F3F3F3F3F3F3F403F0124F3
:10057000033F5F3F3F3F3F3F3F3F3F3F3F3F3F3FA7
:100580003F3F3F3F3F3F3F3F3F3F603F3F3F3F5B3E
:100590000E1C093F1F3F3F3F3F3F3F3F5D3F3F3FF7
:1005A0003F5C3F0B3F3F3F5E3F3F1E7F3F3F3F7BF8
:1005B0000F1D3F04053F3F073F3F3F3F7D083F3F43
:1005C0003F7C3F0C063F3F7E3F3F3F40A324A5E8D2
:1005D000E9F9ECF2C70AD8F80DC5E53F5F3F3F3FA8
:1005E0003F3F3F3F3F3F3FC6E6DFC920212223A4D4
:1005F00025262728292A2B2C2D2E2F303132333433
:1006000035363738393A3B3C3D3E3FA141424344C1
:1006100045464748494A4B4C4D4E4F505152535412
:1006200055565758595AC4D6D1DCA7BF6162636486
:1006300065666768696A6B6C6D6E6F7071727374F2
:1006400075767778797AE4F6F1FCE00011241FBE24
:10065000CFEFD0E4DEBFCDBF11E0A0E0B1E0E6EA2D
:10066000F7E600E00BBF02C007900D92A83DB1076E
:10067000D9F728E0A8EDB1E001C01D92A032B20781
:10068000E1F70E94F92C0C94D1330C9400001092E5
:10069000F7011092F6011092F5010895CF93DF93C0
:1006A000FC0101900020E9F7BF01615071094AEE99
:1006B00057E00E949C28C8E0D0E0BE018AEE97E097
:1006C0000E947129811108C02596C83AFFE0DF0712
:1006D000A1F7DF91CF9108958FEFFBCF80910F02AB
:1006E00096E5980F8C5E943108F082E90C944328CB
:1006F00080912A0290912B028F3F980729F0019652
:1007000090932B0280932A028AE08093E601109254
:10071000E5010E94470382E90C944328BC0184EC64
:1007200093E00C94F32F8FEF9FE80197F1F700C04F
:1007300000008FEF9FE80197F1F700C000008FEFF6
:100740009FE80197F1F700C000008FEF9FE8019745
:10075000F1F700C000008FEF9FE80197F1F700C0AC
:100760000000A8950895CF93DF93CDB7DEB7289703
:100770000FB6F894DEBF0FBECDBF9091E807911180
:100780002BC090913D02911127C09091E9079111E2
:1007900023C0F99921C020913102298330912F0281
:1007A000209130023A832B83209106022C83E8EAC1
:1007B000F7E02191235D223008F49F5F27E0E63CBB
:1007C000F207B9F79D838E836F8347E062ED7FE088
:1007D000CE0101960E94432A28960FB6F894DEBFF8
:1007E0000FBECDBFDF91CF910895809124028F5F1E
:1007F000843618F480932402089510922402809184
:10080000230291E0811190E090932302811102C0B4
:1008100040980895409A08958091A803807F11F42C
:10082000409A08954098089578941F920F920FB6B9
:100830000F9211240BB60F922F938F939F93EF93E8
:10084000FF938091E1018F5F8093E101823128F075
:100850001092E1018FEF8093E3014F9B59C000B6E6
:1008600001FC16C080913402811112C010925B0508
:1008700010925A0510926A0580B7826080BFF89482
:100880008091C10080688093C100789400004598F1
:1008900034992FC0F8948091C10086FF29C08091BF
:1008A000C1008F7B8093C1007894809135028823AA
:1008B000C9F080913302811104C080910F028C38FD
:1008C00089F41092350280915E0590915F05FC01DC
:1008D000E95EF94F2081019690935F0580935E0554
:1008E0002093C600F8948091C10080648093C10079
:1008F00078948FEF8093E401FF91EF919F918F9116
:100900002F910F900BBE0F900FBE0F901F90189558
:10091000459AF8948091C1008F738093C10080B78D
:100920008D7F80BF78940000E4CFDF92EF92FF923A
:100930000F931F93CF93DF938C01DC01ED90FC901C
:100940004CE050E063E773E0C7010E94BD2FE70170
:100950002D968AE0D82EF701D4866CE673E0CE019E
:100960000E94C62F09900020E9F721976BE071E003
:10097000CE010E942A3009900020E9F72197DE017C
:10098000DD92CD0145E050E066E673E00E94BD2FA8
:1009900080910601803230F59091E001992311F1A8
:1009A0002696B4E68B9FC00111246FE170E00E948F
:1009B0003D2DCB014AE0BE010E9447300990002046
:1009C000E9F72197FE01319685E288831082D801EC
:1009D000ED93FC93DF91CF911F910F91FF90EF90DA
:1009E000DF9008958DE28E838F83FE01399688878C
:1009F000EDCFAF92BF92CF92DF92EF92FF920F9323
:100A00001F93CF93DF938C01FC01C081D18146E01D
:100A100050E06FE573E0CE010E94BD2F269688E07E
:100A2000C82ED12CF12CE12CB12CA12CC6010E9496
:100A30005B338F3F99F1FFEFAF1ABF0AE5E0CE0EAF
:100A4000D11CF8EACF16FFE0DF0681F74AE0BE01CD
:100A5000C5010E94473009900020E9F721976E01F7
:100A60008FEFC81AD80A8FE288834AE0B601C7011F
:100A70000E944730F60101900020E9F7CF0101976D
:100A8000F80191838083DF91CF911F910F91FF90A7
:100A9000EF90DF90CF90BF90AF9008958FEFE81A5E
:100AA000F80ACCCFCF92DF92EF92FF920F931F9371
:100AB000CF93DF938C01FC01C081D1814CE050E0E9
:100AC00062E573E0CE010E94BD2F2C9688E0E82EEF
:100AD000F12CD12CC12CC7010E945B338F3F89F1CF
:100AE000C394F5E0EF0EF11C88EAE8168FE0F806F3
:100AF00091F74AE0BE018C2D90E00E9447300990AA
:100B00000020E9F721977E01EFEFEE1AFE0A8FE24F
:100B100088834AE0B7018D2D90E00E944730F701AD
:100B200001900020E9F7CF010197F80191838083BC
:100B3000DF91CF911F910F91FF90EF90DF90CF90B9
:100B40000895D394CECF1F93CF93DF9300D0CDB72A
:100B5000DEB78AE28093760588E795E09A838983F9
:100B60001AE010937705CE0101960E949504E98161
:100B7000FA81CF0101969A8389831083CE01019671
:100B80000E94F904E981FA81CF0101969A83898351
:100B900010832091DA0189819A816EE373E021113B
:100BA00002C06EE273E00E94C62FE981FA810190D3
:100BB0000020E9F7DF011197FA83E9838AE08C933B
:100BC0002091000189819A816FE173E0222311F065
:100BD0006FE073E00E94C62F89819A81FC01019029
:100BE0000020E9F7CF0101979A83898320910101C1
:100BF00069E073E0211102C063E073E00E94C62F38
:100C0000E981FA8101900020E9F7DF011197FA8369
:100C1000E9838AE08C9380910A018F3F09F058C0E4
:100C200063EF72E089819A810E94C62FE981FA817F
:100C300001900020E9F7DF011197FA83E9838AE048
:100C40008C932091ED0189819A8162EE72E02111ED
:100C500002C060ED72E00E94C62FE981FA81019026
:100C60000020E9F7DF011197FA83E9838AE08C938A
:100C700067EC72E089819A810E94C62F89819A81EE
:100C8000FC0101900020E9F7CF0101979A83898345
:100C90002091360321502E3FC8F566E373E00E9491
:100CA0004030E981FA8101900020E9F7DF011197D6
:100CB000FA83E9838AE08C9365EB72E089819A81FB
:100CC0000E94C62F0F900F90DF91CF911F91089532
:100CD000909107011F929F93909108011F929F93FB
:100CE000909109011F929F931F928F9387E191E04A
:100CF0009F938F938A818F9389818F930E94613014
:100D00000FB6F894DEBF0FBECDBF90CF62EC72E09D
:100D10000E94C62FC6CF0F931F93CF93DF9300D0AF
:100D200000D01F92CDB7DEB7FC0101900020E9F79B
:100D3000BF0161507109AE014F5F5F4F0E949C2857
:100D40000AE81FE0B801CE0101960E9471298111C5
:100D500010C00B5F1F4F083AFFE01F0799F70F9075
:100D60000F900F900F900F90DF91CF911F910F91E7
:100D700008958FEFF4CF8FEF80933E0284E190E0EF
:100D8000A0E0B0E08093B2039093B303A093B403C8
:100D9000B093B5030895CF92DF92FF920F931F9304
:100DA000CF93DF93CDB7DEB766970FB6F894DEBF6B
:100DB0000FBECDBF1092A6078FEF8093F701109260
:100DC000F6011092F50186E097E00E94F724182FB3
:100DD0008091EE01811160C08091EF011F928F938D
:100DE0008091F0011F928F938091F1011F928F9358
:100DF00081E391E09F938F938BE091E09F938F939A
:100E00000E9461308091EF011F928F938091F001D9
:100E10001F928F938091F1011F928F9380E491E054
:100E20009F938F9386EC97E09F938F930E946130FE
:100E30008EEF0E94312820910A010FB6F894DEBF90
:100E40000FBECDBF2F3F09F45FC03091F1016CE3BD
:100E50008091F00190E0369F800D911D112440910A
:100E6000090150E0269F400D511D11247091080189
:100E70002091070130E0769F200D311D11242417A9
:100E80003507A4F1841795077CF141E0281739074D
:100E90000CF040E040933B021092EE018091DB01A8
:100EA00081111092DB018091DA01882381F18DEFAD
:100EB000810F823060F187EF9FE00E945B338130C9
:100EC00031F562E00E94B3030E946E0366960FB68E
:100ED000F894DEBF0FBECDBFDF91CF911F910F9170
:100EE000FF90DF90CF90089541E0D4CF841795070D
:100EF0004CF441E0281739070CF040E0842F809330
:100F00003B02CACF80E0FBCF10923B02C5CF8CEFF3
:100F1000810F823078F480913102883058F061E09E
:100F200081E00E94B3030E946E030E9478030E9436
:100F30004703CCCF809106028111F1CFE8EAF7E0B8
:100F400020E090E08191882329F02F5F835D82303B
:100F500008F49F5F87E0E63CF807A1F72332F8F634
:100F60009630E8F61C3018F7E12FF0E0E654F84F21
:100F70000C94512DC607970797070009D00706095B
:100F800073097E09EE0797079707880981E0809328
:100F9000E6011092E50163E080E00E94B303C7CF51
:100FA000809131028F5F809331028CE291E09093C7
:100FB000300280932F0267E473E08CE492E00E9499
:100FC00040300E94A30583ED0E94312882E0809387
:100FD000E6011092E50160E081E0DFCF6EEA72E0A9
:100FE00086E795E00E94C62F06E715E0F80101901C
:100FF0000020E9F78F010150110966EA72E0C8018B
:101000000E94C62FF80101900020E9F7CF01019757
:101010006C0181EF9FE00E945B33805DF60180836D
:1010200082EF9FE00E945B33805DF601818383EF56
:101030009FE00E945B33805DF601828384EF9FE036
:101040000E945B33805DF601838386010B5F1F4F37
:101050009AE0F92EF48262EA72E0C8010E94C62F7B
:10106000F80101900020E9F78F010150110986EE87
:101070009FE00E945B334AE0B80190E00E94473055
:10108000F80101900020E9F78F01015011096DE985
:1010900072E0C8010E94C62FF80101900020E9F714
:1010A0008F010150110987EE9FE00E945B334AE0F7
:1010B000B80190E00E944730F80101900020E9F764
:1010C0008F010150110968E972E0C8010E94C62F22
:1010D000F80101900020E9F78F010150110988EE15
:1010E0009FE00E945B334AE0B80190E00E944730E5
:1010F000F80101900020E9F731978F010F5F1F4F32
:10110000F08264E972E0C8010E94C62FF8010190E4
:101110000020E9F78F010150110989EE9FE00E943C
:101120005B334AE0B80190E00E944730F80101903B
:101130000020E9F78F01015011096FE872E0C80142
:101140000E94C62FF80101900020E9F78F0101509D
:1011500011098AEE9FE00E945B334AE0B80190E0FB
:101160000E944730F80101900020E9F78F010150FB
:1011700011096AE872E0C8010E94C62FF8010190C7
:101180000020E9F78F01015011098BEE9FE00E94CA
:101190005B334AE0B80190E00E944730F8010190CB
:1011A0000020E9F78F010150110965E872E0C801DC
:1011B0000E94C62FF80101900020E9F78F0101502D
:1011C00011098CEE9FE00E945B334AE0B80190E089
:1011D0000E944730F80101900020E9F7CF01019704
:1011E000FC01F192CF016BE572E00E94C62F67E42B
:1011F00073E08CE492E00E94403083ED0E9431283D
:1012000082E08093E6011092E50191CE8091310257
:101210008F5F809331028CE291E090933002809353
:101220002F0267E473E08CE492E00E94403068E5AE
:1012300073E0FB0101900020E9F7BF0161507109E3
:10124000AE014E5E5F4F88E593E00E949C2888E0E7
:10125000C82ED12CB601CE0142960E947129182FBA
:1012600081113FC0F5E0CF0ED11C88EAC8168FE08F
:10127000D80681F741E1BE016F5F7F4FCE014296F4
:101280000E94E528BE016F5F7F4F86E795E00E94D0
:10129000403063E671E086E795E00E942A3066E61A
:1012A00071E0111102C069E671E086E795E00E94E5
:1012B0002A3083ED0E94312882E08093E60110926B
:1012C000E5018091E807811109C080913D028111FB
:1012D00005C08091E907811101C08FB3612F82E0C1
:1012E0005CCE1FEFC7CF67E473E08CE492E00E940E
:1012F000403068E871E086E795E07DCF67E473E011
:101300008CE492E00E9440301092350389E876CF59
:1013100063E882E00E947A28811109CE89E18093F6
:10132000E6011092E50183E00E94312800CE809111
:1013300022029091B10390FF06C0883C88F48F5F31
:10134000809322020895883C60F063E882E00E9466
:101350007A28811103C083E00E9431281092220272
:1013600008958233D8F363E882E00E947A288111DD
:10137000F5CF82E0F1CFCF93DF9384E993E00E9431
:101380008B069091DA01992331F0811104C080E03D
:10139000DF91CF91089590913B02992311F088231A
:1013A000B1F38091940390910101911129C0882398
:1013B00019F084E80E94312880910001813011F4F5
:1013C0008FEFE6CF64E973E0FB0101900020E9F7BD
:1013D000BF01615071094AEE57E084E993E00E9431
:1013E0009C28C8E0D0E0BE018AEE97E00E947129F7
:1013F0008111E6CF2596C83AFFE0DF07A1F7C7CFF6
:10140000882319F084E80E94312881E0909100013E
:10141000913009F080E08195BBCF8CE3809311027D
:1014200010920A0210920902109203021092040212
:101430001092F80108958CE3809311021092D80164
:1014400008951092C10310920A021092090210929C
:101450000E0210920D0210920F02109259058CE3A9
:10146000809311021092060208950E94210A1092A0
:101470000E0210920D0210920F021092750510923A
:101480007903109259051092C00310920B0210922A
:10149000D8011092070208950E94350A86E98093C8
:1014A000050110923302109232021092FF01109245
:1014B000FE01109241021092FD011092FC01109267
:1014C000F80110920C0283E68093060161ED8EEB29
:1014D0000E9457286EE98AE80E94572868EA8FE937
:1014E0000E94572865ED83ED0E9457281092E00175
:1014F0000895809134028D3051F4109205021092BB
:10150000D8011092060286E480931102089580911A
:101510003402863059F5209105022F5F2093050291
:101520008091360290913702853032E0930761F066
:101530008A3331E0930741F0833032E0930721F0A2
:1015400080519240029770F48CE380931102809155
:101550000602223080F1109205021092D8011092FA
:10156000060208958CE380931102F5CF8091340236
:10157000843021F58CE380931102109259058091FB
:10158000C6038E3331F480915A0590915B050A971A
:1015900020F080910602811107C01092050210927E
:1015A000D8010E944C0ADBCF909105029F5F909377
:1015B0000502923080F60E943128D1CF809134020A
:1015C0008530B9F480913802909139028A309105C2
:1015D00039F09C012D7F2D30310511F04E9769F4C3
:1015E000109205028CE3809311021092D8010C94A2
:1015F0004C0A809134028091340208950F931F9316
:10160000CF93DF93D0913402C0910F02CE3909F409
:10161000B5C008F070C0C53909F477C238F5CF38C5
:1016200009F416C388F4CC3809F4A2C0CE3809F402
:1016300075C110920E0210920D0210920F02DF91EE
:10164000CF911F910F910895C23909F48BC1C4390C
:1016500081F7D13009F403C380917A038F5F8093BF
:101660007A03833008F0FBC28C2FCBC1C93909F44F
:10167000EDC188F4C63909F450C2C739D1F687E9FB
:10168000D13009F034C181E00E940D0A10920B02A2
:101690001092C103CECFCB3909F4B7C108F4EAC127
:1016A000CD3939F6D13029F68AE392E00E948E03D3
:1016B000FC01892B09F4BDCF27812C3209F0BCC174
:1016C000379680818C3209F0319680818C3209F016
:1016D00031964AE050E070E060E0CF0101960E9450
:1016E0006E2D662329F08DEF860F823008F0A6C19B
:1016F0000E944C0A9ECFCA3AC8F4C63A08F0A9CF55
:10170000C13A09F4A6CF58F4CF3909F4D2C0C03A8F
:1017100009F08FCFD13009F044C18FE8E8C0C23A58
:1017200009F453C1C43A09F494CF83CFC23D90F475
:10173000CE3B08F422C2D63009F060C28091360256
:10174000909137028134914009F45BC28C2F0E9442
:1017500031285CC2C63D09F45BC2CD3F09F069CFB8
:101760008AE292E00E948E03892B09F472CFC0CFE7
:101770008DE80E9431281092F9015BCFD13009F039
:1017800058CF84E592E00E948E03009709F451CF70
:1017900062E270E00E943530009709F44ACFEC0114
:1017A000219662E270E0CE010E9435308C016CE23D
:1017B00070E0CE010E9435300115110509F439CFD2
:1017C000009709F436CFEC012196C017D10708F035
:1017D00030CF6AE370E0CE010E943530009709F403
:1017E00028CF8017910708F024CFFE010190002038
:1017F000E9F73197EC1BFD0B389708F41ACF88E016
:10180000FE01ABE0B1E001900D928A95E1F71092F4
:10181000130170910A017F3F19F410923B0209CF26
:1018200020910B012053330BEAE0E29FC001E39FBC
:10183000900D112420910C012053330B820F931F24
:101840006CE3689FA001699F500D112420910E0147
:101850002053330BE29FC001E39F900D1124209190
:101860000F012053330B820F931F480F591F2091F4
:10187000090130E0769F200D311D1124709108017F
:101880008091070190E0769F800D911D11248217B1
:1018900093075CF04217530724F0841795070CF068
:1018A000BCCF8FEF80933B02C4CE42175307ACF3FB
:1018B000B4CFD13099F487E492E00E948E03892B53
:1018C00059F08FEF8093320210923A0282E90E941F
:1018D000312810922102ADCE8EE8F9CFD53051F4E7
:1018E00080913802909139020E9731F48FE90E946D
:1018F00031289FCED43021F0809134028038B1F766
:10190000809121028F5F80932102843118F00E9420
:101910004C0ADFCF84E180931102E8CFD13061F42B
:101920008FEF8093320210923A0282E90E943128AE
:1019300082E3809311027DCED53079F48091380214
:10194000909139028031910521F48FEF80933A0212
:1019500070CE0E9721F48EE8CACFD430E1F3809197
:101960003402F9CFD13011F480EAC1CFD63089F4F6
:1019700080913602909137028A3321E0920721F05C
:101980008530924009F055CE8CE38093110282E9B4
:10199000AECFD430E1F380913402803809F049CEE3
:1019A000F6CFD63081F480913602909137028A3397
:1019B00021E0920721F08530924009F03ACE84E18F
:1019C00080931102D1CF8AE0FBCFD13049F0D530DE
:1019D00081F480913802909139020397029748F47C
:1019E00080910C020E94312810920C0210927A030E
:1019F0000AC080917A038F5F80937A03833018F452
:101A000082EA0E94312882E094CFD13089F481E4C7
:101A100092E00E948E03009709F40BCE4AE050E05A
:101A200070E060E006960E946E2D6093060101CE84
:101A300083E680930601FDCD389643CE6B7F6130FF
:101A400009F0F7CD8FEF8093E001F3CDD13049F06D
:101A5000D53051F480913802909139024597029720
:101A600018F41092FF01E5CD8091FF018F5F809304
:101A7000FF01DFCDD13009F042C046E050E063E322
:101A800072E086EC93E00E94E52F892BC1F583E399
:101A900092E00E948E036CE270E00E943530009765
:101AA00071F16CE270E00E943530009741F162E222
:101AB00070E00E943530009711F18C010F5F1F4FCD
:101AC00062E270E0C8010E9435300097C1F008174B
:101AD0001907A9F0801B910B8C30910514F08BE055
:101AE00090E0EC01DD27AE01B80181E492E00E94B4
:101AF0001A30CF5BDD4F18821092FE019ACD809193
:101B0000FE018F5F8093FE0194CDD63009F47BCF28
:101B100085E9D13009F075CF76CFD13021F08091B1
:101B200034028C30A1F48FEF80930B0210927A0371
:101B30008091010181117DCD8CE291E09093EC01C7
:101B40008093EB0184E18093110285EAD0CED430FA
:101B500021F080913402803849F480917A038F5FBC
:101B600080937A03833010F486E9C1CED33011F428
:101B700010920B0210927A035CCDD130A9F58CE261
:101B800092E00E948E036AE070E00E943530009778
:101B900041F1EC0121966DE070E0CE010E943530FC
:101BA0000097F9F08C1B9D0B97FD019695958795F5
:101BB000893CA8F4809308024DE652E06091080247
:101BC000CE010E947A2B82ED0E94312880910F0273
:101BD0008C5E0E9431288FEF809307022ACD88EC1B
:101BE000E9CF1092070225CDD63021F010920702DE
:101BF0008CE39FCE8C2F0E943128F8CFD43009F48B
:101C0000A5CD80913402803809F4A0CD89E191CE30
:101C1000D43029F080913402803809F0ABCF109293
:101C2000C10380917A038F5F80937A03833010F42D
:101C300086ED5DCE10927A0380E00E940D0A10922C
:101C40000B021092C10310920A0210920902F1CC09
:101C5000D13029F08FE80E94312884E16ACE80914A
:101C60000C020E94312880910C028A5A843108F0BB
:101C7000BBCE10920702B8CE0F931F93CF93DF9382
:101C80008091340280913402803821F080911002DA
:101C9000882381F080E8809334020E94FE0A82E368
:101CA000809311028FEF80931002DF91CF911F91EB
:101CB0000F91089580913402813829F520915505BE
:101CC0003091560580915A0590915B052817390788
:101CD00061F4409155055091560567E176E084EC3A
:101CE00093E00E940D30892B01F3809159058111F9
:101CF000DCCF80E8809334028FEF8093100282E380
:101D000080931102D2CF809134028A3009F042C010
:101D100083E292E00E948E0362E270E00E9435301E
:101D2000009739F18C010F5F1F4F62E270E0C8012C
:101D30000E9435300097E9F0EC01C01BD10BC03197
:101D4000C0F4DD27AE01B80184E993E00E941A30A7
:101D5000CC56DC4F18828091FE0181111092FE0159
:101D600080910601882311F0833619F480E1809375
:101D7000060188E90E94432880910F028A5A843123
:101D800010F41092070210920E0210920D0210929F
:101D90000F028BCF80913402833089F480E00E945F
:101DA0000D0A10920B021092C10310920A021092B7
:101DB000090280910F02863D09F077CFE4CF809130
:101DC00034028230D1F480910F02863D11F40E94DA
:101DD000FE0A8091030281110BC08AE58093040200
:101DE0008FEF8093C10310920A02109209025DCF17
:101DF0008093040210920302F3CF8CE192E00E94E0
:101E00008E03009701F1FC01379681918032E9F34E
:101E100090910101911114C0813391F48FEF80935F
:101E20003E0284E190E0A0E0B0E08093B2039093A2
:101E3000B303A093B403B093B5038BE080937B030B
:101E40001092340232CF809134028C3071F4809140
:101E50000101882309F429CF10920B0287E9DF9151
:101E6000CF911F910F910C943128809134028930C9
:101E700061F480910F02863D11F40E94FE0A80E019
:101E80000E940D0A1092C103AECF809134028730B8
:101E900081F380913402883029F585E192E00E9437
:101EA0008E036CE270E00E9435300097A1F04AE0AA
:101EB00050E070E060E001960E949C2E9B01215052
:101EC00031092431310538F489EA860F0E9431281E
:101ED00081E08093110280910F028A5A843108F4C4
:101EE00050CFE3CE809134028E3011F484E1F1CFF3
:101EF0008091060281110E94790A80915A05909181
:101F00005B05892B09F4D1CE80913402882309F432
:101F1000CCCEDF91CF911F910F910C94FE0A8111CD
:101F200005C0862F0E94312880E0089510920E028D
:101F300010920D0260930F0240930C02C9010E949F
:101F4000D71E8FEF08950F93CF93DF939FEF90935A
:101F500059051092C003811149C085E08093E601C4
:101F60001092E50183ED8093060290936D024AE0A2
:101F70006AEE77E08DE692E00E94E52800E020E03E
:101F80004AEE57E06CE472E08DE692E00E94B52CD8
:101F900046E755E0FA0101900020E9F7AF01415012
:101FA000510966E775E00E94002B8D5692408093A0
:101FB0000802C0910802C15080916D02C81B46E022
:101FC00050E06EE072E089E196E00E94BD2F4AE0A9
:101FD0006FE176E08C2F90E00E9447308AEF80938B
:101FE0000401DF91CF910F910C94F31E85E0809353
:101FF000E6011092E50184ED8093060200917605DA
:1020000090936D024AE06AEE77E08DE692E00E94DE
:10201000E52820E04AEE57E06CE472E08DE692E0BD
:102020000E94B52CEC014091770550E068E775E01F
:102030000E941A30809177058C0F9D2F911DB5CF8E
:10204000EF92FF920F931F93CF93DF9300D01F92D5
:10205000CDB7DEB79091070291114DC08091060275
:10206000811149C08091C103811145C080910B024B
:10207000811141C080910F0281113DC080911102F8
:10208000811139C02091590581E0211101C080E002
:10209000811132C02091C10026FD2EC02091330253
:1020A000222351F12091340201E0211125C0109129
:1020B000A807E12EF12C1D3909F49BC208F072C06B
:1020C000123909F4B4C330F51D3809F494C3B0F4DF
:1020D0001B3809F44AC308F061C31A3809F4BDC3B8
:1020E00080E00F900F900F90DF91CF911F910F9193
:1020F000FF90EF90089581E000E0D9CF1F3809F4F8
:1021000024C308F482C3103909F4C7C3113941F755
:102110008FEFE7CF173909F4CFC1B8F4153909F4B7
:1021200007C308F0F3C11439D9F68091E80781118B
:102130000AC080913D02811106C08091E90781119A
:1021400002C0F99B96C384E947C1193909F477C2E3
:1021500008F486C11A3909F49BC21B3909F690911B
:10216000C103911115C02091090230910A02232B5D
:1021700079F490913F0291110BC090915905911102
:1021800007C0811105C08091D801882309F423C2BA
:1021900080910601833611F08111BACF80E18093DE
:1021A0000601B6CF123D08F081C01E3B08F02BC1DE
:1021B000153A09F4B9C1B0F41E3909F492C221E606
:1021C000210FE22FF0E0E151FF4F45915491FEE0E5
:1021D0002F9F9001112427503F4F612F802F0E9485
:1021E0008F0F96CF1A3A58F3911196C08091E00163
:1021F000882309F491C08091C10381118DC0809121
:10220000090290910A02892B09F086C0809111027F
:10221000811182C08091D80181117EC08091060217
:1022200081117AC080910F02823909F475C08091C2
:10223000E807811171C080913D0281116DC08091CC
:10224000E907811169C0F99967C061E081E00E94E6
:102250007A28811161C065ED83ED0E947A28811191
:102260005BC068E986E90E947A28811155C0002385
:1022700009F452C010920E0210920D0210930F0238
:102280008FEF8093070246E050E067E072E089E15B
:1022900096E00E94BD2F4AE06FE176E0C701895ABF
:1022A00091090E9447300E94F31E32CF153D09F478
:1022B00052C080F4123D11F540E452E067E473E04F
:1022C0008DE692E00E94972B009709F05CC0109277
:1022D00007021ECF183D09F482C01E3F09F4E7C271
:1022E000163D09F0FDCE8091E001882329F0809110
:1022F0001102882309F438C186ED6EC08091C103B4
:1023000081110AC08091090290910A02892B21F45F
:1023100080911102882311F0812F5EC08091E8071F
:102320008111FACF80913D028111F6CF8091E907AA
:102330008111F2CFF999F0CF002371F310920E02C0
:1023400010920D0210930F0281E0143D09F080E01D
:102350000E94A30FDDCE10925905409108026DE650
:1023600072E087E196E00E94D12C8091080290E013
:10237000880F991F0196FC01EA5EF94F2AE120833C
:102380000E94BE1EC5CE9E012F5F3F4FAE014E5F25
:102390005F4FBE016D5F7F4F0E94EE2B9E012F5F4E
:1023A0003F4FAE014E5F5F4FBE016D5F7F4F0E949A
:1023B000112C2B812093F1012A812093F001298196
:1023C0002093EF019093A6038093A50341EA66E072
:1023D00077E00E94AC2A88ED0E94312899CE809146
:1023E000E8078111F8CF80913D028111F4CF8091EF
:1023F000E9078111F0CFF999EECF8BE080937B0351
:102400000E94CB0664CF911187CF8091C1038111C7
:1024100083CF8091090290910A02892B09F07CCF29
:1024200080913F02811178CF80915905811174CF3D
:10243000002309F471CF10920E0210920D02109336
:102440000F0246E050E060E072E089E196E00E9411
:10245000BD2F4AE06FE176E0C7018D5B910921CF86
:102460008091E80781110AC080913D02811106C068
:102470008091E907811102C0F99B02C088E9ACCFC5
:102480008BE080937B030E94BB09882361F08091DD
:102490000101882379F089EF91E00E948E03892B56
:1024A00011F40E94BB0687E90E9431288FEF8093C8
:1024B000F80117CE86E9F8CF80910602811118C085
:1024C0008091C103811114C080910F02811110C04D
:1024D0008091590581110CC08091C10086FD08C012
:1024E00080913302882321F080913402882311F0F7
:1024F00087E972CF10920E0210920D0287E9809345
:102500000F0287EF91E00E94D71E02CE86E90023DA
:1025100009F462CF10920E0210920D0286E98093A8
:102520000F0285EF91E0EFCF80911102882311F027
:1025300085EA52CF8091C10086FDFACF80913302A7
:102540008823B1F3809134028111F2CF80910F0280
:102550008111EECF10920E0210920D0285EA809347
:102560000F028EEE91E0CFCF8091C1038111D0CDCB
:10257000002309F4C1CE10920E0210920D0286EDD6
:1025800080930F0285E180937B0384E68093190694
:1025900068E573E08AE196E00E94403088E593E0C8
:1025A000FC0101900020E9F7CF01895593408F5F2E
:1025B00090E0FC01E75EF94F2BE32083865E994FA4
:1025C000FC0110820E94F31E8CE291E090930A02BB
:1025D000809309029DCD8BE9002309F4FDCE109272
:1025E0000E0210920D028BE980930F0289EE91E0AA
:1025F0008ACF9091C10391118BCD20910902309126
:102600000A02232B09F084CD90913F02911180CDD5
:102610009091590591117CCD81117ACD8091D8018D
:10262000811176CD8DE9002309F4D6CE10920E02E9
:1026300010920D0210930F0282EE91E064CF909100
:10264000C103911114C02091090230910A02232B79
:1026500071F490913F0291110AC090915905911126
:1026600006C0811104C08091D801882319F010920E
:10267000FF014ECD89E9002309F4AECE10920E027F
:1026800010920D0289E980930F0289ED91E03BCF12
:102690009091C103911114C02091090230910A0256
:1026A000232B71F490913F0291110AC0909159052A
:1026B000911106C0811104C08091D801882319F0BE
:1026C0001092FE0125CD8AE9002309F485CE1092EF
:1026D0000E0210920D028AE980930F0282ED91E0C2
:1026E00012CF9091C103911113CD20910902309125
:1026F0000A02232B09F00CCD90913F02911108CDD5
:1027000090915905911104CD811102CD8091D8018C
:102710008111FECC8EE9002309F45ECE10920E02E8
:1027200010920D028EE980930F028BEC91E0EBCEBC
:1027300085E9002309F450CE10920E0210920D028A
:1027400010930F0284EC91E0DECE8FE8002309F4B1
:1027500043CE10920E0210920D0210930F0281EAE6
:1027600080930C028FEA91E0CECE8CE80E94312853
:1027700084E180933F0210925B0510925A051092FB
:102780006A0580B7826080BFF8948091C10080683C
:102790008093C100789400004598BACC8091F901EB
:1027A0008111B6CC80913F02882311F08CE814CEC1
:1027B0008091C10086FDFACF10925B0510925A05F8
:1027C00010926A0580B7826080BFF8948091C10042
:1027D00080688093C10078940000459810920E02A2
:1027E00010920D028CE880930F0284E18093F9012E
:1027F00086EA91E088CE8FEF809333028FE90E94C2
:10280000312888E28093110283CC8EE8002309F4FA
:10281000E3CD10920E0210920D028EE880930F020B
:1028200069E971E089E196E00E94C62F3CCD809174
:102830002002882311F080EACFCD8FEF8093200211
:1028400082E9002309F4C8CD10920E0210920D0205
:1028500010930F0280E991E056CE0E943C0E8091C9
:102860003402813819F084E180930401109234021B
:102870004FCC002309F467CC10920E0210920D0287
:1028800084E980930F0265E871E089E196E00E9497
:10289000C62F80E980930C0206CD809132028823F6
:1028A00009F436CC85E90E94312881E995CD8091E3
:1028B000E80781110AC080913D02811106C0809114
:1028C000E907811102C0F99B02C08EEF85CD00237C
:1028D000E1F310920E0210920D028EEF80930F0220
:1028E00066EC77E089E196E00E944030DCCC809194
:1028F0001102882339F0815080931102811102C0A6
:10290000109210028091DC019091DD01009729F076
:1029100001979093DD018093DC018091EB01909110
:10292000EC01009771F001979093EC018093EB011B
:10293000892B39F480910B02882319F087E90E94D2
:1029400031288091F9018823C1F081508093F901E9
:10295000811113C010920E0210920D0210920F02FC
:102960008CE80E94312810923502F8948091C100C1
:102970008F7B8093C100789400000E94922088236E
:1029800019F08BE80E94312880910402882341F0DD
:10299000815080930402811103C087E90E9431288D
:1029A0008091090290910A02009771F0019790932B
:1029B0000A0280930902892B39F482E00E940D0AF1
:1029C00010920B021092C10380911F028F5F8093BF
:1029D0001F02803309F04EC08BE90E94432880918A
:1029E0003F02882319F0815080933F028091E001DB
:1029F000882309F45EC080910601833611F08111AD
:102A000058C08091000290910102883522E092071F
:102A100050F40196883522E0920709F443C0909360
:102A20000102809300028091FF01863020F48091A2
:102A3000FE01843110F00E944C0A8091DF0188234E
:102A400039F081508093DF01811102C00E944C0A4D
:102A50008091E001811132C08091FC019091FD01D3
:102A600001969093FD018093FC01813B944050F1CD
:102A70000C944C0A843311F48DE9AFCF883311F4F0
:102A80008AE9ABCF8C3311F489E9A7CF803508F4FC
:102A9000A6CF8091E00110921F02882309F49FCFF6
:102AA0008EE99BCF10920102109200020E944C0A04
:102AB000BACF1092010210920002B5CF1092FD0120
:102AC0001092FC01089580913402882309F457C0C4
:102AD0008AE80E9431288091C003882329F085ED7F
:102AE0000E9431281092C0038091E001882309F4EC
:102AF00055C080910602882309F450C080911D02C0
:102B000090911E020196883823E1920708F03CC09C
:102B100090931E0280931D0280910F0290910B02F0
:102B2000882309F4A8C020911C0282136AC0911165
:102B30006AC08C3831F09BE2980F44EF51E092303C
:102B400010F440EE5EE29DE2980F923010F44CEDEE
:102B500055E020911A0230911B022F5F3F4F24173E
:102B6000350708F530931B0220931A0210921902C0
:102B70001092180280910F0280931C0208950E9407
:102B8000E7228111A5CFA7CF10921E0210921D023D
:102B900084E0809334020E94790ABECF10921E0214
:102BA00010921D02B9CF10921B0210921A028D3F93
:102BB00029F1873901F192E7980F9230E0F09CE615
:102BC000980F9230C0F091E6980F9A30A0F096E5F9
:102BD000980F983280F010920C020E94350A1092E1
:102BE0000E0210920D028DEF80930F0210921906C3
:102BF0000E94F31EBBCF80930C02EFCF0E944C0AC1
:102C0000B5CF9923C1F180913402811134C0F89479
:102C100080915A0590915B0578942091180230912B
:102C200019022817390720F490931902809318028B
:102C300080911802909119020A9708F49BCF809115
:102C40001A0290911B020196843F21E0920728F41A
:102C500090931B0280931A028DCF10921B02109248
:102C60001A0281E00E940D0A1092190210921802B5
:102C70000E944C0A7FCF10921B0210921A029923D5
:102C800009F474CF77CFBF92CF92DF92EF92FF9289
:102C90000F931F93CF93DF938091A8079091070222
:102CA00091112BC090910602911127C09091C10300
:102CB000911123C090910B0291111FC090910F02AE
:102CC00091111BC090911102911117C0909159055B
:102CD00021E030E0911102C030E020E0232B69F4C4
:102CE0009091C10096FD09C090913302992329F07B
:102CF00090913402992309F478C0893809F077C09B
:102D000065C08091E807811161C080913D02811109
:102D10005DC08091E907811159C0F99957C08AE2D5
:102D20008093760507E715E085E0D82E93E2C92E5B
:102D30002AE0B22EC0913503CD9D7001112488E0A8
:102D4000E80EF11CC7010E945B338F3F41F14FEF4A
:102D5000B801C7010E944D29E801C80FD11DC882E2
:102D60008E010E5F1F4FB982809135038F5F809374
:102D700035039E012D5E3F4F2651364050F48F3F64
:102D8000C9F61A8283ED0E94312881E08093D80130
:102D900020C08F3FB1F389E80E943128F2CFCF5F86
:102DA000C0933503CF3F31F6E5E006371E0791F0BB
:102DB000F801108283ED0E94312881E08093D801D0
:102DC00009C08091D801882309F49BCF89E80E942B
:102DD0003128CFEF8C2FDF91CF911F910F91FF9072
:102DE000EF90DF90CF90BF900895893851F3C0E005
:102DF000F1CF08950E94C31D0E9497090C946C1E88
:102E0000CF93DF931F92CDB7DEB78091E807811192
:102E100031C080913D0281112DC08091E90781115F
:102E200029C0F99927C0198291E080913E02811151
:102E300001C090E081E04091B2035091B3036091F2
:102E4000B4037091B503452B462B472B09F480E062
:102E5000981711F081E0898385E090E00E945B3350
:102E60009981891739F041E065E070E0CE01019663
:102E70000E94432A0F90DF91CF9108950E94FA1685
:102E80000E94771480917B03882331F081508093D6
:102E90007B0381118FC0409A80912F029091300264
:102EA000009739F001979093300280932F02892B7D
:102EB00011F4109231028091DB018823A9F08091F6
:102EC0001702811111C08091E001882369F080917F
:102ED0001502909116028A3F910508F06DC0019687
:102EE00090931602809315028091DB01811106C038
:102EF0001092170210921602109215028091A807E4
:102F0000882309F4AEC09DE2980F923008F0A2C069
:102F100090912E0298139EC080912C0290912D02C8
:102F20008639910508F074C0019690932D02809324
:102F30002C0280910602882309F4B5C080912602F4
:102F4000909127028C3221E0920708F08DC0019603
:102F500090932702809326028091F701882309F439
:102F6000B8C08091F5019091F6018436910508F082
:102F7000A1C08091F5019091F60101969093F60120
:102F80008093F5018091E601882309F4B5C0909102
:102F9000E5019F5F9093E501963028F01092E501DE
:102FA00081508093E6018091E501823008F4A2C04F
:102FB000409A0895409870CF80910B01803321F59D
:102FC00080910C01803301F580910E018033E1F492
:102FD00080910F018033C1F48091360381508E3F80
:102FE00098F48091060281110FC066E373E08CE4CF
:102FF00092E00E9440306CE870E086E795E00E9425
:10300000C62F83ED0E9431288FEF809317026CCF7B
:1030100064ED83ED0E945728809128029091290247
:103020008F3F980729F001969093290280932802F8
:1030300082E90E94432810923102109230021092CD
:103040002F0210922D0210922C0210922E0210923A
:1030500006026FCF80932E0210922D0210922C0246
:1030600068CF10922E02F8CF1092270210922602FB
:103070000E94470310920602109205021092590511
:103080001092D801809125028F3F19F08F5F8093B5
:10309000250280912502833008F45ECF109225022C
:1030A0000E944C0A59CF10922702109226021092C9
:1030B000250252CF8FEF8093F401F89488E198E0D5
:1030C0000FB6F894A895809360000FBE90936000AF
:1030D000FFCF8091F2019091F301892B09F452CF37
:1030E0008091F2019091F30101979093F301809305
:1030F000F20148CF409808958091E001811102C00B
:1031000040981CC080917B038111FACF8091060109
:103110008031B0F4809114028F5F80931402823367
:1031200018F081E08093140280911402883241F3F8
:103130008B3231F38E52843018F3409A0C9400177E
:1031400010921402F1CF0E94621E0E9463150C942B
:10315000DF29F89480916E008D7F80936E007894C3
:1031600000008091E401811109C0F89480916E0003
:10317000826080936E007894000008951092E401BC
:103180008091E301882329F081E08093E20110928D
:10319000E301F89480916E00826080936E007894D1
:1031A00000008091E20180FF33C0809113028F5FA5
:1031B0008A3079F1809313020000F89400B601FE82
:1031C00026C08091C1008F778093C1007894809150
:1031D0005A0590915B05892B11F180916A058F5FEB
:1031E00080936A058333D8F0459A8091C1008F7728
:1031F0008093C10080B78D7F80BF1092C30310926F
:10320000C20310925805109257051092BF0378948C
:1032100008951092130283E08093E201CDCFF894D9
:103220008091C10080688093C10078940000EFCF46
:10323000A89582E084BD83E085BD8FE387BDEEE67F
:10324000F0E080818260808383B7817F83BF0895AF
:10325000CF93DF9344E050E061E070E08CE793E0CF
:103260000E944B3380917C0381508E3FF0F081E4CB
:103270008093EA0780937C0382E48093EB0780933A
:103280007D0383E48093EC0780937E0384E4809342
:10329000ED0780937F03F999FECF44E050E061E0B1
:1032A00070E08CE793E00E9463338EEF9FE00E9412
:1032B0005B338F3F09F4E5C0809300018FEF9FE0FF
:1032C0000E945B338F3F09F4E7C0809301018AEFCE
:1032D0009FE00E945B3380930A018BEF9FE00E9486
:1032E0005B33809309018CEF9FE00E945B338093F6
:1032F00008018DEF9FE00E945B338093070189EF07
:103300009FE00E945B338F3F09F4D1C08093ED01B1
:1033100085EF9FE00E945B33C82F86EF9FE00E94FD
:103320005B33CF3F09F0C6C08F3F09F0C3C080E2D6
:1033300093E0909303018093020181E09091ED016D
:10334000911101C080E0609102010E94B30380915D
:103350000A018851873E78F0809109018C53833CA3
:1033600050F0809108018851873E28F08091070134
:103370008C53833C28F5F999FECF6FEF8AEF9FE0DD
:103380000E947333F999FECF6FEF8BEF9FE00E949D
:103390007333F999FECF6FEF8CEF9FE00E94733388
:1033A000F999FECF6FEF8DEF9FE00E9473338FEF9F
:1033B00080930A018093090180930801809307019B
:1033C00010923B0287EF9FE00E945B338F3F09F42E
:1033D0007DC08093DA01C0EFDFE0CE010E945B3355
:1033E0008F3F31F4F999FECF60E0CE010E94733334
:1033F0002196C53F8FE0D80781F7C6EEDFE0CE010A
:103400000E945B338F3F31F4F999FECF60E0CE012B
:103410000E9473332196CD3E2FE0D20781F71092A0
:1034200031021092300210922F0210920602809107
:1034300012028F3F19F08F5F80931202F999FECF2D
:10344000609112028CED9FE00E947333F999FECFD8
:1034500062E080E00E94B30341E150E068EC7FE06D
:1034600086E393E00E944B3310924603809136032B
:1034700081508E3F18F48FEF8093DB01DF91CF9165
:10348000089581E080930001F999FECF61E08EEF0D
:103490009FE00E94733312CF81E080930101F9997C
:1034A000FECF61E08FEF9FE00E94733310CF109248
:1034B000ED012ECF982F8C2F909303018093020162
:1034C00001978032934008F032CF37CF1092DA0163
:1034D00082CFCF92DF92EF92FF920F931F93CF9301
:1034E000DF93CDB7DEB7A5970FB6F894DEBF0FBE5A
:1034F000CDBF1091A807143809F4E2C050F4133876
:1035000008F0A7C0133008F05CC01230E1F080E092
:1035100049C0163809F421C208F4A6C1173809F4C5
:1035200075C21838A1F78091E80781110AC080910F
:103530003D02811106C08091E907811102C0F99B0B
:10354000DEC288E80FC08091E80781110AC080912F
:103550003D02811106C08091E907811102C0F99BEB
:1035600004C082E00E9431281CC081E48093EA07F5
:1035700080937C0382E48093EB0780937D0383E454
:103580008093EC0780937E0384E48093ED0780931F
:103590007F0364E081E090E00E946A2A83E38093E5
:1035A0007B038FEFA5960FB6F894DEBF0FBECDBF9D
:1035B000DF91CF911F910F91FF90EF90DF90CF900F
:1035C00008958091E80781110AC080913D02811120
:1035D00006C08091E907811102C0F99B02C0812FCA
:1035E000C1CF0DEF010F40E250E06FEF70E08AEEC7
:1035F00097E00E942330011120C081E48093EB0703
:1036000080937C0382E48093EC0780937D0383E4C2
:103610008093ED0780937E0384E48093EE0780938C
:103620007F031092EF0710923E021092B2031092A5
:10363000B3031092B4031092B50360E220E2029F3C
:10364000C00111240E946A2A81E0810F0E94312862
:10365000A5CF8091E80781110AC080913D028111B8
:1036600006C0F090E907F11002C0F99B02C083E8A0
:1036700079CF10E000E0C8010E945B33F801E75108
:10368000FF4FE4918E1711F0FF24FA940F5F1F4F44
:103690000630110581F708E010E0C8010E945B3395
:1036A0008F3F41F40F5F1F4F083A8FE01807A9F7CB
:1036B000FF2011F083E056CF0E942819409A71CF65
:1036C0008091E80781110AC080913D02811106C0F6
:1036D0008091E907811102C0F99B02C084E842CFC2
:1036E000D0903B02D1105DCF8E010B5E1F4F64E97D
:1036F00073E0C8010E944030F80101900020E9F712
:10370000BF01615071094AEE57E0C8010E949C2830
:1037100080910001813091F038E0E32EF12CB70167
:103720008AEE97E00E94712981115EC0F5E0EF0EEC
:10373000F11C28EAE2162FE0F20689F78091ED01EC
:10374000882329F0DD2009F452C0DD24DA9481E0D9
:103750009091ED01911101C080E061EF7FE00E9446
:103760006E2A81E0D11080E062EF7FE00E946E2A35
:103770008091ED01882359F1D11029C0F801019001
:103780000020E9F73197CF01801B910B182F64EFD0
:103790007FE00E946E2A1330D0F0BE016F5F7F4F32
:1037A00080E893E00E94403080E893E0FC010190C3
:1037B0000020E9F7CF0181589340039740F063EF71
:1037C0007FE081E00E946E2A86E80E943128809185
:1037D0000101882309F4E5CE80910001813009F0D0
:1037E0003FC00E94BB06DDCEDD24DA94A7CFF801EE
:1037F00001900020E9F73197E01BF10BCE01019613
:103800007C01EA3058F1E950FF0BB8016E0F7F1FC1
:103810000E944030F70101900020E9F7BF0161509C
:1038200071094AEE57E0C7010E949C28809100016F
:10383000813009F48CCF28E0E22EF12CB7018AEE1A
:1038400097E00E947129811180CFF5E0EF0EF11C05
:1038500028EAE2162FE0F20689F779CFB801D8CF2F
:10386000DD2009F49ECEBDCF8091E80781110AC00A
:1038700080913D02811106C08091E907811102C04B
:10388000F99B02C085E86ECE88E593E00E944E0366
:10389000811187CE68E573E0FB0101900020E9F714
:1038A000BF01615071094AEE57E088E593E00E943C
:1038B0009C28E0900201F0900301FCE1EF16F3E098
:1038C000FF0620F09BE1E92E93E0F92E08E010E0DE
:1038D000D12CC12CCE14DF0409F463CEC8010E94A0
:1038E0005B3398012B5F3F4F8F3F91F565E0C80137
:1038F0000E946A2A8091ED0108E010E0F12CE12C91
:10390000882309F44ECEC8010E945B338F3F19F023
:103910009FEFE91AF90A0B5F1F4F083AEFE01E0705
:1039200091F78091020190910301E816F90608F4DD
:1039300038CE1092ED0169EF7FE080E00E946E2AA0
:10394000109200016EEF7FE080E00E946E2A29CE87
:103950008FEFC81AD80A8901BDCF8091E80781117D
:103960000AC080913D02811106C08091E907811152
:1039700002C0F99B02C086E8F5CD60E873E0FB0168
:1039800001900020E9F7BF0161507109AE014F5F5E
:103990005F4F80E893E00E949C2880E893E00E94BB
:1039A0004E038111FECD85E0FE013196AAEEB7E00F
:1039B00001900D928A95E1F708E010E0C8010E949D
:1039C0005B338F3FE1F465E0C8010E946A2A809171
:1039D000ED0108E010E0F12CE12C882309F4E1CDA1
:1039E000C8010E945B338F3F19F02FEFE21AF20AF1
:1039F0000B5F1F4F083A8FE0180791F792CF0B5FCC
:103A00001F4F083AFFE01F07C9F6CBCD8091E807AA
:103A100081110AC080913D02811106C08091E907A1
:103A2000811102C0F99B02C087E89CCD68E573E074
:103A3000FB0101900020E9F7BF0161507109AE015F
:103A40004F5F5F4F88E593E00E949C2888E593E0F4
:103A50000E944E03D82E882369F067E473E08CE45B
:103A600092E00E9440306BEC70E086E795E00E94A7
:103A7000C62F36C085E0FE013196AAEEB7E0019070
:103A80000D928A95E1F78AE8E82E8FE0F82E0AE198
:103A900013E0C7010E945B330F5F1F4F8F3F11F58B
:103AA00065E0C7010E946A2ADD24DA9467E473E0C6
:103AB0008CE492E00E944030DD20F1F01F930F93E0
:103AC00088EB91E09F938F9386E795E09F938F9388
:103AD0000E9461300F900F900F900F900F900F90F9
:103AE00083ED40CDF5E0EF0EF11C003223E012072C
:103AF00081F610E000E0DACF61EA70E0B6CF68E569
:103B000073E0FB0101900020E9F7BF0161507109EA
:103B10004AEE57E088E593E00E949C2808E010E018
:103B2000B8018AEE97E00E947129882379F01092FB
:103B300058034AEE57E069E573E088E593E00E9498
:103B40009C2865E0C8010E946A2A2BCD0B5F1F4F9D
:103B5000083AFFE01F0721F724CD0E9420108111B1
:103B600006C00E94691A811102C00E9443160C947B
:103B70006F28E82FF0E0E855FC4F9081907F81E0BE
:103B800009F080E008959091B103892F8D7F809393
:103B9000B1038091A803807F90FD56C081114BC076
:103BA0008091BA039091BB03A091BC03B091BD0377
:103BB0004091B6035091B7036091B8037091B90377
:103BC00084179507A607B70798F40196A11DB11DA4
:103BD0008093BA039093BB03A093BC03B093BD033F
:103BE000481759076A077B0719F481E08093B103EE
:103BF0008091B1039091BE03891781F08093BE0339
:103C0000982F92609093B10380FD53C01092BA0335
:103C10001092BB031092BC031092BD038091A703C6
:103C2000882341F09091B1039D7F9093B10381501F
:103C30008093A70308951092BA031092BB031092C9
:103C4000BC031092BD03D4CF882351F18091AD0302
:103C50009091AE03A091AF03B091B0034091A9033E
:103C60005091AA036091AB037091AC038417950740
:103C7000A607B70708F0BCCF0196A11DB11D809320
:103C8000AD039093AE03A093AF03B093B003481776
:103C900059076A077B0709F0ABCF1092B103A8CF91
:103CA0001092AD031092AE031092AF031092B003C6
:103CB0009FCF1092AD031092AE031092AF031092FB
:103CC000B003ACCF8091A803189B869581601899AA
:103CD000880F8093A80308958091B2039091B30355
:103CE000A091B403B091B50320913E020097A105C5
:103CF000B10591F00197A109B10991F481E0211179
:103D000080E0282F1092B2031092B3031092B403F4
:103D10001092B50380933E02222359F05D9A0895D4
:103D20008093B2039093B303A093B403B093B5030D
:103D3000F3CF5D98089584E190E0A0E0B0E0809337
:103D4000A9039093AA03A093AB03B093AC03809311
:103D5000B6039093B703A093B803B093B903089543
:103D60001092BE031092B2031092B3031092B403E8
:103D70001092B5038EE18093A703089590935605A2
:103D80008093550510925F0510925E05E0ECF0E01F
:103D9000808180648083F894E1ECF0E0808180642D
:103DA0008083789400008FEF809335020895CF933D
:103DB000DF93FC0181E48093170684E58093180665
:103DC000A9E1B6E093E0ED0184918D93811108C0E3
:103DD0008DE08883892F90E0DF91CF910C94BE1EF7
:103DE00031969F5FF0CFE7E1F6E081E4808384E5E0
:103DF000818301900020E9F7CF01885196409927EF
:103E0000FC01E95EF94F2DE0208301960C94BE1E63
:103E100078941F920F920FB60F9211240BB60F9247
:103E20002F933F938F939F93EF93FF9320915E0582
:103E300030915F05809155059091560528173907F7
:103E4000A8F0F8948091C1008F7B8093C100789492
:103E50000000FF91EF919F918F913F912F910F90D3
:103E60000BBE0F900FBE0F901F901895349910C085
:103E700080915E0590915F05FC01E95EF94F20811C
:103E8000019690935F0580935E052093C600E1CF75
:103E90008FEF80933502DDCF8F938FB78F93809113
:103EA000C1008F778093C10078948BB78F938091F6
:103EB000C6000F924F931F9211242F933F93EF93BD
:103EC000FF93AF93BF939F9320915A0530915B0569
:103ED0008F3F09F4E5C0E4ECF3E0A901203991E05B
:103EE000390708F0CAC02115310559F19091C40372
:103EF0008D3009F59D30F9F09A30E9F09091BF03CB
:103F0000911119C091E890933402459AF8949091D8
:103F1000C1009F779093C10090B79D7F90BF789428
:103F200000001092C3031092C20310925805109221
:103F300057051092BF032115310519F090819D306E
:103F4000F9F08A30E9F49091BF03911119C091E81A
:103F500090933402459AF8949091C1009F77909382
:103F6000C10090B79D7F90BF789400001092C3036A
:103F70001092C20310925805109257051092BF0379
:103F80008F01A9014F5F5F4FDF01A20FB31F00B682
:103F900001FE5DC02430310508F459C08A3009F0B3
:103FA00056C0BD0161507109EB0198819D3009F047
:103FB0004EC061507109EB0198819A3009F447C0F5
:103FC00061507109EB0198819D3009F440C0EF0107
:103FD00091819A30E1F590819D30C9F56091570546
:103FE000709158057093C3036093C20350935805B2
:103FF000409357059091BF039F5F9093BF036091DB
:104000006605709167057093690560936805609116
:10401000640570916505709367056093660560910E
:104020006205709163057093650560936405609106
:10403000C2037091C303709363056093620560913E
:1040400057057091580570936105609360059091D4
:104050005905992361F02330310549F4803239F450
:104060009091C6039E3319F49FEF9093C0038C93F5
:104070009A01E40FF51F10820FC030E020E080E8C5
:10408000809334021092C3031092C2031092580519
:10409000109257051092BF0330935B0520935A0589
:1040A00010926A059F91BF91AF91FF91EF913F915F
:1040B0002F911F904F9100B601FE08C0F894809197
:1040C000C10080688093C100789400000F908F91A8
:1040D0008BBF8F918FBF8F91189583E08093C40021
:1040E0001092C500E1ECF0E08081886180838BB1A3
:1040F0008C7F8BB95198449845983D9808954F9B73
:104100000FC01092050110925B0510925A05519A4A
:104110008BB183608BB93D9A459A449A8FEF08958D
:1041200080E00895809105018823B9F191E0980F0E
:1041300090930501913A39F1A8F49F30D9F030F409
:104140009230D1F09330E9F080E0089587528430C6
:10415000D8F70E947F2091E0811101C090E0892F63
:10416000819508959F3FA0F4953F98F7983C49F0BA
:10417000973D51F75698E8CF56980E947F208111BD
:104180000BC0569AE1CF1092330210923202DCCF6C
:1041900081E080930501D8CF8FEF0895FC0142178D
:1041A000130609F040F4DB01AC53BC4F90E0491317
:1041B00004C081E0491380E008952D918491281373
:1041C000F8CF31969F5FF3CF8FB7F8941092C30367
:1041D0001092C20310925805109257058FBF089590
:1041E0002F923F924F925F926F927F928F929F9207
:1041F000AF92BF92CF92DF92EF92FF920F931F93F5
:10420000CF93DF9348E0B42E57E0852E69E0962ED9
:1042100073E0772EE8E06E2EF5E15F2EA2E04A2EE5
:10422000BDE03B2E222423949FB7F8948091BF03D6
:10423000811128C09FBF80917505882301F18150AD
:1042400080937505E82FF0E0E559FA4F808180935F
:104250003402108280913402DF91CF911F910F912F
:10426000FF90EF90DF90CF90BF90AF909F908F9096
:104270007F906F905F904F903F902F900895109295
:104280003402EACF853008F084E0E82FF0E0EE0F4A
:10429000FF1FE05AFA4FC080D180118210828150F6
:1042A000E82FF0E0EE0FFF1FE05AFA4F2081318136
:1042B0008093BF039FBFC216D30698F58091750502
:1042C0008A3010F090927505E901CC19DD09249728
:1042D00086010E5F1F4FC9018C539C4FFC01339721
:1042E000E0803197A080F601EC53FC4FF5804BE461
:1042F000E4121CC0EFE4AE124AC10597FC018081B4
:10430000803209F460C12630310508F45CC1E091C7
:10431000750581E08E0F80937505F0E0E559FA4F41
:104320002082BA94B11080CF80E096CFF7E4FF12DC
:1043300014C09E0146E0B8018BEE93E00E94CE20AF
:10434000882359F0E091750581E08E0F8093750503
:10435000F0E0E559FA4F3082E4CF4FE4A41215C0E3
:104360009E0145E0B80185EE93E00E94CE208823AF
:1043700061F0E091750581E08E0F80937505F0E0A6
:10438000E559FA4F84E08083CCCFE7E4EE1215C004
:104390009E0147E0B8018DED93E00E94CE20882376
:1043A00009F4F9C0E091750581E08E0F80937505E1
:1043B000F0E0E559FA4F4082B4CFF4E4EF12EBC0DD
:1043C0009E014CE0B80180ED93E00E94CE2088234E
:1043D00009F4E1C0E091750581E08E0F80937505C9
:1043E000F0E0E559FA4F8CE0CECF8DE4F81214C01E
:1043F0009E0146E0B80182EC93E00E94CE20882323
:1044000011F1E091750581E08E0F80937505F0E064
:10441000E559FA4F508285CFE4E5FE1214C09E01A3
:1044200046E0B8018BEB93E00E94CE20882359F040
:10443000E091750581E08E0F80937505F0E0E559F8
:10444000FA4F60826ECFF5E4AF1214C09E014AE0CD
:10445000B80180EB93E00E94CE20882359F0E091D0
:10446000750581E08E0F80937505F0E0E559FA4FF0
:10447000708257CF45E4E41214C09E014BE0B801AE
:1044800084EA93E00E94CE20882311F1E091750523
:1044900081E08E0F80937505F0E0E559FA4F908228
:1044A00040CF89E5E81214C09E0144E0B8018FE9CD
:1044B00093E00E94CE20882359F0E091750581E0B9
:1044C0008E0F80937505F0E0E559FA4F808229CF71
:1044D000E5E4FE1223C09E014BE0B80183E993E0BE
:1044E0000E94CE20882309F41CCF4AE050E070E0FF
:1044F00060E0C6018E529C4F0E949C2E7093390240
:1045000060933802E091750581E08E0F8093750508
:10451000F0E0E559FA4F45E0408303CF83E5F81218
:1045200000CF9E014BE0B80187E893E00E94CE20C7
:104530008823C1F04AE050E070E060E0C6018E528E
:104540009C4F0E949C2E7093370260933602E0913C
:10455000750581E08E0F80937505F0E0E559FA4FFF
:1045600086E011CF9E0146E0B80180E893E00E940A
:10457000CE20882309F4D5CEE091750581E08E0F19
:1045800080937505F0E0E559FA4F4EE0C5CF87E41A
:10459000F81609F4CECE49E4F41227CF9E0146E086
:1045A000B80189EC93E00E94CE20882309F44BCF18
:1045B000E091750581E08E0F80937505F0E0E55977
:1045C000FA4F8AE0E0CEE7E4FE12CACEB2CECF9335
:1045D0000E94F0208823D9F080913402843021F0A9
:1045E000833111F0813089F4CFB7F8940E94E42030
:1045F000459AF8948091C1008F778093C10080B76D
:104600008D7F80BF78940000CFBF80913402CF911E
:104610000895FF920F931F93CF93DF938C01F801BE
:10462000C081D181F8808F2D90E00E949F2F892B2F
:10463000F1F480917C03F8121FC0998180917D0371
:1046400098131AC09A8180917E03981315C09B819C
:1046500080917F03981310C02496F801D183C08302
:104660008FEFDF91CF911F910F91FF9008952196C9
:10467000F801D183C083D3CF80E0F3CF44E050E092
:1046800065E174E00E94B02F21E0892B09F020E061
:10469000822F08956F927F928F929F92AF92BF92D6
:1046A000CF92DF92EF92FF920F931F93CF93DF93FE
:1046B0005C01762E642EF50100811181F801808164
:1046C00090E00E949F2F892BB9F5F8E07F9EC001F2
:1046D0001124D12CC12C9C01265E3B4F4901FC01C9
:1046E000E55EFB4F7F017614B8F4F401EC0DFD1D7F
:1046F000E491CE2FD0E0B7016C0D7D1DAE01C80155
:104700000E94B02FF8E0CF0ED11C892BD9F4C00F36
:10471000D11FF501D183C083872DDF91CF911F91E8
:104720000F91FF90EF90DF90CF90BF90AF909F9050
:104730008F907F906F9008950F5F1F4FF501118349
:104740000083B9CF7394CFCFEF92FF920F931F9353
:10475000CF93DF93EC017B01088119814AE050E09F
:10476000BC01C8010E946E2DF701608371838283B2
:10477000938381E0288139812017310709F480E093
:10478000DF91CF911F910F91FF90EF900895DF92ED
:10479000EF92FF920F931F93CF93DF937C01D62E5E
:1047A000F701C081D181088110E0C8010E949F2FCC
:1047B000892BA1F48D2D90E00E94A82F08171907CE
:1047C00091F42196F701D183C0838FEFDF91CF91D0
:1047D0001F910F91FF90EF90DF9008952196F701C0
:1047E000D183C083DDCF80E0F1CFDF92EF92FF92E3
:1047F0000F931F93CF93DF938C01D62EF801C081C6
:10480000D181FE0181917F0190E00E949F2F892B31
:1048100099F48D2D90E00E94A82F982F9E012F5F74
:104820003F4F8881882361F0E9019813F7CFF801A1
:10483000318320838FEF06C0F801F182E082DECF62
:104840009923A9F3DF91CF911F910F91FF90EF90E2
:10485000DF900895CF92DF92EF92FF920F931F9314
:10486000CF93DF938C01D62EF72EE42EF801C08172
:10487000D181888190E00E949F2F892B81F4CD2DDA
:10488000DF2D6E01E11010C0F6011082DF91CF9193
:104890001F910F91FF90EF90DF90CF900895219698
:1048A000D801CD93DC93E2CFD801ED91FC91F0805B
:1048B0008F2D90E00E949F2F892B31F7F992EA9477
:1048C000FF2011F3D8018D919C91119701968D9342
:1048D0009C93D7CF8F929F92AF92BF92CF92DF924D
:1048E000EF92FF920F931F93CF93DF93CDB7DEB775
:1048F00064970FB6F894DEBF0FBECDBF6C015B01AD
:10490000042FF601E080F180D7018C9190E00E94A5
:104910009F2F892B09F043C010E04701F7018191D7
:104920007F01882341F0143130F48032B1F30E94CA
:1049300089288D30D9F5812F193008F489E0895004
:10494000E12F1A3008F0E9E0A50130E020E0015045
:10495000110B90E02E1718F420173107C4F1EA0D5F
:10496000FB2DF11D1082F5018081882329F0D601ED
:104970008C9211969C928FEF64960FB6F894DEBFDE
:104980000FBECDBFDF91CF911F910F91FF90EF90A0
:10499000DF90CF90BF90AF909F908F9008956FEF72
:1049A000E61AF60AD601ED92FC92ABCFF7013197E9
:1049B000808190ED980F9A3008F0AFCFE1E0F0E001
:1049C000EC0FFD1FE10FF11D80831F5FA6CFDC01FF
:1049D000A20FB31F61E070E06C0F7D1FA60FB71F21
:1049E0006C91DA016D93AD012F5F3F4FB3CFEF9222
:1049F000FF920F931F93CF93DF93CDB7DEB76F97DF
:104A00000FB6F894DEBF0FBECDBF9F8F8E8F7C0197
:104A100082E3F701AAEEB7E001900D928A95E1F7E3
:104A2000CE014E960E9409232E8D9F8D811108C0C4
:104A3000822F0E943E23882309F471C08BE06FC04F
:104A4000022F192FF80181918F01811121C042E1BC
:104A500060E0CE014E960E944A23823108F0DAC20D
:104A6000E82FF0E0EA5CFA4D0C94512D53259C257B
:104A7000A9251E250C288525B525DD250A280A2807
:104A8000FF2589264427BB27BD27C227C827D4274F
:104A900090E00E94A82FF80131978083D3CF0F5F59
:104AA0001F4F1F8F0E8F0E8D1F8DF801808190E09C
:104AB0000E949F2F892B99F7C8018E199F09FC012D
:104AC000E651F84F34E021914FEB420F4A3128F084
:104AD00020532A3010F082E022C03150A1F78651D5
:104AE000984FFC01408151816281738140937C0326
:104AF00050937D0360937E0370937F0344E061E0F5
:104B000070E00E94432A83E00AC04EE068E573E04B
:104B1000CE014E960E946A24811180C286E06F9673
:104B20000FB6F894DEBF0FBECDBFDF91CF911F91BE
:104B30000F91FF90EF9008954EE068E573E0CE018D
:104B40004E960E946A24882331F285E80E9431281B
:104B5000DACF4EE068E573E0CE014E960E946A24FB
:104B6000882309F4B8CF88E8F1CF4AE068E0CE01A5
:104B70004E960E944A23883071F481E080930001B0
:104B80006EEF7FE00E946E2A8FEF809301016FEF3E
:104B90007FE081E00FC0893009F061C281E080933D
:104BA00000016EEF7FE00E946E2A109201016FEF0C
:104BB0007FE080E00E946E2AA6CF4AE068E0CE0146
:104BC0004E960E944A23109200016EEF7FE08830DB
:104BD00011F480E0D7CF893011F480E0E4CF80E099
:104BE0000E946E2A8091ED01882309F48CCF69EF31
:104BF0007FE080E00E946E2A1092ED0184CFBE011A
:104C00006A5E7F4FCE014E960E94A423882331F125
:104C10006AE3CE014E960E94C7238823F9F0BE01B5
:104C20006E5E7F4FCE014E960E94A4238823B1F082
:104C30006AE3CE014E960E94C723882379F0BE0115
:104C40006F5F7F4FCE014E960E94A42321E030E09B
:104C5000811102C030E020E0232BE9F48FEF809334
:104C6000EE016EE074E086E795E00E94C62F86E7CD
:104C700095E0FC0101900020E9F7CF016BE071E0C5
:104C800001970E94403067E473E08CE492E00E9458
:104C9000403083ED5BCF8E899F89A88DB98D883197
:104CA0009105A105B10508F016CF4A895B896C8989
:104CB0007D894C3351056105710508F00CCF0981E0
:104CC0001A812B813C810C3311052105310508F037
:104CD00002CF1F930F935F934F939F938F9380E423
:104CE00091E09F938F9386EC97E09F938F930E9420
:104CF00061308EEF0E9431288FEF8093EE010FB666
:104D0000F894DEBF0FBECDBFFECE0F5F1F4F1F8FCB
:104D10000E8F0E8D1F8DF801808190E00E949F2FD5
:104D2000892B99F743E050E06AE074E0C8010E94E3
:104D3000CD2F892B01F56AEF7FE08FEF0E946E2A5D
:104D40006BEF7FE08FEF0E946E2A6CEF7FE08FEFBA
:104D50000E946E2A6DEF7FE08FEF0E946E2A8FEF28
:104D600080930A01809309018093080180930701D1
:104D700010923B02C8CEBE01665E7F4FCE014E96BA
:104D80000E94A423882309F4A6CE6AE3CE014E969E
:104D90000E94C723882309F49ECEBE016A5E7F4F1E
:104DA000CE014E960E94A423882309F494CE63E298
:104DB000CE014E960E94F523BE016E5E7F4FCE015E
:104DC0004E960E94A423882309F485CE6AE3CE017F
:104DD0004E960E94C723882309F47DCEBE016F5FE3
:104DE0007F4FCE014E960E94A423882309F473CEF0
:104DF0008A8D9B8DAC8DBD8D88319105A105B10546
:104E000008F069CE4E895F89688D798D4C335105E4
:104E10006105710508F05FCE4A895B896C897D89DF
:104E2000483151056105710508F055CE49815A8117
:104E30006B817C814C3351056105710508F04BCEC7
:104E40006AEF7FE00E946E2A6BEF7FE08E890E94FE
:104E50006E2A6CEF7FE08A890E946E2A6DEF7FE0F8
:104E600089810E946E2A8A8D80930A018E8980939F
:104E700009018A898093080189818093070143CEC3
:104E80000F5F1F4F1F8F0E8F0E8D1F8DF8018081BA
:104E900090E00E949F2F892B99F742E050E067E055
:104EA00074E0C8010E94CD2F892B09F047C00E5F26
:104EB0001F4F1F8F0E8F80E293E0A0E0B0E0898348
:104EC0009A83AB83BC83EE8CFF8CF7011081812F1A
:104ED00090E00E949F2F892BA1F410531A30B8F054
:104EE00008E010E0C8010E945B33F82E2FEF821714
:104EF00009F496C00B5F1F4F083A8FE0180791F72F
:104F0000EACDFFEFEF1AFF0AFF8EEE8EDCCFBE0177
:104F10006F5F7F4FCE014E960E94A423882309F431
:104F2000DACD89819A81AB81BC810197A109B10950
:104F300080329340A105B10598F2CDCD43E050E019
:104F400063E074E0C8010E94CD2F892B09F0C3CD26
:104F500069EF7FE080E00E946E2A1092ED0188EFF9
:104F60009FE00E945B338F3F09F4CDCD8093000119
:104F70006EEF7FE01FCE88E0D2CD1092DA0167EFAE
:104F80007FE017CE8FEF8093DA0167EF7FE001CEED
:104F90004EE068E573E0CE014E960E946A248823B5
:104FA00009F499CD87E8D2CD41E18E010F5F1F4F03
:104FB000B801CE014E960E946A24882309F48BCD55
:104FC000F80101900020E9F73197E01BF10B8DEF1C
:104FD0008E0F873008F07FCD41E04E0F68EC7FE008
:104FE000C8010E94432AB80186E393E00E94403042
:104FF00067E473E08CE492E00E94403062EF73E07B
:1050000086E795E00E94C62FB80186E795E00E94EA
:105010002A303FCE81E083CD84E081CD85E07FCD15
:105020008EEF9FE00E945B3368EF7FE00E946E2A64
:1050300065EF7FE089810E946E2A66EF7FE08A81BA
:105040000E946E2A89819A819093030180930201C4
:1050500069EF7FE081E00E946E2AF092ED0181E02D
:1050600085CFE8EAF7E030E020E09191911105C0AA
:105070002855384FF901808308952F5F3F4F2E3117
:10508000310599F70895E8EAF7E030E020E09191E2
:10509000981761F0911105C02855384FF9018083A8
:1050A00008952F5F3F4F2E31310589F7089590E025
:1050B000E92FF0E0E855F84F2081281770F06217CB
:1050C00060F0292F2D3128F01092C5079E3181F70D
:1050D0000895318131932F5FF5CF9F5FF7CFE8EAD5
:1050E000F7E08181819387E0E53CF807D1F71092E2
:1050F000C5070895E8EAF7E09191981710F069174D
:1051000030F497E0E63CF907B9F780E008958FEFB7
:1051100008958B3279F030F4833251F08A3231F0D5
:105120008DE0089580538A30D8F708958BE0089574
:105130008CE008958AE0F9CFAF92BF92CF92DF92D0
:10514000FF920F931F93CF93DF93182FEB016A0108
:1051500045E050E06FEF70E0C6010E9423308C2FD5
:10516000811B182F219700E0823058F4DF91CF91F6
:105170001F910F91FF90DF90CF90BF90AF90089557
:10518000092F88810E948928F82EF29480EFF82256
:10519000FE0182915F010E9489288F29113061F4FC
:1051A000E5018F6010E091E0900FF601E00FF11D36
:1051B00080831111E5CFDACF22971250F4CFE82F78
:1051C000F0E0E655FB4F84910895CF93DF939C0167
:1051D000EB011882BC0180E0DB016F5F7F4F9C9187
:1051E0009F3F19F0853009F052C0A217B30709F4A8
:1051F00052C0642F70E090E0880F991F11976817D4
:10520000790744F4DB011197B7FDDB01B595A7954C
:10521000A20FB31FEC918E2F8F708F3009F039C021
:10522000E295EF70F0E0E655FB4F84918883882388
:1052300019F02196119781E0A217B30720F1EC91A4
:10524000EF70F0E0E655FB4FE491E883BE01EE23FA
:1052500019F06F5F7F4F8F5FEB018417A1F02196EC
:10526000EC91E295EF70F0E0E655FB4F9491FB0175
:1052700090838F5F481739F01197BD016F5F7F4FA3
:1052800026173707C9F61882DF91CF9108958F5FEF
:10529000A3CF80E0D1CF80E0F7CFFF920F931F9391
:1052A000CF93DF9300D000D01F92CDB7DEB78B0134
:1052B000F42E45E050E0BC01CE0101960E944B3334
:1052C0004F2DB801CE0101960E94E5280F900F9056
:1052D0000F900F900F90DF91CF911F910F91FF9042
:1052E00008950F931F93CF93DF93EC018B01888177
:1052F0008F3F21F1CB010E945B338F3FF9F0C80152
:105300000E945B33382F307F9991292F207F303FC7
:1053100079F0203F69F0321311C08F709F708F3089
:1053200039F09F3029F0891309C00F5F1F4FE7CF75
:105330008FEFDF91CF911F910F91089580E0F9CF0A
:105340000F931F93CF93DF9300D000D01F92CDB760
:10535000DEB78B01FC0101900020E9F73197BF0116
:10536000681B790B680F792F711DAE014F5F5F4F7E
:105370000E949C28B801CE0101960E9471290F90CD
:105380000F900F900F900F90DF91CF911F910F9181
:1053900008958093E6079093E70710923C0260938C
:1053A0003D0292BD81BDF89A90B58091EA079817A9
:1053B00029F080BDF894FA9AF99A78940895F999A9
:1053C00035C08091E807811108C080913D028111AC
:1053D00004C08091E907882349F180913C02F89A42
:1053E00020B5E82FF0E0E651F84F9081291301C075
:1053F0008F5F90913D028917D0F4282F30E04091C3
:10540000E6075091E707420F531F52BD41BDF89A7E
:1054100040B52651384FF9019081491729F090BDC8
:10542000F894FA9AF99A789480933C0208959091AE
:10543000E8071092E80790933D029923F9F0EAEE0D
:10544000F7E080E020A521938F5F9813FBCF809138
:105450001C0890911D088093E6079093E70792BD82
:1054600081BDF89A90B58091EA07981729F080BD20
:10547000F894FA9AF99A789480E0D6CF9FE092BD9A
:105480009FEF91BDD1CF1F93CF93DF934423F1F0D2
:10549000C42F172FD62FBC0150E08AEE97E00E9450
:1054A0001A30D093E6071093E70710923C02C0939E
:1054B0003D0212BDD1BDF89A90B58091EA079817C8
:1054C00029F080BDF894FA9AF99A7894DF91CF91F7
:1054D0001F91089561110C94C92908951F93CF93CA
:1054E000DF93182FEB01CB010E945B33811749F04A
:1054F0001093EA0761E0CE01DF91CF911F910C94E8
:10550000C929DF91CF911F9108950F931F93CF93D6
:10551000DF9300D000D0CDB7DEB78C0119821A829C
:105520001B821C820E945B338983C80101960E9402
:105530005B338A83C80102960E945B338B83698147
:105540007A818B819C810F900F900F900F90DF914B
:10555000CF911F910F910895CF92DF92EF92FF921A
:105560000F931F93CF93DF93DC011196FC01F08022
:10557000F41618F0FF24FA94F40EEB0140E0E12C4D
:10558000E0E050E887E090E04F110DC0640F711D1E
:10559000FB011082DF91CF911F910F91FF90EF904F
:1055A000DF90CF9008952E2D30E00C9110E0C52EA5
:1055B000D12CC094D0940C211D2102C0000F111FCA
:1055C000EA94E2F7E00FF12FF11DE553FA4FE49171
:1055D000E9934F5FF42FF770EF2E79F0EC91E5230C
:1055E000F0E08C01021B130B02C0F595E7950A95BC
:1055F000E2F7569550581196C7CFE0E050E8C4CF77
:10560000CF92DF92EF92FF920F931F93CF93DF938E
:105610008C01CA01861B970BE8018993815090E0A9
:1056200020E04FE750E037E0EE24EA94F12CDE0171
:10563000281748F1F80180818770D9F0FB01E20F4B
:10564000F11DE081F0E0E553FB4F24914FE750E07E
:10565000092E02C0440F551F0A94E2F7E22FF0E032
:10566000E423F52302C0F695E7959A95E2F7E883DF
:105670001196CD01DF91CF911F910F91FF90EF9087
:10568000DF90CF9008956B01C20ED11CD601EC9132
:10569000F0E0E553FB4FE491DA01092E02C0AA0FB6
:1056A000BB1F0A94E2F7F0E0AE23BF23092E02C02D
:1056B000B695A7950A94E2F7F601B181EB2FF0E0D9
:1056C000E553FB4FE491B32FB91B67010B2E02C0CA
:1056D000D694C7940A94E2F7EC2101C0EE0FBA9574
:1056E000EAF7EA2BE9939F5F973011F42F5F90E080
:1056F0002F5F9DCFFC01DA0170E0CD01841B950B7B
:105700008617970708F0089590819A3360F49053B4
:10571000292F2295207F91819A3338F49053920F4C
:105720009D933296EACF9753F3CF9753F8CF1F93B9
:10573000CF93DF93DC01EA018C91873C50F0DB01D1
:105740001C928FEF888390E080E0DF91CF911F91D2
:10575000089518828C9190E00196A80FB91F8C9142
:105760008B7F11F08FEF888311962C911197213147
:1057700030F7FD01339612968C91982F9F7E31E081
:10578000913809F030E0813929F48BE2DB018C9308
:105790006F5F7F4FAB0110E00EC08081992311F045
:1057A000829531968F70805D311101C080E3DA01FE
:1057B0008D93AD011F5F912F91701213EECFDB011E
:1057C000A10FB11D1C92911101C0319782818823D4
:1057D00011F08FEF8883CF010396B7CFFC01908142
:1057E000A92FAF708AE092959F70A89F900D112409
:1057F000DB019C939181692F6F7092959F70689FD8
:10580000900D1124DA019C939281492F4F7092954B
:105810009F70489F900D1124D9019C93CF0103964E
:105820000895FC019081A92FAF708AE092959F7036
:10583000A89F900D1124DB019C939181692F6F70BB
:1058400092959F70689F900D1124DA019C9392812C
:10585000492F4F7092959F70489F900D1124D90148
:105860009C93CF0104960895CF93DF93DC01FB0155
:1058700080818B3299F4319681E9EF010990002003
:10588000E9F79E01215031092E1B3F0B211108C061
:10589000CD0101961C92DF91CF91089581E8EDCF63
:1058A0002C93AD014E5F5F4F11968C93C9019927E0
:1058B000019695958795682F742FDA012A2F271B5B
:1058C000261718F0840F951FE6CF208120533181D1
:1058D000332331F032963295307F232B2D93EECF48
:1058E0003196206FFBCFCF93DF93EC01DB018C91DE
:1058F000811106C0CE0101961882DF91CF910895E3
:105900008B3209F5119681E9FD0101900020E9F73C
:1059100031979F012A1B3B0B33272F5F3F4F359554
:105920002795622F91E0920F9883AE014E5F5F4FF3
:105930008983742FFA018E2F871B861730F0CA01D6
:10594000820F931FDACF81E8DFCF8C9180531196BD
:105950009C911197992331F012969295907F892B03
:105960008193E9CF1196806FFBCFEF92FF920F9357
:10597000CF937B01C22FBA010E94732C21E1FC015D
:1059800020831182B70102960E94342CFC01C0834F
:1059900001832AEA22830396CF910F91FF90EF9023
:1059A0000895CF93DF931F92CDB7DEB79C01562F9A
:1059B000DB018A2F851B841720F00F90DF91CF9198
:1059C00008959D91892F807F898382958983E981BC
:1059D000F0E0E654FB4F8491F90180839F70E92F3A
:1059E000F0E0E654FB4F8491F90181832E5F3F4F35
:1059F000E0CF88E19BE00FB6F894A8958093600013
:105A00000FBE909360000E9493030E9493030E9434
:105A100093030E94930381E087B988B980E28AB931
:105A20000E9428190E946D200E9418197894809174
:105A3000E20180FD0E9418198091E20181FD0E941F
:105A40003E178091E20180FF06C00E94A3180E94C9
:105A5000AD1D1092E201F8948091E401811109C01A
:105A600083B7816083BF78948895F89483B78E7FDD
:105A700083BF78940E94A918DACF97FB072E16F4FB
:105A8000009407D077FD09D00E945A2D07FC05D05D
:105A90003EF4909581959F4F0895709561957F4F45
:105AA0000895EE0FFF1F0024001C0BBE0790F69117
:105AB000E02D0994AA1BBB1B51E107C0AA1FBB1F05
:105AC000A617B70710F0A61BB70B881F991F5A958A
:105AD000A9F780959095BC01CD0108953F924F9212
