:100000000C9400030C941F030C941F030C941F0307
:100010000C941F030C941F030C941F030C941F03D8
:100020000C941F030C941F030C941F030C941F03C8
:100030000C941F030C941F030C941F030C941F03B8
:100040000C94EE030C941F030C941F030C941F03D9
:100050000C94751E0C941F030C94311E0C941F03FA
:100060000C941F030C941F030C941F030C941F0388
:100070000C941F030C941F030C941F030C941F0378
:100080000C941F030C941F030C941F034272616BAA
:1000900020776F6C6E79636820706F7A79636A6914
:1000A0002053757065722055736572202837393575
:1000B0002D38303029004E756D6572206A757A20B2
:1000C0006973746E69656A652077207379737465E6
:1000D0006D696500FF41424344000000A2A3A4A64D
:1000E000A7A8A9942B6370696E3F00000000000070
:1000F00000002B636E6D693D322C312C322C3100A7
:100100002B6D6F72696E673D3100000000002B633C
:100110006C69703D31000000000000002B646465D4
:10012000743D312C31302C3100002B63616C6D3DFE
:1001300031000000000000002B6372736C3D310041
:100140000000000000002B637573643D3100000067
:10015000000000002B637062773D32362C22312282
:1001600000002B636C74733D300000000000000041
:100170002B636D69633D302C3135002B636D6764F3
:10018000613D36002B6370696E3D2231393736226E
:10019000002B6966633D322C32002B63706D733D1A
:1001A00022534D222C22534D222C22534D22002B20
:1001B0006364736362002B63636C6B3F002B636F3C
:1001C00070733F002B637062723D3236002B637296
:1001D00065673F002B637371002B7674733D3100AC
:1001E000610068002B434D54493A002B636D6764EE
:1001F0003D002B636D67723D002B636D67733D009F
:100200002B434D54493A002B44544D463A002B435E
:100210004C49503A003E002B434D47523A002B4385
:100220004F50533A002B435245473A002B4353510A
:100230003A002B4350494E3A205245414459002B35
:1002400043434C4B3A00313D52435620323D4253DA
:100250005920333D434E5420343D51534D20353DBC
:1002600051414C20363D464E4420373D41444400E8
:100270002055373D002055363D002055353D005571
:10028000343D002055333D002055323D0055313D71
:1002900000534B525942413A0044454255470A00E7
:1002A0007777772E736F6E66792E706C0048617267
:1002B0006D6F6E6F6772616D3A2057796C61637A0A
:1002C0006F6E79002044544D460020434C49500045
:1002D000547279623A205075626C69637A6E790063
:1002E000547279623A205072797761746E79005352
:1002F00074617475733A20416B7479776E79005329
:1003000074617475733A205A61626C6F6B6F7761B8
:100310006E7900557A79746B6F776E696379200016
:10032000557A79746B6F776E6963792000537967BA
:100330006E616C2047534D2000437A61733A200070
:1003400041433830302D44544D2D5453002B4355E8
:1003500053443A002B434D53204552524F523A00DA
:100360002B434D45204552524F523A004255535966
:10037000004E4F204449414C544F4E45004E4F20B3
:1003800043415252494552002B434D54493A002BA8
:1003900044544D463A002B434C49503A004D4F20AF
:1003A000434F4E4E4543544544004D4F2052494E15
:1003B00047004552524F52002B434D47533A004F8E
:1003C0004646004F4E004F46460054696D653A2040
:1003D00000433344340004434F44450000000341CC
:1003E0004444000000000344454C00000000045851
:1003F000585858000000065245504F5254000455BA
:10040000534552000000044F50454E000000054384
:100410004C4F5345000004434C4950000000044435
:10042000544D46000000035345540000000004549E
:10043000494D4500000006534B52594241000544C6
:10044000454255470000055354415254000004539F
:10045000544F5000000005535550455200003031B4
:1004600032333435363738392B2A232121003031C5
:100470003233343536373839414243444546003FFC
:100480003F3F3F3F3F3F3F3F3F0A3F3F0D3F3F3FE3
:100490003F3F3F3F3F3F3F3F3F3F3F3F3F3F3F208B
:1004A0002122230225262728292A2B2C2D2E2F30E6
:1004B0003132333435363738393A3B3C3D3E3F00F4
:1004C0004142434445464748494A4B4C4D4E4F50A4
:1004D0005152535455565758595A3F3F3F3F113F79
:1004E0006162636465666768696A6B6C6D6E6F7084
:1004F0007172737475767778797A3F3F3F3F3F3FEB
:100500003F3F3F3F3F3F3F3F3F3F3F3F3F3F3F3FFB
:100510003F3F3F3F3F3F3F3F3F3F3F3F3F3F3F3FEB
:10052000403F0124033F5F3F3F3F3F3F3F3F3F3F4F
:100530003F3F3F3F3F3F3F3F3F3F3F3F3F3F603FAA
:100540003F3F3F5B0E1C093F1F3F3F3F3F3F3F3F49
:100550005D3F3F3F3F5C3F0B3F3F3F5E3F3F1E7F66
:100560003F3F3F7B0F1D3F04053F3F073F3F3F3F5E
:100570007D083F3F3F7C3F0C063F3F7E3F3F3F4073
:10058000A324A5E8E9F9ECF2C70AD8F80DC5E53FC0
:100590005F3F3F3F3F3F3F3F3F3F3FC6E6DFC92012
:1005A000212223A425262728292A2B2C2D2E2F3043
:1005B0003132333435363738393A3B3C3D3E3FA152
:1005C0004142434445464748494A4B4C4D4E4F50A3
:1005D0005152535455565758595AC4D6D1DCA7BF17
:1005E0006162636465666768696A6B6C6D6E6F7083
:1005F0007172737475767778797AE4F6F1FCE000BD
:1006000011241FBECFEFD0E4DEBFCDBF11E0A0E0CC
:10061000B1E0EAE0F5E600E00BBF02C007900D9202
:10062000A03EB107D9F728E0A0EEB1E001C01D92CD
:10063000A331B207E1F70E94AB2B0C9483320C94E8
:1006400000001092FE011092FD011092FC0108952D
:10065000CF93DF93FC0101900020E9F7BF016150C7
:1006600071094DED57E00E944E27C8E0D0E0BE0171
:100670008DED97E00E942328811108C02596C83A85
:10068000FFE0DF07A1F7DF91CF9108958FEFFBCF58
:100690008091160296E5980F8C5E943108F082E9FD
:1006A0000C94F52680912E0290912F028F3F98078F
:1006B00029F0019690932F0280932E028AE0809376
:1006C000ED011092EC010E94210382E90C94F526C1
:1006D000BC0187EB93E00C94A52E8FEF9FE8019768
:1006E000F1F700C000008FEF9FE80197F1F700C01D
:1006F00000008FEF9FE80197F1F700C000008FEF37
:100700009FE80197F1F700C000008FEF9FE8019785
:10071000F1F700C00000A8950895CF93DF93CDB7FF
:10072000DEB728970FB6F894DEBF0FBECDBF90910D
:10073000DB0791112BC090914102911127C090913C
:10074000DC07911123C0F99921C02091350229833A
:1007500030913302209134023A832B8320910D0291
:100760002C83EBE9F7E02191235D223008F49F5FB1
:1007700027E0E93BF207B9F79D838E836F8347E05B
:1007800062ED7FE0CE0101960E94F52828960FB613
:10079000F894DEBF0FBECDBFDF91CF910895809159
:1007A00028028F5F843618F48093280208951092EF
:1007B00028028091270291E0811190E09093270216
:1007C000811102C040980895409A089580919B033A
:1007D000807F11F4409A08954098089578941F926C
:1007E0000F920FB60F9211240BB60F922F938F9387
:1007F0009F93EF93FF938091E8018F5F8093E801CF
:10080000823128F01092E8018FEF8093EA014F9B2C
:1008100059C000B601FC16C080913802811112C087
:1008200010924E0510924D0510925D0580B78260C2
:1008300080BFF8948091C10080688093C100789453
:100840000000459834992FC0F8948091C10086FF2C
:1008500029C08091C1008F7B8093C10078948091E2
:1008600039028823C9F080913702811104C0809138
:1008700016028C3889F410923902809151059091BA
:100880005205FC01E65FF94F2081019690935205D5
:10089000809351052093C600F8948091C100806434
:1008A0008093C10078948FEF8093EB01FF91EF91DB
:1008B0009F918F912F910F900BBE0F900FBE0F90B5
:1008C0001F901895459AF8948091C1008F7380937A
:1008D000C10080B78D7F80BF78940000E4CFDF92A5
:1008E000EF92FF920F931F93CF93DF938C01DC0164
:1008F000ED90FC904CE050E060E473E0C7010E9492
:100900006F2EE7012D968AE0D82EF701D48669E391
:1009100073E0CE010E94782E09900020E9F721971C
:100920006BE071E0CE010E94DC2E09900020E9F717
:100930002197DE01DD92CD014BE050E06DE273E0E6
:100940000E946F2E80910601803230F59091E70170
:10095000992311F12C96B4E68B9FC00111246FE10D
:1009600070E00E94EF2BCB014AE0BE010E94F92EFD
:1009700009900020E9F72197FE01319685E28883EE
:100980001082D801ED93FC93DF91CF911F910F91CD
:10099000FF90EF90DF9008958DE28C878D87FE01A8
:1009A0003F968E87EDCFAF92BF92CF92DF92EF92BC
:1009B000FF920F931F93CF93DF938C01FC01C081B3
:1009C000D1814CE050E060E273E0CE010E946F2ED6
:1009D0002C9688E0C82ED12CF12CE12CB12CA12C26
:1009E000C6010E940D328F3F99F1FFEFAF1ABF0A87
:1009F000E5E0CE0ED11CF8EACF16FFE0DF0681F766
:100A00004AE0BE01C5010E94F92E09900020E9F7D5
:100A100021976E018FEFC81AD80A8FE288834AE0C7
:100A2000B601C7010E94F92EF60101900020E9F7F6
:100A3000CF010197F80191838083DF91CF911F91BE
:100A40000F91FF90EF90DF90CF90BF90AF900895FF
:100A50008FEFE81AF80ACCCFCF92DF92EF92FF9295
:100A60000F931F93CF93DF938C01FC01C081D18141
:100A70004CE050E063E173E0CE010E946F2E2C96B3
:100A800088E0E82EF12CD12CC12CC7010E940D3238
:100A90008F3F89F1C394F5E0EF0EF11C88EAE81668
:100AA0008FE0F80691F74AE0BE018C2D90E00E949D
:100AB000F92E09900020E9F721977E01EFEFEE1A59
:100AC000FE0A8FE288834AE0B7018D2D90E00E94F4
:100AD000F92EF70101900020E9F7CF010197F80105
:100AE00091838083DF91CF911F910F91FF90EF90C1
:100AF000DF90CF900895D394CECF1F93CF93DF9301
:100B000000D0CDB7DEB78AE2809369058BE695E029
:100B10009A8389831AE010936A05CE0101960E9498
:100B20006F04E981FA81CF0101969A83898310834A
:100B3000CE0101960E94D304E981FA81CF0101968A
:100B40009A83898310832091E20189819A816FEFD2
:100B500072E0211102C06FEE72E00E94782EE981EE
:100B6000FA8101900020E9F7DF011197FA83E98308
:100B70008AE08C932091000189819A8160EE72E075
:100B8000222311F060ED72E00E94782E89819A8113
:100B9000FC0101900020E9F7CF0101979A83898336
:100BA000209101016AEC72E0211102C064EC72E054
:100BB0000E94782EE981FA8101900020E9F7DF0197
:100BC0001197FA83E9838AE08C9380910A018F3F21
:100BD000E9F46DEA72E089819A810E94782EE981B8
:100BE000FA8101900020E9F7DF011197FA83E98388
:100BF0008AE08C9360EA72E089819A810E94782E63
:100C00000F900F90DF91CF911F9108959091070160
:100C10001F929F93909108011F929F9390910901B9
:100C20001F929F931F928F9387E191E09F938F93E1
:100C30008A818F9389818F930E94132F0FB6F89426
:100C4000DEBF0FBECDBFCBCF0F931F93CF93DF93EC
:100C500000D000D01F92CDB7DEB7FC01019000207C
:100C6000E9F7BF0161507109AE014F5F5F4F0E940C
:100C70004E270AE81FE0B801CE0101960E94232802
:100C8000811110C00B5F1F4F083AFFE01F0799F753
:100C90000F900F900F900F900F90DF91CF911F91B9
:100CA0000F9108958FEFF4CF8FEF8093420284E18C
:100CB00090E0A0E0B0E08093A5039093A603A093FA
:100CC000A703B093A8030895CF92DF92FF920F93EA
:100CD0001F93CF93DF93CDB7DEB72A970FB6F89463
:100CE000DEBF0FBECDBF109299078FEF8093FE013C
:100CF0001092FD011092FC0189EF96E00E94E02322
:100D0000182F8091F501811160C08091F6011F922A
:100D10008F938091F7011F928F938091F8011F921A
:100D20008F9388E391E09F938F938BE091E09F9363
:100D30008F930E94132F8091F6011F928F938091C1
:100D4000F7011F928F938091F8011F928F9387E490
:100D500091E09F938F9389EB97E09F938F930E94ED
:100D6000132F8EEF0E94E32620910A010FB6F8940C
:100D7000DEBF0FBECDBF2F3F09F45AC03091F8013E
:100D80006CE38091F70190E0369F800D911D112456
:100D90004091090150E0269F400D511D1124709192
:100DA00008012091070130E0769F200D311D1124AC
:100DB000241735077CF18417950754F141E0281773
:100DC00039070CF040E040933F021092F50180910A
:100DD000E201882381F18DEF810F823060F187EF8E
:100DE0009FE00E940D32813031F562E00E948D0358
:100DF0000E9448032A960FB6F894DEBF0FBECDBFFF
:100E0000DF91CF911F910F91FF90DF90CF900895C8
:100E100041E0D9CF841795074CF441E028173907F2
:100E20000CF040E0842F80933F02CFCF80E0FBCFD7
:100E300010923F02CACF8CEF810F823078F48091FC
:100E40003502883058F061E081E00E948D030E94F5
:100E500048030E9452030E942103CCCF80910D02CF
:100E60008111F1CFEBE9F7E020E090E08191882358
:100E700029F02F5F835D823008F49F5F87E0E93BB4
:100E8000F807A1F72332F8F69630E8F61C3018F789
:100E9000E12FF0E0E25BF84F0C94032C5A072B078C
:100EA0002B07940864079A08FE08090982072B0794
:100EB0002B07130981E08093ED011092EC0163E0B0
:100EC00080E00E948D03C7CF809135028F5F8093B1
:100ED00035028CE291E090933402809333026AE30E
:100EE00073E080E592E00E94F22E0E947D0583ED82
:100EF0000E94E32682E08093ED011092EC0160E015
:100F000081E0DFCF69E972E089E695E00E94782E02
:100F100009E615E0F80101900020E9F78F01015082
:100F2000110961E972E0C8010E94782EF801019070
:100F30000020E9F7CF0101976C0181EF9FE00E944B
:100F40000D32805DF601808382EF9FE00E940D32BA
:100F5000805DF601818383EF9FE00E940D32805D0A
:100F6000F601828384EF9FE00E940D32805DF601DE
:100F7000838386010B5F1F4F9AE0F92EF4826DE8A0
:100F800072E0C8010E94782EF80101900020E9F774
:100F90008F010150110986EE9FE00E940D324AE058
:100FA000B80190E00E94F92EF80101900020E9F7C5
:100FB0008F010150110968E872E0C8010E94782E83
:100FC000F80101900020E9F78F010150110987EE27
:100FD0009FE00E940D324AE0B80190E00E94F92E95
:100FE000F80101900020E9F78F010150110963E831
:100FF00072E0C8010E94782EF80101900020E9F704
:101000008F010150110988EE9FE00E940D324AE0E5
:10101000B80190E00E94F92EF80101900020E9F754
:1010200031978F010F5F1F4FF0826FE772E0C801A9
:101030000E94782EF80101900020E9F78F010150FD
:10104000110989EE9FE00E940D324AE0B80190E05C
:101050000E94F92EF80101900020E9F78F0101505C
:1010600011096AE772E0C8010E94782EF801019028
:101070000020E9F78F01015011098AEE9FE00E94DC
:101080000D324AE0B80190E00E94F92EF80101907B
:101090000020E9F78F010150110965E772E0C801EE
:1010A0000E94782EF80101900020E9F78F0101508D
:1010B00011098BEE9FE00E940D324AE0B80190E0EA
:1010C0000E94F92EF80101900020E9F78F010150EC
:1010D000110960E772E0C8010E94782EF8010190C2
:1010E0000020E9F78F01015011098CEE9FE00E946A
:1010F0000D324AE0B80190E00E94F92EF80101900B
:101100000020E9F7CF010197FC01F192CF0166E4DD
:1011100072E00E94782E6AE373E080E592E00E941C
:10112000F22E83ED0E94E32682E08093ED0110927F
:10113000EC0191CE809135028F5F809335028CE275
:1011400091E090933402809333026AE373E080E588
:1011500092E00E94F22E6BE473E0FB01019000200C
:10116000E9F7BF0161507109AE014F5F5F4F8BE43A
:1011700093E00E944E2788E0C82ED12CB601CE0104
:1011800001960E942328182F811136C0F5E0CF0E5A
:10119000D11C88EAC8168FE0D80681F76BE473E0AB
:1011A00089E695E00E94F22E6AE671E089E695E014
:1011B0000E94DC2E6DE671E0111102C060E771E063
:1011C00089E695E00E94DC2E83ED0E94E32682E012
:1011D0008093ED011092EC018091DB07811109C031
:1011E00080914102811105C08091DC07811101C00D
:1011F0008FB3612F82E065CE1FEFD0CF6AE373E03B
:1012000080E592E00E94F22E6FE871E089E695E0B9
:1012100086CF6AE373E080E592E00E94F22E10929E
:10122000390389E87FCF63E882E00E942C2781118F
:1012300012CE89E18093ED011092EC0183E00E94CF
:10124000E32609CE809126029091A40390FF06C068
:10125000883C88F48F5F809326020895883C60F074
:1012600063E882E00E942C27811103C083E00E9482
:10127000E3261092260208958233D8F363E882E0D1
:101280000E942C278111F5CF82E0F1CFCF93DF931D
:1012900087E893E00E9424069091E201992331F0BF
:1012A000811104C080E0DF91CF91089590913F02B9
:1012B000992311F08823B1F3809187039091010164
:1012C000911129C0882319F084E80E94E3268091B7
:1012D0000001813011F48FEFE6CF67E873E0FB0186
:1012E00001900020E9F7BF01615071094DED57E011
:1012F00087E893E00E944E27C8E0D0E0BE018DED64
:1013000097E00E9423288111E6CF2596C83AFFE096
:10131000DF07A1F7C7CF882319F084E80E94E326EE
:1013200081E090910001913009F080E08195BBCF80
:101330008CE3809318021092110210921002109206
:101340000A0210920B021092FF0108958CE3809321
:1013500018021092E00108951092B4031092110245
:10136000109210021092150210921402109216029E
:1013700010924C058CE38093180210920D02089590
:101380000E94AC09109215021092140210921602DB
:101390001092680510926C0310924C051092B303E2
:1013A000109212021092E00110920E0208950E9413
:1013B000C00986E980930501109237021092360227
:1013C0001092060210920502109245021092040239
:1013D000109203021092FF011092130283E6809391
:1013E000060161ED8EEB0E9409276EE98AE80E94F2
:1013F000092768EA8FE90E94092765ED83ED0E94BD
:1014000009271092E7010895809138028D3051F438
:1014100010920C021092E00110920D0286E480936B
:101420001802089580913802863059F520910C02F7
:101430002F5F20930C0280913A0290913B028530FD
:1014400032E0930761F08A3331E0930741F0833053
:1014500032E0930721F080519240029770F48CE3C0
:101460008093180280910D02223080F110920C02BC
:101470001092E00110920D0208958CE380931802FF
:10148000F5CF80913802843021F58CE380931802E7
:1014900010924C058091B9038E3331F480914D0543
:1014A00090914E050A9720F080910D02811107C09E
:1014B00010920C021092E0010E94D709DBCF9091AC
:1014C0000C029F5F90930C02923080F60E94E326FC
:1014D000D1CF809138028530B9F480913C0290914F
:1014E0003D028A30910539F09C012D7F2D30310568
:1014F00011F04E9769F410920C028CE3809318025D
:101500001092E0010C94D709809138028091380242
:1015100008950F931F93CF93DF93D0913802C0911A
:101520001602CE3909F4B5C008F070C0C53909F407
:1015300077C238F5CF3809F416C388F4CC3809F4EB
:10154000A2C0CE3809F475C110921502109214028F
:1015500010921602DF91CF911F910F910895C23919
:1015600009F48BC1C43981F7D13009F403C38091E8
:101570006D038F5F80936D03833008F0FBC28C2F67
:10158000CBC1C93909F4EDC188F4C63909F450C298
:10159000C739D1F687E9D13009F034C181E00E9422
:1015A0009809109212021092B403CECFCB3909F4ED
:1015B000B7C108F4EAC1CD3939F6D13029F685E250
:1015C00092E00E946803FC01892B09F4BDCF2781BA
:1015D0002C3209F0BCC1379680818C3209F03196EB
:1015E00080818C3209F031964AE050E070E060E092
:1015F000CF0101960E94202C662329F08DEF860FE3
:10160000823008F0A6C10E94D7099ECFCA3AC8F41A
:10161000C63A08F0A9CFC13A09F4A6CF58F4CF3999
:1016200009F4D2C0C03A09F08FCFD13009F044C1DB
:101630008FE8E8C0C23A09F453C1C43A09F494CF20
:1016400083CFC23D90F4CE3B08F422C2D63009F0DD
:1016500060C280913A0290913B028134914009F43A
:101660005BC28C2F0E94E3265CC2C63D09F45BC2BC
:10167000CD3F09F069CF85E192E00E946803892B94
:1016800009F472CFC0CF8DE80E94E32610920002C9
:101690005BCFD13009F058CF8FE392E00E9468030E
:1016A000009709F451CF62E270E00E94E72E0097A4
:1016B00009F44ACFEC01219662E270E0CE010E946B
:1016C000E72E8C016CE270E0CE010E94E72E01153E
:1016D000110509F439CF009709F436CFEC012196B2
:1016E000C017D10708F030CF6AE370E0CE010E9446
:1016F000E72E009709F428CF8017910708F024CF30
:10170000FE0101900020E9F73197EC1BFD0B3897A3
:1017100008F41ACF88E0FE01ABE0B1E001900D9231
:101720008A95E1F71092130170910A017F3F19F435
:1017300010923F0209CF20910B012053330BEAE0B6
:10174000E29FC001E39F900D112420910C012053D2
:10175000330B820F931F6CE3689FA001699F500DAC
:10176000112420910E012053330BE29FC001E39F0F
:10177000900D112420910F012053330B820F931FE2
:10178000480F591F2091090130E0769F200D311D2F
:101790001124709108018091070190E0769F800DDF
:1017A000911D1124821793075CF04217530724F010
:1017B000841795070CF0BCCF8FEF80933F02C4CE07
:1017C00042175307ACF3B4CFD13099F482E392E0DF
:1017D0000E946803892B59F08FEF80933602109294
:1017E0003E0282E90E94E32610922502ADCE8EE8E9
:1017F000F9CFD53051F480913C0290913D020E9783
:1018000031F48FE90E94E3269FCED43021F08091FD
:1018100038028038B1F7809125028F5F80932502CE
:10182000843118F00E94D709DFCF84E18093180239
:10183000E8CFD13061F48FEF8093360210923E02F0
:1018400082E90E94E32682E3809318027DCED530A0
:1018500079F480913C0290913D028031910521F410
:101860008FEF80933E0270CE0E9721F48EE8CACFA0
:10187000D430E1F380913802F9CFD13011F480EA0D
:10188000C1CFD63089F480913A0290913B028A33DD
:1018900021E0920721F08530924009F055CE8CE38B
:1018A0008093180282E9AECFD430E1F38091380200
:1018B000803809F049CEF6CFD63081F480913A02D3
:1018C00090913B028A3321E0920721F085309240CB
:1018D00009F03ACE84E180931802D1CF8AE0FBCFA1
:1018E000D13049F0D53081F480913C0290913D0295
:1018F0000397029748F4809113020E94E326109206
:10190000130210926D030AC080916D038F5F809364
:101910006D03833018F482EA0E94E32682E094CFBC
:10192000D13089F48CE292E00E946803009709F4B8
:101930000BCE4AE050E070E060E006960E94202C5A
:101940006093060101CE83E680930601FDCD3896B3
:1019500043CE6B7F613009F0F7CD8FEF8093E701C5
:10196000F3CDD13049F0D53051F480913C029091C3
:101970003D024597029718F410920602E5CD80913A
:1019800006028F5F80930602DFCDD13009F042C09E
:1019900046E050E06EE172E089EB93E00E94972E02
:1019A000892BC1F58EE192E00E9468036CE270E041
:1019B0000E94E72E009771F16CE270E00E94E72E22
:1019C000009741F162E270E00E94E72E009711F16A
:1019D0008C010F5F1F4F62E270E0C8010E94E72E8A
:1019E0000097C1F008171907A9F0801B910B8C30E4
:1019F000910514F08BE090E0EC01DD27AE01B80119
:101A000085E492E00E94CC2ECB5BDD4F18821092D1
:101A100005029ACD809105028F5F8093050294CDD7
:101A2000D63009F47BCF85E9D13009F075CF76CF78
:101A3000D13021F0809138028C30A1F48FEF809367
:101A4000120210926D038091010181117DCD8CE213
:101A500091E09093F3018093F20184E18093180266
:101A600085EAD0CED43021F080913802803849F414
:101A700080916D038F5F80936D03833010F486E94E
:101A8000C1CED33011F41092120210926D035CCDCE
:101A9000D130A9F587E192E00E9468036AE070E026
:101AA0000E94E72E009741F1EC0121966DE070E075
:101AB000CE010E94E72E0097F9F08C1B9D0B97FD3D
:101AC000019695958795893CA8F480930F0241E78C
:101AD00052E060910F02CE010E942C2A82ED0E94FA
:101AE000E326809116028C5E0E94E3268FEF80939E
:101AF0000E022ACD88ECE9CF10920E0225CDD63009
:101B000021F010920E028CE39FCE8C2F0E94E326D0
:101B1000F8CFD43009F4A5CD80913802803809F48B
:101B2000A0CD89E191CED43029F08091380280385F
:101B300009F0ABCF1092B40380916D038F5F809357
:101B40006D03833010F486ED5DCE10926D0380E05E
:101B50000E949809109212021092B403109211027E
:101B600010921002F1CCD13029F08FE80E94E326C8
:101B700084E16ACE809113020E94E32680911302D1
:101B80008A5A843108F0BBCE10920E02B8CE0F9361
:101B90001F93CF93DF938091380280913802803871
:101BA00021F080911702882381F080E88093380229
:101BB0000E94890A82E3809318028FEF80931702B4
:101BC000DF91CF911F910F91089580913802813854
:101BD00029F5209148053091490580914D05909156
:101BE0004E052817390761F4409148055091490581
:101BF0006AE076E087EB93E00E94BF2E892B01F329
:101C000080914C058111DCCF80E8809338028FEF02
:101C10008093170282E380931802D2CF809138021A
:101C20008A3009F042C08EE092E00E94680362E2CE
:101C300070E00E94E72E009739F18C010F5F1F4F73
:101C400062E270E0C8010E94E72E0097E9F0EC0123
:101C5000C01BD10BC031C0F4DD27AE01B80187E84D
:101C600093E00E94CC2EC957DC4F18828091050268
:101C700081111092050280910601882311F08336AC
:101C800019F480E18093060188E90E94F52680918D
:101C900016028A5A843110F410920E021092150224
:101CA00010921402109216028BCF8091380283306A
:101CB00089F480E00E949809109212021092B403F5
:101CC000109211021092100280911602863D09F0C6
:101CD00077CFE4CF809138028230D1F48091160220
:101CE000863D11F40E94890A80910A0281110BC07D
:101CF0008AE580930B028FEF8093B4031092110258
:101D0000109210025DCF80930B0210920A02F3CF63
:101D100087E092E00E946803009701F1FC0137968A
:101D200081918032E9F390910101911114C08133C6
:101D300091F48FEF8093420284E190E0A0E0B0E064
:101D40008093A5039093A603A093A703B093A80341
:101D50008BE080936E031092380232CF809138026C
:101D60008C3071F480910101882309F429CF1092FD
:101D7000120287E9DF91CF911F910F910C94E32616
:101D800080913802893061F480911602863D11F409
:101D90000E94890A80E00E9498091092B403AECF95
:101DA00080913802873081F380913802883029F59C
:101DB00080E092E00E9468036CE270E00E94E72EEF
:101DC0000097A1F04AE050E070E060E001960E94C8
:101DD0004E2D9B01215031092431310538F489EA17
:101DE000860F0E94E32681E08093180280911602FC
:101DF0008A5A843108F450CFE3CE809138028E3075
:101E000011F484E1F1CF80910D0281110E94040A46
:101E100080914D0590914E05892B09F4D1CE80918A
:101E20003802882309F4CCCEDF91CF911F910F9116
:101E30000C94890A811105C0862F0E94E32680E058
:101E400008951092150210921402609316024093A6
:101E50001302C9010E94001E8FEF08950F93CF93C4
:101E6000DF939FEF90934C051092B303811149C00B
:101E700085E08093ED011092EC0183ED80930D02DB
:101E8000909371024AE06DED77E081E792E00E9465
:101E9000972700E020E04DED57E060E572E081E734
:101EA00092E00E94672B49E655E0FA01019000207C
:101EB000E9F7AF014150510969E675E00E94B22986
:101EC0008157924080930F02C0910F02C1508091C0
:101ED0007102C81B46E050E069EF71E08CE096E0CB
:101EE0000E946F2E4AE062E176E08C2F90E00E9423
:101EF000F92E8AEF80930401DF91CF910F910C941A
:101F00001C1E85E08093ED011092EC0184ED80931E
:101F10000D0200916905909371024AE06DED77E042
:101F200081E792E00E94972720E04DED57E060E5C1
:101F300072E081E792E00E94672BEC0140916A0514
:101F400050E06BE675E00E94CC2E80916A058C0F04
:101F50009D2F911DB5CFEF92FF920F931F93CF93BB
:101F6000DF9300D01F92CDB7DEB790910E02911192
:101F70004DC080910D02811149C08091B40381113F
:101F800045C080911202811141C0809116028111D9
:101F90003DC080911802811139C020914C0581E02B
:101FA000211101C080E0811132C02091C10026FDC5
:101FB0002EC020913702222351F12091380201E0F6
:101FC000211125C010919B07E12EF12C1D3909F438
:101FD0009BC208F072C0123909F4B4C330F51D3841
:101FE00009F494C3B0F41B3809F44AC308F061C380
:101FF0001A3809F4BDC380E00F900F900F90DF9165
:10200000CF911F910F91FF90EF90089581E000E034
:10201000D9CF1F3809F424C308F482C3103909F456
:10202000C7C3113941F78FEFE7CF173909F4CFC193
:10203000B8F4153909F407C308F0F3C11439D9F617
:102040008091DB0781110AC080914102811106C095
:102050008091DC07811102C0F99B96C384E947C1D6
:10206000193909F477C208F486C11A3909F49BC2F8
:102070001B3909F69091B403911115C020911002FB
:1020800030911102232B79F49091430291110BC0EE
:1020900090914C05911107C0811105C08091E0011C
:1020A000882309F423C280910601833611F081113F
:1020B000BACF80E180930601B6CF123D08F081C00F
:1020C0001E3B08F02BC1153A09F4B9C1B0F41E3912
:1020D00009F492C221E6210FE22FF0E0E652FF4F11
:1020E00045915491FEE02F9F900111242C513F4FB8
:1020F000612F802F0E941A0F96CF1A3A58F3911130
:1021000096C08091E701882309F491C08091B403BF
:1021100081118DC08091100290911102892B09F0DC
:1021200086C080911802811182C08091E0018111E6
:102130007EC080910D0281117AC080911602823991
:1021400009F475C08091DB07811171C08091410253
:1021500081116DC08091DC07811169C0F99967C058
:1021600061E081E00E942C27811161C065ED83ED63
:102170000E942C2781115BC068E986E90E942C2708
:10218000811155C0002309F452C01092150210921B
:102190001402109316028FEF80930E0246E050E077
:1021A00062EF71E08CE096E00E946F2E4AE062E1FF
:1021B00076E0C701895A91090E94F92E0E941C1EDF
:1021C00032CF153D09F452C080F4123D11F544E4BC
:1021D00052E06AE373E081E792E00E94492A0097A7
:1021E00009F05CC010920E021ECF183D09F482C0A7
:1021F0001E3F09F4E7C2163D09F0FDCE8091E701CC
:10220000882329F080911802882309F438C186EDCB
:102210006EC08091B40381110AC080911002909128
:102220001102892B21F480911802882311F0812F4B
:102230005EC08091DB078111FACF8091410281114C
:10224000F6CF8091DC078111F2CFF999F0CF00230E
:1022500071F310921502109214021093160281E08D
:10226000143D09F080E00E942E0FDDCE10924C0547
:1022700040910F0261E772E08AE096E00E94832BB2
:1022800080910F0290E0880F991F0196FC01E75F93
:10229000F94F2AE120830E94E71DC5CE9E012F5FE2
:1022A0003F4FAE014E5F5F4FBE016D5F7F4F0E949B
:1022B000A02A9E012F5F3F4FAE014E5F5F4FBE01D0
:1022C0006D5F7F4F0E94C32A2B812093F8012A81E2
:1022D0002093F70129812093F6019093990380932D
:1022E000980341EA69EF76E00E945E2988ED0E943A
:1022F000E32699CE8091DB078111F8CF80914102CE
:102300008111F4CF8091DC078111F0CFF999EECFE4
:102310008BE080936E030E94640664CF911187CF97
:102320008091B403811183CF8091100290911102AA
:10233000892B09F07CCF80914302811178CF809165
:102340004C05811174CF002309F471CF109215024E
:10235000109214021093160246E050E06BEE71E00A
:102360008CE096E00E946F2E4AE062E176E0C701C1
:102370008D5B910921CF8091DB0781110AC080918B
:102380004102811106C08091DC07811102C0F99BD6
:1023900002C088E9ACCF8BE080936E030E944609AF
:1023A000882361F080910101882379F084EE91E027
:1023B0000E946803892B11F40E94540687E90E9449
:1023C000E3268FEF8093FF0117CE86E9F8CF809147
:1023D0000D02811118C08091B403811114C0809145
:1023E0001602811110C080914C0581110CC08091A2
:1023F000C10086FD08C080913702882321F08091BA
:102400003802882311F087E972CF109215021092DA
:10241000140287E98093160282EE91E00E94001E6A
:1024200002CE86E9002309F462CF109215021092C1
:10243000140286E98093160280EE91E0EFCF80913E
:102440001802882311F085EA52CF8091C10086FDE1
:10245000FACF809137028823B1F38091380281113D
:10246000F2CF809116028111EECF109215021092D8
:10247000140285EA8093160289ED91E0CFCF809116
:10248000B4038111D0CD002309F4C1CE10921502FE
:102490001092140286ED8093160285E180936E03FC
:1024A00084E680930C066BE473E08DE096E00E9476
:1024B000F22E8BE493E0FC0101900020E9F7CF01BC
:1024C0008C5493408F5F90E0FC01E45FF94F2BE365
:1024D0002083835F994FFC0110820E941C1E8CE2B6
:1024E00091E090931102809310029DCD8BE900231F
:1024F00009F4FDCE10921502109214028BE980931C
:10250000160284ED91E08ACF9091B40391118BCDA6
:102510002091100230911102232B09F084CD90916B
:102520004302911180CD90914C0591117CCD811188
:102530007ACD8091E001811176CD8DE9002309F4F7
:10254000D6CE1092150210921402109316028DEC42
:1025500091E064CF9091B403911114C020911002C6
:1025600030911102232B71F49091430291110AC012
:1025700090914C05911106C0811104C08091E00139
:10258000882319F0109206024ECD89E9002309F440
:10259000AECE109215021092140289E980931602B1
:1025A00084EC91E03BCF9091B403911114C0209141
:1025B000100230911102232B71F49091430291117A
:1025C0000AC090914C05911106C0811104C0809100
:1025D000E001882319F01092050225CD8AE9002335
:1025E00009F485CE10921502109214028AE98093A4
:1025F00016028DEB91E012CF9091B403911113CD9F
:102600002091100230911102232B09F00CCD9091F2
:102610004302911108CD90914C05911104CD811187
:1026200002CD8091E0018111FECC8EE9002309F4F6
:102630005ECE10921502109214028EE9809316025B
:1026400086EB91E0EBCE85E9002309F450CE1092A1
:10265000150210921402109316028FEA91E0DECE5A
:102660008FE8002309F443CE109215021092140251
:102670001093160281EA809313028AE991E0CECE8C
:102680008CE80E94E32684E18093430210924E0579
:1026900010924D0510925D0580B7826080BFF8945E
:1026A0008091C10080688093C100789400004598B3
:1026B000BACC809100028111B6CC8091430288236C
:1026C00011F08CE814CE8091C10086FDFACF1092F3
:1026D0004E0510924D0510925D0580B7826080BF57
:1026E000F8948091C10080688093C10078940000C4
:1026F000459810921502109214028CE880931602ED
:1027000084E18093000281E991E088CE8FEF80938D
:1027100037028FE90E94E32688E28093180283CC77
:102720008EE8002309F4E3CD1092150210921402F2
:102730008EE88093160264E871E08CE096E00E94D7
:10274000782E3CCD80912402882311F080EACFCDF1
:102750008FEF8093240282E9002309F4C8CD109200
:10276000150210921402109316028BE791E056CED8
:102770000E94C70D80913802813819F084E180935E
:102780000401109238024FCC002309F467CC109258
:1027900015021092140284E98093160260E771E03A
:1027A0008CE096E00E94782E80E98093130206CD9B
:1027B00080913602882309F436CC85E90E94E3260D
:1027C00081E995CD8091DB0781110AC0809141029A
:1027D000811106C08091DC07811102C0F99B02C003
:1027E0008EEF85CD0023E1F31092150210921402B2
:1027F0008EEF8093160269EB77E08CE096E00E9402
:10280000F22EDCCC80911802882339F0815080931D
:102810001802811102C0109217028091E301909179
:10282000E401009729F001979093E4018093E3017C
:102830008091F2019091F301009771F001979093CC
:10284000F3018093F201892B39F4809112028823DD
:1028500019F087E90E94E326809100028823C1F0E5
:10286000815080930002811113C0109215021092C2
:102870001402109216028CE80E94E326109239028C
:10288000F8948091C1008F7B8093C1007894000000
:102890000E94BB1F882319F08BE80E94E3268091D9
:1028A0000B02882341F0815080930B02811103C0F9
:1028B00087E90E94E326809110029091110200970F
:1028C00071F001979093110280931002892B39F4D3
:1028D00082E00E949809109212021092B403809133
:1028E00023028F5F80932302803309F04EC08BE96F
:1028F0000E94F52680914302882319F0815080932D
:1029000043028091E701882309F45EC080910601AB
:10291000833611F0811158C080910702909108020E
:10292000883522E0920750F40196883522E092071C
:1029300009F443C090930802809307028091060235
:10294000863020F480910502843110F00E94D7096E
:102950008091E601882339F081508093E60181114E
:1029600002C00E94D7098091E701811132C0809195
:102970000302909104020196909304028093030253
:10298000813B944050F10C94D709843311F48DE9C4
:10299000AFCF883311F48AE9ABCF8C3311F489E9D6
:1029A000A7CF803508F4A6CF8091E70110922302CB
:1029B000882309F49FCF8EE99BCF109208021092D2
:1029C00007020E94D709BACF10920802109207029C
:1029D000B5CF10920402109203020895809138023C
:1029E000882309F457C08AE80E94E3268091B30344
:1029F000882329F085ED0E94E3261092B30380918D
:102A0000E701882309F455C080910D02882309F459
:102A100050C080912102909122020196883823E1D2
:102A2000920708F03CC0909322028093210280918B
:102A3000160290911202882309F4A8C02091200266
:102A400082136AC091116AC08C3831F09BE2980FF2
:102A500044EF51E0923010F440EE5EE29DE2980FB8
:102A6000923010F44CED55E020911E0230911F027F
:102A70002F5F3F4F2417350708F530931F0220932F
:102A80001E0210921D0210921C0280911602809369
:102A9000200208950E9410228111A5CFA7CF109285
:102AA00022021092210284E0809338020E94040ADC
:102AB000BECF1092220210922102B9CF10921F02B3
:102AC00010921E028D3F29F1873901F192E7980F8C
:102AD0009230E0F09CE6980F9230C0F091E6980FAB
:102AE0009A30A0F096E5980F983280F01092130279
:102AF0000E94C00910921502109214028DEF80936B
:102B0000160210920C060E941C1EBBCF809313026B
:102B1000EFCF0E94D709B5CF9923C1F18091380238
:102B2000811134C0F89480914D0590914E057894B0
:102B300020911C0230911D022817390720F4909330
:102B40001D0280931C0280911C0290911D020A9725
:102B500008F49BCF80911E0290911F020196843F42
:102B600021E0920728F490931F0280931E028DCFDC
:102B700010921F0210921E0281E00E94980910928A
:102B80001D0210921C020E94D7097FCF10921F02D3
:102B900010921E02992309F474CF77CFBF92CF927F
:102BA000DF92EF92FF920F931F93CF93DF93809169
:102BB0009B0790910E0291112BC090910D029111E3
:102BC00027C09091B403911123C0909112029111EA
:102BD0001FC09091160291111BC090911802911183
:102BE00017C090914C0521E030E0911102C030E017
:102BF00020E0232B69F49091C10096FD09C09091CB
:102C00003702992329F090913802992309F478C06A
:102C1000893809F077C065C08091DB07811161C0F8
:102C20008091410281115DC08091DC07811159C002
:102C3000F99957C08AE2809369050AE615E085E0B4
:102C4000D82E93E2C92E2AE0B22EC0913903CD9D31
:102C50007001112488E0E80EF11CC7010E940D32BA
:102C60008F3F41F14FEFB801C7010E94FF27E801F4
:102C7000C80FD11DC8828E010E5F1F4FB98280918F
:102C800039038F5F809339039E012D5E3F4F29509A
:102C9000364050F48F3FC9F61A8283ED0E94E32636
:102CA00081E08093E00120C08F3FB1F389E80E946A
:102CB000E326F2CFCF5FC0933903CF3F31F6E5E093
:102CC00009361E0791F0F801108283ED0E94E32679
:102CD00081E08093E00109C08091E001882309F43C
:102CE0009BCF89E80E94E326CFEF8C2FDF91CF9115
:102CF0001F910F91FF90EF90DF90CF90BF900895BC
:102D0000893851F3C0E0F1CF08950E94EC1C0E9475
:102D100022090C94951DCF93DF931F92CDB7DEB798
:102D20008091DB07811131C08091410281112DC05A
:102D30008091DC07811129C0F99927C0198291E09F
:102D400080914202811101C090E081E04091A50391
:102D50005091A6036091A7037091A803452B462BC1
:102D6000472B09F480E0981711F081E0898385E012
:102D700090E00E940D329981891739F041E065E0B9
:102D800070E0CE0101960E94F5280F90DF91CF915F
:102D900008950E9485160E94021480916E03882374
:102DA00031F0815080936E0381116CC0409A809104
:102DB000330290913402009739F0019790933402D6
:102DC00080933302892B11F41092350280919B0776
:102DD000882309F482C09DE2980F923008F076C0F3
:102DE00090913202981372C080913002909131021A
:102DF0008639910508F048C001969093310280937E
:102E0000300280910D02882309F489C080912A0242
:102E100090912B028C3221E0920708F061C001965C
:102E200090932B0280932A028091FE01882309F45B
:102E30008CC08091FC019091FD018436910508F0D1
:102E400075C08091FC019091FD0101969093FD0168
:102E50008093FC018091ED01882309F489C0909151
:102E6000EC019F5F9093EC01963028F01092EC01FA
:102E700081508093ED018091EC01823008F476C09E
:102E8000409A0895409893CF64ED83ED0E940927FE
:102E900080912C0290912D028F3F980729F0019686
:102EA00090932D0280932C0282E90E94F5261092C5
:102EB00035021092340210923302109231021092B5
:102EC00030021092320210920D029BCF8093320298
:102ED000109231021092300294CF10923202F8CF49
:102EE00010922B0210922A020E94210310920D02CE
:102EF00010920C0210924C051092E0018091290270
:102F00008F3F19F08F5F80932902809129028330CF
:102F100008F48ACF109229020E94D70985CF109217
:102F20002B0210922A02109229027ECF8FEF8093FB
:102F3000FB01F89488E198E00FB6F894A895809387
:102F400060000FBE90936000FFCF8091F9019091D7
:102F5000FA01892B09F47ECF8091F9019091FA0151
:102F600001979093FA018093F90174CF40980895E6
:102F70008091E701811102C040981CC080916E03CE
:102F80008111FACF809106018031B0F480911B024B
:102F90008F5F80931B02823318F081E080931B02C5
:102FA00080911B02883241F38B3231F38E52843090
:102FB00018F3409A0C948B1610921B02F1CF0E94CA
:102FC0008B1D0E94EE140C949128F89480916E0051
:102FD0008D7F80936E00789400008091EB018111C9
:102FE00009C0F89480916E00826080936E0078949E
:102FF000000008951092EB018091EA01882329F0E6
:1030000081E08093E9011092EA01F89480916E00CA
:10301000826080936E00789400008091E90180FFC7
:1030200033C080911A028F5F8A3079F180931A023F
:103030000000F89400B601FE26C08091C1008F7791
:103040008093C100789480914D0590914E05892B15
:1030500011F180915D058F5F80935D058333D8F01A
:10306000459A8091C1008F778093C10080B78D7F92
:1030700080BF1092B6031092B50310924B051092C8
:103080004A051092B2037894089510921A0283E0D0
:103090008093E901CDCFF8948091C100806880933E
:1030A000C10078940000EFCFA89582E084BD83E052
:1030B00085BD8FE387BDEEE6F0E08081826080838E
:1030C00083B7817F83BF0895CF93DF9344E050E0BF
:1030D00061E070E08FE693E00E94FD3180916F0324
:1030E00081508E3FF0F081E48093DD0780936F0381
:1030F00082E48093DE078093700383E48093DF078C
:103100008093710384E48093E00780937203F999BC
:10311000FECF44E050E061E070E08FE693E00E9473
:1031200015328EEF9FE00E940D328F3F09F4D2C01E
:10313000809300018FEF9FE00E940D328F3F09F4D2
:10314000D4C0809301018AEF9FE00E940D328093EA
:103150000A018BEF9FE00E940D32809309018CEFF2
:103160009FE00E940D32809308018DEF9FE00E9446
:103170000D328093070189EF9FE00E940D328F3F4F
:1031800009F4BEC08093F40185EF9FE00E940D32E8
:10319000C82F86EF9FE00E940D32CF3F09F0B3C0E9
:1031A0008F3F09F0B0C080E293E0909303018093D9
:1031B000020181E09091F401911101C080E06091E1
:1031C00002010E948D0380910A018851873E78F0A8
:1031D000809109018C53833C50F080910801885103
:1031E000873E28F0809107018C53833C28F5F9999C
:1031F000FECF6FEF8AEF9FE00E942532F999FECF54
:103200006FEF8BEF9FE00E942532F999FECF6FEFB1
:103210008CEF9FE00E942532F999FECF6FEF8DEF82
:103220009FE00E9425328FEF80930A01809309016D
:10323000809308018093070110923F0287EF9FE07F
:103240000E940D328F3F09F46AC08093E201C0EF03
:10325000DFE0CE010E940D328F3F31F4F999FECFAD
:1032600060E0CE010E9425322196C53F8FE0D8074D
:1032700081F7C6EEDFE0CE010E940D328F3F31F4C0
:10328000F999FECF60E0CE010E9425322196CD3E15
:103290002FE0D20781F7109235021092340210927B
:1032A000330210920D02809119028F3F19F08F5F47
:1032B00080931902F999FECF609119028CED9FE07D
:1032C0000E942532F999FECF62E080E0DF91CF9134
:1032D0000C948D0381E080930001F999FECF61E0A9
:1032E0008EEF9FE00E94253225CF81E0809301017F
:1032F000F999FECF61E08FEF9FE00E94253223CF46
:103300001092F40141CF982F8C2F9093030180935A
:10331000020101978032934008F045CF4ACF1092C6
:10332000E20195CFCF92DF92EF92FF920F931F931E
:10333000CF93DF93CDB7DEB7A5970FB6F894DEBF76
:103340000FBECDBF10919B07143809F4E2C050F4B2
:10335000133808F0A7C0133008F05CC01230E1F059
:1033600080E049C0163809F421C208F4A6C1173814
:1033700009F475C21838A1F78091DB0781110AC0E2
:1033800080914102811106C08091DC07811102C049
:10339000F99BDEC288E80FC08091DB0781110AC06B
:1033A00080914102811106C08091DC07811102C029
:1033B000F99B04C082E00E94E3261CC081E4809354
:1033C000DD0780936F0382E48093DE0780937003B0
:1033D00083E48093DF078093710384E48093E007A4
:1033E0008093720364E081E090E00E941C2983E3F3
:1033F00080936E038FEFA5960FB6F894DEBF0FBED5
:10340000CDBFDF91CF911F910F91FF90EF90DF9093
:10341000CF9008958091DB0781110AC0809141020D
:10342000811106C08091DC07811102C0F99B02C0A6
:10343000812FC1CF0DEF010F40E250E06FEF70E040
:103440008DED97E00E94D52E011120C081E480937C
:10345000DE0780936F0382E48093DF07809370031D
:1034600083E48093E0078093710384E48093E10711
:10347000809372031092E207109242021092A50309
:103480001092A6031092A7031092A80360E220E214
:10349000029FC00111240E941C2981E0810F0E941B
:1034A000E326A5CF8091DB0781110AC080914102FC
:1034B000811106C0F090DC07F11002C0F99B02C038
:1034C00083E879CF10E000E0C8010E940D32F801D6
:1034D000EC52FF4FE4918E1711F0FF24FA940F5F26
:1034E0001F4F0630110581F708E010E0C8010E9467
:1034F0000D328F3F41F40F5F1F4F083A8FE01807DE
:10350000A9F7FF2011F083E056CF0E946418409A7B
:1035100071CF8091DB0781110AC080914102811136
:1035200006C08091DC07811102C0F99B02C084E8CB
:1035300042CFD0903F02D1105DCF8E010B5E1F4F66
:1035400067E873E0C8010E94F22EF80101900020A4
:10355000E9F7BF01615071094DED57E0C8010E94C4
:103560004E2780910001813091F038E0E32EF12C5C
:10357000B7018DED97E00E94232881115EC0F5E030
:10358000EF0EF11C28EAE2162FE0F20689F780918F
:10359000F401882329F0DD2009F452C0DD24DA94F7
:1035A00081E09091F401911101C080E061EF7FE032
:1035B0000E94202981E0D11080E062EF7FE00E942C
:1035C00020298091F401882359F1D11029C0F801F4
:1035D00001900020E9F73197CF01801B910B182F44
:1035E00064EF7FE00E9420291330D0F0BE016F5FAE
:1035F0007F4F83E793E00E94F22E83E793E0FC0184
:1036000001900020E9F7CF0184579340039740F0E1
:1036100063EF7FE081E00E94202986E80E94E32694
:1036200080910101882309F4E5CE80910001813069
:1036300009F03FC00E945406DDCEDD24DA94A7CF06
:10364000F80101900020E9F73197E01BF10BCE0162
:1036500001967C01EA3058F1E950FF0BB8016E0F7A
:103660007F1F0E94F22EF70101900020E9F7BF01B1
:10367000615071094DED57E0C7010E944E278091BE
:103680000001813009F48CCF28E0E22EF12CB70143
:103690008DED97E00E942328811180CFF5E0EF0E99
:1036A000F11C28EAE2162FE0F20689F779CFB8017B
:1036B000D8CFDD2009F49ECEBDCF8091DB078111EC
:1036C0000AC080914102811106C08091DC078111FE
:1036D00002C0F99B02C085E86ECE8BE493E00E94A5
:1036E0002803811187CE6BE473E0FB010190002079
:1036F000E9F7BF01615071094DED57E08BE493E0AC
:103700000E944E27E0900201F0900301FCE1EF16C9
:10371000F3E0FF0620F09BE1E92E93E0F92E08E0AC
:1037200010E0D12CC12CCE14DF0409F463CEC80103
:103730000E940D3298012B5F3F4F8F3F91F565E05E
:10374000C8010E941C298091F40108E010E0F12CCE
:10375000E12C882309F44ECEC8010E940D328F3F20
:1037600019F09FEFE91AF90A0B5F1F4F083AEFE0D3
:103770001E0791F78091020190910301E816F90666
:1037800008F438CE1092F40169EF7FE080E00E94E7
:103790002029109200016EEF7FE080E00E94202936
:1037A00029CE8FEFC81AD80A8901BDCF8091DB07D7
:1037B00081110AC080914102811106C08091DC070D
:1037C000811102C0F99B02C086E8F5CD63E773E082
:1037D000FB0101900020E9F7BF0161507109AE01C2
:1037E0004F5F5F4F83E793E00E944E2783E793E0AC
:1037F0000E9428038111FECD85E0FE013196ADEDDA
:10380000B7E001900D928A95E1F708E010E0C80159
:103810000E940D328F3FE1F465E0C8010E941C292F
:103820008091F40108E010E0F12CE12C882309F4E8
:10383000E1CDC8010E940D328F3F19F02FEFE21A3F
:10384000F20A0B5F1F4F083A8FE0180791F792CFEB
:103850000B5F1F4F083AFFE01F07C9F6CBCD8091E1
:10386000DB0781110AC080914102811106C080915D
:10387000DC07811102C0F99B02C087E89CCD6BE494
:1038800073E0FB0101900020E9F7BF01615071096D
:10389000AE014F5F5F4F8BE493E00E944E278BE4B5
:1038A00093E00E942803D82E882369F06AE373E02E
:1038B00080E592E00E94F22E66EB70E089E695E0EA
:1038C0000E94782E36C085E0FE013196ADEDB7E05E
:1038D00001900D928A95E1F78AE8E82E8FE0F82EA4
:1038E0000AE113E0C7010E940D320F5F1F4F8F3FA7
:1038F00011F565E0C7010E941C29DD24DA946AE312
:1039000073E080E592E00E94F22EDD20F1F01F933B
:103910000F938FEB91E09F938F9389E695E09F93B0
:103920008F930E94132F0F900F900F900F900F9076
:103930000F9083ED40CDF5E0EF0EF11C003223E057
:10394000120781F610E000E0DACF6CE870E0B6CF45
:103950006BE473E0FB0101900020E9F7BF016150C7
:1039600071094DED57E08BE493E00E944E2708E08B
:1039700010E0B8018DED97E00E942328882379F0AC
:1039800010924B034DED57E06CE473E08BE493E051
:103990000E944E2765E0C8010E941C292BCD0B5FB9
:1039A0001F4F083AFFE01F0721F724CD0E94AB0FFD
:1039B000811106C00E949219811102C00E94CE1589
:1039C0000C942127E82FF0E0E556FC4F9081907F82
:1039D00081E009F080E008959091A403892F8D7F04
:1039E0008093A40380919B03807F90FD56C081113A
:1039F0004BC08091AD039091AE03A091AF03B09105
:103A0000B0034091A9035091AA036091AB03709158
:103A1000AC0384179507A607B70798F40196A11D74
:103A2000B11D8093AD039093AE03A093AF03B09309
:103A3000B003481759076A077B0719F481E08093A0
:103A4000A4038091A4039091B103891781F080931E
:103A5000B103982F92609093A40380FD53C01092FD
:103A6000AD031092AE031092AF031092B003809199
:103A70009A03882341F09091A4039D7F9093A4031F
:103A8000815080939A0308951092AD031092AE0373
:103A90001092AF031092B003D4CF882351F18091DC
:103AA000A0039091A103A091A203B091A303409120
:103AB0009C0350919D0360919E0370919F03841716
:103AC0009507A607B70708F0BCCF0196A11DB11D49
:103AD0008093A0039093A103A093A203B093A303A8
:103AE000481759076A077B0709F0ABCF1092A40368
:103AF000A8CF1092A0031092A1031092A2031092DB
:103B0000A3039FCF1092A0031092A1031092A203CF
:103B10001092A303ACCF80919B03189B8695816084
:103B20001899880F80939B0308958091A503909125
:103B3000A603A091A703B091A80320914202009789
:103B4000A105B10591F00197A109B10991F481E0B6
:103B5000211180E0282F1092A5031092A603109245
:103B6000A7031092A80380934202222359F05D9A82
:103B700008958093A5039093A603A093A703B09301
:103B8000A803F3CF5D98089584E190E0A0E0B0E051
:103B900080939C0390939D03A0939E03B0939F03F7
:103BA0008093A9039093AA03A093AB03B093AC03B3
:103BB00008951092B1031092A5031092A6031092DB
:103BC000A7031092A8038EE180939A03089590931F
:103BD0004905809348051092520510925105E0EC7A
:103BE000F0E0808180648083F894E1ECF0E08081F3
:103BF00080648083789400008FEF80933902089569
:103C0000CF93DF93FC0181E480930A0684E58093DF
:103C10000B06ACE0B6E093E0ED0184918D93811149
:103C200008C08DE08883892F90E0DF91CF910C94BC
:103C3000E71D31969F5FF0CFEAE0F6E081E48083F4
:103C400084E5818301900020E9F7CF018B509640F5
:103C50009927FC01E65FF94F2DE0208301960C9433
:103C6000E71D78941F920F920FB60F9211240BB696
:103C70000F922F933F938F939F93EF93FF932091F6
:103C800051053091520580914805909149052817BA
:103C90003907A8F0F8948091C1008F7B8093C10010
:103CA00078940000FF91EF919F918F913F912F9118
:103CB0000F900BBE0F900FBE0F901F901895349968
:103CC00010C08091510590915205FC01E65FF94FBB
:103CD0002081019690935205809351052093C60050
:103CE000E1CF8FEF80933902DDCF8F938FB78F9322
:103CF0008091C1008F778093C10078948BB78F93A8
:103D00008091C6000F924F931F9211242F933F93DF
:103D1000EF93FF93AF93BF939F9320914D05309105
:103D20004E058F3F09F4E5C0E7EBF3E0A901203928
:103D300091E0390708F0CAC02115310559F1909179
:103D4000B7038D3009F59D30F9F09A30E9F0909184
:103D5000B203911119C091E890933802459AF894F2
:103D60009091C1009F779093C10090B79D7F90BFC5
:103D7000789400001092B6031092B50310924B0590
:103D800010924A051092B2032115310519F0908165
:103D90009D30F9F08A30E9F49091B203911119C085
:103DA00091E890933802459AF8949091C1009F77DA
:103DB0009093C10090B79D7F90BF789400001092BF
:103DC000B6031092B50310924B0510924A0510925B
:103DD000B2038F01A9014F5F5F4FDF01A20FB31F35
:103DE00000B601FE5DC02430310508F459C08A30A8
:103DF00009F056C0BD0161507109EB0198819D30F9
:103E000009F04EC061507109EB0198819A3009F4B4
:103E100047C061507109EB0198819D3009F440C0A1
:103E2000EF0191819A30E1F590819D30C9F5609163
:103E30004A0570914B057093B6036093B503509398
:103E40004B0540934A059091B2039F5F9093B20354
:103E50006091590570915A0570935C0560935B05FC
:103E6000609157057091580570935A0560935905F4
:103E700060915505709156057093580560935705EC
:103E80006091B5037091B603709356056093550524
:103E900060914A0570914B057093540560935305EA
:103EA00090914C05992361F02330310549F480321B
:103EB00039F49091B9039E3319F49FEF9093B303B3
:103EC0008C939A01E40FF51F10820FC030E020E0C0
:103ED00080E8809338021092B6031092B5031092D6
:103EE0004B0510924A051092B20330934E05209371
:103EF0004D0510925D059F91BF91AF91FF91EF919C
:103F00003F912F911F904F9100B601FE08C0F89489
:103F10008091C10080688093C100789400000F9068
:103F20008F918BBF8F918FBF8F91189583E0809376
:103F3000C4001092C500E1ECF0E0808188618083CC
:103F40008BB18C7F8BB95198449845983D980895D2
:103F50004F9B0FC01092050110924E0510924D0517
:103F6000519A8BB183608BB93D9A459A449A8FEFF1
:103F7000089580E00895809105018823B9F191E0CA
:103F8000980F90930501913A39F1A8F49F30D9F038
:103F900030F49230D1F09330E9F080E00895875208
:103FA0008430D8F70E94A81F91E0811101C090E0F1
:103FB000892F819508959F3FA0F4953F98F7983CED
:103FC00049F0973D51F75698E8CF56980E94A81FA0
:103FD00081110BC0569AE1CF10923702109236022F
:103FE000DCCF81E080930501D8CF8FEF0895FC01ED
:103FF0004217130609F040F4DB01A954BC4F90E0CE
:10400000491304C081E0491380E008952D91849103
:104010002813F8CF31969F5FF3CF8FB7F8941092A3
:10402000B6031092B50310924B0510924A058FBF4C
:1040300008952F923F924F925F926F927F928F924C
:104040009F92AF92BF92CF92DF92EF92FF920F9327
:104050001F93CF93DF9348E0B42E57E0852E69E09D
:10406000962E73E0772EE8E06E2EF5E15F2EA2E04B
:104070004A2EBDE03B2E222423949FB7F8948091D2
:10408000B203811128C09FBF80916805882301F188
:10409000815080936805E82FF0E0E25AFA4F808162
:1040A00080933802108280913802DF91CF911F9166
:1040B0000F91FF90EF90DF90CF90BF90AF909F90C7
:1040C0008F907F906F905F904F903F902F900895CA
:1040D00010923802EACF853008F084E0E82FF0E053
:1040E000EE0FFF1FED5AFA4FC080D180118210826F
:1040F0008150E82FF0E0EE0FFF1FED5AFA4F2081BC
:1041000031818093B2039FBFC216D30698F5809188
:1041100068058A3010F090926805E901CC19DD0934
:10412000249786010E5F1F4FC90189549C4FFC01E3
:104130003397E0803197A080F601E954FC4FF58079
:104140004BE4E4121CC0EFE4AE124AC10597FC0137
:104150008081803209F460C12630310508F45CC1E9
:10416000E091680581E08E0F80936805F0E0E25AE7
:10417000FA4F2082BA94B11080CF80E096CFF7E456
:10418000FF1214C09E0146E0B80188EB93E00E9444
:10419000F71F882359F0E091680581E08E0F809326
:1041A0006805F0E0E25AFA4F3082E4CF4FE4A412FF
:1041B00015C09E0145E0B80182EB93E00E94F71F15
:1041C000882361F0E091680581E08E0F8093680597
:1041D000F0E0E25AFA4F84E08083CCCFE7E4EE12BD
:1041E00015C09E0147E0B8018AEA93E00E94F71FDC
:1041F000882309F4F9C0E091680581E08E0F80936F
:104200006805F0E0E25AFA4F4082B4CFF4E4EF12CE
:10421000EBC09E014CE0B8018DE993E00E94F71FCE
:10422000882309F4E1C0E091680581E08E0F809356
:104230006805F0E0E25AFA4F8CE0CECF8DE4F81238
:1042400014C09E0146E0B8018FE893E00E94F71F7A
:10425000882311F1E091680581E08E0F8093680555
:10426000F0E0E25AFA4F508285CFE4E5FE1214C026
:104270009E0146E0B80188E893E00E94F71F88237A
:1042800059F0E091680581E08E0F80936805F0E0B9
:10429000E25AFA4F60826ECFF5E4AF1214C09E016D
:1042A0004AE0B8018DE793E00E94F71F882359F098
:1042B000E091680581E08E0F80936805F0E0E25A96
:1042C000FA4F708257CF45E4E41214C09E014BE0D0
:1042D000B80181E793E00E94F71F882311F1E09174
:1042E000680581E08E0F80936805F0E0E25AFA4F8E
:1042F000908240CF89E5E81214C09E0144E0B801E5
:104300008CE693E00E94F71F882359F0E09168053E
:1043100081E08E0F80936805F0E0E25AFA4F8082C8
:1043200029CFE5E4FE1223C09E014BE0B80180E6F0
:1043300093E00E94F71F882309F41CCF4AE050E065
:1043400070E060E0C6018B539C4F0E944E2D70932D
:104350003D0260933C02E091680581E08E0F8093FE
:104360006805F0E0E25AFA4F45E0408303CF83E569
:10437000F81200CF9E014BE0B80184E593E00E9463
:10438000F71F8823C1F04AE050E070E060E0C6010A
:104390008B539C4F0E944E2D70933B0260933A02C8
:1043A000E091680581E08E0F80936805F0E0E25AA5
:1043B000FA4F86E011CF9E0146E0B8018DE493E00C
:1043C0000E94F71F882309F4D5CEE091680581E0AB
:1043D0008E0F80936805F0E0E25AFA4F4EE0C5CFA9
:1043E00087E4F81609F4CECE49E4F41227CF9E01F3
:1043F00046E0B80186E993E00E94F71F882309F49C
:104400004BCFE091680581E08E0F80936805F0E066
:10441000E25AFA4F8AE0E0CEE7E4FE12CACEB2CE0C
:10442000CF930E9419208823D9F0809138028430DC
:1044300021F0833111F0813089F4CFB7F8940E94D4
:104440000D20459AF8948091C1008F778093C10028
:1044500080B78D7F80BF78940000CFBF80913802F5
:10446000CF910895FF920F931F93CF93DF938C0109
:10447000F801C081D181F8808F2D90E00E94512EEB
:10448000892BF1F480916F03F8121FC099818091FC
:10449000700398131AC09A8180917103981315C004
:1044A0009B8180917203981310C02496F801D183E8
:1044B000C0838FEFDF91CF911F910F91FF900895EF
:1044C0002196F801D183C083D3CF80E0F3CF44E0BD
:1044D00050E061ED73E00E94622E21E0892B09F02B
:1044E00020E0822F08956F927F928F929F92AF92D9
:1044F000BF92CF92DF92EF92FF920F931F93CF93D1
:10450000DF935C01762E642EF50100811181F801A4
:10451000808190E00E94512E892BB9F5F8E07F9EB2
:10452000C0011124D12CC12C9C012A523C4F4901BD
:10453000FC01E952FC4F7F017614B8F4F401EC0D54
:10454000FD1DE491CE2FD0E0B7016C0D7D1DAE01B5
:10455000C8010E94622EF8E0CF0ED11C892BD9F43D
:10456000C00FD11FF501D183C083872DDF91CF917B
:104570001F910F91FF90EF90DF90CF90BF90AF9081
:104580009F908F907F906F9008950F5F1F4FF50160
:1045900011830083B9CF7394CFCFEF92FF920F9323
:1045A0001F93CF93DF93EC017B01088119814AE0CF
:1045B00050E0BC01C8010E94202CF7016083718388
:1045C0008283938381E0288139812017310709F4A0
:1045D00080E0DF91CF911F910F91FF90EF900895B0
:1045E000DF92EF92FF920F931F93CF93DF937C01A3
:1045F000D62EF701C081D181088110E0C8010E9448
:10460000512E892BA1F48D2D90E00E945A2E08176F
:10461000190791F42196F701D183C0838FEFDF91C1
:10462000CF911F910F91FF90EF90DF900895219609
:10463000F701D183C083DDCF80E0F1CFDF92EF922D
:10464000FF920F931F93CF93DF938C01D62EF80127
:10465000C081D181FE0181917F0190E00E94512EA5
:10466000892B99F48D2D90E00E945A2E982F9E014F
:104670002F5F3F4F8881882361F0E9019813F7CFBE
:10468000F801318320838FEF06C0F801F182E082C8
:10469000DECF9923A9F3DF91CF911F910F91FF9066
:1046A000EF90DF900895CF92DF92EF92FF920F93F9
:1046B0001F93CF93DF938C01D62EF72EE42EF801B3
:1046C000C081D181888190E00E94512E892B81F494
:1046D000CD2DDF2D6E01E11010C0F6011082DF91AB
:1046E000CF911F910F91FF90EF90DF90CF900895A1
:1046F0002196D801CD93DC93E2CFD801ED91FC91C6
:10470000F0808F2D90E00E94512E892B31F7F99285
:10471000EA94FF2011F3D8018D919C911197019695
:104720008D939C93D7CF8F929F92AF92BF92CF924F
:10473000DF92EF92FF920F931F93CF93DF937C0151
:104740005B01942EF70100811181F801808190E0D6
:104750000E94512E892B19F5802E6501C02FD12F73
:104760008E012196F80180810E943B278D30E9F46B
:10477000F6011082F5018081882321F0F701118371
:1047800000838FEFDF91CF911F910F91FF90EF90FA
:10479000DF90CF90BF90AF909F908F9008950F5F64
:1047A0001F4FF70111830083CDCF8C2F88198915F6
:1047B000F8F6FE0131978081F60181936F01D0CF29
:1047C000EF92FF920F931F93CF93DF93CDB7DEB796
:1047D00062970FB6F894DEBF0FBECDBF9A8B898B60
:1047E0007C0182E3F701ADEDB7E001900D928A956F
:1047F000E1F7CE0141960E94322229899A898111DE
:1048000008C0822F0E946722882309F470C08BE0C1
:104810006EC0022F192FF80181918F01811120C0E4
:1048200040E160E0CE0141960E947322813108F0A0
:10483000A3C2E82FF0E0E15EFB4D0C94032C3B2477
:10484000842491240724BE266D249D24C524BC26DF
:10485000BC26E72471252C26A326A526AA26B02649
:1048600090E00E945A2EF80131978083D4CF0F5FD9
:104870001F4F1A8B098B09891A89F801808190E0F2
:104880000E94512E892B99F7C8018E199F09FC01AE
:10489000E352F84F34E021914FEB420F4A3128F0B8
:1048A00020532A3010F082E022C03150A1F7835209
:1048B000984FFC01408151816281738140936F0365
:1048C00050937003609371037093720344E061E04E
:1048D00070E00E94F52883E00AC04EE06BE473E0CC
:1048E000CE0141960E94932381114AC286E06296CE
:1048F0000FB6F894DEBF0FBECDBFDF91CF911F91F1
:104900000F91FF90EF9008954EE06BE473E0CE01BD
:1049100041960E949323882331F285E80E94E32682
:10492000DACF4EE06BE473E0CE0141960E94932310
:10493000882309F4B8CF88E8F1CF4AE068E0CE01D7
:1049400041960E947322883071F481E080930001C7
:104950006EEF7FE00E9420298FEF809301016FEFBF
:104960007FE081E00FC0893009F02BC281E08093A5
:1049700000016EEF7FE00E942029109201016FEF8D
:104980007FE080E00E942029A6CF4AE068E0CE01C7
:1049900041960E947322109200016EEF7FE08830F2
:1049A00011F480E0D7CF893011F480E0E4CF80E0CB
:1049B0000E9420298091F401882309F48CCF69EFAB
:1049C0007FE080E00E9420291092F40184CFBE0194
:1049D000675F7F4FCE0141960E94CD22882331F13F
:1049E0006AE3CE0141960E94F0228823F9F0BE01CD
:1049F0006B5F7F4FCE0141960E94CD228823B1F09C
:104A00006AE3CE0141960E94F022882379F0BE012C
:104A10006F5F7F4FCE0141960E94CD2221E030E0B2
:104A2000811102C030E020E0232BE9F48FEF809366
:104A3000F5016AEC73E089E695E00E94782E89E63C
:104A400095E0FC0101900020E9F7CF016BE071E0F7
:104A500001970E94F22E6AE373E080E592E00E94E3
:104A6000F22E83ED5BCF89859A85AB85BC85883135
:104A70009105A105B10508F016CF4D815E816F81CA
:104A800078854C3351056105710508F00CCF09811B
:104A90001A812B813C810C3311052105310508F069
:104AA00002CF1F930F935F934F939F938F9387E44E
:104AB00091E09F938F9389EB97E09F938F930E9450
:104AC000132F8EEF0E94E3268FEF8093F5010FB630
:104AD000F894DEBF0FBECDBFFECE0F5F1F4F1A8B07
:104AE000098B09891A89F801808190E00E94512E72
:104AF000892B99F743E050E066EC73E0C8010E940F
:104B00007F2E892B01F56AEF7FE08FEF0E9420292D
:104B10006BEF7FE08FEF0E9420296CEF7FE08FEF3B
:104B20000E9420296DEF7FE08FEF0E9420298FEFF8
:104B300080930A0180930901809308018093070103
:104B400010923F02C8CEBE01635F7F4FCE014196F7
:104B50000E94CD22882309F4A6CE6AE3CE014196B5
:104B60000E94F022882309F49ECEBE01675F7F4F2A
:104B7000CE0141960E94CD22882309F494CE63E2AF
:104B8000CE0141960E941E23BE016B5F7F4FCE0176
:104B900041960E94CD22882309F485CE6AE3CE0196
:104BA00041960E94F022882309F47DCEBE016F5FFA
:104BB0007F4FCE0141960E94CD22882309F473CE07
:104BC0008D859E85AF85B88988319105A105B10590
:104BD00008F069CE49855A856B857C854C33510533
:104BE0006105710508F05FCE4D815E816F8178852A
:104BF000483151056105710508F055CE49815A814A
:104C00006B817C814C3351056105710508F04BCEF9
:104C10006AEF7FE00E9420296BEF7FE089850E9488
:104C200020296CEF7FE08D810E9420296DEF7FE0CD
:104C300089810E9420298D8580930A01898580932E
:104C400009018D818093080189818093070143CEFA
:104C50000F5F1F4F1A8B098B09891A89F801808110
:104C600090E00E94512E892B99F742E050E063ECCE
:104C700073E0C8010E947F2E892B09F047C00E5FA8
:104C80001F4F1A8B098B80E293E0A0E0B0E089838C
:104C90009A83AB83BC83E988FA88F7011081812F5E
:104CA00090E00E94512E892BA1F410531A30B8F0D5
:104CB00008E010E0C8010E940D32F82E2FEF821795
:104CC00009F460C00B5F1F4F083A8FE0180791F797
:104CD000EACDFFEFEF1AFF0AFA8AE98ADCCFBE01BC
:104CE0006F5F7F4FCE0141960E94CD22882309F449
:104CF000DACD89819A81AB81BC810197A109B10983
:104D000080329340A105B10598F2CDCD43E050E04B
:104D10006FEB73E0C8010E947F2E892B09F0C3CD91
:104D200069EF7FE080E00E9420291092F40188EF73
:104D30009FE00E940D328F3F09F4CDCD809300019A
:104D40006EEF7FE01FCE88E0D2CD1092E20167EFD8
:104D50007FE017CE8FEF8093E20167EF7FE001CE17
:104D60004EE06BE473E0CE0141960E9493238823CA
:104D700009F499CD87E8D2CD81E0B9CD84E0B7CDF3
:104D800085E0B5CD8EEF9FE00E940D3268EF7FE0A9
:104D90000E94202965EF7FE089810E94202966EF2B
:104DA0007FE08A810E94202989819A819093030162
:104DB0008093020169EF7FE081E00E942029F09258
:104DC000F40181E0BBCFEBE9F7E030E020E0919126
:104DD000911105C02556384FF901808308952F5F42
:104DE0003F4F2E31310599F70895EBE9F7E030E0B8
:104DF00020E09191981761F0911105C02556384F28
:104E0000F901808308952F5F3F4F2E31310589F7D7
:104E1000089590E0E92FF0E0E556F84F208128173B
:104E200070F0621760F0292F2D3128F01092B8072A
:104E30009E3181F70895318131932F5FF5CF9F5FC8
:104E4000F7CFEBE9F7E08181819387E0E83BF80752
:104E5000D1F71092B8070895EBE9F7E09191981710
:104E600010F0691730F497E0E93BF907B9F780E0F3
:104E700008958FEF08958B3279F030F4833251F03A
:104E80008A3231F08DE0089580538A30D8F7089542
:104E90008BE008958CE008958AE0F9CFAF92BF923D
:104EA000CF92DF92FF920F931F93CF93DF93182F30
:104EB000EB016A0145E050E06FEF70E0C6010E942F
:104EC000D52E8C2F811B182F219700E0823058F4AB
:104ED000DF91CF911F910F91FF90DF90CF90BF9006
:104EE000AF900895092F88810E943B27F82EF294F5
:104EF00080EFF822FE0182915F010E943B278F29FB
:104F0000113061F4E5018F6010E091E0900FF6013F
:104F1000E00FF11D80831111E5CFDACF22971250F7
:104F2000F4CFE82FF0E0E25AFB4F84910895CF933D
:104F3000DF939C01EB011882BC0180E0DB016F5F15
:104F40007F4F9C919F3F19F0853009F052C0A21706
:104F5000B30709F452C0642F70E090E0880F991FE6
:104F600011976817790744F4DB011197B7FDDB014E
:104F7000B595A795A20FB31FEC918E2F8F708F3030
:104F800009F039C0E295EF70F0E0E25AFB4F8491EE
:104F90008883882319F02196119781E0A217B3071F
:104FA00020F1EC91EF70F0E0E25AFB4FE491E883DE
:104FB000BE01EE2319F06F5F7F4F8F5FEB01841707
:104FC000A1F02196EC91E295EF70F0E0E25AFB4FF0
:104FD0009491FB0190838F5F481739F01197BD01C1
:104FE0006F5F7F4F26173707C9F61882DF91CF9181
:104FF00008958F5FA3CF80E0D1CF80E0F7CFFF92FD
:105000000F931F93CF93DF9300D000D01F92CDB7A3
:10501000DEB78B01F42E45E050E0BC01CE010196D5
:105020000E94FD314F2DB801CE0101960E949727B5
:105030000F900F900F900F900F90DF91CF911F91D5
:105040000F91FF9008950F931F93CF93DF93EC017F
:105050008B0188818F3F21F1CB010E940D328F3F60
:10506000F9F0C8010E940D32382F307F9991292F15
:10507000207F303F79F0203F69F0321311C08F70EC
:105080009F708F3039F09F3029F0891309C00F5F6E
:105090001F4FE7CF8FEFDF91CF911F910F910895B1
:1050A00080E0F9CF0F931F93CF93DF9300D000D010
:1050B0001F92CDB7DEB78B01FC0101900020E9F70C
:1050C0003197BF01681B790B680F792F711DAE01F5
:1050D0004F5F5F4F0E944E27B801CE0101960E949C
:1050E00023280F900F900F900F900F90DF91CF918A
:1050F0001F910F9108958093D9079093DA0710922A
:1051000040026093410292BD81BDF89A90B58091B2
:10511000DD07981729F080BDF894FA9AF99A7894E7
:105120000895F99935C08091DB07811108C08091FD
:105130004102811104C08091DC07882349F18091EC
:105140004002F89A20B5E82FF0E0E352F84F908142
:10515000291301C08F5F909141028917D0F4282F45
:1051600030E04091D9075091DA07420F531F52BDEA
:1051700041BDF89A40B52352384FF9019081491743
:1051800029F090BDF894FA9AF99A789480934002A5
:1051900008959091DB071092DB07909341029923C9
:1051A000F9F0EDEDF7E080E020A521938F5F9813F3
:1051B000FBCF80910F08909110088093D9079093AE
:1051C000DA0792BD81BDF89A90B58091DD079817F6
:1051D00029F080BDF894FA9AF99A789480E0D6CFB5
:1051E0009FE092BD9FEF91BDD1CF1F93CF93DF93EF
:1051F0004423F1F0C42F172FD62FBC0150E08DEDC2
:1052000097E00E94CC2ED093D9071093DA07109222
:105210004002C093410212BDD1BDF89A90B5809171
:10522000DD07981729F080BDF894FA9AF99A7894D6
:10523000DF91CF911F91089561110C947B280895FF
:105240001F93CF93DF93182FEB01CB010E940D32F8
:10525000811749F01093DD0761E0CE01DF91CF9116
:105260001F910C947B28DF91CF911F9108950F938C
:105270001F93CF93DF9300D000D0CDB7DEB78C0162
:1052800019821A821B821C820E940D328983C801F6
:1052900001960E940D328A83C80102960E940D3247
:1052A0008B8369817A818B819C810F900F900F9005
:1052B0000F90DF91CF911F910F910895CF92DF92C0
:1052C000EF92FF920F931F93CF93DF93DC01119620
:1052D000FC01F080F41618F0FF24FA94F40EEB01B0
:1052E00040E0E12CE0E050E887E090E04F110DC095
:1052F000640F711DFB011082DF91CF911F910F91FF
:10530000FF90EF90DF90CF9008952E2D30E00C911C
:1053100010E0C52ED12CC094D0940C211D2102C0C8
:10532000000F111FEA94E2F7E00FF12FF11DE15891
:10533000FA4FE491E9934F5FF42FF770EF2E79F075
:10534000EC91E523F0E08C01021B130B02C0F595F4
:10535000E7950A95E2F7569550581196C7CFE0E0C9
:1053600050E8C4CFCF92DF92EF92FF920F931F933A
:10537000CF93DF938C01CA01861B970BE8018993B9
:10538000815090E020E04FE750E037E0EE24EA94CF
:10539000F12CDE01281748F1F80180818770D9F0DF
:1053A000FB01E20FF11DE081F0E0E158FB4F249199
:1053B0004FE750E0092E02C0440F551F0A94E2F750
:1053C000E22FF0E0E423F52302C0F695E7959A95E5
:1053D000E2F7E8831196CD01DF91CF911F910F91F4
:1053E000FF90EF90DF90CF9008956B01C20ED11C1B
:1053F000D601EC91F0E0E158FB4FE491DA01092E7F
:1054000002C0AA0FBB1F0A94E2F7F0E0AE23BF234D
:10541000092E02C0B695A7950A94E2F7F601B1816C
:10542000EB2FF0E0E158FB4FE491B32FB91B67017C
:105430000B2E02C0D694C7940A94E2F7EC2101C067
:10544000EE0FBA95EAF7EA2BE9939F5F973011F4D4
:105450002F5F90E02F5F9DCFFC01DA0170E0CD015E
:10546000841B950B8617970708F0089590819A334F
:1054700060F49053292F2295207F91819A3338F43C
:105480009053920F9D933296EACF9753F3CF975351
:10549000F8CF1F93CF93DF93DC01EA018C91873C17
:1054A00050F0DB011C928FEF888390E080E0DF9169
:1054B000CF911F91089518828C9190E00196A80FCA
:1054C000B91F8C918B7F11F08FEF888311962C91EF
:1054D0001197213130F7FD01339612968C91982F58
:1054E0009F7E31E0913809F030E0813929F48BE278
:1054F000DB018C936F5F7F4FAB0110E00EC08081AA
:10550000992311F0829531968F70805D311101C021
:1055100080E3DA018D93AD011F5F912F917012131B
:10552000EECFDB01A10FB11D1C92911101C031978B
:105530008281882311F08FEF8883CF010396B7CF44
:10554000FC019081A92FAF708AE092959F70A89F6F
:10555000900D1124DB019C939181692F6F709295BE
:105560009F70689F900D1124DA019C939281492FBE
:105570004F7092959F70489F900D1124D9019C9374
:10558000CF0103960895FC019081A92FAF708AE0A6
:1055900092959F70A89F900D1124DB019C9391819F
:1055A000692F6F7092959F70689F900D1124DA019A
:1055B0009C939281492F4F7092959F70489F900DB8
:1055C0001124D9019C93CF0104960895CF93DF93C2
:1055D000DC01FB0180818B3299F4319681E9EF0186
:1055E00009900020E9F79E01215031092E1B3F0B45
:1055F000211108C0CD0101961C92DF91CF91089531
:1056000081E8EDCF2C93AD014E5F5F4F11968C93E7
:10561000C9019927019695958795682F742FDA010E
:105620002A2F271B261718F0840F951FE6CF2081FD
:1056300020533181332331F032963295307F232B42
:105640002D93EECF3196206FFBCFCF93DF93EC01FC
:10565000DB018C91811106C0CE0101961882DF9189
:10566000CF9108958B3209F5119681E9FD010190E2
:105670000020E9F731979F012A1B3B0B33272F5F4F
:105680003F4F35952795622F91E0920F9883AE0199
:105690004E5F5F4F8983742FFA018E2F871B861709
:1056A00030F0CA01820F931FDACF81E8DFCF8C91EF
:1056B000805311969C911197992331F012969295EF
:1056C000907F892B8193E9CF1196806FFBCFEF926A
:1056D000FF920F93CF937B01C22FBA010E94252B1B
:1056E00021E1FC0120831182B70102960E94E62A83
:1056F000FC01C08301832AEA22830396CF910F9194
:10570000FF90EF900895CF93DF931F92CDB7DEB750
:105710009C01562FDB018A2F851B841720F00F90E8
:10572000DF91CF9108959D91892F807F8983829504
:105730008983E981F0E0E259FB4F8491F90180838C
:105740009F70E92FF0E0E259FB4F8491F9018183CA
:105750002E5F3F4FE0CF88E19BE00FB6F894A8950D
:10576000809360000FBE909360000E946D030E94C2
:105770006D030E946D030E946D0381E087B988B9B3
:1057800080E28AB90E9464180E94961F0E945418F1
:1057900078948091E90180FD0E9454188091E9017C
:1057A00081FD0E94C9168091E90180FF06C00E9418
:1057B000DF170E94D61C1092E901F8948091EB014A
:1057C000811109C083B7816083BF78948895F8946C
:1057D00083B78E7F83BF78940E94E517DACF97FB5B
:1057E000072E16F4009407D077FD09D00E940C2CE8
:1057F00007FC05D03EF4909581959F4F08957095D4
:1058000061957F4F0895EE0FFF1F0024001C0BBE13
:105810000790F691E02D0994AA1BBB1B51E107C02C
:10582000AA1FBB1FA617B70710F0A61BB70B881F30
:10583000991F5A95A9F780959095BC01CD010895BF
:105840003F924F925F926F927F928F929F92AF9210
:10585000BF92CF92DF92EF92FF920F931F93CF935D
:10586000DF935C016B017A016115710519F0FB0191
:1058700091838083E114F10451F0C701029783976B
:1058800030F040E030E020E090E06BC05E01E501E8
:105890002196F5011081812F90E00E94512E892BD5
:1058A000A9F71D3201F52196F501118101E0E114FE
:1058B000F10409F4E6C0F0E1EF16F10409F088C044
:1058C000103359F488818F7D883509F07CC01981A7
:1058D00022960260F0E1EF2EF12C812C912CA12C6C
:1058E00088E0B82E92C01B3221F4E5012296F50122
:1058F000118100E0DCCFEAE0EE16F10409F4C7C044
:10590000F0E1EF16F10409F073C0E7CF78E0E72E7D
:10591000F12C812C912CA12C60E1B62E76C021E0D7
:10592000ADC0302F3170C114D10431F0222371F198
:105930002197F601D183C08327FF2EC060E070E07D
:1059400080E090E8311104C06FEF7FEF8FEF9FE7A9
:1059500022E230E03093120820931108462F372FAF
:10596000282F642F732F822FDF91CF911F910F91DA
:10597000FF90EF90DF90CF90BF90AF909F908F906F
:105980007F906F905F904F903F90089501FF04C00B
:105990002297F601D183C083332341F090958095FF
:1059A000709561957F4F8F4F9F4FD8CF97FFD6CF80
:1059B00082E290E090931208809311086FEF7FEFDE
:1059C0008FEF9FE7CBCF10E3E114F10409F49ECFF2
:1059D00028E0E216F10409F49CCF0CF08CCF812C66
:1059E000912CA12CE0E4BE2E82E0E816F10469F0CF
:1059F00060E070E080E090E897010F2C000C440B11
:105A0000550B0E94473249015A0120E060E070E0E6
:105A1000CB0127010F2C000C66087708FE0150ED22
:105A2000352E310E39E0331570F43FEB310F49EC70
:105A3000342E3A3138F03FE9310F3A3108F071CF66
:105A400039EA332E310E3E141F040CF06ACF27FDC5
:105A500015C086169706A806B90678F0A30192012C
:105A60000E943732630D711D811D911D61307105DA
:105A7000810520E8920708F452CF2FEF219610817C
:105A8000CDCF103309F41ECF2AE0E22EF12C9CEC8E
:105A9000892E982CA82C9CE0B92EB7CF3F924F921C
:105AA0005F926F927F928F929F92AF92BF92CF92AE
:105AB000DF92EF92FF920F931F93CF93DF935C01DE
:105AC0006B017A016115710519F0FB0191838083E7
:105AD000E114F10449F0C7010297839728F060E0D0
