:100000000C94DF020C94FE020C94FE020C94FE028F
:100010000C94FE020C94FE020C94FE020C94FE0260
:100020000C94FE020C94FE020C94FE020C94FE0250
:100030000C94FE020C94FE020C94FE020C94FE0240
:100040000C94CD030C94FE020C94FE020C94FE0260
:100050000C94D51D0C94FE020C94911D0C94FE0280
:100060000C94FE020C94FE020C94FE020C94FE0210
:100070000C94FE020C94FE020C94FE020C94FE0200
:100080000C94FE020C94FE020C94FE02FF414243CB
:1000900044000000A1A2A3A5A6A7A8932B637069A2
:1000A0006E3F00000000000000002B636E6D693D94
:1000B000322C312C322C31002B6D6F72696E673D02
:1000C0003100000000002B636C69703D31000000BE
:1000D000000000002B646465743D312C31302C31FC
:1000E00000002B63616C6D3D3100000000000000DA
:1000F0002B6372736C3D31000000000000002B6325
:100100007573643D31000000000000002B637062D5
:10011000773D32362C22312200002B636C74733D04
:1001200030000000000000002B636D69633D302C3F
:100130003135002B636D6764613D36002B63706958
:100140006E3D223139373622002B6966633D322CF1
:1001500032002B63706D733D22534D222C22534D80
:10016000222C22534D22002B6364736362002B63A5
:10017000636C6B3F002B636F70733F002B63706287
:10018000723D3236002B637265673F002B637371DB
:10019000002B7674733D3100610068002B434D5491
:1001A000493A002B636D67643D002B636D67723DB8
:1001B000002B636D67733D002B434D54493A002B70
:1001C00044544D463A002B434C49503A003E002BD4
:1001D000434D47523A002B434F50533A002B435262
:1001E00045473A002B4353513A002B4350494E3A6E
:1001F000205245414459002B43434C4B3A00313D7A
:1002000052435620323D42535920333D434E5420F1
:10021000343D51534D20353D51414C20363D464EE5
:100220004420373D414444002055373D0020553699
:100230003D002055353D0055343D002055333D00EF
:100240002055323D0055313D00534B525942413A01
:100250000044454255470A007777772E736F6E66E4
:10026000792E706C00536B727962613A2057796C09
:1002700061637A6F6E79004861726D6F6E6F67723D
:10028000616D3A2057796C61637A6F6E7900204412
:10029000544D460020434C495000547279623A2034
:1002A0005075626C69637A6E7900547279623A2093
:1002B0005072797761746E79005374617475733A12
:1002C00020416B7479776E79005374617475733A59
:1002D000205A61626C6F6B6F77616E7900557A7925
:1002E000746B6F776E6963792000557A79746B6FE0
:1002F000776E69637920005379676E616C2047538C
:100300004D2000437A61733A200041433830302D4C
:100310005453002B435553443A002B434D5320452F
:1003200052524F523A002B434D45204552524F52A4
:100330003A0042555359004E4F204449414C544FC6
:100340004E45004E4F2043415252494552002B43E7
:100350004D54493A002B44544D463A002B434C49E6
:10036000503A004D4F20434F4E4E454354454400B4
:100370004D4F2052494E47004552524F52002B4399
:100380004D47533A004F4646004F4E004F464600F9
:1003900054696D653A2000433344340004434F44AC
:1003A0004500000003414444000000000344454C64
:1003B00000000000045858585800000006524550EC
:1003C0004F5254000455534552000000044F50450D
:1003D0004E00000005434C4F5345000004434C4978
:1003E000500000000444544D46000000035345549F
:1003F000000000000454494D4500000006534B52D4
:1004000059424100054445425547000005535441B7
:10041000525400000453544F500000003031323326
:100420003435363738392B2A232121003031323305
:10043000343536373839414243444546003F3F3F23
:100440003F3F3F3F3F3F3F0A3F3F0D3F3F3F3F3F23
:100450003F3F3F3F3F3F3F3F3F3F3F3F3F20212206
:10046000230225262728292A2B2C2D2E2F30313206
:10047000333435363738393A3B3C3D3E3F00414214
:10048000434445464748494A4B4C4D4E4F505152C4
:10049000535455565758595A3F3F3F3F113F616299
:1004A000636465666768696A6B6C6D6E6F707172A4
:1004B000737475767778797A3F3F3F3F3F3F3F3F90
:1004C0003F3F3F3F3F3F3F3F3F3F3F3F3F3F3F3F3C
:1004D0003F3F3F3F3F3F3F3F3F3F3F3F3F3F403F2B
:1004E0000124033F5F3F3F3F3F3F3F3F3F3F3F3F91
:1004F0003F3F3F3F3F3F3F3F3F3F3F3F603F3F3FEB
:100500003F5B0E1C093F1F3F3F3F3F3F3F3F5D3F6B
:100510003F3F3F5C3F0B3F3F3F5E3F3F1E7F3F3FC4
:100520003F7B0F1D3F04053F3F073F3F3F3F7D0897
:100530003F3F3F7C3F0C063F3F7E3F3F3F40A32471
:10054000A5E8E9F9ECF2C70AD8F80DC5E53F5F3F29
:100550003F3F3F3F3F3F3F3F3FC6E6DFC9202122AD
:1005600023A425262728292A2B2C2D2E2F30313263
:10057000333435363738393A3B3C3D3E3FA1414272
:10058000434445464748494A4B4C4D4E4F505152C3
:10059000535455565758595AC4D6D1DCA7BF616237
:1005A000636465666768696A6B6C6D6E6F707172A3
:1005B000737475767778797AE4F6F1FCE0001124AB
:1005C0001FBECFEFD0E4DEBFCDBF11E0A0E0B1E0B1
:1005D000E0EBF3E600E00BBF02C007900D92A03DF8
:1005E000B107D9F728E0A0EDB1E001C01D92A3301A
:1005F000B207E1F70E94FE2A0C94D6310C94000059
:100600001092EE011092ED011092EC010895CF933B
:10061000DF93FC0101900020E9F7BF0161507109EF
:100620004DEC57E00E94A126C8E0D0E0BE018DEC61
:1006300097E00E947627811108C02596C83AFFE00E
:10064000DF07A1F7DF91CF9108958FEFFBCF809166
:10065000060297E5980F8C5E943108F081E90C94BE
:10066000482680911E0290911F028F3F980729F023
:10067000019690931F0280931E028AE08093DD0111
:100680001092DC010E94000381E90C944826BC0111
:1006900087EA93E00C94F82D8FEF9FE80197F1F72C
:1006A00000C000008FEF9FE80197F1F700C0000045
:1006B0008FEF9FE80197F1F700C000008FEF9FE8F0
:1006C0000197F1F700C000008FEF9FE80197F1F765
:1006D00000C00000A8950895CF93DF93CDB7DEB793
:1006E00028970FB6F894DEBF0FBECDBF9091CB0711
:1006F00091112BC090913102911127C09091CC079C
:10070000911123C0F99921C02091250229833091AC
:100710002302209124023A832B832091FD012C8314
:10072000EBE8F7E02191225D223008F49F5F27E09B
:10073000E93AF207B9F79D838E836F8347E062ED54
:100740007FE0CE0101960E94482828960FB6F894C3
:10075000DEBF0FBECDBFDF91CF910895809118020B
:100760008F5F843618F4809318020895109218024F
:100770008091170291E0811190E09093170281110E
:1007800002C040980895409A089580918B03807F1D
:1007900011F4409A08954098089578941F920F920A
:1007A0000FB60F9211240BB60F922F938F939F9336
:1007B000EF93FF938091D8018F5F8093D8018231AE
:1007C00028F01092D8018FEF8093DA014F9B59C027
:1007D00000B601FC16C080912802811112C010924F
:1007E0003E0510923D0510924D0580B7826080BF96
:1007F000F8948091C10080688093C10078940000D3
:10080000459834992FC0F8948091C10086FF29C083
:100810008091C1008F7B8093C100789480912902E0
:100820008823C9F080912702811104C080910602BB
:100830008B3889F4109229028091410590914205EC
:10084000FC01E650FA4F2081019690934205809377
:1008500041052093C600F8948091C1008064809384
:10086000C10078948FEF8093DB01FF91EF919F910E
:100870008F912F910F900BBE0F900FBE0F901F9076
:100880001895459AF8948091C1008F738093C100A8
:1008900080B78D7F80BF78940000E4CFDF92EF9225
:1008A000FF920F931F93CF93DF938C01DC01ED90A8
:1008B000FC9048E050E06AE073E0C7010E94C22D5E
:1008C000E70129968AE0D82EF701D08663E073E02D
:1008D000CE010E94CB2D09900020E9F721976BE013
:1008E00071E0CE010E942F2E09900020E9F7219798
:1008F000DE01DD92CD014BE050E067EF72E00E9437
:10090000C22D80910601803230F59091D701992354
:1009100011F12C96B4E68B9FC00111246FE170E0B9
:100920000E94422BCB014AE0BE010E944C2E09904E
:100930000020E9F72197FE01319685E28883108235
:10094000D801ED93FC93DF91CF911F910F91FF9010
:10095000EF90DF9008958DE28C878D87FE013F96A2
:100960008E87EDCFAF92BF92CF92DF92EF92FF9240
:100970000F931F93CF93DF938C01FC01C081D18132
:100980004CE050E06AEE72E0CE010E94C22D2C963F
:1009900088E0C82ED12CF12CE12CB12CA12CC60161
:1009A0000E9460318F3F99F1FFEFAF1ABF0AE5E077
:1009B000CE0ED11CF8EACF16FFE0DF0681F74AE041
:1009C000BE01C5010E944C2E09900020E9F7219735
:1009D0006E018FEFC81AD80A8FE288834AE0B60109
:1009E000C7010E944C2EF60101900020E9F7CF01CB
:1009F0000197F80191838083DF91CF911F910F912F
:100A0000FF90EF90DF90CF90BF90AF9008958FEF61
:100A1000E81AF80ACCCFCF92DF92EF92FF920F93B1
:100A20001F93CF93DF938C01FC01C081D1814CE0F7
:100A300050E06DED72E0CE010E94C22D2C9688E050
:100A4000E82EF12CD12CC12CC7010E9460318F3FC0
:100A500089F1C394F5E0EF0EF11C88EAE8168FE007
:100A6000F80691F74AE0BE018C2D90E00E944C2ED2
:100A700009900020E9F721977E01EFEFEE1AFE0AB8
:100A80008FE288834AE0B7018D2D90E00E944C2EC2
:100A9000F70101900020E9F7CF010197F801918358
:100AA0008083DF91CF911F910F91FF90EF90DF90A6
:100AB000CF900895D394CECFEF92FF920F931F93D0
:100AC000CF93DF9300D0CDB7DEB78AE2809359058C
:100AD0008BE595E09A8389831AE010935A05CE013D
:100AE00001960E944E04E981FA81CF0101969A8312
:100AF00089831083CE0101960E94B204E981FA81B4
:100B0000CF0101969A83898310832091D201898134
:100B10009A8169EC72E0211102C069EB72E00E94D7
:100B2000CB2DE981FA8101900020E9F7DF011197CF
:100B3000FA83E9838AE08C932091000189819A816C
:100B40006AEA72E0222311F06AE972E00E94CB2D7A
:100B500089819A81FC0101900020E9F7CF0101977A
:100B60009A8389832091010164E972E0211102C016
:100B70006EE872E00E94CB2DE981FA81019000209D
:100B8000E9F7DF011197FA83E9838AE08C9380917A
:100B90000A018F3F09F05EC067E772E089819A81A0
:100BA0000E94CB2DE981FA8101900020E9F7DF0155
:100BB0001197FA83E9838AE08C938091E40188237A
:100BC00009F466C008E010E0F12CE12CC8010E9495
:100BD00060318F3F19F09FEFE91AF90A0B5F1F4F41
:100BE000083AEFE01E0791F780910201909103010E
:100BF0008E199F0997FF02C090E080E09F938F932A
:100C000088E391E09F938F938A818F9389818F935B
:100C10000E94662E0F900F900F900F900F900F90E4
:100C2000E981FA8101900020E9F7DF011197FA8349
:100C3000E9838AE08C9368E572E089819A810E9459
:100C4000CB2D0F900F90DF91CF911F910F91FF90BF
:100C5000EF900895909107011F929F939091080142
:100C60001F929F93909109011F929F931F928F93C0
:100C700087E191E09F938F938A818F9389818F93EE
:100C80000E94662E0FB6F894DEBF0FBECDBF8ACF8E
:100C900065E672E089819A810E94CB2DC1CF8FEFEA
:100CA0008093320284E190E0A0E0B0E0809395036D
:100CB00090939603A0939703B09398030895CF92CF
:100CC000DF92FF920F931F93CF93DF93CDB7DEB7E1
:100CD0002A970FB6F894DEBF0FBECDBF10928907DA
:100CE0008FEF8093EE011092ED011092EC0189EEEE
:100CF00096E00E944023182F8091E501811160C089
:100D00008091E6011F928F938091E7011F928F934C
:100D10008091E8011F928F9389E491E09F938F93D4
:100D20008BE091E09F938F930E94662E8091E60165
:100D30001F928F938091E7011F928F938091E8011A
:100D40001F928F9388E591E09F938F9389EA97E0B4
:100D50009F938F930E94662E8DEF0E9436262091DE
:100D60000A010FB6F894DEBF0FBECDBF2F3F09F4C6
:100D70005AC03091E8016CE38091E70190E0369F22
:100D8000800D911D11244091090150E0269F400DD6
:100D9000511D1124709108012091070130E0769FC8
:100DA000200D311D1124241735077CF18417950778
:100DB00054F141E0281739070CF040E040932F022E
:100DC0001092E5018091D201882381F18DEF810F8E
:100DD000823060F187EF9FE00E946031813031F511
:100DE00062E00E946C030E9427032A960FB6F894D3
:100DF000DEBF0FBECDBFDF91CF911F910F91FF904E
:100E0000DF90CF90089541E0D9CF841795074CF437
:100E100041E0281739070CF040E0842F80932F021F
:100E2000CFCF80E0FBCF10922F02CACF8CEF810F83
:100E3000823078F480912502883058F061E081E0BA
:100E40000E946C030E9427030E9431030E9400034A
:100E5000CCCF8091FD018111F1CFEBE8F7E020E0EC
:100E600090E08191882329F02F5F825D823008F421
:100E70009F5F87E0E93AF807A1F72332F8F696304A
:100E8000E8F61C3018F7E12FF0E0E75BF84F0C9420
:100E9000562B5507260726078F085F079508F90880
:100EA00004097D07260726070E0981E08093DD01EE
:100EB0001092DC0163E080E00E946C03C7CF809158
:100EC00025028F5F809325028CE291E090932402AB
:100ED000809323026AE273E080E492E00E94452E50
:100EE0000E945C0582ED0E94362682E08093DD013F
:100EF0001092DC0160E081E0DFCF61E572E089E51E
:100F000095E00E94CB2D09E515E0F8010190002045
:100F1000E9F78F010150110969E472E0C8010E94EC
:100F2000CB2DF80101900020E9F7CF0101976C016A
:100F300081EF9FE00E946031805DF601808382EF47
:100F40009FE00E946031805DF601818383EF9FE026
:100F50000E946031805DF601828384EF9FE00E94F1
:100F60006031805DF601838386010B5F1F4F9AE03D
:100F7000F92EF48265E472E0C8010E94CB2DF801DD
:100F800001900020E9F78F010150110986EE9FE0E2
:100F90000E9460314AE0B80190E00E944C2EF801B6
:100FA00001900020E9F78F010150110960E472E01F
:100FB000C8010E94CB2DF80101900020E9F78F01B4
:100FC0000150110987EE9FE00E9460314AE0B801AC
:100FD00090E00E944C2EF80101900020E9F78F016B
:100FE000015011096BE372E0C8010E94CB2DF8019A
:100FF00001900020E9F78F010150110988EE9FE070
:101000000E9460314AE0B80190E00E944C2EF80145
:1010100001900020E9F731978F010F5F1F4FF08299
:1010200067E372E0C8010E94CB2DF8010190002017
:10103000E9F78F010150110989EE9FE00E946031AC
:101040004AE0B80190E00E944C2EF8010190002087
:10105000E9F78F010150110962E372E0C8010E94B3
:10106000CB2DF80101900020E9F78F010150110903
:101070008AEE9FE00E9460314AE0B80190E00E9451
:101080004C2EF80101900020E9F78F010150110961
:101090006DE272E0C8010E94CB2DF80101900020A2
:1010A000E9F78F01015011098BEE9FE00E9460313A
:1010B0004AE0B80190E00E944C2EF8010190002017
:1010C000E9F78F010150110968E272E0C8010E943E
:1010D000CB2DF80101900020E9F78F010150110993
:1010E0008CEE9FE00E9460314AE0B80190E00E94DF
:1010F0004C2EF80101900020E9F7CF010197FC0187
:10110000F192CF016EEF71E00E94CB2D6AE273E0A5
:1011100080E492E00E94452E82ED0E94362682E015
:101120008093DD011092DC0191CE809125028F5FCA
:10113000809325028CE291E0909324028093230215
:101140006AE273E080E492E00E94452E6BE373E074
:10115000FB0101900020E9F7BF0161507109AE0168
:101160004F5F5F4F8BE393E00E94A12688E0C82E7B
:10117000D12CB601CE0101960E947627182F81113D
:1011800036C0F5E0CF0ED11C88EAC8168FE0D8062D
:1011900081F76BE373E089E595E00E94452E6BE7EC
:1011A00071E089E595E00E942F2E6EE771E0111144
:1011B00002C061E871E089E595E00E942F2E82ED82
:1011C0000E94362682E08093DD011092DC0180913E
:1011D000CB07811109C080913102811105C0809136
:1011E000CC07811101C08FB3612F82E065CE1FEF64
:1011F000D0CF6AE273E080E492E00E94452E60EA7C
:1012000071E089E595E086CF6AE273E080E492E0E0
:101210000E94452E1092290388E87FCF63E882E080
:101220000E947F26811112CE89E18093DD01109208
:10123000DC0183E00E94362609CE8091160290914F
:10124000940390FF06C0883C88F48F5F8093160259
:101250000895883C60F063E882E00E947F26811157
:1012600003C083E00E94362610921602089582334E
:10127000D8F363E882E00E947F268111F5CF82E0F7
:10128000F1CFCF93DF938091D201882321F080E0CA
:10129000DF91CF91089580912F028111F8CF809135
:1012A000770390910101911129C0882319F084E8F6
:1012B0000E94362680910001813011F48FEFE8CF33
:1012C00067E773E0FB0101900020E9F7BF0161507F
:1012D00071094DEC57E087E793E00E94A126C8E032
:1012E000D0E0BE018DEC97E00E9476278111E6CF19
:1012F0002596C83AFFE0DF07A1F7C9CF882319F088
:1013000084E80E94362681E090910001913009F036
:1013100080E08195BDCF8CE380930802109201029A
:10132000109200021092FA011092FB011092EF014C
:1013300008958CE3809308021092D00108951092D2
:10134000A403109201021092000210920502109262
:1013500004021092060210923C058CE3809308026E
:101360001092FD0108950E949F09109205021092AB
:101370000402109206021092580510925C0310921B
:101380003C051092A303109202021092D001109219
:10139000FE0108950E94B30986E980930501109229
:1013A0002702109226021092F6011092F501109277
:1013B00035021092F4011092F3011092EF01109295
:1013C000030283E68093060160ED8DEB0E945C26AC
:1013D0006DE989E80E945C2667EA8EE90E945C2636
:1013E00064ED82ED0E945C261092D70108958091F1
:1013F00028028D3051F41092FC011092D00110920D
:10140000FD0186E4809308020895809128028630C9
:1014100059F52091FC012F5F2093FC0180912A0255
:1014200090912B02853032E0930761F08A3331E0EE
:10143000930741F0833032E0930721F080519240CE
:10144000029770F48CE3809308028091FD012230B2
:1014500080F11092FC011092D0011092FD010895CC
:101460008CE380930802F5CF80912802843021F527
:101470008CE38093080210923C058091A9038E337F
:1014800031F480913D0590913E050A9720F08091BE
:10149000FD01811107C01092FC011092D0010E9441
:1014A000CA09DBCF9091FC019F5F9093FC019230C1
:1014B00080F60E943626D1CF809128028530B9F47B
:1014C00080912C0290912D028A30910539F09C0177
:1014D0002D7F2D30310511F04E9769F41092FC01EB
:1014E0008CE3809308021092D0010C94CA09809179
:1014F00028028091280208950F931F93CF93DF93C2
:10150000D0912802C0910602CD3909F4B5C008F087
:1015100070C0C43909F477C238F5CE3809F416C35F
:1015200088F4CB3809F4A2C0CD3809F475C1109203
:1015300005021092040210920602DF91CF911F91D2
:101540000F910895C13909F48BC1C33981F7D130A6
:1015500009F403C380915D038F5F80935D03833043
:1015600008F0FBC28C2FCBC1C83909F4EDC188F457
:10157000C53909F450C2C639D1F686E9D13009F02F
:1015800034C181E00E948B09109202021092A403E0
:10159000CECFCA3909F4B7C108F4EAC1CC3939F65B
:1015A000D13029F68DED91E00E944703FC01892B93
:1015B00009F4BDCF27812C3209F0BCC13796808158
:1015C0008C3209F0319680818C3209F031964AE0F4
:1015D00050E070E060E0CF0101960E94732B66231B
:1015E00029F08DEF860F823008F0A6C10E94CA094B
:1015F0009ECFC93AC8F4C53A08F0A9CFC03A09F459
:10160000A6CF58F4CE3909F4D2C0CF3909F08FCF24
:10161000D13009F044C18EE8E8C0C13A09F453C1A1
:10162000C33A09F494CF83CFC13D90F4CD3B08F485
:1016300022C2D63009F060C280912A0290912B021A
:101640008134914009F45BC28C2F0E9436265CC223
:10165000C53D09F45BC2CC3F09F069CF8DEC91E048
:101660000E944703892B09F472CFC0CF8CE80E94F7
:1016700036261092F0015BCFD13009F058CF87EFBA
:1016800091E00E944703009709F451CF62E270E0B5
:101690000E943A2E009709F44ACFEC01219662E2AB
:1016A00070E0CE010E943A2E8C016CE270E0CE0117
:1016B0000E943A2E0115110509F439CF009709F45B
:1016C00036CFEC012196C017D10708F030CF6AE37E
:1016D00070E0CE010E943A2E009709F428CF8017BF
:1016E000910708F024CFFE0101900020E9F731971F
:1016F000EC1BFD0B389708F41ACF88E0FE01ABE035
:10170000B1E001900D928A95E1F71092130170916A
:101710000A017F3F19F410922F0209CF20910B018B
:101720002053330BEAE0E29FC001E39F900D1124A8
:1017300020910C012053330B820F931F6CE3689FA1
:10174000A001699F500D112420910E012053330BED
:10175000E29FC001E39F900D112420910F012053BF
:10176000330B820F931F480F591F2091090130E05E
:10177000769F200D311D1124709108018091070181
:1017800090E0769F800D911D1124821793075CF0E5
:101790004217530724F0841795070CF0BCCF8FEF46
:1017A00080932F02C4CE42175307ACF3B4CFD1308D
:1017B00099F48AEE91E00E944703892B59F08FEF4C
:1017C0008093260210922E0281E90E943626109202
:1017D0001502ADCE8DE8F9CFD53051F480912C02B1
:1017E00090912D020E9731F48EE90E9436269FCEFD
:1017F000D43021F0809128028038B1F78091150211
:101800008F5F80931502843118F00E94CA09DFCFE0
:1018100084E180930802E8CFD13061F48FEF8093A8
:10182000260210922E0281E90E94362682E38093DE
:1018300008027DCED53079F480912C0290912D0252
:101840008031910521F48FEF80932E0270CE0E9798
:1018500021F48DE8CACFD430E1F380912802F9CF8A
:10186000D13011F48FE9C1CFD63089F480912A02AA
:1018700090912B028A3321E0920721F0853092402B
:1018800009F055CE8CE38093080281E9AECFD430C5
:10189000E1F380912802803809F049CEF6CFD630A6
:1018A00081F480912A0290912B028A3321E09207E1
:1018B00021F08530924009F03ACE84E1809308020D
:1018C000D1CF8AE0FBCFD13049F0D53081F480917F
:1018D0002C0290912D020397029748F48091030205
:1018E0000E9436261092030210925D030AC0809176
:1018F0005D038F5F80935D03833018F481EA0E945B
:10190000362682E094CFD13089F484EE91E00E94B3
:101910004703009709F40BCE4AE050E070E060E026
:1019200006960E94732B6093060101CE83E6809396
:101930000601FDCD389643CE6B7F613009F0F7CDBF
:101940008FEF8093D701F3CDD13049F0D53051F4EA
:1019500080912C0290912D024597029718F41092D5
:10196000F601E5CD8091F6018F5F8093F601DFCD22
:10197000D13009F042C046E050E066ED71E089EAFE
:1019800093E00E94EA2D892BC1F586ED91E00E943B
:1019900047036CE270E00E943A2E009771F16CE20E
:1019A00070E00E943A2E009741F162E270E00E94DE
:1019B0003A2E009711F18C010F5F1F4F62E270E029
:1019C000C8010E943A2E0097C1F008171907A9F024
:1019D000801B910B8C30910514F08BE090E0EC01B2
:1019E000DD27AE01B80185E392E00E941F2ECB5C9B
:1019F000DD4F18821092F5019ACD8091F5018F5F2D
:101A00008093F50194CDD63009F47BCF84E9D130B1
:101A100009F075CF76CFD13021F0809128028C303B
:101A2000A1F48FEF8093020210925D038091010177
:101A300081117DCD8CE291E09093E3018093E201EE
:101A400084E18093080284EAD0CED43021F08091E2
:101A50002802803849F480915D038F5F80935D0395
:101A6000833010F485E9C1CED33011F41092020214
:101A700010925D035CCDD130A9F58FEC91E00E940E
:101A800047036AE070E00E943A2E009741F1EC01B2
:101A900021966DE070E0CE010E943A2E0097F9F099
:101AA0008C1B9D0B97FD019695958795893CA8F415
:101AB0008093FF0141E652E06091FF01CE010E9458
:101AC0007F2981ED0E943626809106028C5E0E945D
:101AD00036268FEF8093FE012ACD88ECE9CF109255
:101AE000FE0125CDD63021F01092FE018CE39FCE71
:101AF0008C2F0E943626F8CFD43009F4A5CD8091E2
:101B00002802803809F4A0CD89E191CED43029F0A3
:101B100080912802803809F0ABCF1092A403809105
:101B20005D038F5F80935D03833010F485ED5DCEA0
:101B300010925D0380E00E948B09109202021092C5
:101B4000A4031092010210920002F1CCD13029F0CE
:101B50008EE80E94362684E16ACE809103020E94BC
:101B6000362680910302895A843108F0BBCE109248
:101B7000FE01B8CE0F931F93CF93DF93809128027D
:101B800080912802803821F080910702882381F01B
:101B900080E8809328020E947C0A82E380930802F6
:101BA0008FEF80930702DF91CF911F910F910895DE
:101BB00080912802813829F5209138053091390526
:101BC00080913D0590913E052817390761F44091B9
:101BD0003805509139056AEF75E087EA93E00E9475
:101BE000122E892B01F380913C058111DCCF80E816
:101BF000809328028FEF8093070282E3809308028C
:101C0000D2CF809128028A3009F042C086EC91E060
:101C10000E94470362E270E00E943A2E009739F179
:101C20008C010F5F1F4F62E270E0C8010E943A2EE4
:101C30000097E9F0EC01C01BD10BC031C0F4DD27E7
:101C4000AE01B80187E793E00E941F2EC958DC4F10
:101C500018828091F50181111092F50180910601A1
:101C6000882311F0833619F480E18093060187E917
:101C70000E94482680910602895A843110F41092FD
:101C8000FE011092050210920402109206028BCF00
:101C900080912802833089F480E00E948B091092A1
:101CA00002021092A403109201021092000280918D
:101CB0000602853D09F077CFE4CF8091280282307B
:101CC000D1F480910602853D11F40E947C0A809136
:101CD000FA0181110BC08AE58093FB018FEF80939D
:101CE000A40310920102109200025DCF8093FB01C9
:101CF0001092FA01F3CF8FEB91E00E944703009717
:101D000001F1FC01379681918032E9F39091010154
:101D1000911114C0813391F48FEF8093320284E1EA
:101D200090E0A0E0B0E08093950390939603A09399
:101D30009703B09398038BE080935E031092280280
:101D400032CF809128028C3071F480910101882378
:101D500009F429CF1092020286E9DF91CF911F91F9
:101D60000F910C94362680912802893061F480917D
:101D70000602853D11F40E947C0A80E00E948B09D6
:101D80001092A403AECF80912802873081F3809116
:101D90002802883029F588EB91E00E9447036CE225
:101DA00070E00E943A2E0097A1F04AE050E070E007
:101DB00060E001960E94A12C9B0121503109243141
:101DC000310538F488EA860F0E94362681E0809338
:101DD000080280910602895A843108F450CFE3CE7C
:101DE000809128028E3011F484E1F1CF8091FD01C1
:101DF00081110E94F70980913D0590913E05892B44
:101E000009F4D1CE80912802882309F4CCCEDF9149
:101E1000CF911F910F910C947C0A811105C0862FE0
:101E20000E94362680E00895109205021092040266
:101E30006093060240930302C9010E94601D8FEF68
:101E400008950F93CF93DF939FEF90933C051092EB
:101E5000A303811149C085E08093DD011092DC016C
:101E600082ED8093FD01909361024AE06DEC77E092
:101E700081E692E00E94EA2600E020E04DEC57E087
:101E800060E472E081E692E00E94BA2A49E555E0FA
:101E9000FA0101900020E9F7AF014150510969E5CD
:101EA00075E00E940529815692408093FF01C09100
:101EB000FF01C15080916102C81B46E050E061EB18
:101EC00071E08CEF95E00E94C22D4AE062E076E07E
:101ED0008C2F90E00E944C2E8AEF80930401DF91BA
:101EE000CF910F910C947C1D85E08093DD011092C1
:101EF000DC0183ED8093FD0100915905909361020F
:101F00004AE06DEC77E081E692E00E94EA2620E06C
:101F10004DEC57E060E472E081E692E00E94BA2A5C
:101F2000EC0140915A0550E06BE575E00E941F2ED0
:101F300080915A058C0F9D2F911DB5CFEF92FF9286
:101F40000F931F93CF93DF9300D01F92CDB7DEB7CF
:101F50009091FE0191114DC08091FD01811149C008
:101F60008091A403811145C080910202811141C07A
:101F70008091060281113DC080910802811139C013
:101F800020913C0581E0211101C080E0811132C027
:101F90002091C10026FD2EC020912702222351F15D
:101FA0002091280201E0211125C010918B07E12E1C
:101FB000F12C1C3909F49BC208F072C0113909F4E4
:101FC000B4C330F51C3809F494C3B0F41A3809F4DA
:101FD0004AC308F061C3193809F4BDC380E00F900B
:101FE0000F900F90DF91CF911F910F91FF90EF9085
:101FF000089581E000E0D9CF1E3809F424C308F425
:1020000082C31F3809F4C7C3103941F78FEFE7CFF8
:10201000163909F4CFC1B8F4143909F407C308F02C
:10202000F3C11339D9F68091CB0781110AC0809191
:102030003102811106C08091CC07811102C0F99B49
:1020400096C383E947C1183909F477C208F486C1F9
:10205000193909F49BC21A3909F69091A403911118
:1020600015C02091000230910102232B79F4909148
:10207000330291110BC090913C05911107C0811161
:1020800005C08091D001882309F423C28091060104
:10209000833611F08111BACF80E180930601B6CF6B
:1020A000113D08F081C01D3B08F02BC1143A09F422
:1020B000B9C1B0F41D3909F492C222E6210FE22F12
:1020C000F0E0EE56FF4F45915491FEE02F9F9001B6
:1020D000112424563F4F612F802F0E940D0F96CF61
:1020E000193A58F3911196C08091D701882309F4C9
:1020F00091C08091A40381118DC0809100029091C4
:102100000102892B09F086C080910802811182C0EA
:102110008091D00181117EC08091FD0181117AC032
:1021200080910602813909F475C08091CB07811135
:1021300071C08091310281116DC08091CC078111F5
:1021400069C0F99967C061E081E00E947F26811132
:1021500061C064ED82ED0E947F2681115BC067E95A
:1021600085E90E947F26811155C0002309F452C0E1
:102170001092050210920402109306028FEF8093D2
:10218000FE0146E050E06AEA71E08CEF95E00E94C3
:10219000C22D4AE062E076E0C701885A91090E94A8
:1021A0004C2E0E947C1D32CF143D09F452C080F4A5
:1021B000113D11F544E352E06AE273E081E692E0FA
:1021C0000E949C29009709F05CC01092FE011ECF6E
:1021D000173D09F482C01D3F09F4E7C2153D09F01F
:1021E000FDCE8091D701882329F0809108028823B1
:1021F00009F438C185ED6EC08091A40381110AC035
:102200008091000290910102892B21F480910802B3
:10221000882311F0812F5EC08091CB078111FACF06
:10222000809131028111F6CF8091CC078111F2CFDC
:10223000F999F0CF002371F3109205021092040275
:102240001093060281E0133D09F080E00E94210F07
:10225000DDCE10923C054091FF0161E672E08AEF0D
:1022600095E00E94D62A8091FF0190E0880F991F87
:102270000196FC01E750FA4F2AE120830E94471D96
:10228000C5CE9E012F5F3F4FAE014E5F5F4FBE0137
:102290006D5F7F4F0E94F3299E012F5F3F4FAE017C
:1022A0004E5F5F4FBE016D5F7F4F0E94162A2B81EC
:1022B0002093E8012A812093E70129812093E601F8
:1022C000909389038093880341EA69EE76E00E9447
:1022D000B12887ED0E94362699CE8091CB078111D7
:1022E000F8CF809131028111F4CF8091CC07811118
:1022F000F0CFF999EECF8BE080935E030E945F06EA
:1023000064CF911187CF8091A403811183CF8091F5
:10231000000290910102892B09F07CCF8091330259
:10232000811178CF80913C05811174CF002309F48D
:1023300071CF10920502109204021093060246E03B
:1023400050E063EA71E08CEF95E00E94C22D4AE014
:1023500062E076E0C7018C5B910921CF8091CB07C9
:1023600081110AC080913102811106C08091CC0791
:10237000811102C0F99B02C087E9ACCF8BE080934A
:102380005E030E944109882361F080910101882346
:1023900079F08CE991E00E944703892B11F40E94A7
:1023A0004F0686E90E9436268FEF8093EF0117CE05
:1023B00085E9F8CF8091FD01811118C08091A403B7
:1023C000811114C080910602811110C080913C05DA
:1023D00081110CC08091C10086FD08C08091270248
:1023E000882321F080912802882311F086E972CF9A
:1023F000109205021092040286E9809306028AE98F
:1024000091E00E94601D02CE85E9002309F462CFAD
:10241000109205021092040285E98093060288E971
:1024200091E0EFCF80910802882311F084EA52CF27
:102430008091C10086FDFACF809127028823B1F3F5
:10244000809128028111F2CF809106028111EECF96
:10245000109205021092040284EA8093060281E938
:1024600091E0CFCF8091A4038111D0CD002309F456
:10247000C1CE109205021092040285ED80930602EF
:1024800085E180935E0384E68093FC056BE373E053
:102490008DEF95E00E94452E8BE393E0FC010190C7
:1024A0000020E9F7CF018C5393408F5F90E0FC014F
:1024B000E450FA4F2BE3208383509A4FFC011082A3
:1024C0000E947C1D8CE291E09093010280930002B7
:1024D0009DCD8AE9002309F4FDCE109205021092E9
:1024E00004028AE9809306028CE891E08ACF9091F9
:1024F000A40391118BCD2091000230910102232B76
:1025000009F084CD90913302911180CD90913C05DA
:1025100091117CCD81117ACD8091D001811176CD40
:102520008CE9002309F4D6CE109205021092040221
:102530001093060285E891E064CF9091A403911175
:1025400014C02091000230910102232B71F490916C
:10255000330291110AC090913C05911106C081117E
:1025600004C08091D001882319F01092F6014ECD5D
:1025700088E9002309F4AECE1092050210920402FD
:1025800088E9809306028CE791E03BCF9091A40309
:10259000911114C02091000230910102232B71F49B
:1025A0009091330291110AC090913C05911106C09F
:1025B000811104C08091D001882319F01092F50197
:1025C00025CD89E9002309F485CE109205021092E9
:1025D000040289E98093060285E791E012CF909189
:1025E000A403911113CD2091000230910102232BFD
:1025F00009F00CCD90913302911108CD90913C05DA
:10260000911104CD811102CD8091D0018111FECCB8
:102610008DE9002309F45ECE1092050210920402A7
:102620008DE9809306028EE691E0EBCE84E90023EB
:1026300009F450CE10920502109204021093060283
:1026400087E691E0DECE8EE8002309F443CE1092B7
:102650000502109204021093060280EA809303029E
:1026600082E591E0CECE8BE80E94362684E180930D
:10267000330210923E0510923D0510924D0580B731
:10268000826080BFF8948091C10080688093C1000F
:10269000789400004598BACC8091F0018111B6CCB5
:1026A00080913302882311F08BE814CE8091C10011
:1026B00086FDFACF10923E0510923D0510924D0511
:1026C00080B7826080BFF8948091C1008068809359
:1026D000C1007894000045981092050210920402FF
:1026E0008BE88093060284E18093F00189E491E015
:1026F00088CE8FEF809327028EE90E94362688E2EB
:102700008093080283CC8DE8002309F4E3CD109276
:102710000502109204028DE8809306026CE371E0DA
:102720008CEF95E00E94CB2D3CCD80911402882344
:1027300011F08FE9CFCD8FEF8093140281E9002350
:1027400009F4C8CD109205021092040210930602FB
:1027500083E391E056CE0E94BA0D80912802813821
:1027600019F084E180930401109228024FCC0023D9
:1027700009F467CC109205021092040283E9809359
:10278000060268E271E08CEF95E00E94CB2D8FE8A5
:102790008093030206CD80912602882309F436CC6B
:1027A00084E90E94362680E995CD8091CB0781117E
:1027B0000AC080913102811106C08091CC0781113D
:1027C00002C0F99B02C08DEF85CD0023E1F310928A
:1027D0000502109204028DEF8093060269EA77E009
:1027E0008CEF95E00E94452EDCCC80910802882376
:1027F00039F0815080930802811102C010920702C3
:102800008091D3019091D401009729F00197909382
:10281000D4018093D3018091E2019091E30100976C
:1028200071F001979093E3018093E201892B39F4D1
:1028300080910202882319F086E90E943626809151
:10284000F0018823C1F081508093F001811113C001
:102850001092050210920402109206028BE80E9468
:10286000362610922902F8948091C1008F7B8093C4
:10287000C100789400000E941B1F882319F08AE889
:102880000E9436268091FB01882341F0815080937D
:10289000FB01811103C086E90E9436268091000267
:1028A00090910102009771F001979093010280933B
:1028B0000002892B39F482E00E948B0910920202F7
:1028C0001092A403809113028F5F809313028033D0
:1028D00009F04EC08AE90E9448268091330288237D
:1028E00019F08150809333028091D701882309F435
:1028F0005EC080910601833611F0811158C080912D
:10290000F7019091F801883522E0920750F4019682
:10291000883522E0920709F443C09093F801809330
:10292000F7018091F601863020F48091F501843121
:1029300010F00E94CA098091D601882339F0815095
:102940008093D601811102C00E94CA098091D701EB
:10295000811132C08091F3019091F401019690931E
:10296000F4018093F301813B944050F10C94CA0927
:10297000843311F48CE9AFCF883311F489E9ABCFFC
:102980008C3311F488E9A7CF803508F4A6CF809165
:10299000D70110921302882309F49FCF8DE99BCFB2
:1029A0001092F8011092F7010E94CA09BACF109252
:1029B000F8011092F701B5CF1092F4011092F301D3
:1029C000089580912802882309F457C089E80E945D
:1029D00036268091A303882329F084ED0E943626B1
:1029E0001092A3038091D701882309F455C08091E8
:1029F000FD01882309F450C08091110290911202C8
:102A00000196883823E1920708F03CC090931202A7
:102A1000809311028091060290910202882309F4AA
:102A2000A8C02091100282136AC091116AC08B382D
:102A300031F09CE2980F44EF51E0923010F440EEF8
:102A40005EE29EE2980F923010F44CED55E020913A
:102A50000E0230910F022F5F3F4F2417350708F504
:102A600030930F0220930E0210920D0210920C026E
:102A7000809106028093100208950E9470218111B6
:102A8000A5CFA7CF109212021092110284E080937A
:102A900028020E94F709BECF109212021092110272
:102AA000B9CF10920F0210920E028C3F29F1863995
:102AB00001F193E7980F9230E0F09DE6980F923085
:102AC000C0F092E6980F9A30A0F097E5980F9832F0
:102AD00080F0109203020E94B30910920502109236
:102AE00004028CEF809306021092FC050E947C1D6C
:102AF000BBCF80930302EFCF0E94CA09B5CF9923C1
:102B0000C1F180912802811134C0F89480913D0573
:102B100090913E05789420910C0230910D02281777
:102B2000390720F490930D0280930C0280910C02DF
:102B300090910D020A9708F49BCF80910E0290911C
:102B40000F020196843F21E0920728F490930F0230
:102B500080930E028DCF10920F0210920E0281E030
:102B60000E948B0910920D0210920C020E94CA0959
:102B70007FCF10920F0210920E02992309F474CFA6
:102B800077CFBF92CF92DF92EF92FF920F931F9376
:102B9000CF93DF9380918B079091FE0191112BC011
:102BA0009091FD01911127C09091A403911123C030
:102BB0009091020291111FC09091060291111BC0C9
:102BC00090910802911117C090913C0521E030E0EE
:102BD000911102C030E020E0232B69F49091C100F4
:102BE00096FD09C090912702992329F0909128021F
:102BF000992309F478C0883809F077C065C08091BE
:102C0000CB07811161C08091310281115DC080913B
:102C1000CC07811159C0F99957C08AE280935905B0
:102C20000AE515E085E0D82E93E2C92E2AE0B22EFF
:102C3000C0912903CD9D7001112488E0E80EF11C9C
:102C4000C7010E9460318F3F41F14FEFB801C701CA
:102C50000E945227E801C80FD11DC8828E010E5F65
:102C60001F4FB982809129038F5F809329039E01B2
:102C70002D5E3F4F295F354050F48F3FC9F61A82D1
:102C800082ED0E94362681E08093D00120C08F3FE4
:102C9000B1F388E80E943626F2CFCF5FC0932903B4
:102CA000CF3F31F6E5E009351E0791F0F8011082BB
:102CB00082ED0E94362681E08093D00109C0809188
:102CC000D001882309F49BCF88E80E943626CFEFF5
:102CD0008C2FDF91CF911F910F91FF90EF90DF909C
:102CE000CF90BF900895883851F3C0E0F1CF089598
:102CF0000E944C1C0E941D090C94F51CCF93DF937D
:102D00001F92CDB7DEB78091CB07811131C0809182
:102D1000310281112DC08091CC07811129C0F99910
:102D200027C0198291E080913202811101C090E0A8
:102D300081E04091950350919603609197037091C3
:102D40009803452B462B472B09F480E0981711F088
:102D500081E0898385E090E00E9460319981891744
:102D600039F041E065E070E0CE0101960E9448280C
:102D70000F90DF91CF9108950E9478160E94F5136D
:102D800080915E03882331F0815080935E0381112E
:102D90006CC0409A8091230290912402009739F0F0
:102DA00001979093240280932302892B11F41092AF
:102DB000250280918B07882309F482C09EE2980F38
:102DC000923008F076C090912202981372C08091E0
:102DD0002002909121028639910508F048C00196A1
:102DE00090932102809320028091FD01882309F4B1
:102DF00089C080911A0290911B028C3221E09207C7
:102E000008F061C0019690931B0280931A02809192
:102E1000EE01882309F48CC08091EC019091ED01C2
:102E20008436910508F075C08091EC019091ED0118
:102E300001969093ED018093EC018091DD01882350
:102E400009F489C09091DC019F5F9093DC0196307A
:102E500028F01092DC0181508093DD018091DC012B
:102E6000823008F476C0409A0895409893CF63ED7D
:102E700082ED0E945C2680911C0290911D028F3F82
:102E8000980729F0019690931D0280931C0281E916
:102E90000E944826109225021092240210922302CA
:102EA0001092210210922002109222021092FD0133
:102EB0009BCF80932202109221021092200294CF85
:102EC00010922202F8CF10921B0210921A020E9456
:102ED00000031092FD011092FC0110923C0510922B
:102EE000D001809119028F3F19F08F5F80931902F2
:102EF00080911902833008F48ACF109219020E943F
:102F0000CA0985CF10921B0210921A021092190260
:102F10007ECF8FEF8093EB01F89488E198E00FB6B5
:102F2000F894A895809360000FBE90936000FFCF47
:102F30008091E9019091EA01892B09F47ECF80917B
:102F4000E9019091EA0101979093EA018093E901E8
:102F500074CF409808958091D701811102C04098A4
:102F60001CC080915E038111FACF809106018031EF
:102F7000B0F480910B028F5F80930B02823318F0C4
:102F800081E080930B0280910B02883241F38B32F7
:102F900031F38E52843018F3409A0C947E161092BE
:102FA0000B02F1CF0E94EB1C0E94E1140C94E42769
:102FB000F89480916E008D7F80936E00789400006D
:102FC0008091DB01811109C0F89480916E008260CC
:102FD00080936E007894000008951092DB01809138
:102FE000DA01882329F081E08093D9011092DA0177
:102FF000F89480916E00826080936E007894000057
:103000008091D90180FF33C080910A028F5F8A309E
:1030100079F180930A020000F89400B601FE26C000
:103020008091C1008F778093C100789480913D0595
:1030300090913E05892B11F180914D058F5F809312
:103040004D058333D8F0459A8091C1008F778093E6
:10305000C10080B78D7F80BF1092A6031092A50398
:1030600010923B0510923A051092A20378940895AD
:1030700010920A0283E08093D901CDCFF894809119
:10308000C10080688093C10078940000EFCFA895BC
:1030900082E084BD83E085BD8FE387BDEEE6F0E08E
:1030A00080818260808383B7817F83BF0895CF93BF
:1030B000DF9344E050E061E070E08FE593E00E9430
:1030C000503180915F0381508E3FF0F081E4809316
:1030D000CD0780935F0382E48093CE0780936003E3
:1030E00083E48093CF078093610384E48093D007C7
:1030F00080936203F999FECF44E050E061E070E014
:103100008FE593E00E9468318EEF9FE00E9460316E
:103110008F3F09F4D2C0809300018FEF9FE00E949F
:1031200060318F3F09F4D4C0809301018AEF9FE0A2
:103130000E94603180930A018BEF9FE00E94603112
:10314000809309018CEF9FE00E9460318093080119
:103150008DEF9FE00E9460318093070189EF9FE02F
:103160000E9460318F3F09F4BEC08093E40185EF77
:103170009FE00E946031C82F86EF9FE00E9460317F
:10318000CF3F09F0B3C08F3F09F0B0C080E293E0B9
:10319000909303018093020181E09091E4019111E9
:1031A00001C080E0609102010E946C0380910A01DD
:1031B0008851873E78F0809109018C53833C50F010
:1031C000809108018851873E28F0809107018C5337
:1031D000833C28F5F999FECF6FEF8AEF9FE00E94BC
:1031E0007831F999FECF6FEF8BEF9FE00E94783135
:1031F000F999FECF6FEF8CEF9FE00E947831F9993B
:10320000FECF6FEF8DEF9FE00E9478318FEF8093BC
:103210000A018093090180930801809307011092AD
:103220002F0287EF9FE00E9460318F3F09F46AC050
:103230008093D201C0EFDFE0CE010E9460318F3F6A
:1032400031F4F999FECF60E0CE010E9478312196E9
:10325000C53F8FE0D80781F7C6EEDFE0CE010E94C0
:1032600060318F3F31F4F999FECF60E0CE010E94CA
:1032700078312196CD3E2FE0D20781F710922502BA
:1032800010922402109223021092FD0180910902F3
:103290008F3F19F08F5F80930902F999FECF6091FB
:1032A00009028CED9FE00E947831F999FECF62E02F
:1032B00080E0DF91CF910C946C0381E0809300015A
:1032C000F999FECF61E08EEF9FE00E94783125CF23
:1032D00081E080930101F999FECF61E08FEF9FE0DB
:1032E0000E94783123CF1092E40141CF982F8C2F88
:1032F000909303018093020101978032934008F07C
:1033000045CF4ACF1092D20195CFDF92EF92FF9234
:103310000F931F93CF93DF93CDB7DEB7A5970FB66B
:10332000F894DEBF0FBECDBF10918B07133809F4A0
:10333000A6C030F41230F1F008F059C080E049C066
:10334000153809F4A7C108F4D1C0163809F407C22A
:103350001738A1F78091CB0781110AC08091310203
:10336000811106C08091CC07811102C0F99B50C227
:1033700087E80FC08091CB0781110AC0809131028C
:10338000811106C08091CC07811102C0F99B04C055
:1033900082E00E9436261CC081E48093CD07809392
:1033A0005F0382E48093CE078093600383E480937D
:1033B000CF078093610384E48093D00780936203F6
:1033C00064E081E090E00E946F2883E380935E03D5
:1033D0008FEFA5960FB6F894DEBF0FBECDBFDF917D
:1033E000CF911F910F91FF90EF90DF900895809102
:1033F000CB0781110AC080913102811106C08091F2
:10340000CC07811102C0F99B02C0812FC2CF0DEF02
:10341000010F40E250E06FEF70E08DEC97E00E940A
:10342000282E011120C081E48093CE0780935F0392
:1034300082E48093CF078093600383E48093D00776
:103440008093610384E48093D10780936203109298
:10345000D2071092320210929503109296031092A6
:1034600097031092980360E220E2029FC0011124AA
:103470000E946F2881E0810F0E943626A6CF80919E
:10348000CB0781110AC080913102811106C0F090F2
:10349000CC07F11002C0F99B02C083E87ACF10E09C
:1034A00000E0C8010E946031F801E457FF4FE49149
:1034B0008E1711F0FF24FA940F5F1F4F063011058D
:1034C00081F708E010E0C8010E9460318F3F41F4AD
:1034D0000F5F1F4F083A8FE01807A9F7FF2011F080
:1034E00083E057CF0E945718409A72CF8091CB0744
:1034F00081110AC080913102811106C08091CC07F0
:10350000811102C0F99B02C084E843CFD0902F0202
:10351000D1105ECF8E010B5E1F4F67E773E0C801CD
:103520000E94452EF80101900020E9F7BF0161508B
:1035300071094DEC57E0C8010E94A126809100015D
:10354000813091F098E0E92EF12CB7018DEC97E0F5
:103550000E94762781115EC0F5E0EF0EF11C28EA8B
:10356000E2162FE0F20689F78091E401882329F022
:10357000DD2009F452C0DD24DA9481E09091E40169
:10358000911101C080E061EF7FE00E94732881E02B
:10359000D11080E062EF7FE00E9473288091E40107
:1035A000882359F1D11029C0F80101900020E9F7D2
:1035B0003197CF01801B910B182F64EF7FE00E94A1
:1035C00073281330D0F0BE016F5F7F4F83E693E026
:1035D0000E94452E83E693E0FC0101900020E9F76C
:1035E000CF0184569340039740F063EF7FE081E082
:1035F0000E94732886E80E94362680910101882364
:1036000009F4E6CE80910001813009F03FC00E94AC
:103610004F06DECEDD24DA94A7CFF801019000201A
:10362000E9F73197E01BF10BCE0101967C01EA30FE
:1036300058F1E950FF0BB8016E0F7F1F0E94452E15
:10364000F70101900020E9F7BF01615071094DECCD
:1036500057E0C7010E94A12680910001813009F442
:103660008CCF88E0E82EF12CB7018DEC97E00E941A
:103670007627811180CFF5E0EF0EF11C28EAE216E3
:103680002FE0F20689F779CFB801D8CFDD2009F411
:103690009FCEBDCF8091CB0781110AC080913102AE
:1036A000811106C08091CC07811102C0F99B02C034
:1036B00085E86FCE8BE393E00E940703811188CEEB
:1036C0006BE373E0FB0101900020E9F7BF0161505B
:1036D00071094DEC57E08BE393E00E94A12608E0CE
:1036E00010E0C8010E9460318F3F91F565E0C8018C
:1036F0000E946F288091E40108E010E0F12CE12C99
:10370000882309F465CEC8010E9460318F3F19F00B
:103710002FEFE21AF20A0B5F1F4F083A8FE01807EB
:1037200091F78091020190910301E816F90608F4DF
:103730004FCE1092E40169EF7FE080E00E94732891
:10374000109200016EEF7FE080E00E94732840CE6F
:103750000B5F1F4F083AFFE01F0719F639CE809123
:10376000CB0781110AC080913102811106C080917E
:10377000CC07811102C0F99B02C086E80ACE63E63D
:1037800073E0FB0101900020E9F7BF01615071096E
:10379000AE014F5F5F4F83E693E00E94A12683E670
:1037A00093E00E940703811113CE85E0FE0131965C
:1037B000ADECB7E001900D928A95E1F708E010E0DA
:1037C000C8010E9460318F3FE1F465E0C8010E94AA
:1037D0006F288091E40108E010E0F12CE12C8823AF
:1037E00009F4F6CDC8010E9460318F3F19F02FEF28
:1037F000E21AF20A0B5F1F4F083A8FE0180791F7A1
:1038000090CF0B5F1F4F083AFFE01F07C9F6E0CDCE
:103810006BE373E0FB0101900020E9F7BF01615009
:1038200071094DEC57E08BE393E00E94A12608E07C
:1038300010E0B8018DEC97E00E947627882379F09C
:1038400010923B034DEC57E06CE373E08BE393E0A5
:103850000E94A12665E0C8010E946F28B9CD0B5FC8
:103860001F4F083AFFE01F0721F7B2CD0E949E0FBD
:10387000811106C00E948519811102C00E94C115E4
:103880000C947426E82FF0E0E557FC4F9081907F70
:1038900081E009F080E0089590919403892F8D7F55
:1038A0008093940380918B03807F90FD56C081119B
:1038B0004BC080919D0390919E03A0919F03B09176
:1038C000A0034091990350919A0360919B037091DA
:1038D0009C0384179507A607B70798F40196A11DC6
:1038E000B11D80939D0390939E03A0939F03B0937B
:1038F000A003481759076A077B0719F481E08093F2
:103900009403809194039091A103891781F080938F
:10391000A103982F92609093940380FD53C010925E
:103920009D0310929E0310929F031092A00380911A
:103930008A03882341F0909194039D7F9093940390
:10394000815080938A03089510929D0310929E03E4
:1039500010929F031092A003D4CF882351F180913D
:10396000900390919103A0919203B09193034091A1
:103970008C0350918D0360918E0370918F03841797
:103980009507A607B70708F0BCCF0196A11DB11D8A
:103990008093900390939103A0939203B093930329
:1039A000481759076A077B0709F0ABCF10929403B9
:1039B000A8CF10929003109291031092920310924C
:1039C00093039FCF10929003109291031092920351
:1039D00010929303ACCF80918B03189B86958160E6
:1039E0001899880F80938B03089580919503909187
:1039F0009603A0919703B09198032091320200970B
:103A0000A105B10591F00197A109B10991F481E0F7
:103A1000211180E0282F10929503109296031092A6
:103A200097031092980380933202222359F05D9AF3
:103A300008958093950390939603A0939703B09372
:103A40009803F3CF5D98089584E190E0A0E0B0E0A2
:103A500080938C0390938D03A0938E03B0938F0378
:103A60008093990390939A03A0939B03B0939C0334
:103A700008951092A103109295031092960310924C
:103A80009703109298038EE180938A030895909390
:103A90003905809338051092420510924105E0ECFB
:103AA000F0E0808180648083F894E1ECF0E0808134
:103AB00080648083789400008FEF809329020895BA
:103AC000CF93DF93FC0181E48093FA0584E5809332
:103AD000FB05ACEFB5E093E0ED0184918D9381118E
:103AE00008C08DE08883892F90E0DF91CF910C94FE
:103AF000471D31969F5FF0CFEAEFF5E081E48083C8
:103B000084E5818301900020E9F7CF018B5F954028
:103B10009927FC01E650FA4F2DE0208301960C9482
:103B2000471D78941F920F920FB60F9211240BB677
:103B30000F922F933F938F939F93EF93FF93209137
:103B4000410530914205809138059091390528173B
:103B50003907A8F0F8948091C1008F7B8093C10051
:103B600078940000FF91EF919F918F913F912F9159
:103B70000F900BBE0F900FBE0F901F9018953499A9
:103B800010C08091410590914205FC01E650FA4F2A
:103B90002081019690934205809341052093C600B1
:103BA000E1CF8FEF80932902DDCF8F938FB78F9373
:103BB0008091C1008F778093C10078948BB78F93E9
:103BC0008091C6000F924F931F9211242F933F9321
:103BD000EF93FF93AF93BF939F9320913D05309157
:103BE0003E058F3F09F4E5C0E7EAF3E0A90120397B
:103BF00091E0390708F0CAC02115310559F19091BB
:103C0000A7038D3009F59D30F9F09A30E9F09091D5
:103C1000A203911119C091E890932802459AF89453
:103C20009091C1009F779093C10090B79D7F90BF06
:103C3000789400001092A6031092A50310923B0501
:103C400010923A051092A2032115310519F09081C6
:103C50009D30F9F08A30E9F49091A203911119C0D6
:103C600091E890932802459AF8949091C1009F772B
:103C70009093C10090B79D7F90BF78940000109200
:103C8000A6031092A50310923B0510923A051092DC
:103C9000A2038F01A9014F5F5F4FDF01A20FB31F86
:103CA00000B601FE5DC02430310508F459C08A30E9
:103CB00009F056C0BD0161507109EB0198819D303A
:103CC00009F04EC061507109EB0198819A3009F4F6
:103CD00047C061507109EB0198819D3009F440C0E3
:103CE000EF0191819A30E1F590819D30C9F56091A5
:103CF0003A0570913B057093A6036093A50350931A
:103D00003B0540933A059091A2039F5F9093A203D5
:103D10006091490570914A0570934C0560934B057D
:103D2000609147057091480570934A056093490575
:103D3000609145057091460570934805609347056D
:103D40006091A5037091A6037093460560934505A5
:103D500060913A0570913B0570934405609343056B
:103D600090913C05992361F02330310549F480326C
:103D700039F49091A9039E3319F49FEF9093A30314
:103D80008C939A01E40FF51F10820FC030E020E001
:103D900080E8809328021092A6031092A503109247
:103DA0003B0510923A051092A20330933E052093F2
:103DB0003D0510924D059F91BF91AF91FF91EF91FD
:103DC0003F912F911F904F9100B601FE08C0F894CB
:103DD0008091C10080688093C100789400000F90AA
:103DE0008F918BBF8F918FBF8F91189583E08093B8
:103DF000C4001092C500E1ECF0E08081886180830E
:103E00008BB18C7F8BB95198449845983D98089513
:103E10004F9B0FC01092050110923E0510923D0578
:103E2000519A8BB183608BB93D9A459A449A8FEF32
:103E3000089580E00895809105018823B9F191E00B
:103E4000980F90930501913A39F1A8F49F30D9F079
:103E500030F49230D1F09330E9F080E00895875249
:103E60008430D8F70E94081F91E0811101C090E0D2
:103E7000892F819508959F3FA0F4953F98F7983C2E
:103E800049F0973D51F75698E8CF56980E94081F81
:103E900081110BC0569AE1CF109227021092260290
:103EA000DCCF81E080930501D8CF8FEF0895FC012E
:103EB0004217130609F040F4DB01A955BC4F90E00E
:103EC000491304C081E0491380E008952D91849145
:103ED0002813F8CF31969F5FF3CF8FB7F8941092E5
:103EE000A6031092A50310923B0510923A058FBFCE
:103EF00008952F923F924F925F926F927F928F928E
:103F00009F92AF92BF92CF92DF92EF92FF920F9368
:103F10001F93CF93DF9348E0B42E57E0852E69E0DE
:103F2000962E73E0772EE8E06E2EF5E15F2EA2E08C
:103F30004A2EBDE03B2E222423949FB7F894809113
:103F4000A203811128C09FBF80915805882301F1E9
:103F5000815080935805E82FF0E0E25BFA4F8081B2
:103F600080932802108280912802DF91CF911F91C7
:103F70000F91FF90EF90DF90CF90BF90AF909F9008
:103F80008F907F906F905F904F903F902F9008950B
:103F900010922802EACF853008F084E0E82FF0E0A4
:103FA000EE0FFF1FED5BFA4FC080D18011821082AF
:103FB0008150E82FF0E0EE0FFF1FED5BFA4F2081FC
:103FC00031818093A2039FBFC216D30698F58091DA
:103FD00058058A3010F090925805E901CC19DD0996
:103FE000249786010E5F1F4FC90189559C4FFC0124
:103FF0003397E0803197A080F601E955FC4FF580BA
:104000004BE4E4121CC0EFE4AE124AC10597FC0178
:104010008081803209F460C12630310508F45CC12A
:10402000E091580581E08E0F80935805F0E0E25B47
:10403000FA4F2082BA94B11080CF80E096CFF7E497
:10404000FF1214C09E0146E0B8018EE793E00E9483
:10405000571F882359F0E091580581E08E0F809317
:104060005805F0E0E25BFA4F3082E4CF4FE4A4124F
:1040700015C09E0145E0B80188E793E00E94571FF4
:10408000882361F0E091580581E08E0F80935805F8
:10409000F0E0E25BFA4F84E08083CCCFE7E4EE12FD
:1040A00015C09E0147E0B80180E793E00E94571FCA
:1040B000882309F4F9C0E091580581E08E0F8093C0
:1040C0005805F0E0E25BFA4F4082B4CFF4E4EF121F
:1040D000EBC09E014CE0B80183E693E00E94571FBD
:1040E000882309F4E1C0E091580581E08E0F8093A8
:1040F0005805F0E0E25BFA4F8CE0CECF8DE4F81289
:1041000014C09E0146E0B80185E593E00E94571F68
:10411000882311F1E091580581E08E0F80935805B6
:10412000F0E0E25BFA4F508285CFE4E5FE1214C066
:104130009E0146E0B8018EE493E00E94571F882359
:1041400059F0E091580581E08E0F80935805F0E01A
:10415000E25BFA4F60826ECFF5E4AF1214C09E01AD
:104160004AE0B80183E493E00E94571F882359F086
:10417000E091580581E08E0F80935805F0E0E25BF6
:10418000FA4F708257CF45E4E41214C09E014BE011
:10419000B80187E393E00E94571F882311F1E09153
:1041A000580581E08E0F80935805F0E0E25BFA4FEE
:1041B000908240CF89E5E81214C09E0144E0B80126
:1041C00082E393E00E94571F882359F0E09158053D
:1041D00081E08E0F80935805F0E0E25BFA4F808219
:1041E00029CFE5E4FE1223C09E014BE0B80186E230
:1041F00093E00E94571F882309F41CCF4AE050E047
:1042000070E060E0C6018B549C4F0E94A12C70931B
:104210002D0260932C02E091580581E08E0F80936F
:104220005805F0E0E25BFA4F45E0408303CF83E5B9
:10423000F81200CF9E014BE0B8018AE193E00E94A2
:10424000571F8823C1F04AE050E070E060E0C601EB
:104250008B549C4F0E94A12C70932B0260932A02D6
:10426000E091580581E08E0F80935805F0E0E25B05
:10427000FA4F86E011CF9E0146E0B80183E193E05A
:104280000E94571F882309F4D5CEE091580581E09C
:104290008E0F80935805F0E0E25BFA4F4EE0C5CFF9
:1042A00087E4F81609F4CECE49E4F41227CF9E0134
:1042B00046E0B8018CE593E00E94571F882309F47B
:1042C0004BCFE091580581E08E0F80935805F0E0C8
:1042D000E25BFA4F8AE0E0CEE7E4FE12CACEB2CE4D
:1042E000CF930E94791F8823D9F0809128028430CF
:1042F00021F0833111F0813089F4CFB7F8940E9416
:104300006D1F459AF8948091C1008F778093C1000A
:1043100080B78D7F80BF78940000CFBF8091280246
:10432000CF910895FF920F931F93CF93DF938C014A
:10433000F801C081D181F8808F2D90E00E94A42DDA
:10434000892BF1F480915F03F8121FC0998180914D
:10435000600398131AC09A8180916103981315C065
:104360009B8180916203981310C02496F801D18339
:10437000C0838FEFDF91CF911F910F91FF90089530
:104380002196F801D183C083D3CF80E0F3CF44E0FE
:1043900050E067E973E00E94B52D21E0892B09F018
:1043A00020E0822F08956F927F928F929F92AF921A
:1043B000BF92CF92DF92EF92FF920F931F93CF9312
:1043C000DF935C01762E642EF50100811181F801E6
:1043D000808190E00E94A42D892BB9F5F8E07F9EA2
:1043E000C0011124D12CC12C9C0124563C4F490101
:1043F000FC01E356FC4F7F017614B8F4F401EC0D98
:10440000FD1DE491CE2FD0E0B7016C0D7D1DAE01F6
:10441000C8010E94B52DF8E0CF0ED11C892BD9F42C
:10442000C00FD11FF501D183C083872DDF91CF91BC
:104430001F910F91FF90EF90DF90CF90BF90AF90C2
:104440009F908F907F906F9008950F5F1F4FF501A1
:1044500011830083B9CF7394CFCFEF92FF920F9364
:104460001F93CF93DF93EC017B01088119814AE010
:1044700050E0BC01C8010E94732BF7016083718377
:104480008283938381E0288139812017310709F4E1
:1044900080E0DF91CF911F910F91FF90EF900895F1
:1044A000DF92EF92FF920F931F93CF93DF937C01E4
:1044B000D62EF701C081D181088110E0C8010E9489
:1044C000A42D892BA1F48D2D90E00E94AD2D08170D
:1044D000190791F42196F701D183C0838FEFDF9103
:1044E000CF911F910F91FF90EF90DF90089521964B
:1044F000F701D183C083DDCF80E0F1CFDF92EF926F
:10450000FF920F931F93CF93DF938C01D62EF80168
:10451000C081D181FE0181917F0190E00E94A42D94
:10452000892B99F48D2D90E00E94AD2D982F9E013E
:104530002F5F3F4F8881882361F0E9019813F7CFFF
:10454000F801318320838FEF06C0F801F182E08209
:10455000DECF9923A9F3DF91CF911F910F91FF90A7
:10456000EF90DF900895CF92DF92EF92FF920F933A
:104570001F93CF93DF938C01D62EF72EE42EF801F4
:10458000C081D181888190E00E94A42D892B81F483
:10459000CD2DDF2D6E01E11010C0F6011082DF91EC
:1045A000CF911F910F91FF90EF90DF90CF900895E2
:1045B0002196D801CD93DC93E2CFD801ED91FC9107
:1045C000F0808F2D90E00E94A42D892B31F7F99275
:1045D000EA94FF2011F3D8018D919C9111970196D7
:1045E0008D939C93D7CF8F929F92AF92BF92CF9291
:1045F000DF92EF92FF920F931F93CF93DF937C0193
:104600005B01942EF70100811181F801808190E017
:104610000E94A42D892B19F5802E6501C02FD12F62
:104620008E012196F80180810E948E268D30E9F45A
:10463000F6011082F5018081882321F0F7011183B2
:1046400000838FEFDF91CF911F910F91FF90EF903B
:10465000DF90CF90BF90AF909F908F9008950F5FA5
:104660001F4FF70111830083CDCF8C2F8819891537
:10467000F8F6FE0131978081F60181936F01D0CF6A
:10468000EF92FF920F931F93CF93DF93CDB7DEB7D7
:1046900062970FB6F894DEBF0FBECDBF9A8B898BA1
:1046A0007C0182E3F701ADECB7E001900D928A95B1
:1046B000E1F7CE0141960E94922129899A898111C0
:1046C00008C0822F0E94C721882309F46FC08BE0A5
:1046D0006DC0022F192FF80181918F0181111FC028
:1046E00040E160E0CE0141960E94D321803108F084
:1046F00096C2E82FF0E0E158FC4D0C94562B9A231B
:10470000E323F02367231126CC23FC2324240F2644
:104710000F264624D0248B2502260426092690E065
:104720000E94AD2DF80131978083D5CF0F5F1F4FC9
:104730001A8B098B09891A89F801808190E00E94FF
:10474000A42D892B99F7C8018E199F09FC01E35309
:10475000F84F34E021914FEB420F4A3128F02053BB
:104760002A3010F082E022C03150A1F78353984FD5
:10477000FC01408151816281738140935F035093BA
:104780006003609361037093620344E061E070E052
:104790000E94482883E00AC04EE06BE373E0CE013C
:1047A00041960E94F32281113EC286E062960FB6C6
:1047B000F894DEBF0FBECDBFDF91CF911F910F9157
:1047C000FF90EF9008954EE06BE373E0CE014196C9
:1047D0000E94F322882331F285E80E943626DACF40
:1047E0004EE06BE373E0CE0141960E94F3228823F2
:1047F00009F4B8CF87E8F1CF4AE068E0CE014196EE
:104800000E94D321883071F481E0809300016EEF23
:104810007FE00E9473288FEF809301016FEF7FE0AC
:1048200081E00FC0893009F01FC281E08093000150
:104830006EEF7FE00E947328109201016FEF7FE01E
:1048400080E00E947328A6CF4AE068E0CE0141963E
:104850000E94D321109200016EEF7FE0883011F4A6
:1048600080E0D7CF893011F480E0E4CF80E00E946F
:1048700073288091E401882309F48CCF69EF7FE0ED
:1048800080E00E9473281092E40184CFBE01675F2C
:104890007F4FCE0141960E942D22882331F16AE399
:1048A000CE0141960E9450228823F9F0BE016B5F31
:1048B0007F4FCE0141960E942D228823B1F06AE3FA
:1048C000CE0141960E945022882379F0BE016F5F8D
:1048D0007F4FCE0141960E942D2221E030E08111D0
:1048E00002C030E020E0232BE9F48FEF8093E50154
:1048F00060E973E089E595E00E94CB2D89E595E0BC
:10490000FC0101900020E9F7CF016BE071E0019715
:104910000E94452E6AE273E080E492E00E94452EF8
:1049200082ED5BCF89859A85AB85BC858831910501
:10493000A105B10508F016CF4D815E816F817885A4
:104940004C3351056105710508F00CCF09811A81BE
:104950002B813C810C3311052105310508F002CF74
:104960001F930F935F934F939F938F9388E591E0ED
:104970009F938F9389EA97E09F938F930E94662E6F
:104980008DEF0E9436268FEF8093E5010FB6F894E5
:10499000DEBF0FBECDBFFECE0F5F1F4F1A8B098B40
:1049A00009891A89F801808190E00E94A42D892B41
:1049B00099F743E050E06CE873E0C8010E94D22D03
:1049C000892B01F56AEF7FE08FEF0E9473286BEF70
:1049D0007FE08FEF0E9473286CEF7FE08FEF0E94E3
:1049E00073286DEF7FE08FEF0E9473288FEF809325
:1049F0000A018093090180930801809307011092B6
:104A00002F02C8CEBE01635F7F4FCE0141960E9448
:104A10002D22882309F4A6CE6AE3CE0141960E9496
:104A20005022882309F49ECEBE01675F7F4FCE01DE
:104A300041960E942D22882309F494CE63E2CE0190
:104A400041960E947E22BE016B5F7F4FCE01419650
:104A50000E942D22882309F485CE6AE3CE01419677
:104A60000E945022882309F47DCEBE016F5F7F4FE4
:104A7000CE0141960E942D22882309F473CE8D85A4
:104A80009E85AF85B88988319105A105B10508F0EB
:104A900069CE49855A856B857C854C335105610506
:104AA000710508F05FCE4D815E816F817885483158
:104AB00051056105710508F055CE49815A816B8118
:104AC0007C814C3351056105710508F04BCE6AEFCE
:104AD0007FE00E9473286BEF7FE089850E94732836
:104AE0006CEF7FE08D810E9473286DEF7FE08981FC
:104AF0000E9473288D8580930A018985809309011E
:104B00008D818093080189818093070143CE0F5FD7
:104B10001F4F1A8B098B09891A89F801808190E04F
:104B20000E94A42D892B99F742E050E069E873E0D8
:104B3000C8010E94D22D892B09F047C00E5F1F4F7C
:104B40001A8B098B80E293E0A0E0B0E089839A831E
:104B5000AB83BC83E988FA88F7011081812F90E04C
:104B60000E94A42D892BA1F410531A30B8F008E04C
:104B700010E0C8010E946031F82E2FEF821709F46F
:104B800054C00B5F1F4F083A8FE0180791F7EACD2A
:104B9000FFEFEF1AFF0AFA8AE98ADCCFBE016F5FE6
:104BA0007F4FCE0141960E942D22882309F4DACD51
:104BB00089819A81AB81BC810197A109B1098032B9
:104BC0009340A105B10598F2CDCD43E050E065E8F2
:104BD00073E0C8010E94D22D892B09F0C3CD69EF83
:104BE0007FE080E00E9473281092E40188EF9FE04C
:104BF0000E9460318F3F09F4CDCD809300016EEFAC
:104C00007FE01FCE88E0D2CD1092D20167EF7FE027
:104C100017CE8FEF8093D20167EF7FE001CE81E066
:104C2000C5CD84E0C3CD85E0C1CD8EEF9FE00E946D
:104C3000603168EF7FE00E94732865EF7FE0898133
:104C40000E94732866EF7FE08A810E947328898121
:104C50009A81909303018093020169EF7FE081E0E4
:104C60000E947328F092E40181E0C7CFEBE8F7E0FF
:104C700030E020E09191911105C02557384FF9019E
:104C8000808308952F5F3F4F2E31310599F70895A6
:104C9000EBE8F7E030E020E09191981761F0911196
:104CA00005C02557384FF901808308952F5F3F4F86
:104CB0002E31310589F7089590E0E92FF0E0E557AE
:104CC000F84F2081281770F0621760F0292F2D31DE
:104CD00028F01092A8079E3181F708953181319311
:104CE0002F5FF5CF9F5FF7CFEBE8F7E081818193EE
:104CF00087E0E83AF807D1F71092A8070895EBE8A3
:104D0000F7E09191981710F0691730F497E0E93ABD
:104D1000F907B9F780E008958FEF08958B3279F0A5
:104D200030F4833251F08A3231F08DE008958053AF
:104D30008A30D8F708958BE008958CE008958AE0D2
:104D4000F9CFAF92BF92CF92DF92FF920F931F9352
:104D5000CF93DF93182FEB016A0145E050E06FEF2E
:104D600070E0C6010E94282E8C2F811B182F2197DE
:104D700000E0823058F4DF91CF911F910F91FF90A6
:104D8000DF90CF90BF90AF900895092F88810E9447
:104D90008E26F82EF29480EFF822FE0182915F01B8
:104DA0000E948E268F29113061F4E5018F6010E09A
:104DB00091E0900FF601E00FF11D80831111E5CF16
:104DC000DACF22971250F4CFE82FF0E0E45EFB4FE9
:104DD00084910895CF93DF939C01EB011882BC016D
:104DE00080E0DB016F5F7F4F9C919F3F19F0853022
:104DF00009F052C0A217B30709F452C0642F70E043
:104E000090E0880F991F11976817790744F4DB0128
:104E10001197B7FDDB01B595A795A20FB31FEC91D4
:104E20008E2F8F708F3009F039C0E295EF70F0E06F
:104E3000E45EFB4F84918883882319F021961197B3
:104E400081E0A217B30720F1EC91EF70F0E0E45E8F
:104E5000FB4FE491E883BE01EE2319F06F5F7F4FB3
:104E60008F5FEB018417A1F02196EC91E295EF7032
:104E7000F0E0E45EFB4F9491FB0190838F5F481755
:104E800039F01197BD016F5F7F4F26173707C9F6BD
:104E90001882DF91CF9108958F5FA3CF80E0D1CFAB
:104EA00080E0F7CFFF920F931F93CF93DF9300D053
:104EB00000D01F92CDB7DEB78B01F42E45E050E055
:104EC000BC01CE0101960E9450314F2DB801CE0198
:104ED00001960E94EA260F900F900F900F900F906E
:104EE000DF91CF911F910F91FF9008950F931F9322
:104EF000CF93DF93EC018B0188818F3F21F1CB01B0
:104F00000E9460318F3FF9F0C8010E946031382F54
:104F1000307F9991292F207F303F79F0203F69F031
:104F2000321311C08F709F708F3039F09F3029F08D
:104F3000891309C00F5F1F4FE7CF8FEFDF91CF912C
:104F40001F910F91089580E0F9CF0F931F93CF9396
:104F5000DF9300D000D01F92CDB7DEB78B01FC01EC
:104F600001900020E9F73197BF01681B790B680FAA
:104F7000792F711DAE014F5F5F4F0E94A126B801CE
:104F8000CE0101960E9476270F900F900F900F9000
:104F90000F90DF91CF911F910F9108958093C907D2
:104FA0009093CA07109230026093310292BD81BD86
:104FB000F89A90B58091CD07981729F080BDF894A4
:104FC000FA9AF99A78940895F99935C08091CB07A7
:104FD000811108C080913102811104C08091CC07F9
:104FE000882349F180913002F89A20B5E82FF0E04B
:104FF000E353F84F9081291301C08F5F90913102E4
:105000008917D0F4282F30E04091C9075091CA0782
:10501000420F531F52BD41BDF89A40B52353384F3C
:10502000F9019081491729F090BDF894FA9AF99AFC
:1050300078948093300208959091CB071092CB071B
:10504000909331029923F9F0EDECF7E080E020A590
:1050500021938F5F9813FBCF8091FF0790910008F9
:105060008093C9079093CA0792BD81BDF89A90B505
:105070008091CD07981729F080BDF894FA9AF99A93
:10508000789480E0D6CF9FE092BD9FEF91BDD1CFC5
:105090001F93CF93DF934423F1F0C42F172FD62F04
:1050A000BC0150E08DEC97E00E941F2ED093C90701
:1050B0001093CA0710923002C093310212BDD1BDC5
:1050C000F89A90B58091CD07981729F080BDF89493
:1050D000FA9AF99A7894DF91CF911F91089561110E
:1050E0000C94CE2708951F93CF93DF93182FEB01D5
:1050F000CB010E946031811749F01093CD0761E028
:10510000CE01DF91CF911F910C94CE27DF91CF91EB
:105110001F9108950F931F93CF93DF9300D000D07A
:10512000CDB7DEB78C0119821A821B821C820E94C5
:1051300060318983C80101960E9460318A83C80169
:1051400002960E9460318B8369817A818B819C8178
:105150000F900F900F900F90DF91CF911F910F91B3
:105160000895CF92DF92EF92FF920F931F93CF9308
:10517000DF93DC011196FC01F080F41618F0FF2497
:10518000FA94F40EEB0140E0E12CE0E050E887E017
:1051900090E04F110DC0640F711DFB011082DF9173
:1051A000CF911F910F91FF90EF90DF90CF900895D6
:1051B0002E2D30E00C9110E0C52ED12CC094D0944F
:1051C0000C211D2102C0000F111FEA94E2F7E00F2D
:1051D000F12FF11DE35CFA4FE491E9934F5FF42F57
:1051E000F770EF2E79F0EC91E523F0E08C01021BD3
:1051F000130B02C0F595E7950A95E2F756955058BE
:105200001196C7CFE0E050E8C4CFCF92DF92EF9283
:10521000FF920F931F93CF93DF938C01CA01861BDC
:10522000970BE8018993815090E020E04FE750E030
:1052300037E0EE24EA94F12CDE01281748F1F8015A
:1052400080818770D9F0FB01E20FF11DE081F0E071
:10525000E35CFB4F24914FE750E0092E02C0440F5E
:10526000551F0A94E2F7E22FF0E0E423F52302C091
:10527000F695E7959A95E2F7E8831196CD01DF91CF
:10528000CF911F910F91FF90EF90DF90CF900895F5
:105290006B01C20ED11CD601EC91F0E0E35CFB4F38
:1052A000E491DA01092E02C0AA0FBB1F0A94E2F7AB
:1052B000F0E0AE23BF23092E02C0B695A7950A944D
:1052C000E2F7F601B181EB2FF0E0E35CFB4FE491F4
:1052D000B32FB91B67010B2E02C0D694C7940A9452
:1052E000E2F7EC2101C0EE0FBA95EAF7EA2BE99359
:1052F0009F5F973011F42F5F90E02F5F9DCFFC01EF
:10530000DA0170E0CD01841B950B8617970708F032
:10531000089590819A3360F49053292F2295207F2D
:1053200091819A3338F49053920F9D933296EACF3D
:105330009753F3CF9753F8CF1F93CF93DF93DC01AD
:10534000EA018C91873C50F0DB011C928FEF88833F
:1053500090E080E0DF91CF911F91089518828C91A9
:1053600090E00196A80FB91F8C918B7F11F08FEF01
:10537000888311962C911197213130F7FD013396D6
:1053800012968C91982F9F7E31E0913809F030E091
:10539000813929F48BE2DB018C936F5F7F4FAB0186
:1053A00010E00EC08081992311F0829531968F70A4
:1053B000805D311101C080E3DA018D93AD011F5F83
:1053C000912F91701213EECFDB01A10FB11D1C9232
:1053D000911101C031978281882311F08FEF88836A
:1053E000CF010396B7CFFC019081A92FAF708AE05F
:1053F00092959F70A89F900D1124DB019C93918141
:10540000692F6F7092959F70689F900D1124DA013B
:105410009C939281492F4F7092959F70489F900D59
:105420001124D9019C93CF0103960895FC0190812A
:10543000A92FAF708AE092959F70A89F900D1124BC
:10544000DB019C939181692F6F7092959F70689F8B
:10545000900D1124DA019C939281492F4F709295FF
:105460009F70489F900D1124D9019C93CF01049601
:105470000895CF93DF93DC01FB0180818B3299F497
:10548000319681E9EF0109900020E9F79E01215052
:1054900031092E1B3F0B211108C0CD0101961C9232
:1054A000DF91CF91089581E8EDCF2C93AD014E5F50
:1054B0005F4F11968C93C901992701969595879511
:1054C000682F742FDA012A2F271B261718F0840F54
:1054D000951FE6CF208120533181332331F032965E
:1054E0003295307F232B2D93EECF3196206FFBCF5B
:1054F000CF93DF93EC01DB018C91811106C0CE01CB
:1055000001961882DF91CF9108958B3209F511969B
:1055100081E9FD0101900020E9F731979F012A1BE5
:105520003B0B33272F5F3F4F35952795622F91E037
:10553000920F9883AE014E5F5F4F8983742FFA01FB
:105540008E2F871B861730F0CA01820F931FDACF88
:1055500081E8DFCF8C91805311969C91119799230C
:1055600031F012969295907F892B8193E9CF119615
:10557000806FFBCFEF92FF920F93CF937B01C22FEF
:10558000BA010E94782A21E1FC0120831182B7012F
:1055900002960E94392AFC01C08301832AEA2283F1
:1055A0000396CF910F91FF90EF900895CF93DF93E3
:1055B0001F92CDB7DEB79C01562FDB018A2F851BCA
:1055C000841720F00F90DF91CF9108959D91892F3E
:1055D000807F898382958983E981F0E0E45DFB4FD8
:1055E0008491F90180839F70E92FF0E0E45DFB4F27
:1055F0008491F90181832E5F3F4FE0CF88E19BE0EA
:105600000FB6F894A895809360000FBE9093600049
:105610000E944C030E944C030E944C030E944C03C6
:1056200081E087B988B980E28AB90E9457180E9440
:10563000F61E0E94471878948091D90180FD0E943F
:1056400047188091D90181FD0E94BC168091D90133
:1056500080FF06C00E94D2170E94361C1092D9010A
:10566000F8948091DB01811109C083B7816083BF09
:1056700078948895F89483B78E7F83BF78940E943E
:10568000D817DACF97FB072E16F4009407D077FDD2
:1056900009D00E945F2B07FC05D03EF490958195C0
:1056A0009F4F0895709561957F4F0895EE0FFF1FEE
:1056B0000024001C0BBE0790F691E02D0994AA1B54
:1056C000BB1B51E107C0AA1FBB1FA617B70710F0ED
:1056D000A61BB70B881F991F5A95A9F7809590951F
:1056E000BC01CD0108953F924F925F926F927F92DD
:1056F0008F929F92AF92BF92CF92DF92EF92FF92E2
:105700000F931F93CF93DF935C016B017A016115B7
:10571000710519F0FB0191838083E114F10451F0CC
:10572000C7010297839730F040E030E020E090E03E
:105730006BC05E01E5012196F5011081812F90E09B
:105740000E94A42D892BA9F71D3201F52196F501A0
:10575000118101E0E114F10409F4E6C0F0E1EF1673
:10576000F10409F088C0103359F488818F7D8835A1
:1057700009F07CC0198122960260F0E1EF2EF12C35
:10578000812C912CA12C88E0B82E92C01B3221F4E0
:10579000E5012296F501118100E0DCCFEAE0EE168A
:1057A000F10409F4C7C0F0E1EF16F10409F073C089
:1057B000E7CF78E0E72EF12C812C912CA12C60E131
:1057C000B62E76C021E0ADC0302F3170C114D104A7
:1057D00031F0222371F12197F601D183C08327FF95
:1057E0002EC060E070E080E090E8311104C06FEFFF
:1057F0007FEF8FEF9FE722E230E0309302082093A3
:105800000108462F372F282F642F732F822FDF9107
:10581000CF911F910F91FF90EF90DF90CF90BF90AD
:10582000AF909F908F907F906F905F904F903F9040
:10583000089501FF04C02297F601D183C08333236A
:1058400041F090958095709561957F4F8F4F9F4F58
:10585000D8CF97FFD6CF82E290E090930208809352
:1058600001086FEF7FEF8FEF9FE7CBCF10E3E114DD
:10587000F10409F49ECF28E0E216F10409F49CCF6C
:105880000CF08CCF812C912CA12CE0E4BE2E82E078
:10589000E816F10469F060E070E080E090E89701BC
:1058A0000F2C000C440B550B0E949A3149015A01F0
:1058B00020E060E070E0CB0127010F2C000C6608AF
:1058C0007708FE0150ED352E310E39E0331570F4B6
:1058D0003FEB310F49EC342E3A3138F03FE9310FCC
:1058E0003A3108F071CF39EA332E310E3E141F04DD
:1058F0000CF06ACF27FD15C086169706A806B906D4
:1059000078F0A30192010E948A31630D711D811DFF
:10591000911D61307105810520E8920708F452CF8E
:105920002FEF21961081CDCF103309F41ECF2AE03E
:10593000E22EF12C9CEC892E982CA82C9CE0B92E00
:10594000B7CF3F924F925F926F927F928F929F92CA
:10595000AF92BF92CF92DF92EF92FF920F931F937D
:10596000CF93DF935C016B017A016115710519F02A
:10597000FB0191838083E114F10449F0C701029790
:10598000839728F060E070E0CB019BC05E01E501E9
:105990002196F5011081812F90E00E94A42D892B82
:1059A000A9F71D3209F05CC02196F501118101E0D3
:1059B000E114F10409F4BBC0F0E1EF16F10409F0C1
:1059C0009BC0103341F488818F7D883509F08FC0EA
:1059D000198122960260E0E1EE2EF12C88248A944F
:1059E000982CA82CFFE0BF2E20E060E070E0CB01F7
:1059F00027010F2C000C66087708FE0150ED352EAC
:105A0000310E39E0331568F43FEB310F49EC342E99
:105A10003A3130F03FE9310F3A31B0F539EA332EFF
:105A2000310E3E141F0484F52F3FB9F086169706F9
:105A3000A806B90638F1A30192010E948A31232DEC
:105A400030E050E040E0620F731F841F951F621723
:105A5000730784079507B0F021E021961081CDCF20
:105A60001B3221F4E5012296F501118100E0A0CF5F
:105A700078E0E72EF12C88248A94982CA82C6FE1EA
:105A8000B62EB2CF2FEFE9CFC114D10431F02223CB
:105A900051F12197F601D183C08300FF07C0909593
:105AA0008095709561957F4F8F4F9F4F2F3F49F4A1
:105AB00082E290E090930208809301086FEF7FEFFD
:105AC000CB01DF91CF911F910F91FF90EF90DF906D
:105AD000CF90BF90AF909F908F907F906F905F908E
