:100000000C94DB020C94FA020C94FA020C94FA029F
:100010000C94FA020C94FA020C94FA020C94FA0270
:100020000C94FA020C94FA020C94FA020C94FA0260
:100030000C94FA020C94FA020C94FA020C94FA0250
:100040000C94C9030C94FA020C94FA020C94FA0270
:100050000C94491D0C94FA020C94051D0C94FA02A0
:100060000C94FA020C94FA020C94FA020C94FA0220
:100070000C94FA020C94FA020C94FA020C94FA0210
:100080000C94FA020C94FA020C94FA02FF414243D7
:1000900044000000A1A2A3A5A6A7A8932B637069A2
:1000A0006E3F00000000000000002B636E6D693D94
:1000B000322C312C322C31002B6D6F72696E673D02
:1000C0003100000000002B636C69703D31000000BE
:1000D000000000002B646465743D312C31302C31FC
:1000E00000002B63616C6D3D3100000000000000DA
:1000F0002B6372736C3D31000000000000002B6325
:100100007573643D31000000000000002B637062D5
:10011000773D32362C22312200002B636C74733D04
:1001200031000000000000002B636D69633D302C3E
:100130003135002B636D6764613D36002B63706958
:100140006E3D223139373622002B6966633D322CF1
:1001500032002B63706D733D22534D222C22534D80
:10016000222C22534D22002B6364736362002B63A5
:10017000636C6B3F002B636F70733F002B63706287
:10018000723D3236002B637265673F002B637371DB
:10019000002B7674733D3100610068002B434D5491
:1001A000493A002B636D67643D002B636D67723DB8
:1001B000002B636D67733D002B434D54493A002B70
:1001C00044544D463A002B434C49503A003E002BD4
:1001D000434D47523A002B434F50533A002B435262
:1001E00045473A002B4353513A002B4350494E3A6E
:1001F000205245414459002B43434C4B3A00313D7A
:1002000052435620323D42535920333D434E5420F1
:10021000343D51534D20353D51414C20363D464EE5
:100220004420373D414444002055373D0020553699
:100230003D002055353D0055343D002055333D00EF
:100240002055323D0055313D00534B525942413A01
:100250000044454255470A007777772E736F6E66E4
:10026000792E706C00536B727962613A2057796C09
:1002700061637A6F6E79004861726D6F6E6F67723D
:10028000616D3A2057796C61637A6F6E7900204412
:10029000544D460020434C495000547279623A2034
:1002A0005075626C69637A6E7900547279623A2093
:1002B0005072797761746E79005374617475733A12
:1002C00020416B7479776E79005374617475733A59
:1002D000205A61626C6F6B6F77616E7900557A7925
:1002E000746B6F776E6963792000557A79746B6FE0
:1002F000776E69637920005379676E616C2047538C
:100300004D2000437A61733A200041433830302D4C
:100310005453002B435553443A002B434D5320452F
:1003200052524F523A002B434D45204552524F52A4
:100330003A0042555359004E4F204449414C544FC6
:100340004E45004E4F2043415252494552002B43E7
:100350004D54493A002B44544D463A002B434C49E6
:10036000503A004D4F20434F4E4E454354454400B4
:100370004D4F2052494E47004552524F52002B4399
:100380004D47533A004F4646004F4E004F464600F9
:10039000433344340004434F4445000000034144C8
:1003A00044000000000344454C000000000458587D
:1003B0005858000000065245504F525400045553FF
:1003C0004552000000044F50454E00000005434CCC
:1003D0004F5345000004434C49500000000444546E
:1003E0004D460000000353455400000000045449EA
:1003F0004D4500000006534B52594241000544450B
:1004000042554700000553544152540000045354D0
:100410004F50000000303132333435363738392B05
:100420002A232121003031323334353637383941EF
:100430004243444546003F3F3F3F3F3F3F3F3F3FF2
:100440000A3F3F0D3F3F3F3F3F3F3F3F3F3F3F3F23
:100450003F3F3F3F3F3F20212223022526272829D7
:100460002A2B2C2D2E2F3031323334353637383974
:100470003A3B3C3D3E3F00414243444546474849A4
:100480004A4B4C4D4E4F5051525354555657585954
:100490005A3F3F3F3F113F61626364656667686929
:1004A0006A6B6C6D6E6F7071727374757677787934
:1004B0007A3F3F3F3F3F3F3F3F3F3F3F3F3F3F3F11
:1004C0003F3F3F3F3F3F3F3F3F3F3F3F3F3F3F3F3C
:1004D0003F3F3F3F3F3F3F403F0124033F5F3F3FA0
:1004E0003F3F3F3F3F3F3F3F3F3F3F3F3F3F3F3F1C
:1004F0003F3F3F3F3F603F3F3F3F5B0E1C093F1F79
:100500003F3F3F3F3F3F3F5D3F3F3F3F5C3F0B3FF4
:100510003F3F5E3F3F1E7F3F3F3F7B0F1D3F040538
:100520003F3F073F3F3F3F7D083F3F3F7C3F0C063B
:100530003F3F7E3F3F3F40A324A5E8E9F9ECF2C7E7
:100540000AD8F80DC5E53F5F3F3F3F3F3F3F3F3F84
:100550003F3FC6E6DFC920212223A42526272829DC
:100560002A2B2C2D2E2F3031323334353637383973
:100570003A3B3C3D3E3FA141424344454647484902
:100580004A4B4C4D4E4F5051525354555657585953
:100590005AC4D6D1DCA7BF616263646566676869C7
:1005A0006A6B6C6D6E6F7071727374757677787933
:1005B0007AE4F6F1FCE011241FBECFEFD0E4DEBFF9
:1005C000CDBF11E0A0E0B1E0E2E4F2E600E00BBF55
:1005D00002C007900D92A23CB107D9F727E0A2EC28
:1005E000B1E001C01D92A13FB207E1F70E94472A86
:1005F0000C941F310C9400001092DC011092DB016E
:100600001092DA010895CF93DF93FC01019000204E
:10061000E9F7BF01615071094BEB57E00E94F425E7
:10062000C8E0D0E0BE018BEB97E00E94C9268111A3
:1006300008C02596C83AFFE0DF07A1F7DF91CF9108
:1006400008958FEFFBCF8091F40197E5980F8C5EB2
:10065000943108F081E90C949B2580910C029091D3
:100660000D028F3F980729F0019690930D02809319
:100670000C028AE08093CF011092CE010E94FC020E
:1006800081E90C949B25BC0185E993E00C94412DF4
:100690008FEF9FE80197F1F700C000008FEF9FE810
:1006A0000197F1F700C000008FEF9FE80197F1F785
:1006B00000C000008FEF9FE80197F1F700C0000035
:1006C0008FEF9FE80197F1F700C00000A89508950B
:1006D000CF93DF93CDB7DEB728970FB6F894DEBF80
:1006E0000FBECDBF9091B90791112BC090911F0201
:1006F000911127C09091BA07911123C0F99921C097
:1007000020911302298330911102209112023A8321
:100710002B832091EB012C83E9E7F7E02191225D07
:10072000223008F49F5F27E0E739F207B9F79D838D
:100730008E836F8347E062ED7FE0CE0101960E94D9
:100740009B2728960FB6F894DEBF0FBECDBFDF9172
:10075000CF910895809106028F5F843618F48093BC
:1007600006020895109206028091050291E081111F
:1007700090E090930502811102C040980895409A3C
:10078000089580917903807F11F4409A08954098EC
:10079000089578941F920F920FB60F9211240BB602
:1007A0000F922F938F939F93EF93FF938091CA01A2
:1007B0008F5F8093CA01823128F01092CA018FEFB7
:1007C0008093CC014F9B59C000B601FC16C08091AC
:1007D0001602811112C010922C0510922B05109256
:1007E0003B0580B7826080BFF8948091C10080682B
:1007F0008093C10078940000459834992FC0F894F4
:100800008091C10086FF29C08091C1008F7B8093B9
:10081000C1007894809117028823C9F08091150255
:10082000811104C08091F4018B3889F41092170271
:1008300080912F0590913005FC01E851FA4F2081FD
:1008400001969093300580932F052093C600F8946D
:100850008091C10080648093C10078948FEF809371
:10086000CD01FF91EF919F918F912F910F900BBE32
:100870000F900FBE0F901F901895459AF894809195
:10088000C1008F738093C10080B78D7F80BF789443
:100890000000E4CFDF92EF92FF920F931F93CF936C
:1008A000DF938C01DC01ED90FC9048E050E06AE0C1
:1008B00073E0C7010E940B2DE70129968AE0D82E2C
:1008C000F701D08663E073E0CE010E94142D0990F9
:1008D0000020E9F721976BE071E0CE010E94782DAE
:1008E00009900020E9F72197DE01DD92CD014BE070
:1008F00050E067EF72E00E940B2D8091060180327C
:1009000030F59091C901992311F12C96B4E68B9F93
:10091000C00111246FE170E00E948B2ACB014AE0F4
:10092000BE010E94952D09900020E9F72197FE0154
:10093000319685E288831082D801ED93FC93DF9194
:10094000CF911F910F91FF90EF90DF9008958DE26E
:100950008C878D87FE013F968E87EDCFAF92BF9239
:10096000CF92DF92EF92FF920F931F93CF93DF937B
:100970008C01FC01C081D1814CE050E06AEE72E054
:10098000CE010E940B2D2C9688E0C82ED12CF12C84
:10099000E12CB12CA12CC6010E94A9308F3F99F106
:1009A000FFEFAF1ABF0AE5E0CE0ED11CF8EACF1672
:1009B000FFE0DF0681F74AE0BE01C5010E94952DE8
:1009C00009900020E9F721976E018FEFC81AD80A25
:1009D0008FE288834AE0B601C7010E94952DF60197
:1009E00001900020E9F7CF010197F80191838083FE
:1009F000DF91CF911F910F91FF90EF90DF90CF90FB
:100A0000BF90AF9008958FEFE81AF80ACCCFCF923D
:100A1000DF92EF92FF920F931F93CF93DF938C019E
:100A2000FC01C081D1814CE050E06DED72E0CE015F
:100A30000E940B2D2C9688E0E82EF12CD12CC12C95
:100A4000C7010E94A9308F3F89F1C394F5E0EF0EF2
:100A5000F11C88EAE8168FE0F80691F74AE0BE013B
:100A60008C2D90E00E94952D09900020E9F72197A8
:100A70007E01EFEFEE1AFE0A8FE288834AE0B701AB
:100A80008D2D90E00E94952DF70101900020E9F74F
:100A9000CF010197F80191838083DF91CF911F915E
:100AA0000F91FF90EF90DF90CF900895D394CECF29
:100AB000EF92FF920F931F93CF93DF9300D0CDB7A8
:100AC000DEB78AE28093470589E495E09A838983BB
:100AD0001AE010934805CE0101960E944A04E9816C
:100AE000FA81CF0101969A8389831083CE01019602
:100AF0000E94AE04E981FA81CF0101969A8389832D
:100B000010832091C40189819A8169EC72E02111DE
:100B100002C069EB72E00E94142DE981FA81019014
:100B20000020E9F7DF011197FA83E9838AE08C93CB
:100B30002091000189819A816AEA72E0222311F0F2
:100B40006AE972E00E94142D89819A81FC0101906A
:100B50000020E9F7CF0101979A8389832091010151
:100B600064E972E0211102C06EE872E00E94142D67
:100B7000E981FA8101900020E9F7DF011197FA83FA
:100B8000E9838AE08C9380910A018F3F09F05EC06F
:100B900067E772E089819A810E94142DE981FA81C8
:100BA00001900020E9F7DF011197FA83E9838AE0D9
:100BB0008C938091D601882309F466C008E010E088
:100BC000F12CE12CC8010E94A9308F3F19F09FEF52
:100BD000E91AF90A0B5F1F4F083AEFE01E0791F779
:100BE00080910201909103018E199F0997FF02C025
:100BF00090E080E09F938F9388E391E09F938F93A1
:100C00008A818F9389818F930E94AF2D0F900F90CF
:100C10000F900F900F900F90E981FA8101900020C2
:100C2000E9F7DF011197FA83E9838AE08C9368E59D
:100C300072E089819A810E94142D0F900F90DF91AC
:100C4000CF911F910F91FF90EF9008959091070120
:100C50001F929F93909108011F929F939091090179
:100C60001F929F931F928F9387E191E09F938F93A1
:100C70008A818F9389818F930E94AF2D0FB6F8944C
:100C8000DEBF0FBECDBF8ACF65E672E089819A8153
:100C90000E94142DC1CF8FEF8093200284E190E059
:100CA000A0E0B0E08093830390938403A093850336
:100CB000B09386030895CF92DF92FF920F931F9314
:100CC000CF93DF93CDB7DEB72A970FB6F894DEBF88
:100CD0000FBECDBF1092770787ED96E00E94B42239
:100CE000182F8091C4018823E9F08DEF810F8230A5
:100CF000C8F087EF9FE00E94A930813099F462E04C
:100D00000E9468030E9423032A960FB6F894DEBF60
:100D10000FBECDBFDF91CF911F910F91FF90DF905C
:100D2000CF9008958CEF810F823078F48091130278
:100D3000883058F061E081E00E9468030E9423033C
:100D40000E942D030E94FC02DFCF8091EB018111F4
:100D5000F1CFE9E7F7E020E090E08191882329F0E6
:100D60002F5F825D823008F49F5F87E0E739F807E4
:100D7000A1F72332F8F69630E8F61C3018F7E12F89
:100D8000F0E0EB53F94F0C949F2AD106A206A2067D
:100D90000B08DB06110875088008F906A206A206F2
:100DA0008A0881E08093CF011092CE0163E080E059
:100DB0000E946803C7CF809113028F5F8093130254
:100DC0008CE291E0909312028093110268E173E04B
:100DD0008EE292E00E948E2D0E94580582ED0E94C4
:100DE000892582E08093CF011092CE0160E081E0FE
:100DF000DFCF61E572E087E495E00E94142D07E4FF
:100E000015E0F80101900020E9F78F010150110968
:100E100069E472E0C8010E94142DF80101900020DD
:100E2000E9F7CF0101976C0181EF9FE00E94A930A3
:100E3000805DF601808382EF9FE00E94A930805D93
:100E4000F601818383EF9FE00E94A930805DF60167
:100E5000828384EF9FE00E94A930805DF601838346
:100E600086010B5F1F4F9AE0F92EF48265E472E071
:100E7000C8010E94142DF80101900020E9F78F01AC
:100E80000150110986EE9FE00E94A9304AE0B801A6
:100E900090E00E94952DF80101900020E9F78F0164
:100EA0000150110960E472E0C8010E94142DF8019C
:100EB00001900020E9F78F010150110987EE9FE0B2
:100EC0000E94A9304AE0B80190E00E94952DF801F7
:100ED00001900020E9F78F01015011096BE372E0E6
:100EE000C8010E94142DF80101900020E9F78F013C
:100EF0000150110988EE9FE00E94A9304AE0B80134
:100F000090E00E94952DF80101900020E9F73197BB
:100F10008F010F5F1F4FF08267E372E0C8010E94EC
:100F2000142DF80101900020E9F78F0101501109FB
:100F300089EE9FE00E94A9304AE0B80190E00E944B
:100F4000952DF80101900020E9F78F01015011095A
:100F500062E372E0C8010E94142DF80101900020A4
:100F6000E9F78F01015011098AEE9FE00E94A93034
:100F70004AE0B80190E00E94952DF8010190002010
:100F8000E9F78F01015011096DE272E0C8010E947A
:100F9000142DF80101900020E9F78F01015011098B
:100FA0008BEE9FE00E94A9304AE0B80190E00E94D9
:100FB000952DF80101900020E9F78F0101501109EA
:100FC00068E272E0C8010E94142DF801019000202F
:100FD000E9F78F01015011098CEE9FE00E94A930C2
:100FE0004AE0B80190E00E94952DF80101900020A0
:100FF000E9F7CF010197FC01F192CF016EEF71E0AB
:101000000E94142D68E173E08EE292E00E948E2D22
:1010100082ED0E94892582E08093CF011092CE015B
:1010200091CE809113028F5F809313028CE291E046
:10103000909312028093110268E173E08EE292E0D5
:101040000E948E2D69E273E0FB0101900020E9F718
:10105000BF0161507109AE014F5F5F4F89E293E0BC
:101060000E94F42588E0C82ED12CB601CE0101964D
:101070000E94C926182F811136C0F5E0CF0ED11C71
:1010800088EAC8168FE0D80681F769E273E087E442
:1010900095E00E948E2D69E471E087E495E00E945E
:1010A000782D6CE471E0111102C06FE471E087E407
:1010B00095E00E94782D82ED0E94892582E0809340
:1010C000CF011092CE018091B907811109C08091A2
:1010D0001F02811105C08091BA07811101C08FB331
:1010E000612F82E065CE1FEFD0CF68E173E08EE222
:1010F00092E00E948E2D6EE671E087E495E086CF47
:1011000068E173E08EE292E00E948E2D1092170348
:1011100088E87FCF63E882E00E94D225811112CE59
:1011200089E18093CF011092CE0183E00E9489254E
:1011300009CE809104029091820390FF06C0883C02
:1011400088F48F5F809304020895883C60F063E820
:1011500082E00E94D225811103C083E00E9489258C
:101160001092040208958233D8F363E882E00E946B
:10117000D2258111F5CF82E0F1CFCF93DF9380911B
:10118000C401882321F080E0DF91CF910895809100
:10119000650390910101911129C0882319F084E819
:1011A0000E94892580910001813011F48FEFECCFEE
:1011B00065E673E0FB0101900020E9F7BF01615093
:1011C00071094BEB57E085E693E00E94F425C8E0F7
:1011D000D0E0BE018BEB97E00E94C9268111E6CFDB
:1011E0002596C83AFFE0DF07A1F7CDCF882319F095
:1011F00084E80E94892581E090910001913009F0F6
:1012000080E08195C1CF8CE38093F6011092EF01CD
:101210001092EE011092E8011092E9011092DD01A6
:1012200008958CE38093F6011092C2010895109204
:1012300092031092EF011092EE011092F3011092BE
:10124000F2011092F40110922A058CE38093F601CA
:101250001092EB0108950E9417091092F301109269
:10126000F2011092F4011092460510924A03109276
:101270002A05109291031092F0011092C20110926F
:10128000EC0108950E942B0986E9809305011092D4
:101290001502109214021092E4011092E3011092D0
:1012A00023021092E2011092E1011092DD011092EE
:1012B000F10183E68093060160ED8DEB0E94AF257E
:1012C0006DE989E80E94AF2567EA8EE90E94AF25A3
:1012D00064ED82ED0E94AF251092C90108958091BE
:1012E00016028D3051F41092EA011092C201109250
:1012F000EB0186E48093F601089580911602863012
:1013000059F52091EA012F5F2093EA01809118029C
:1013100090911902853032E0930761F08A3331E011
:10132000930741F0833032E0930721F080519240DF
:10133000029770F48CE38093F6018091EB012230E8
:1013400080F11092EA011092C2011092EB0108950F
:101350008CE38093F601F5CF80911602843021F55D
:101360008CE38093F60110922A05809197038E33C7
:1013700031F480912B0590912C050A9720F08091F3
:10138000EB01811107C01092EA011092C2010E9484
:101390004209DBCF9091EA019F5F9093EA0192307E
:1013A00080F60E948925D1CF809116028530B9F44C
:1013B00080911A0290911B028A30910539F09C01AC
:1013C0002D7F2D30310511F04E9769F41092EA010E
:1013D0008CE38093F6011092C2010C944209809133
:1013E00016028091160208950F931F93CF93DF93F7
:1013F000D0911602C091F401CD3909F4B5C008F0BE
:1014000070C0C43909F47FC238F5CE3809F41EC360
:1014100088F4CB3809F4A2C0CD3809F47DC110920C
:10142000F3011092F2011092F401DF91CF911F911C
:101430000F910895C13909F493C1C33981F7D130AF
:1014400009F40BC380914B038F5F80934B03833070
:1014500008F003C38C2FD3C1C83909F4F5C188F44F
:10146000C53909F458C2C639D1F686E9D13009F038
:101470003CC181E00E9403091092F0011092920396
:10148000CECFCA3909F4BFC108F4F2C1CC3939F65C
:10149000D13029F68DED91E00E944303FC01892BA8
:1014A00009F4BDCF27812C3209F0C4C13796808161
:1014B0008C3209F0319680818C3209F031964AE005
:1014C00050E070E060E0CF0101960E94BC2A6623E4
:1014D00029F08DEF860F823008F0AEC10E944209DC
:1014E0009ECFC93AC8F4C53A08F0A9CFC03A09F46A
:1014F000A6CF58F4CE3909F4DAC0CF3909F08FCF2E
:10150000D13009F04CC18EE8F0C0C13A09F45BC19A
:10151000C33A09F494CF83CFC13D90F4CD3B08F496
:101520002AC2D63009F068C280911802909119023F
:101530008134914009F463C28C2F0E94892564C2D2
:10154000C53D09F463C2CC3F09F069CF8DEC91E051
:101550000E944303892B09F472CFC0CF8CE80E940C
:1015600089251092DE015BCFD13009F058CF46E0DB
:1015700050E067EF71E087E993E00E94332D892BFB
:1015800009F04DCF87EF91E00E94430362E270E0E3
:101590000E94832D009709F442CFEC01219662E26C
:1015A00070E0CE010E94832D8C016CE270E0CE01D0
:1015B0000E94832D0115110509F431CF009709F41C
:1015C0002ECFEC012196C017D10708F028CF6AE38F
:1015D00070E0CE010E94832D009709F420CF801780
:1015E000910708F01CCFFE0101900020E9F7319728
:1015F000EC1BFD0B389708F412CF88E0FE01ABE03E
:10160000B1E001900D928A95E1F71092130170916B
:101610000A017F3F19F410921D0201CF20910B01A6
:101620002053330BEAE0E29FC001E39F900D1124A9
:1016300020910C012053330B820F931F6CE3689FA2
:10164000A001699F500D112420910E012053330BEE
:10165000E29FC001E39F900D112420910F012053C0
:10166000330B820F931F480F591F2091090130E05F
:10167000769F200D311D1124709108018091070182
:1016800090E0769F800D911D1124821793075CF0E6
:101690004217530724F0841795070CF0BCCF8FEF47
:1016A00080931D02BCCE42175307ACF3B4CFD130A8
:1016B00099F48AEE91E00E944303892B59F08FEF51
:1016C0008093140210921C0281E90E9489251092D5
:1016D0000302A5CE8DE8F9CFD53051F480911A02DE
:1016E00090911B020E9731F48EE90E94892597CEC6
:1016F000D43021F0809116028038B1F78091030236
:101700008F5F80930302843118F00E944209DFCF7B
:1017100084E18093F601E8CFD13061F48FEF8093BC
:10172000140210921C0281E90E94892582E38093B1
:10173000F60175CED53079F480911A0290911B0292
:101740008031910521F48FEF80931C0268CE0E97B3
:1017500021F48DE8CACFD430E1F380911602F9CF9D
:10176000D13011F48FE9C1CFD63089F480911802BD
:10177000909119028A3321E0920721F0853092403E
:1017800009F04DCE8CE38093F60181E9AECFD430E1
:10179000E1F380911602803809F041CEF6CFD630C1
:1017A00081F480911802909119028A3321E0920706
:1017B00021F08530924009F032CE84E18093F60129
:1017C000D1CF8AE0FBCFD13049F0D53081F4809180
:1017D0001A0290911B020397029748F48091F1013D
:1017E0000E9489251092F10110924B030AC080914A
:1017F0004B038F5F80934B03833018F481EA0E9480
:10180000892582E094CFD13089F484EE91E00E9462
:101810004303009709F403CE4AE050E070E060E033
:1018200006960E94BC2A60930601F9CD83E6809358
:101830000601F5CD38963BCE6B7F613009F0EFCDD8
:101840008FEF8093C901EBCDD13049F0D53051F401
:1018500080911A0290911B024597029718F41092FA
:10186000E401DDCD8091E4018F5F8093E401D7CD69
:10187000D13009F042C046E050E066ED71E087E902
:1018800093E00E94332D892BC1F586ED91E00E94F3
:1018900043036CE270E00E94832D009771F16CE2CB
:1018A00070E00E94832D009741F162E270E00E9497
:1018B000832D009711F18C010F5F1F4F62E270E0E2
:1018C000C8010E94832D0097C1F008171907A9F0DD
:1018D000801B910B8C30910514F08BE090E0EC01B3
:1018E000DD27AE01B80183E292E00E94682DCD5D54
:1018F000DD4F18821092E30192CD8091E3018F5F5A
:101900008093E3018CCDD63009F47BCF84E9D130CC
:1019100009F075CF76CFD13021F0809116028C304E
:10192000A1F48FEF8093F00110924B03809101019D
:10193000811175CD8CE291E09093D5018093D40113
:1019400084E18093F60184EAD0CED43021F08091F6
:101950001602803849F480914B038F5F80934B03CC
:10196000833010F485E9C1CED33011F41092F00128
:1019700010924B0354CDD130A9F58FEC91E00E9429
:1019800043036AE070E00E94832D009741F1EC016F
:1019900021966DE070E0CE010E94832D0097F9F052
:1019A0008C1B9D0B97FD019695958795893CA8F416
:1019B0008093ED014FE452E06091ED01CE010E9471
:1019C000D22881ED0E9489258091F4018C5E0E94CD
:1019D00089258FEF8093EC0122CD88ECE9CF10921E
:1019E000EC011DCDD63021F01092EC018CE39FCE9E
:1019F0008C2F0E948925F8CFD43009F49DCD809199
:101A00001602803809F498CD89E191CED43029F0BE
:101A100080911602803809F0ABCF1092920380912A
:101A20004B038F5F80934B03833010F485ED5DCEC5
:101A300010924B0380E00E9403091092F001109273
:101A400092031092EF011092EE01E9CCD13029F00F
:101A50008EE80E94892584E16ACE8091F1010E947E
:101A600089258091F101895A843108F0BBCE10920A
:101A7000EC01B8CE0F931F93CF93DF9380911602A2
:101A800080911602803821F08091F501882381F041
:101A900080E8809316020E94F40982E38093F601A5
:101AA0008FEF8093F501DF91CF911F910F910895F2
:101AB00080911602813829F520912605309127055D
:101AC00080912B0590912C052817390761F44091DE
:101AD00026055091270568EE75E085E993E00E94A0
:101AE0005B2D892B01F380912A058111DCCF80E8E1
:101AF000809316028FEF8093F50182E38093F601C5
:101B0000D2CF809116028A3009F042C086EC91E073
:101B10000E94430362E270E00E94832D009739F136
:101B20008C010F5F1F4F62E270E0C8010E94832D9D
:101B30000097E9F0EC01C01BD10BC031C0F4DD27E8
:101B4000AE01B80185E693E00E94682DCB59DC4FC9
:101B500018828091E30181111092E30180910601C6
:101B6000882311F0833619F480E18093060187E918
:101B70000E949B258091F401895A843110F41092BF
:101B8000EC011092F3011092F2011092F4018BCF4C
:101B900080911602833089F480E00E94030910923C
:101BA000F001109292031092EF011092EE018091D9
:101BB000F401853D09F077CFE4CF809116028230A1
:101BC000D1F48091F401853D11F40E94F4098091D3
:101BD000E80181110BC08AE58093E9018FEF8093C2
:101BE00092031092EF011092EE015DCF8093E90114
:101BF0001092E801F3CF8FEB91E00E94430300972E
:101C000001F1FC01379681918032E9F39091010155
:101C1000911114C0813391F48FEF8093200284E1FD
:101C200090E0A0E0B0E08093830390938403A093BE
:101C30008503B09386038BE080934C0310921602C9
:101C400032CF809116028C3071F48091010188238B
:101C500009F429CF1092F00186E9DF91CF911F910D
:101C60000F910C94892580911602893061F480913E
:101C7000F401853D11F40E94F40980E00E940309FB
:101C800010929203AECF80911602873081F380913B
:101C90001602883029F588EB91E00E9443036CE23C
:101CA00070E00E94832D0097A1F04AE050E070E0C0
:101CB00060E001960E94EA2B9B01215031092431FA
:101CC000310538F488EA860F0E94892581E08093E7
:101CD000F6018091F401895A843108F450CFE3CEA3
:101CE000809116028E3011F484E1F1CF8091EB01E6
:101CF00081110E946F0980912B0590912C05892BF1
:101D000009F4D1CE80911602882309F4CCCEDF915C
:101D1000CF911F910F910C94F409811105C0862F6A
:101D20000E94892580E008951092F3011092F2013B
:101D30006093F4014093F101C9010E94D41C8FEF1C
:101D400008950F93CF93DF939FEF90932A051092FE
:101D50009103811149C085E08093CF011092CE019B
:101D600082ED8093EB0190934F024AE06BEB77E0BA
:101D70008FE492E00E943D2600E020E04BEB57E02C
:101D80006EE272E08FE492E00E94032A47E455E09D
:101D9000FA0101900020E9F7AF014150510967E4D1
:101DA00075E00E9458288F5492408093ED01C091B5
:101DB000ED01C15080914F02C81B46E050E061EB3D
:101DC00071E08AEE95E00E940B2D4AE060EF75E02D
:101DD0008C2F90E00E94952D8AEF80930401DF9173
:101DE000CF910F910C94F01C85E08093CF0110925D
:101DF000CE0183ED8093EB010091470590934F0254
:101E00004AE06BEB77E08FE492E00E943D2620E011
:101E10004BEB57E06EE272E08FE492E00E94032AFF
:101E2000EC014091480550E069E475E00E94682D9E
:101E3000809148058C0F9D2F911DB5CFEF92FF9299
:101E40000F931F93CF93DF9300D01F92CDB7DEB7D0
:101E50009091EC0191114DC08091EB01811149C02D
:101E600080919203811145C08091F001811141C0A0
:101E70008091F40181113DC08091F601811139C03A
:101E800020912A0581E0211101C080E0811132C03A
:101E90002091C10026FD2EC020911502222351F170
:101EA0002091160201E0211125C010917907E12E41
:101EB000F12C1C3909F48FC208F072C0113909F4F1
:101EC000A8C330F51C3809F488C3B0F41A3809F4F3
:101ED0003EC308F055C3193809F4B1C380E00F9030
:101EE0000F900F90DF91CF911F910F91FF90EF9086
:101EF000089581E000E0D9CF1E3809F418C308F432
:101F000076C31F3809F4BBC3103941F78FEFE7CF11
:101F1000163909F4C3C1B8F4143909F4FBC208F046
:101F2000E7C11339D9F68091B90781110AC08091B0
:101F30001F02811106C08091BA07811102C0F99B6E
:101F40008AC383E93BC1183909F46BC208F47AC12A
:101F5000193909F48FC21A3909F690919203911137
:101F600015C02091EE013091EF01232B79F490916F
:101F7000210291110BC090912A05911107C0811186
:101F800005C08091C201882309F417C2809106011F
:101F9000833611F08111BACF80E180930601B6CF6C
:101FA000113D08F081C01D3B08F01FC1143A09F42F
:101FB000ADC1B0F41D3909F486C222E6210FE22F2B
:101FC000F0E0EE56FF4F45915491FEE02F9F9001B7
:101FD000112424563F4F612F802F0E948D0E96CFE3
:101FE000193A58F3911196C08091C901882309F4D8
:101FF00091C08091920381118DC08091EE019091EA
:10200000EF01892B09F086C08091F601811182C011
:102010008091C20181117EC08091EB0181117AC053
:102020008091F401813909F475C08091B90781115B
:1020300071C080911F0281116DC08091BA0781111A
:1020400069C0F99967C061E081E00E94D2258111E1
:1020500061C064ED82ED0E94D22581115BC067E909
:1020600085E90E94D225811155C0002309F452C090
:102070001092F3011092F2011093F4018FEF80930C
:10208000EC0146E050E06AEA71E08AEE95E00E94D9
:102090000B2D4AE060EF75E0C701885A91090E9454
:1020A000952D0E94F01C32CF143D09F452C080F4EB
:1020B000113D11F542E252E068E173E08FE492E0F5
:1020C0000E94EF28009709F05CC01092EC011ECF2F
:1020D000173D09F476C01D3F09F4DBC2153D09F038
:1020E000FDCE8091C901882329F08091F6018823D3
:1020F00009F42CC185ED62C08091920381110AC060
:102100008091EE019091EF01892B21F48091F601ED
:10211000882311F0812F52C08091B9078111FACF25
:1021200080911F028111F6CF8091BA078111F2CF01
:10213000F999F0CF002371F31092F3011092F2019C
:102140001093F40181E0133D09F080E00E94A10E9C
:10215000DDCE10922A054091ED016FE472E088EE29
:1021600095E00E941F2A8091ED0190E0880F991F51
:102170000196FC01E951FA4F2AE120830E94BB1C21
:10218000C5CE9E012F5F3F4FAE014E5F5F4FBE0138
:102190006D5F7F4F0E944629AE014F5F5F4FBE01CA
:1021A0006E5F7F4F0E946929909377038093760337
:1021B00041EA67ED76E00E94042887ED0E948925B8
:1021C000A5CE8091B9078111F8CF80911F028111AE
:1021D000F4CF8091BA078111F0CFF999EECF8BE05F
:1021E00080934C030E945B0670CF911193CF809136
:1021F000920381118FCF8091EE019091EF01892B95
:1022000009F088CF80912102811184CF80912A0525
:10221000811180CF002309F47DCF1092F301109239
:10222000F2011093F40146E050E063EA71E08AEEB7
:1022300095E00E940B2D4AE060EF75E0C7018C5BD2
:1022400091092DCF8091B90781110AC080911F0299
:10225000811106C08091BA07811102C0F99B02C0AA
:1022600087E9ACCF8BE080934C030E94BD088823A4
:1022700061F080910101882379F08CE991E00E945E
:102280004303892B11F40E944B0686E90E9489259D
:102290008FEF8093DD0123CE85E9F8CF8091EB01AC
:1022A000811118C080919203811114C08091F401B2
:1022B000811110C080912A0581110CC08091C1004C
:1022C00086FD08C080911502882321F080911602B6
:1022D000882311F086E972CF1092F3011092F20177
:1022E00086E98093F4018AE991E00E94D41C0ECE25
:1022F00085E9002309F462CF1092F3011092F201F4
:1023000085E98093F40188E991E0EFCF8091F601AF
:10231000882311F084EA52CF8091C10086FDFACF64
:10232000809115028823B1F3809116028111F2CFBA
:102330008091F4018111EECF1092F3011092F2011D
:1023400084EA8093F40181E991E0CFCF80919203F8
:102350008111DCCD002309F4CDCE1092F30110924F
:10236000F20185ED8093F40185E180934C0384E6CE
:102370008093EA0569E273E08BEE95E00E948E2D72
:1023800089E293E0FC0101900020E9F7CF018A5235
:1023900093408F5F90E0FC01E651FA4F2BE32083DE
:1023A00085519A4FFC0110820E94F01C8CE291E052
:1023B0009093EF018093EE01A9CD8AE9002309F4FF
:1023C000FDCE1092F3011092F2018AE98093F4019C
:1023D0008CE891E08ACF90919203911197CD209152
:1023E000EE013091EF01232B09F090CD9091210265
:1023F00091118CCD90912A05911188CD811186CDB6
:102400008091C201811182CD8CE9002309F4D6CEDE
:102410001092F3011092F2011093F40185E891E01B
:1024200064CF90919203911114C02091EE013091EC
:10243000EF01232B71F49091210291110AC0909128
:102440002A05911106C0811104C08091C201882320
:1024500019F01092E4015ACD88E9002309F4AECEB8
:102460001092F3011092F20188E98093F4018CE755
:1024700091E03BCF90919203911114C02091EE0115
:102480003091EF01232B71F49091210291110AC038
:1024900090912A05911106C0811104C08091C2015A
:1024A000882319F01092E30131CD89E9002309F462
:1024B00085CE1092F3011092F20189E98093F40124
:1024C00085E791E012CF9091920391111FCD209159
:1024D000EE013091EF01232B09F018CD90912102EC
:1024E000911114CD90912A05911110CD81110ECD2D
:1024F0008091C20181110ACD8DE9002309F45ECEDD
:102500001092F3011092F2018DE98093F4018EE6AE
:1025100091E0EBCE84E9002309F450CE1092F30150
:102520001092F2011093F40187E691E0DECE8EE87E
:10253000002309F443CE1092F3011092F20110939C
:10254000F40180EA8093F10182E591E0CECE8BE840
:102550000E94892584E18093210210922C0510921B
:102560002B0510923B0580B7826080BFF894809164
:10257000C10080688093C100789400004598C6CC63
:102580008091DE018111C2CC80912102882311F05B
:102590008BE814CE8091C10086FDFACF10922C05F5
:1025A00010922B0510923B0580B7826080BFF89493
:1025B0008091C10080688093C100789400004598A4
:1025C0001092F3011092F2018BE88093F40184E100
:1025D0008093DE0189E491E088CE8FEF809315022D
:1025E0008EE90E94892588E28093F6018FCC8DE8E0
:1025F000002309F4E3CD1092F3011092F2018DE86B
:102600008093F4016CE371E08AEE95E00E94142D52
:1026100048CD80910202882311F08FE9CFCD8FEF52
:102620008093020281E9002309F4C8CD1092F301DE
:102630001092F2011093F40183E391E056CE0E94D0
:102640003A0D80911602813819F084E180930401DB
:10265000109216025BCC002309F473CC1092F301A4
:102660001092F20183E98093F40168E271E08AEE4E
:1026700095E00E94142D8FE88093F10112CD809196
:102680001402882309F442CC84E90E94892580E958
:1026900095CD8091B90781110AC080911F028111E7
:1026A00006C08091BA07811102C0F99B02C08DEF6C
:1026B00085CD0023E1F31092F3011092F2018DEF2A
:1026C0008093F40167E977E08AEE95E00E948E2D11
:1026D000E8CC8091F601882339F081508093F6018F
:1026E000811102C01092F5018091C5019091C6013F
:1026F000009729F001979093C6018093C5018091BE
:10270000D4019091D501009771F001979093D50174
:102710008093D401892B39F48091F001882319F03A
:1027200086E90E9489258091DE018823C1F08150CD
:102730008093DE01811113C01092F3011092F20117
:102740001092F4018BE80E94892510921702F894E8
:102750008091C1008F7B8093C100789400000E941B
:102760008F1E882319F08AE80E9489258091E9014B
:10277000882341F081508093E901811103C086E9EB
:102780000E9489258091EE019091EF01009771F0F0
:1027900001979093EF018093EE01892B39F482E049
:1027A0000E9403091092F00110929203809101029D
:1027B0008F5F80930102803309F04EC08AE90E9446
:1027C0009B2580912102882319F08150809321025A
:1027D0008091C901882309F45EC080910601833687
:1027E00011F0811158C08091E5019091E601883582
:1027F00022E0920750F40196883522E0920709F40E
:1028000043C09093E6018093E5018091E401863016
:1028100020F48091E301843110F00E9442098091FC
:10282000C801882339F081508093C801811102C00A
:102830000E9442098091C901811132C08091E10159
:102840009091E20101969093E2018093E101813B36
:10285000944050F10C944209843311F48CE9AFCFC9
:10286000883311F489E9ABCF8C3311F488E9A7CF11
:10287000803508F4A6CF8091C90110920102882307
:1028800009F49FCF8DE99BCF1092E6011092E501EC
:102890000E944209BACF1092E6011092E501B5CF2D
:1028A0001092E2011092E1010895809116028823AE
:1028B00009F457C089E80E948925809191038823F3
:1028C00029F084ED0E948925109291038091C9011D
:1028D000882309F455C08091EB01882309F450C086
:1028E0008091FF01909100020196883823E19207C0
:1028F00008F03CC0909300028093FF018091F401A6
:102900009091F001882309F4A8C02091FE01821360
:102910006AC091116AC08B3831F09CE2980F44EF85
:1029200051E0923010F440EE5EE29EE2980F923059
:1029300010F44CED55E02091FC013091FD012F5F2A
:102940003F4F2417350708F53093FD012093FC0114
:102950001092FB011092FA018091F4018093FE0124
:1029600008950E94E4208111A5CFA7CF1092000204
:102970001092FF0184E0809316020E946F09BECF7F
:10298000109200021092FF01B9CF1092FD01109237
:10299000FC018C3F29F1863901F193E7980F9230C1
:1029A000E0F09DE6980F9230C0F092E6980F9A30D2
:1029B000A0F097E5980F983280F01092F1010E94F4
:1029C0002B091092F3011092F2018CEF8093F40125
:1029D0001092EA050E94F01CBBCF8093F101EFCF6B
:1029E0000E944209B5CF9923C1F18091160281114D
:1029F00034C0F89480912B0590912C057894209107
:102A0000FA013091FB012817390720F49093FB015C
:102A10008093FA018091FA019091FB010A9708F4E2
:102A20009BCF8091FC019091FD010196843F21E0B4
:102A3000920728F49093FD018093FC018DCF1092B2
:102A4000FD011092FC0181E00E9403091092FB013C
:102A50001092FA010E9442097FCF1092FD0110925C
:102A6000FC01992309F474CF77CFBF92CF92DF9204
:102A7000EF92FF920F931F93CF93DF93809179078B
:102A80009091EC0191112BC09091EB01911127C015
:102A900090919203911123C09091F00191111FC068
:102AA0009091F40191111BC09091F601911117C002
:102AB00090912A0521E030E0911102C030E020E041
:102AC000232B69F49091C10096FD09C090911502E5
:102AD000992329F090911602992309F478C0883837
:102AE00009F077C065C08091B907811161C08091FC
:102AF0001F0281115DC08091BA07811159C0F999F7
:102B000057C08AE28093470508E415E085E0D82E97
:102B100093E2C92E2AE0B22EC0911703CD9D700119
:102B2000112488E0E80EF11CC7010E94A9308F3FF4
:102B300041F14FEFB801C7010E94A526E801C80F77
:102B4000D11DC8828E010E5F1F4FB982809117037D
:102B50008F5F809317039E012D5E3F4F275E3540A8
:102B600050F48F3FC9F61A8282ED0E94892581E0D8
:102B70008093C20120C08F3FB1F388E80E9489256D
:102B8000F2CFCF5FC0931703CF3F31F6E5E00734B4
:102B90001E0791F0F801108282ED0E94892581E0E4
:102BA0008093C20109C08091C201882309F49BCFA0
:102BB00088E80E948925CFEF8C2FDF91CF911F915C
:102BC0000F91FF90EF90DF90CF90BF9008958838DD
:102BD00051F3C0E0F1CF08950E94C01B0E949908F4
:102BE0000C94691CCF93DF931F92CDB7DEB7809111
:102BF000B907811131C080911F0281112DC08091D0
:102C0000BA07811129C0F99927C0198291E08091F2
:102C10002002811101C090E081E040918303509136
:102C200084036091850370918603452B462B472BC7
:102C300009F480E0981711F081E0898385E090E045
:102C40000E94A9309981891739F041E065E070E070
:102C5000CE0101960E949B270F90DF91CF9108959E
:102C60000E94EC150E94691380914C03882331F077
:102C7000815080934C0381116CC0409A8091110265
:102C800090911202009739F001979093120280936D
:102C90001102892B11F41092130280917907882375
:102CA00009F482C09EE2980F923008F076C09091AD
:102CB0001002981372C080910E0290910F02863913
:102CC000910508F048C0019690930F0280930E0280
:102CD0008091EB01882309F489C0809108029091CA
:102CE00009028C3221E0920708F061C001969093AE
:102CF0000902809308028091DC01882309F48CC0CA
:102D00008091DA019091DB018436910508F075C05D
:102D10008091DA019091DB0101969093DB01809321
:102D2000DA018091CF01882309F489C09091CE0106
:102D30009F5F9093CE01963028F01092CE01815083
:102D40008093CF018091CE01823008F476C0409A02
:102D50000895409893CF63ED82ED0E94AF25809156
:102D60000A0290910B028F3F980729F001969093E9
:102D70000B0280930A0281E90E949B2510921302A4
:102D8000109212021092110210920F0210920E0273
:102D9000109210021092EB019BCF809310021092C0
:102DA0000F0210920E0294CF10921002F8CF1092E0
:102DB0000902109208020E94FC021092EB0110928C
:102DC000EA0110922A051092C201809107028F3FFA
:102DD00019F08F5F8093070280910702833008F417
:102DE0008ACF109207020E94420985CF10920902F1
:102DF00010920802109207027ECF8FEF8093D901C4
:102E0000F89488E198E00FB6F894A8958093600054
:102E10000FBE90936000FFCF8091D7019091D801B1
:102E2000892B09F47ECF8091D7019091D801019729
:102E30009093D8018093D70174CF409808958091E2
:102E4000C901811102C040981CC080914C038111BE
:102E5000FACF809106018031B0F48091F9018F5F43
:102E60008093F901823318F081E08093F901809119
:102E7000F901883241F38B3231F38E52843018F3EA
:102E8000409A0C94F2151092F901F1CF0E945F1C48
:102E90000E9455140C943727F89480916E008D7F12
:102EA00080936E00789400008091CD01811109C05B
:102EB000F89480916E00826080936E007894000098
:102EC00008951092CD018091CC01882329F081E0F2
:102ED0008093CB011092CC01F89480916E008260B7
:102EE00080936E00789400008091CB0180FF33C006
:102EF0008091F8018F5F8A3079F18093F8010000AA
:102F0000F89400B601FE26C08091C1008F778093AF
:102F1000C100789480912B0590912C05892B11F19B
:102F200080913B058F5F80933B058333D8F0459AB2
:102F30008091C1008F778093C10080B78D7F80BF63
:102F40001092940310929303109229051092280571
:102F500010929003789408951092F80183E0809382
:102F6000CB01CDCFF8948091C10080688093C100DF
:102F700078940000EFCFA89582E084BD83E085BD02
:102F80008FE387BDEEE6F0E080818260808383B7C7
:102F9000817F83BF0895CF93DF9344E050E061E0E9
:102FA00070E08DE493E00E94993080914D03815050
:102FB0008E3FF0F081E48093BB0780934D0382E461
:102FC0008093BC0780934E0383E48093BD07809376
:102FD0004F0384E48093BE0780935003F999FECF9A
:102FE00044E050E061E070E08DE493E00E94B13095
:102FF0008EEF9FE00E94A9308F3F09F4D2C08093EA
:1030000000018FEF9FE00E94A9308F3F09F4D4C0E8
:10301000809301018AEF9FE00E94A93080930A010A
:103020008BEF9FE00E94A930809309018CEF9FE015
:103030000E94A930809308018DEF9FE00E94A93083
:103040008093070189EF9FE00E94A9308F3F09F428
:10305000BEC08093D60185EF9FE00E94A930C82FA3
:1030600086EF9FE00E94A930CF3F09F0B3C08F3FA9
:1030700009F0B0C080E293E09093030180930201D5
:1030800081E09091D601911101C080E06091020130
:103090000E94680380910A018851873E78F08091F0
:1030A00009018C53833C50F0809108018851873E80
:1030B00028F0809107018C53833C28F5F999FECFC5
:1030C0006FEF8AEF9FE00E94C130F999FECF6FEF5A
:1030D0008BEF9FE00E94C130F999FECF6FEF8CEF2C
:1030E0009FE00E94C130F999FECF6FEF8DEF9FE016
:1030F0000E94C1308FEF80930A0180930901809371
:1031000008018093070110921D0287EF9FE00E9443
:10311000A9308F3F09F46AC08093C401C0EFDFE09B
:10312000CE010E94A9308F3F31F4F999FECF60E0C3
:10313000CE010E94C1302196C53F8FE0D80781F7AC
:10314000C6EEDFE0CE010E94A9308F3F31F4F9993D
:10315000FECF60E0CE010E94C1302196CD3E2FE02F
:10316000D20781F7109213021092120210921102EC
:103170001092EB018091F7018F3F19F08F5F8093E0
:10318000F701F999FECF6091F7018CED9FE00E9465
:10319000C130F999FECF62E080E0DF91CF910C94CD
:1031A000680381E080930001F999FECF61E08EEF22
:1031B0009FE00E94C13025CF81E080930101F99901
:1031C000FECF61E08FEF9FE00E94C13023CF1092CD
:1031D000D60141CF982F8C2F909303018093020149
:1031E00001978032934008F045CF4ACF1092C40136
:1031F00095CFDF92EF92FF920F931F93CF93DF93C0
:10320000CDB7DEB7A5970FB6F894DEBF0FBECDBF22
:1032100010917907133809F4A6C030F41230F1F098
:1032200008F059C080E049C0153809F4A7C108F476
:10323000D1C0163809F407C21738A1F78091B90731
:1032400081110AC080911F02811106C08091BA07C6
:10325000811102C0F99B50C287E80FC08091B90765
:1032600081110AC080911F02811106C08091BA07A6
:10327000811102C0F99B04C082E00E9489251CC014
:1032800081E48093BB0780934D0382E48093BC0765
:1032900080934E0383E48093BD0780934F0384E4BF
:1032A0008093BE078093500364E081E090E00E9429
:1032B000C22783E380934C038FEFA5960FB6F89453
:1032C000DEBF0FBECDBFDF91CF911F910F91FF9059
:1032D000EF90DF9008958091B90781110AC0809125
:1032E0001F02811106C08091BA07811102C0F99BAB
:1032F00002C0812FC2CF0DEF010F40E250E06FEF0F
:1033000070E08BEB97E00E94712D011120C081E4E9
:103310008093BC0780934D0382E48093BD07809324
:103320004E0383E48093BE0780934F0384E480932D
:10333000BF07809350031092C00710922002109292
:10334000830310928403109285031092860360E237
:1033500020E2029FC00111240E94C22781E0810F58
:103360000E948925A6CF8091B90781110AC080915A
:103370001F02811106C0F090BA07F11002C0F99B3C
:1033800002C083E87ACF10E000E0C8010E94A930B3
:10339000F801E457FF4FE4918E1711F0FF24FA94DF
:1033A0000F5F1F4F0630110581F708E010E0C801DC
:1033B0000E94A9308F3F41F40F5F1F4F083A8FE002
:1033C0001807A9F7FF2011F083E057CF0E94CB1711
:1033D000409A72CF8091B90781110AC080911F0273
:1033E000811106C08091BA07811102C0F99B02C009
:1033F00084E843CFD0901D02D1105ECF8E010B5ECA
:103400001F4F65E673E0C8010E948E2DF801019000
:103410000020E9F7BF01615071094BEB57E0C8018B
:103420000E94F42580910001813091F098E0E92E0E
:10343000F12CB7018BEB97E00E94C92681115EC089
:10344000F5E0EF0EF11C28EAE2162FE0F20689F70C
:103450008091D601882329F0DD2009F452C0DD24B3
:10346000DA9481E09091D601911101C080E061EF82
:103470007FE00E94C62781E0D11080E062EF7FE00C
:103480000E94C6278091D601882359F1D11029C006
:10349000F80101900020E9F73197CF01801B910BD3
:1034A000182F64EF7FE00E94C6271330D0F0BE01D2
:1034B0006F5F7F4F81E593E00E948E2D81E593E061
:1034C000FC0101900020E9F7CF018255934003975A
:1034D00040F063EF7FE081E00E94C62786E80E940B
:1034E000892580910101882309F4E6CE80910001AD
:1034F000813009F03FC00E944B06DECEDD24DA9415
:10350000A7CFF80101900020E9F73197E01BF10BFC
:10351000CE0101967C01EA3058F1E950FF0BB80169
:103520006E0F7F1F0E948E2DF70101900020E9F79A
:10353000BF01615071094BEB57E0C7010E94F425B0
:1035400080910001813009F48CCF88E0E82EF12CC5
:10355000B7018BEB97E00E94C926811180CFF5E07F
:10356000EF0EF11C28EAE2162FE0F20689F779CF78
:10357000B801D8CFDD2009F49FCEBDCF8091B90727
:1035800081110AC080911F02811106C08091BA0783
:10359000811102C0F99B02C085E86FCE89E293E0F9
:1035A0000E940303811188CE69E273E0FB01019060
:1035B0000020E9F7BF01615071094BEB57E089E248
:1035C00093E00E94F42508E010E0C8010E94A930B1
:1035D0008F3F91F565E0C8010E94C2278091D60116
:1035E00008E010E0F12CE12C882309F465CEC80135
:1035F0000E94A9308F3F19F02FEFE21AF20A0B5FF9
:103600001F4F083A8FE0180791F7809102019091BF
:103610000301E816F90608F44FCE1092D60169EFBF
:103620007FE080E00E94C627109200016EEF7FE0ED
:1036300080E00E94C62740CE0B5F1F4F083AFFE094
:103640001F0719F639CE8091B90781110AC0809100
:103650001F02811106C08091BA07811102C0F99B37
:1036600002C086E80ACE61E573E0FB01019000200C
:10367000E9F7BF0161507109AE014F5F5F4F81E50E
:1036800093E00E94F42581E593E00E9403038111F9
:1036900013CE85E0FE013196ABEBB7E001900D92C1
:1036A0008A95E1F708E010E0C8010E94A9308F3F39
:1036B000E1F465E0C8010E94C2278091D60108E0CC
:1036C00010E0F12CE12C882309F4F6CDC8010E940A
:1036D000A9308F3F19F02FEFE21AF20A0B5F1F4F4C
:1036E000083A8FE0180791F790CF0B5F1F4F083A09
:1036F000FFE01F07C9F6E0CD69E273E0FB0101902E
:103700000020E9F7BF01615071094BEB57E089E2F6
:1037100093E00E94F42508E010E0B8018BEB97E0FD
:103720000E94C926882379F0109229034BEB57E0B9
:103730006AE273E089E293E00E94F42565E0C80143
:103740000E94C227B9CD0B5F1F4F083AFFE01F0749
:1037500021F7B2CD0E941E0F811106C00E94F918F8
:10376000811102C00E9435150C94C725E82FF0E0A6
:10377000E758FC4F9081907F81E009F080E0089548
:1037800090918203892F8D7F8093820380917903AA
:10379000807F90FD56C081114BC080918B0390912A
:1037A0008C03A0918D03B0918E03409187035091BB
:1037B00088036091890370918A0384179507A6078F
:1037C000B70798F40196A11DB11D80938B039093C8
:1037D0008C03A0938D03B0938E03481759076A0793
:1037E0007B0719F481E0809382038091820390919A
:1037F0008F03891781F080938F03982F92609093A5
:10380000820380FD53C010928B0310928C031092A0
:103810008D0310928E0380917803882341F090915C
:1038200082039D7F90938203815080937803089553
:1038300010928B0310928C0310928D0310928E03C2
:10384000D4CF882351F180917E0390917F03A09182
:103850008003B091810340917A0350917B03609182
:103860007C0370917D0384179507A607B70708F0BE
:10387000BCCF0196A11DB11D80937E0390937F0361
:10388000A0938003B0938103481759076A077B0709
:1038900009F0ABCF10928203A8CF10927E03109252
:1038A0007F0310928003109281039FCF10927E03BA
:1038B00010927F031092800310928103ACCF80910D
:1038C0007903189B869581601899880F80937903F6
:1038D00008958091830390918403A0918503B09112
:1038E0008603209120020097A105B10591F0019770
:1038F000A109B10991F481E0211180E0282F1092F3
:1039000083031092840310928503109286038093A0
:103910002002222359F05D9A0895809383039093A7
:103920008403A0938503B0938603F3CF5D98089535
:1039300084E190E0A0E0B0E080937A0390937B0371
:10394000A0937C03B0937D038093870390938803B7
:10395000A0938903B0938A03089510928F03109265
:1039600083031092840310928503109286038EE1E4
:1039700080937803089590932705809326051092ED
:10398000300510922F05E0ECF0E0808180648083A8
:10399000F894E1ECF0E0808180648083789400000A
:1039A0008FEF809317020895CF93DF93FC0181E49A
:1039B0008093E80584E58093E905AAEEB5E093E0FD
:1039C000ED0184918D93811108C08DE08883892F4A
:1039D00090E0DF91CF910C94BB1C31969F5FF0CFAC
:1039E000E8EEF5E081E4808384E5818301900020A6
:1039F000E9F7CF01895E95409927FC01E851FA4F1C
:103A00002DE0208301960C94BB1C78941F920F929A
:103A10000FB60F9211240BB60F922F933F938F93F3
:103A20009F93EF93FF9320912F0530913005809164
:103A300026059091270528173907A8F0F89480915A
:103A4000C1008F7B8093C10078940000FF91EF91BB
:103A50009F918F913F912F910F900BBE0F900FBEB2
:103A60000F901F901895349910C080912F05909158
:103A70003005FC01E851FA4F208101969093300502
:103A800080932F052093C600E1CF8FEF809317021C
:103A9000DDCF8F938FB78F938091C1008F77809305
:103AA000C10078948BB78F938091C6000F924F938B
:103AB0001F9211242F933F93EF93FF93AF93BF93E4
:103AC0009F9320912B0530912C058F3F09F4E5C081
:103AD000E5E9F3E0A901203991E0390708F0CAC00F
:103AE0002115310559F1909195038D3009F59D30DF
:103AF000F9F09A30E9F090919003911119C091E892
:103B000090931602459AF8949091C1009F779093F4
:103B1000C10090B79D7F90BF7894000010929403ED
:103B20001092930310922905109228051092900389
:103B30002115310519F090819D30F9F08A30E9F4B2
:103B400090919003911119C091E890931602459AB3
:103B5000F8949091C1009F779093C10090B79D7F9A
:103B600090BF7894000010929403109293031092E7
:103B7000290510922805109290038F01A9014F5F2B
:103B80005F4FDF01A20FB31F00B601FE5DC02430FE
:103B9000310508F459C08A3009F056C0BD016150A2
:103BA0007109EB0198819D3009F04EC06150710997
:103BB000EB0198819A3009F447C061507109EB011B
:103BC00098819D3009F440C0EF0191819A30E1F570
:103BD00090819D30C9F560912805709129057093F9
:103BE0009403609393035093290540932805909183
:103BF00090039F5F90939003609137057091380513
:103C000070933A05609339056091350570913605DA
:103C100070933805609337056091330570913405D2
:103C2000709336056093350560919303709194030A
:103C300070933405609333056091280570912905D0
:103C4000709332056093310590912A05992361F0B4
:103C50002330310549F4803239F4909197039E3333
:103C600019F49FEF909391038C939A01E40FF51F41
:103C700010820FC030E020E080E88093160210929E
:103C80009403109293031092290510922805109224
:103C9000900330932C0520932B0510923B059F91A8
:103CA000BF91AF91FF91EF913F912F911F904F9155
:103CB00000B601FE08C0F8948091C100806880932E
:103CC000C100789400000F908F918BBF8F918FBFB0
:103CD0008F91189583E08093C4001092C500E1ECA9
:103CE000F0E08081886180838BB18C7F8BB95198A3
:103CF000449845983D9808954F9B0FC01092050138
:103D000010922C0510922B05519A8BB183608BB9C0
:103D10003D9A459A449A8FEF089580E008958091E6
:103D200005018823B9F191E0980F90930501913A2C
:103D300039F1A8F49F30D9F030F49230D1F09330BB
:103D4000E9F080E0089587528430D8F70E947C1E05
:103D500091E0811101C090E0892F819508959F3FE6
:103D6000A0F4953F98F7983C49F0973D51F7569845
:103D7000E8CF56980E947C1E81110BC0569AE1CF65
:103D80001092150210921402DCCF81E0809305019D
:103D9000D8CF8FEF0895FC014217130609F040F4C5
:103DA000DB01AB56BC4F90E0491304C081E04913DE
:103DB00080E008952D9184912813F8CF31969F5F6C
:103DC000F3CF8FB7F894109294031092930310924C
:103DD0002905109228058FBF08952F923F924F9288
:103DE0005F926F927F928F929F92AF92BF92CF928B
:103DF000DF92EF92FF920F931F93CF93DF9348E0F0
:103E0000B42E57E0852E69E0962E73E0772EE8E019
:103E10006E2EF5E15F2EA2E04A2EBDE03B2E22245D
:103E200023949FB7F89480919003811128C09FBF7D
:103E300080914605882301F1815080934605E82F43
:103E4000F0E0E45CFA4F808180931602108280914A
:103E50001602DF91CF911F910F91FF90EF90DF90AD
:103E6000CF90BF90AF909F908F907F906F905F901A
:103E70004F903F902F90089510921602EACF853010
:103E800008F084E0E82FF0E0EE0FFF1FEF5CFA4F40
:103E9000C080D180118210828150E82FF0E0EE0FB7
:103EA000FF1FEF5CFA4F20813181809390039FBF09
:103EB000C216D30698F5809146058A3010F090928C
:103EC0004605E901CC19DD09249786010E5F1F4FD5
:103ED000C9018B569C4FFC013397E0803197A0803D
:103EE000F601EB56FC4FF5804BE4E4121CC0EFE406
:103EF000AE124AC10597FC018081803209F460C18D
:103F00002630310508F45CC1E091460581E08E0F52
:103F100080934605F0E0E45CFA4F2082BA94B11039
:103F200080CF80E096CFF7E4FF1214C09E0146E0F8
:103F3000B8018EE793E00E94CB1E882359F0E091F0
:103F4000460581E08E0F80934605F0E0E45CFA4F71
:103F50003082E4CF4FE4A41215C09E0145E0B801C1
:103F600088E793E00E94CB1E882361F0E09146052C
:103F700081E08E0F80934605F0E0E45CFA4F84E028
:103F80008083CCCFE7E4EE1215C09E0147E0B80174
:103F900080E793E00E94CB1E882309F4F9C0E091EA
:103FA000460581E08E0F80934605F0E0E45CFA4F11
:103FB0004082B4CFF4E4EF12EBC09E014CE0B801B4
:103FC00083E693E00E94CB1E882309F4E1C0E091D0
:103FD000460581E08E0F80934605F0E0E45CFA4FE1
:103FE0008CE0CECF8DE4F81214C09E0146E0B801FB
:103FF00085E593E00E94CB1E882311F1E0914605F0
:1040000081E08E0F80934605F0E0E45CFA4F508229
:1040100085CFE4E5FE1214C09E0146E0B8018EE4AF
:1040200093E00E94CB1E882359F0E091460581E081
:104030008E0F80934605F0E0E45CFA4F60826ECF0D
:10404000F5E4AF1214C09E014AE0B80183E493E0A6
:104050000E94CB1E882359F0E091460581E08E0F27
:1040600080934605F0E0E45CFA4F708257CF45E458
:10407000E41214C09E014BE0B80187E393E00E9474
:10408000CB1E882311F1E091460581E08E0F8093CD
:104090004605F0E0E45CFA4F908240CF89E5E812F3
:1040A00014C09E0144E0B80182E393E00E94CB1E5D
:1040B000882359F0E091460581E08E0F80934605F4
:1040C000F0E0E45CFA4F808229CFE5E4FE1223C0E1
:1040D0009E014BE0B80186E293E00E94CB1E88234C
:1040E00009F41CCF4AE050E070E060E0C6018D5555
:1040F0009C4F0E94EA2B70931B0260931A02E0917E
:10410000460581E08E0F80934605F0E0E45CFA4FAF
:1041100045E0408303CF83E5F81200CF9E014BE0DA
:10412000B8018AE193E00E94CB1E8823C1F04AE0E7
:1041300050E070E060E0C6018D559C4F0E94EA2B74
:104140007093190260931802E091460581E08E0F8A
:1041500080934605F0E0E45CFA4F86E011CF9E01C3
:1041600046E0B80183E193E00E94CB1E882309F466
:10417000D5CEE091460581E08E0F80934605F0E0B4
:10418000E45CFA4F4EE0C5CF87E4F81609F4CECED2
:1041900049E4F41227CF9E0146E0B8018CE593E094
:1041A0000E94CB1E882309F44BCFE091460581E0A5
:1041B0008E0F80934605F0E0E45CFA4F8AE0E0CE93
:1041C000E7E4FE12CACEB2CECF930E94ED1E882342
:1041D000D9F080911602843021F0833111F08130C2
:1041E00089F4CFB7F8940E94E11E459AF894809123
:1041F000C1008F778093C10080B78D7F80BF789496
:104200000000CFBF80911602CF910895FF920F93C7
:104210001F93CF93DF938C01F801C081D181F88087
:104220008F2D90E00E94ED2C892BF1F480914D03AD
:10423000F8121FC0998180914E0398131AC09A8179
:1042400080914F03981315C09B8180915003981360
:1042500010C02496F801D183C0838FEFDF91CF91F6
:104260001F910F91FF9008952196F801D183C0838B
:10427000D3CF80E0F3CF44E050E060E973E00E94E8
:10428000FE2C21E0892B09F020E0822F08956F9207
:104290007F928F929F92AF92BF92CF92DF92EF92D6
:1042A000FF920F931F93CF93DF935C01762E642EC2
:1042B000F50100811181F801808190E00E94ED2CD0
:1042C000892BB9F5F8E07F9EC0011124D12CC12CB7
:1042D0009C012B563C4F4901FC01EA56FC4F7F01E3
:1042E0007614B8F4F401EC0DFD1DE491CE2FD0E06E
:1042F000B7016C0D7D1DAE01C8010E94FE2CF8E0D7
:10430000CF0ED11C892BD9F4C00FD11FF501D18359
:10431000C083872DDF91CF911F910F91FF90EF9078
:10432000DF90CF90BF90AF909F908F907F906F90D5
:1043300008950F5F1F4FF50111830083B9CF739468
:10434000CFCFEF92FF920F931F93CF93DF93EC01A8
:104350007B01088119814AE050E0BC01C8010E943C
:10436000BC2AF701608371838283938381E0288173
:1043700039812017310709F480E0DF91CF911F9137
:104380000F91FF90EF900895DF92EF92FF920F93BD
:104390001F93CF93DF937C01D62EF701C081D1818B
:1043A000088110E0C8010E94ED2C892BA1F48D2D0D
:1043B00090E00E94F62C0817190791F42196F70156
:1043C000D183C0838FEFDF91CF911F910F91FF9029
:1043D000EF90DF9008952196F701D183C083DDCF60
:1043E00080E0F1CFDF92EF92FF920F931F93CF9374
:1043F000DF938C01D62EF801C081D181FE0181911D
:104400007F0190E00E94ED2C892B99F48D2D90E096
:104410000E94F62C982F9E012F5F3F4F88818823A2
:1044200061F0E9019813F7CFF801318320838FEF12
:1044300006C0F801F182E082DECF9923A9F3DF9173
:10444000CF911F910F91FF90EF90DF900895CF9241
:10445000DF92EF92FF920F931F93CF93DF938C0124
:10446000D62EF72EE42EF801C081D181888190E00C
:104470000E94ED2C892B81F4CD2DDF2D6E01E110F2
:1044800010C0F6011082DF91CF911F910F91FF9024
:10449000EF90DF90CF9008952196D801CD93DC93D3
:1044A000E2CFD801ED91FC91F0808F2D90E00E9439
:1044B000ED2C892B31F7F992EA94FF2011F3D80102
:1044C0008D919C91119701968D939C93D7CF8F924C
:1044D0009F92AF92BF92CF92DF92EF92FF920F9393
:1044E0001F93CF93DF937C015B01942EF701008132
:1044F0001181F801808190E00E94ED2C892B19F543
:10450000802E6501C02FD12F8E012196F801808168
:104510000E94E1258D30E9F4F6011082F5018081D9
:10452000882321F0F701118300838FEFDF91CF9172
:104530001F910F91FF90EF90DF90CF90BF90AF90C1
:104540009F908F9008950F5F1F4FF7011183008395
:10455000CDCF8C2F88198915F8F6FE01319780810F
:10456000F60181936F01D0CFEF92FF920F931F93CB
:10457000CF93DF93CDB7DEB762970FB6F894DEBF67
:104580000FBECDBF9A8B898B7C0182E3F701ABEB29
:10459000B7E001900D928A95E1F7CE0141960E9415
:1045A000062129899A89811108C0822F0E943B2106
:1045B000882309F46FC08BE06DC0022F192FF8011A
:1045C00081918F0181111FC040E160E0CE014196D1
:1045D0000E944721803108F075C2E82FF0E0ED50CD
:1045E000FD4D0C949F2A0E2357236423DB22642560
:1045F00040237023982362256225BA232324DE24D6
:10460000552557255C2590E00E94F62CF80131973E
:104610008083D5CF0F5F1F4F1A8B098B09891A89A9
:10462000F801808190E00E94ED2C892B99F7C80158
:104630008E199F09FC01E554F84F34E021914FEBAE
:10464000420F4A3128F020532A3010F082E022C075
:104650003150A1F78554984FFC014081518162810E
:10466000738140934D0350934E0360934F037093B7
:10467000500344E061E070E00E949B2783E00AC0A1
:104680004EE069E273E0CE0141960E9467228111FB
:104690001DC286E062960FB6F894DEBF0FBECDBF96
:1046A000DF91CF911F910F91FF90EF9008954EE011
:1046B00069E273E0CE0141960E946722882331F2BD
:1046C00085E80E948925DACF4EE069E273E0CE01E9
:1046D00041960E946722882309F4B8CF87E8F1CF7A
:1046E0004AE068E0CE0141960E944721883071F48B
:1046F00081E0809300016EEF7FE00E94C6278FEF7C
:10470000809301016FEF7FE081E00FC0893009F0F5
:10471000FEC181E0809300016EEF7FE00E94C6271A
:10472000109201016FEF7FE080E00E94C627A6CFC4
:104730004AE068E0CE0141960E94472110920001B4
:104740006EEF7FE0883011F480E0D7CF893011F42C
:1047500080E0E4CF80E00E94C6278091D6018823C4
:1047600009F48CCF69EF7FE080E00E94C6271092A9
:10477000D60184CFBE01675F7F4FCE0141960E9474
:10478000A121882309F462CF6AE3CE0141960E94F9
:10479000C421882309F45ACFBE016B5F7F4FCE013D
:1047A00041960E94A121882309F450CF6AE3CE01EB
:1047B00041960E94C421882309F448CFBE016F5F4F
:1047C0007F4FCE0141960E94A121882309F43ECF5C
:1047D00089859A85AB85BC8588319105A105B10590
:1047E00008F034CF4D815E816F8178854C3351055F
:1047F0006105710508F02ACF09811A812B813C815E
:104800000C3311052105310508F020CF1F930F93BC
:104810005F934F939F938F938EE991E09F938F9334
:1048200087E997E09F938F930E94AF2D8DEF0E94B1
:1048300089250FB6F894DEBF0FBECDBF1FCF0F5F27
:104840001F4F1A8B098B09891A89F801808190E022
:104850000E94ED2C892B99F743E050E06CE873E05F
:10486000C8010E941B2D892B01F56AEF7FE08FEFB5
:104870000E94C6276BEF7FE08FEF0E94C6276CEF88
:104880007FE08FEF0E94C6276DEF7FE08FEF0E94E1
:10489000C6278FEF80930A01809309018093080156
:1048A0008093070110921D02E9CEBE01635F7F4F26
:1048B000CE0141960E94A121882309F4C7CE6AE364
:1048C000CE0141960E94C421882309F4BFCEBE01C7
:1048D000675F7F4FCE0141960E94A121882309F492
:1048E000B5CE63E2CE0141960E94F221BE016B5F1C
:1048F0007F4FCE0141960E94A121882309F4A6CEC4
:104900006AE3CE0141960E94C421882309F49ECE19
:10491000BE016F5F7F4FCE0141960E94A121882387
:1049200009F494CE8D859E85AF85B889883191052F
:10493000A105B10508F08ACE49855A856B857C852D
:104940004C3351056105710508F080CE4D815E81C3
:104950006F817885483151056105710508F076CE83
:1049600049815A816B817C814C3351056105710508
:1049700008F06CCE6AEF7FE00E94C6276BEF7FE005
:1049800089850E94C6276CEF7FE08D810E94C62733
:104990006DEF7FE089810E94C6278D8580930A0193
:1049A0008985809309018D81809308018981809395
:1049B000070164CE0F5F1F4F1A8B098B09891A8973
:1049C000F801808190E00E94ED2C892B99F742E05C
:1049D00050E069E873E0C8010E941B2D892B09F0A3
:1049E00047C00E5F1F4F1A8B098B80E293E0A0E057
:1049F000B0E089839A83AB83BC83E988FA88F701A6
:104A00001081812F90E00E94ED2C892BA1F410538E
:104A10001A30B8F008E010E0C8010E94A930F82E62
:104A20002FEF821709F454C00B5F1F4F083A8FE035
:104A3000180791F70BCEFFEFEF1AFF0AFA8AE98AFF
:104A4000DCCFBE016F5F7F4FCE0141960E94A12156
:104A5000882309F4FBCD89819A81AB81BC810197C0
:104A6000A109B10980329340A105B10598F2EECDBC
:104A700043E050E065E873E0C8010E941B2D892BDC
:104A800009F0E4CD69EF7FE080E00E94C627109234
:104A9000D60188EF9FE00E94A9308F3F09F4EECD48
:104AA000809300016EEF7FE040CE88E0F3CD10925E
:104AB000C40167EF7FE038CE8FEF8093C40167EFCA
:104AC0007FE022CE81E0E6CD84E0E4CD85E0E2CD5A
:104AD0008EEF9FE00E94A93068EF7FE00E94C6271A
:104AE00065EF7FE089810E94C62766EF7FE08A81BB
:104AF0000E94C62789819A819093030180930201C5
:104B000069EF7FE081E00E94C627F092D60181E044
:104B1000C7CFE9E7F7E030E020E09191911105C0BF
:104B20002758384FF901808308952F5F3F4F2E316A
:104B3000310599F70895E9E7F7E030E020E0919139
:104B4000981761F0911105C02758384FF9018083FB
:104B500008952F5F3F4F2E31310589F7089590E07A
:104B6000E92FF0E0E758F84F2081281770F062171E
:104B700060F0292F2D3128F0109296079E3181F791
:104B80000895318131932F5FF5CF9F5FF7CFE9E72C
:104B9000F7E08181819387E0E639F807D1F7109239
:104BA00096070895E9E7F7E09191981710F06917D3
:104BB00030F497E0E739F907B9F780E008958FEF0F
:104BC00008958B3279F030F4833251F08A3231F02B
:104BD0008DE0089580538A30D8F708958BE00895CA
:104BE0008CE008958AE0F9CFAF92BF92CF92DF9226
:104BF000FF920F931F93CF93DF93182FEB016A015E
:104C000045E050E06FEF70E0C6010E94712D8C2FDF
:104C1000811B182F219700E0823058F4DF91CF914B
:104C20001F910F91FF90DF90CF90BF90AF900895AC
:104C3000092F88810E94E125F82EF29480EFF82256
:104C4000FE0182915F010E94E1258F29113061F4FC
:104C5000E5018F6010E091E0900FF601E00FF11D8B
:104C600080831111E5CFDACF22971250F4CFE82FCD
:104C7000F0E0EB5EFB4F84910895CF93DF939C01AE
:104C8000EB011882BC0180E0DB016F5F7F4F9C91DC
:104C90009F3F19F0853009F052C0A217B30709F4FD
:104CA00052C0642F70E090E0880F991F1197681729
:104CB000790744F4DB011197B7FDDB01B595A795A2
:104CC000A20FB31FEC918E2F8F708F3009F039C077
:104CD000E295EF70F0E0EB5EFB4F849188838823D0
:104CE00019F02196119781E0A217B30720F1EC91FA
:104CF000EF70F0E0EB5EFB4FE491E883BE01EE2342
:104D000019F06F5F7F4F8F5FEB018417A1F0219641
:104D1000EC91E295EF70F0E0EB5EFB4F9491FB01BC
:104D200090838F5F481739F01197BD016F5F7F4FF8
:104D300026173707C9F61882DF91CF9108958F5F44
:104D4000A3CF80E0D1CF80E0F7CFFF920F931F93E6
:104D5000CF93DF9300D000D01F92CDB7DEB78B0189
:104D6000F42E45E050E0BC01CE0101960E9499303E
:104D70004F2DB801CE0101960E943D260F900F9055
:104D80000F900F900F90DF91CF911F910F91FF9097
:104D900008950F931F93CF93DF93EC018B018881CC
:104DA0008F3F21F1CB010E94A9308F3FF9F0C8015C
:104DB0000E94A930382F307F9991292F207F303FD2
:104DC00079F0203F69F0321311C08F709F708F30DF
:104DD00039F09F3029F0891309C00F5F1F4FE7CFCB
:104DE0008FEFDF91CF911F910F91089580E0F9CF60
:104DF0000F931F93CF93DF9300D000D01F92CDB7B6
:104E0000DEB78B01FC0101900020E9F73197BF016B
:104E1000681B790B680F792F711DAE014F5F5F4FD3
:104E20000E94F425B801CE0101960E94C9260F9078
:104E30000F900F900F900F90DF91CF911F910F91D6
:104E400008958093B7079093B80710921E0260935D
:104E50001F0292BD81BDF89A90B58091BB0798174B
:104E600029F080BDF894FA9AF99A78940895F999FE
:104E700035C08091B907811108C080911F0281114E
:104E800004C08091BA07882349F180911E02F89AE4
:104E900020B5E82FF0E0E554F84F9081291301C0C8
:104EA0008F5F90911F028917D0F4282F30E0409136
:104EB000B7075091B807420F531F52BD41BDF89A32
:104EC00040B52554384FF9019081491729F090BD1C
:104ED000F894FA9AF99A789480931E020895909122
:104EE000B9071092B90790931F029923F9F0EBEBE1
:104EF000F7E080E020A521938F5F9813FBCF80918E
:104F0000ED079091EE078093B7079093B80792BD95
:104F100081BDF89A90B58091BB07981729F080BDA4
:104F2000F894FA9AF99A789480E0D6CF9FE092BDEF
:104F30009FEF91BDD1CF1F93CF93DF934423F1F027
:104F4000C42F172FD62FBC0150E08BEB97E00E94A7
:104F5000682DD093B7071093B80710921E02C09324
:104F60001F0212BDD1BDF89A90B58091BB0798176A
:104F700029F080BDF894FA9AF99A7894DF91CF914C
:104F80001F91089561110C94212708951F93CF93C9
:104F9000DF93182FEB01CB010E94A930811749F054
:104FA0001093BB0761E0CE01DF91CF911F910C946C
:104FB0002127DF91CF911F9108950F931F93CF93D6
:104FC000DF9300D000D0CDB7DEB78C0119821A82F2
:104FD0001B821C820E94A9308983C80101960E940D
:104FE000A9308A83C80102960E94A9308B83698107
:104FF0007A818B819C810F900F900F900F90DF91A1
:10500000CF911F910F910895CF92DF92EF92FF926F
:105010000F931F93CF93DF93DC011196FC01F08077
:10502000F41618F0FF24FA94F40EEB0140E0E12CA2
:10503000E0E050E887E090E04F110DC0640F711D73
:10504000FB011082DF91CF911F910F91FF90EF90A4
:10505000DF90CF9008952E2D30E00C9110E0C52EFA
:10506000D12CC094D0940C211D2102C0000F111F1F
:10507000EA94E2F7E00FF12FF11DEA5CFA4FE491B8
:10508000E9934F5FF42FF770EF2E79F0EC91E52361
:10509000F0E08C01021B130B02C0F595E7950A9511
:1050A000E2F7569550581196C7CFE0E050E8C4CFCC
:1050B000CF92DF92EF92FF920F931F93CF93DF93E4
:1050C0008C01CA01861B970BE8018993815090E0FF
:1050D00020E04FE750E037E0EE24EA94F12CDE01C7
:1050E000281748F1F80180818770D9F0FB01E20FA1
:1050F000F11DE081F0E0EA5CFB4F24914FE750E0C6
:10510000092E02C0440F551F0A94E2F7E22FF0E087
:10511000E423F52302C0F695E7959A95E2F7E88334
:105120001196CD01DF91CF911F910F91FF90EF90DC
:10513000DF90CF9008956B01C20ED11CD601EC9187
:10514000F0E0EA5CFB4FE491DA01092E02C0AA0FFD
:10515000BB1F0A94E2F7F0E0AE23BF23092E02C082
:10516000B695A7950A94E2F7F601B181EB2FF0E02E
:10517000EA5CFB4FE491B32FB91B67010B2E02C011
:10518000D694C7940A94E2F7EC2101C0EE0FBA95C9
:10519000EAF7EA2BE9939F5F973011F42F5F90E0D5
:1051A0002F5F9DCFFC01DA0170E0CD01841B950BD0
:1051B0008617970708F0089590819A3360F490530A
:1051C000292F2295207F91819A3338F49053920FA2
:1051D0009D933296EACF9753F3CF9753F8CF1F930F
:1051E000CF93DF93DC01EA018C91873C50F0DB0127
:1051F0001C928FEF888390E080E0DF91CF911F9128
:10520000089518828C9190E00196A80FB91F8C9197
:105210008B7F11F08FEF888311962C91119721319C
:1052200030F7FD01339612968C91982F9F7E31E0D6
:10523000913809F030E0813929F48BE2DB018C935D
:105240006F5F7F4FAB0110E00EC08081992311F09A
:10525000829531968F70805D311101C080E3DA0153
:105260008D93AD011F5F912F91701213EECFDB0173
:10527000A10FB11D1C92911101C031978281882329
:1052800011F08FEF8883CF010396B7CFFC01908197
:10529000A92FAF708AE092959F70A89F900D11245E
:1052A000DB019C939181692F6F7092959F70689F2D
:1052B000900D1124DA019C939281492F4F709295A1
:1052C0009F70489F900D1124D9019C93CF010396A4
:1052D0000895FC019081292F2F708AE092959F708C
:1052E000289F900D1124DB019C939181292F2F7011
:1052F00092959F70289F900D1124DA019C93CF0105
:1053000004960895CF93DF93DC01FB0180818B32FB
:1053100099F4319681E9EF0109900020E9F79E01A7
:10532000215031092E1B3F0B211108C0CD010196E0
:105330001C92DF91CF91089581E8EDCF2C93AD01C0
:105340004E5F5F4F11968C93C901992701969595F1
:105350008795682F742FDA012A2F271B261718F03C
:10536000840F951FE6CF208120533181332331F004
:1053700032963295307F232B2D93EECF3196206FCE
:10538000FBCFCF93DF93EC01DB018C91811106C041
:10539000CE0101961882DF91CF9108958B3209F5E5
:1053A000119681E9FD0101900020E9F731979F01F5
:1053B0002A1B3B0B33272F5F3F4F35952795622FD5
:1053C00091E0920F9883AE014E5F5F4F8983742FF7
:1053D000FA018E2F871B861730F0CA01820F931FA8
:1053E000DACF81E8DFCF8C91805311969C91119791
:1053F000992331F012969295907F892B8193E9CF72
:105400001196806FFBCFEF92FF920F93CF937B01AA
:10541000C22FBA010E94C12921E1FC01208311821F
:10542000B70102960E948229FC01C08301832AEA07
:1054300022830396CF910F91FF90EF900895CF9321
:10544000DF931F92CDB7DEB79C01562FDB018A2F69
:10545000851B841720F00F90DF91CF9108959D91C7
:10546000892F807F898382958983E981F0E0EB5DD4
:10547000FB4F8491F90180839F70E92FF0E0EB5D91
:10548000FB4F8491F90181832E5F3F4FE0CF88E18C
:105490009BE00FB6F894A895809360000FBE9093A0
:1054A00060000E9448030E9448030E9448030E9433
:1054B000480381E087B988B980E28AB90E94CB1796
:1054C0000E946A1E0E94BB1778948091CB0180FDD8
:1054D0000E94BB178091CB0181FD0E943016809104
:1054E000CB0180FF06C00E9446170E94AA1B1092A3
:1054F000CB01F8948091CD01811109C083B78160FF
:1055000083BF78948895F89483B78E7F83BF78940F
:105510000E944C17DACF97FB072E16F4009407D0A1
:1055200077FD09D00E94A82A07FC05D03EF490958B
:1055300081959F4F0895709561957F4F0895EE0F67
:10554000FF1F0024001C0BBE0790F691E02D09946C
:10555000AA1BBB1B51E107C0AA1FBB1FA617B70799
:1055600010F0A61BB70B881F991F5A95A9F78095B5
:105570009095BC01CD0108953F924F925F926F923A
:105580007F928F929F92AF92BF92CF92DF92EF92D3
:10559000FF920F931F93CF93DF935C016B017A010E
:1055A0006115710519F0FB0191838083E114F10409
:1055B00051F0C7010297839730F040E030E020E0DF
:1055C00090E06BC05E01E5012196F5011081812F0D
:1055D00090E00E94ED2C892BA9F71D3201F5219650
:1055E000F501118101E0E114F10409F4E6C0F0E1F4
:1055F000EF16F10409F088C0103359F488818F7DCB
:10560000883509F07CC0198122960260F0E1EF2E06
:10561000F12C812C912CA12C88E0B82E92C01B3249
:1056200021F4E5012296F501118100E0DCCFEAE0EA
:10563000EE16F10409F4C7C0F0E1EF16F10409F029
:1056400073C0E7CF78E0E72EF12C812C912CA12CB0
:1056500060E1B62E76C021E0ADC0302F3170C114AC
:10566000D10431F0222371F12197F601D183C08357
:1056700027FF2EC060E070E080E090E8311104C0A8
:105680006FEF7FEF8FEF9FE722E230E03093F0077C
:105690002093EF07462F372F282F642F732F822F49
:1056A000DF91CF911F910F91FF90EF90DF90CF90FE
:1056B000BF90AF909F908F907F906F905F904F9032
:1056C0003F90089501FF04C02297F601D183C08363
:1056D000332341F090958095709561957F4F8F4F62
:1056E0009F4FD8CF97FFD6CF82E290E09093F007FC
:1056F0008093EF076FEF7FEF8FEF9FE7CBCF10E344
:10570000E114F10409F49ECF28E0E216F10409F453
:105710009CCF0CF08CCF812C912CA12CE0E4BE2EE0
:1057200082E0E816F10469F060E070E080E090E863
:1057300097010F2C000C440B550B0E94E3304901DC
:105740005A0120E060E070E0CB0127010F2C000C33
:1057500066087708FE0150ED352E310E39E033151D
:1057600070F43FEB310F49EC342E3A3138F03FE919
:10577000310F3A3108F071CF39EA332E310E3E1431
:105780001F040CF06ACF27FD15C086169706A806E1
:10579000B90678F0A30192010E94D330630D711D08
:1057A000811D911D61307105810520E8920708F483
:1057B00052CF2FEF21961081CDCF103309F41ECF99
:1057C0002AE0E22EF12C9CEC892E982CA82C9CE04F
:1057D000B92EB7CF3F924F925F926F927F928F9286
:1057E0009F92AF92BF92CF92DF92EF92FF920F9370
:1057F0001F93CF93DF935C016B017A0161157105F3
:1058000019F0FB0191838083E114F10449F0C70191
:105810000297839728F060E070E0CB019BC05E01A7
:10582000E5012196F5011081812F90E00E94ED2C79
:10583000892BA9F71D3209F05CC02196F501118171
:1058400001E0E114F10409F4BBC0F0E1EF16F1044A
:1058500009F09BC0103341F488818F7D883509F0B1
:105860008FC0198122960260E0E1EE2EF12C88248F
:105870008A94982CA82CFFE0BF2E20E060E070E016
:10588000CB0127010F2C000C66087708FE0150EDB4
:10589000352E310E39E0331568F43FEB310F49EC0A
:1058A000342E3A3130F03FE9310F3A31B0F539EA70
:1058B000332E310E3E141F0484F52F3FB9F08616A7
:1058C0009706A806B90638F1A30192010E94D330C9
:1058D000232D30E050E040E0620F731F841F951FBE
:1058E0006217730784079507B0F021E021961081B5
:1058F000CDCF1B3221F4E5012296F501118100E0A4
:10590000A0CF78E0E72EF12C88248A94982CA82C3C
:105910006FE1B62EB2CF2FEFE9CFC114D10431F031
:10592000222351F12197F601D183C08300FF07C0E4
:1059300090958095709561957F4F8F4F9F4F2F3F2A
:1059400049F482E290E09093F0078093EF076FEFC5
:105950007FEFCB01DF91CF911F910F91FF90EF90DF
:10596000DF90CF90BF90AF909F908F907F906F907F
:105970005F904F903F90089501FFD8CF2297D3CFEB
:1059800010E3E114F10409F4BCCF3AE0E316F104AA
:10599000E9F080E1E816F10409F466CFE8E0EE16DC
:1059A000F10409F4B1CF6FEF7FEFCB0197010F2C1A
:1059B000000C440B550B0E94E33049015A015DCFA6
:1059C000103309F449CF9AE0E92EF12C89E9882EA9
:1059D000982CA82C89E1B82E50CF91110C94E22F6D
:1059E000803219F089508550C8F7089591110895B3
:1059F00081568A5108F4805285580895FB01DC01D4
:105A000004C08D910590801921F441505040C8F791
:105A1000881B990B0895FB01DC0102C005900D92D3
:105A200041505040D8F70895FB01DC0105900D92DC
:105A30000020E1F70895FB01DC014150504088F05F
:105A40008D9181341CF08B350CF4805E659161344E
:105A50001CF06B350CF4605E861B611171F3990BC1
:105A60000895881BFCCFFB01DC014150504030F011
:105A70008D910590801919F40020B9F7881B990BB6
:105A80000895FB0155915523A9F0BF01DC014D910B
:105A900045174111E1F759F4CD010590002049F077
:105AA0004D9140154111C9F3FB014111EFCF81E048
:105AB00090E001970895FB01DC0104C08D910190F5
:105AC000801921F441505040C8F7881B990B089564
:105AD000FB01DC0102C001900D9241505040D8F70B
