:100000000C9435030C9454030C9454030C94540333
:100010000C9454030C9454030C9454030C94540304
:100020000C9454030C9454030C9454030C945403F4
:100030000C9454030C9454030C9454030C945403E4
:100040000C9423040C9454030C9454030C94540304
:100050000C94491F0C9454030C94051F0C945403E6
:100060000C9454030C9454030C9454030C945403B4
:100070000C9454030C9454030C9454030C945403A4
:100080000C9454030C9454030C94540353796E63EE
:1000900068726F6E697A61636A6120437A61737511
:1000A000004272616B20776F6C6E79636820706FAD
:1000B0007A79636A69205375706572205573657229
:1000C00020283739352D38303029004E756D65724E
:1000D000206A757A206973746E69656A6520772075
:1000E00073797374656D696500FF41424344000094
:1000F00000A2A3A4A6A7A8A9942B6370696E3F00D1
:10010000000000000000002B636E6D693D322C3151
:100110002C322C31002B6D6F72696E673D310000FF
:100120000000002B636C69703D310000000000008E
:10013000002B646465743D312C31302C3100002B70
:1001400063616C6D3D31000000000000002B6372A4
:10015000736C3D31000000000000002B6375736478
:100160003D31000000000000002B637062773D32DB
:10017000362C22312200002B636C74733D3000005A
:1001800000000000002B636D69633D302C313500A9
:100190002B636D6764613D36002B6370696E3D2291
:1001A0003139373622002B6966633D322C32002B01
:1001B00063706D733D22534D222C22534D222C220D
:1001C000534D22002B6364736362002B63636C6B7B
:1001D0003F002B636F70733F002B637062723D3280
:1001E00036002B637265673F002B637371002B76BB
:1001F00074733D3100610068002B434D54493A004F
:100200002B636D67643D002B636D67723D002B634C
:100210006D67733D002B434D54493A002B44544DB8
:10022000463A002B434C49503A003E002B434D4781
:10023000523A002B434F50533A002B435245473A12
:10024000002B4353513A002B4350494E3A2052451C
:10025000414459002B43434C4B3A00313D524356E5
:1002600020323D42535920333D434E5420343D51BA
:10027000534D20353D51414C20363D464E442037AC
:100280003D414444002055373D002055363D002077
:1002900055353D0055343D002055333D0020553245
:1002A0003D0055313D00534B525942413A004445BF
:1002B0004255470A007777772E736F6E66792E70F6
:1002C0006C006E6965207A61706973616E6F004DB4
:1002D0006F6A206E756D65723A2000536B72796299
:1002E000613A2057796C61637A6F6E6100536B726B
:1002F0007962613A20576C61637A6F6E6100486180
:10030000726D6F6E6F6772616D3A2057796C6163C1
:100310007A6F6E79002044544D460020434C49507A
:1003200000547279623A205075626C69637A6E7912
:1003300000547279623A205072797761746E790054
:100340005374617475733A20416B7479776E7900D8
:100350005374617475733A205A61626C6F6B6F7776
:10036000616E7900557A79746B6F776E6963792065
:1003700000557A79746B6F776E69637920005379D1
:10038000676E616C2047534D2000437A61733A20B9
:100390000041433830302D44544D2D5453002B43ED
:1003A0005553443A002B434D53204552524F523A35
:1003B000002B434D45204552524F523A004255536F
:1003C00059004E4F204449414C544F4E45004E4F2A
:1003D0002043415252494552002B434D54493A0063
:1003E0002B44544D463A002B434C49503A004D4F54
:1003F00020434F4E4E4543544544004D4F205249F3
:100400004E47004552524F52002B434D47533A003E
:100410004E756D6572207A61706973616E793A20EC
:10042000004F4646004F4E004F46460054696D65EA
:100430003A2000433344340004434F444500000055
:1004400003414444000000000344454C0000000008
:100450000458585858000000065245504F52540056
:100460000455534552000000044F50454E00000013
:1004700005434C4F5345000004434C4950000000D5
:100480000444544D4600000003534554000000004E
:100490000454494D4500000006534B525942410057
:1004A000054445425547000005535441525400004D
:1004B0000453544F50000000035355420000000005
:1004C000054D594E554D00003031323334353637F5
:1004D00038392B2A23212100303132333435363755
:1004E0003839414243444546003F3F3F3F3F3F3F4D
:1004F0003F3F3F0A3F3F0D3F3F3F3F3F3F3F3F3F73
:100500003F3F3F3F3F3F3F3F3F20212223022526E1
:100510002728292A2B2C2D2E2F30313233343536F3
:100520003738393A3B3C3D3E3F0041424344454623
:100530004748494A4B4C4D4E4F50515253545556D3
:100540005758595A3F3F3F3F113F616263646566A8
:100550006768696A6B6C6D6E6F70717273747576B3
:100560007778797A3F3F3F3F3F3F3F3F3F3F3F3FB5
:100570003F3F3F3F3F3F3F3F3F3F3F3F3F3F3F3F8B
:100580003F3F3F3F3F3F3F3F3F3F403F0124033F0F
:100590005F3F3F3F3F3F3F3F3F3F3F3F3F3F3F3F4B
:1005A0003F3F3F3F3F3F3F3F603F3F3F3F5B0E1C72
:1005B000093F1F3F3F3F3F3F3F3F5D3F3F3F3F5C66
:1005C0003F0B3F3F3F5E3F3F1E7F3F3F3F7B0F1D47
:1005D0003F04053F3F073F3F3F3F7D083F3F3F7C94
:1005E0003F0C063F3F7E3F3F3F40A324A5E8E9F98B
:1005F000ECF2C70AD8F80DC5E53F5F3F3F3F3F3FEC
:100600003F3F3F3F3FC6E6DFC920212223A42526E6
:100610002728292A2B2C2D2E2F30313233343536F2
:100620003738393A3B3C3D3E3FA141424344454681
:100630004748494A4B4C4D4E4F50515253545556D2
:100640005758595AC4D6D1DCA7BF61626364656646
:100650006768696A6B6C6D6E6F70717273747576B2
:100660007778797AE4F6F1FCE00011241FBECFEF31
:10067000D0E4DEBFCDBF11E0A0E0B1E0E0EAF7E6F4
:1006800000E00BBF02C007900D92A03EB107D9F762
:1006900028E0A0EEB1E001C01D92A632B207E1F75A
:1006A0000E94F62C0C94CE330C9400001092FF01A3
:1006B0001092FE011092FD010895CF93DF93FC018B
:1006C00001900020E9F7BF016150710940EF57E048
:1006D0000E949928C8E0D0E0BE0180EF97E00E9418
:1006E0006E29811108C02596C83AFFE0DF07A1F7FF
:1006F000DF91CF9108958FEFFBCF8091170296E5A0
:10070000980F8C5E943108F082E90C944028809117
:100710003002909131028F3F980729F00196909313
:100720003102809330028AE08093EE011092ED0155
:100730000E94560382E90C944028BC018AEC93E0A5
:100740000C94F02F8FEF9FE80197F1F700C00000A5
:100750008FEF9FE80197F1F700C000008FEF9FE84F
:100760000197F1F700C000008FEF9FE80197F1F7C4
:1007700000C000008FEF9FE80197F1F700C0000074
:10078000A8950895CF93DF93CDB7DEB728970FB61E
:10079000F894DEBF0FBECDBF9091EE0791112BC034
:1007A00090914302911127C09091EF07911123C0BE
:1007B000F99921C020913702298330913502209187
:1007C00036023A832B8320910E022C83EEEAF7E067
:1007D0002191235D223008F49F5F27E0EC3CF20773
:1007E000B9F79D838E836F8347E062ED7FE0CE0192
:1007F00001960E94402A28960FB6F894DEBF0FBEDD
:10080000CDBFDF91CF91089580912A028F5F84360A
:1008100018F480932A02089510922A0280912902E6
:1008200091E0811190E090932902811102C04098DB
:100830000895409A08958091AE03807F11F4409A04
:1008400008954098089578941F920F920FB60F92D2
:1008500011240BB60F922F938F939F93EF93FF93D7
:100860008091E9018F5F8093E901823128F0109235
:10087000E9018FEF8093EB014F9B59C000B601FC5B
:1008800016C080913A02811112C010926105109237
:1008900060051092700580B7826080BFF8948091E7
:1008A000C10080688093C100789400004598349915
:1008B0002FC0F8948091C10086FF29C08091C100AB
:1008C0008F7B8093C100789480913B028823C9F08C
:1008D00080913902811104C0809117028C3889F40B
:1008E00010923B028091640590916505FC01E35EE6
:1008F000F94F2081019690936505809364052093BC
:10090000C600F8948091C10080648093C1007894FF
:100910008FEF8093EC01FF91EF919F918F912F9139
:100920000F900BBE0F900FBE0F901F901895459A19
:10093000F8948091C1008F738093C10080B78D7F40
:1009400080BF78940000E4CFDF92EF92FF920F9384
:100950001F93CF93DF938C01DC01ED90FC904CE072
:1009600050E061E973E0C7010E94BA2FE7012D96BC
:100970008AE0D82EF701D4866AE873E0CE010E949F
:10098000C32F09900020E9F721976BE071E0CE01B9
:100990000E94273009900020E9F72197DE01DD92BF
:1009A000CD014BE050E06EE773E00E94BA2F8091DA
:1009B0000601803230F59091E801992311F12C96CF
:1009C000B4E68B9FC00111246FE170E00E943A2DC4
:1009D000CB014AE0BE010E94443009900020E9F7B3
:1009E0002197FE01319685E288831082D801ED932C
:1009F000FC93DF91CF911F910F91FF90EF90DF90CB
:100A000008958DE28C878D87FE013F968E87EDCF0E
:100A1000AF92BF92CF92DF92EF92FF920F931F930C
:100A2000CF93DF938C01FC01C081D1814CE050E079
:100A300061E773E0CE010E94BA2F2C9688E0C82EA1
:100A4000D12CF12CE12CB12CA12CC6010E945833E1
:100A50008F3F99F1FFEFAF1ABF0AE5E0CE0ED11C30
:100A6000F8EACF16FFE0DF0681F74AE0BE01C501D4
:100A70000E94443009900020E9F721976E018FEF22
:100A8000C81AD80A8FE288834AE0B601C7010E94DB
:100A90004430F60101900020E9F7CF010197F801F9
:100AA00091838083DF91CF911F910F91FF90EF9001
:100AB000DF90CF90BF90AF9008958FEFE81AF80ABB
:100AC000CCCFCF92DF92EF92FF920F931F93CF93F1
:100AD000DF938C01FC01C081D1814CE050E064E6E1
:100AE00073E0CE010E94BA2F2C9688E0E82EF12CFC
:100AF000D12CC12CC7010E9458338F3F89F1C39478
:100B0000F5E0EF0EF11C88EAE8168FE0F80691F7A1
:100B10004AE0BE018C2D90E00E94443009900020F4
:100B2000E9F721977E01EFEFEE1AFE0A8FE2888344
:100B30004AE0B7018D2D90E00E944430F70101900A
:100B40000020E9F7CF010197F80191838083DF91BD
:100B5000CF911F910F91FF90EF90DF90CF9008956C
:100B6000D394CECF1F93CF93DF9300D0CDB7DEB712
:100B70008AE280937C058EE795E09A8389831AE068
:100B800010937D05CE0101960E94A404E981FA81AB
:100B9000CF0101969A8389831083CE0101960E942A
:100BA0000805E981FA81CF0101969A838983108330
:100BB0002091E20189819A8160E573E0211102C0F0
:100BC00060E473E00E94C32FE981FA810190002064
:100BD000E9F7DF011197FA83E9838AE08C9320918A
:100BE000000189819A8161E373E0222311F061E2BF
:100BF00073E00E94C32F89819A81FC01019000203B
:100C0000E9F7CF0101979A838983209101016BE174
:100C100073E0211102C065E173E00E94C32FE981F6
:100C2000FA8101900020E9F7DF011197FA83E98347
:100C30008AE08C9380910A018F3F09F058C06EEFD3
:100C400072E089819A810E94C32FE981FA81019023
:100C50000020E9F7DF011197FA83E9838AE08C939A
:100C60002091F50189819A816DEE72E0211102C017
:100C70006BED72E00E94C32FE981FA8101900020A0
:100C8000E9F7DF011197FA83E9838AE08C936FEC2F
:100C900072E089819A810E94C32F89819A81FC0127
:100CA00001900020E9F7CF0101979A838983209171
:100CB0003C0321502E3FC8F56CE373E00E943D30A9
:100CC000E981FA8101900020E9F7DF011197FA83A9
:100CD000E9838AE08C9365EB72E089819A810E94B6
:100CE000C32F0F900F90DF91CF911F910895909196
:100CF00007011F929F93909108011F929F939091DB
:100D000009011F929F931F928F9387E191E09F9318
:100D10008F938A818F9389818F930E945E300FB663
:100D2000F894DEBF0FBECDBF90CF62EC72E00E94A0
:100D3000C32FC6CF0F931F93CF93DF9300D000D064
:100D40001F92CDB7DEB7FC0101900020E9F7BF018B
:100D500061507109AE014F5F5F4F0E9499280AE808
:100D60001FE0B801CE0101960E946E29811110C0CA
:100D70000B5F1F4F083AFFE01F0799F70F900F9086
:100D80000F900F900F90DF91CF911F910F910895C9
:100D90008FEFF4CF8FEF8093440284E190E0A0E0E6
:100DA000B0E08093B8039093B903A093BA03B093D3
:100DB000BB030895CF92DF92FF920F931F93CF93BF
:100DC000DF93CDB7DEB766970FB6F894DEBF0FBEE0
:100DD000CDBF1092AC078FEF8093FF011092FE0100
:100DE0001092FD018CE097E00E94F424182F80916E
:100DF000F601811160C08091F7011F928F9380915D
:100E0000F8011F928F938091F9011F928F9388E3CD
:100E100091E09F938F938BE091E09F938F930E943B
:100E20005E308091F7011F928F938091F8011F929D
:100E30008F938091F9011F928F9387E491E09F93A4
:100E40008F938CEC97E09F938F930E945E308EEF90
:100E50000E942E2820910A010FB6F894DEBF0FBE23
:100E6000CDBF2F3F09F45FC03091F9016CE3809151
:100E7000F80190E0369F800D911D112440910901E9
:100E800050E0269F400D511D1124709108012091C2
:100E9000070130E0769F200D311D112424173507FE
:100EA000A4F1841795077CF141E0281739070CF06D
:100EB00040E0409341021092F6018091E3018111DC
:100EC0001092E3018091E201882381F18DEF810F7F
:100ED000823060F187EF9FE00E945833813031F516
:100EE00062E00E94C2030E947D0366960FB6F894EA
:100EF000DEBF0FBECDBFDF91CF911F910F91FF904D
:100F0000DF90CF90089541E0D4CF841795074CF43B
:100F100041E0281739070CF040E0842F809341020C
:100F2000CACF80E0FBCF10924102C5CF8CEF810F7A
:100F3000823078F480913702883058F061E081E0A7
:100F40000E94C2030E947D030E9487030E945603F1
:100F5000CCCF80910E028111F1CFEEEAF7E020E0D4
:100F600090E08191882329F02F5F835D823008F41F
:100F70009F5F87E0EC3CF807A1F72332F8F6963044
:100F8000E8F61C3018F7E12FF0E0E753F84F0C9427
:100F90004E2DD507A607A6070F09DF0715098209F9
:100FA0008D09FD07A607A607970981E08093EE014A
:100FB0001092ED0163E080E00E94C203C7CF8091F0
:100FC00037028F5F809337028CE291E09093360274
:100FD000809335026DE473E082E592E00E943D303B
:100FE0000E94B20583ED0E942E2882E08093EE01DC
:100FF0001092ED0160E081E0DFCF6EEA72E08CE7F5
:1010000095E00E94C32F0CE715E0F8010190002045
:10101000E9F78F010150110966EA72E0C8010E94E8
:10102000C32FF80101900020E9F7CF0101976C016F
:1010300081EF9FE00E945833805DF601808382EF4C
:101040009FE00E945833805DF601818383EF9FE02B
:101050000E945833805DF601828384EF9FE00E94F6
:101060005833805DF601838386010B5F1F4F9AE042
:10107000F92EF48262EA72E0C8010E94C32FF801DF
:1010800001900020E9F78F010150110986EE9FE0E1
:101090000E9458334AE0B80190E00E944430F801C1
:1010A00001900020E9F78F01015011096DE972E00C
:1010B000C8010E94C32FF80101900020E9F78F01B9
:1010C0000150110987EE9FE00E9458334AE0B801B1
:1010D00090E00E944430F80101900020E9F78F0170
:1010E0000150110968E972E0C8010E94C32FF8019C
:1010F00001900020E9F78F010150110988EE9FE06F
:101100000E9458334AE0B80190E00E944430F80150
:1011100001900020E9F731978F010F5F1F4FF08298
:1011200064E972E0C8010E94C32FF8010190002019
:10113000E9F78F010150110989EE9FE00E945833B1
:101140004AE0B80190E00E944430F801019000208C
:10115000E9F78F01015011096FE872E0C8010E94A0
:10116000C32FF80101900020E9F78F010150110908
:101170008AEE9FE00E9458334AE0B80190E00E9456
:101180004430F80101900020E9F78F010150110966
:101190006AE872E0C8010E94C32FF80101900020A4
:1011A000E9F78F01015011098BEE9FE00E9458333F
:1011B0004AE0B80190E00E944430F801019000201C
:1011C000E9F78F010150110965E872E0C8010E943A
:1011D000C32FF80101900020E9F78F010150110998
:1011E0008CEE9FE00E9458334AE0B80190E00E94E4
:1011F0004430F80101900020E9F7CF010197FC018C
:10120000F192CF016BE572E00E94C32F6DE473E0B1
:1012100082E592E00E943D3083ED0E942E2882E01C
:101220008093EE011092ED0191CE809137028F5F95
:10123000809337028CE291E09093360280933502DE
:101240006DE473E082E592E00E943D306EE573E06C
:10125000FB0101900020E9F7BF0161507109AE0167
:101260004E5E5F4F8EE593E00E94992888E0C82E7D
:10127000D12CB601CE0142960E946E29182F811101
:101280003FC0F5E0CF0ED11C88EAC8168FE0D80623
:1012900081F741E1BE016F5F7F4FCE0142960E9410
:1012A000E228BE016F5F7F4F8CE795E00E943D30E2
:1012B0006AE671E08CE795E00E9427306DE671E008
:1012C000111102C060E771E08CE795E00E942730C1
:1012D00083ED0E942E2882E08093EE011092ED01B2
:1012E0008091EE07811109C080914302811105C0F0
:1012F0008091EF07811101C08FB3612F82E05CCE36
:101300001FEFC7CF6DE473E082E592E00E943D30AD
:101310006FE871E08CE795E07DCF6DE473E082E5E6
:1013200092E00E943D3010923B0389E876CF63E85B
:1013300082E00E947728811109CE89E18093EE0135
:101340001092ED0183E00E942E2800CE80912802A9
:101350009091B70390FF06C0883C88F48F5F80931C
:1013600028020895883C60F063E882E00E947728B4
:10137000811103C083E00E942E2810922802089554
:101380008233D8F363E882E00E9477288111F5CF99
:1013900082E0F1CFCF93DF938AE993E00E949A062F
:1013A0009091E201992331F0811104C080E0DF9136
:1013B000CF91089590914102992311F08823B1F3C0
:1013C00080919A0390910101911129C0882319F00D
:1013D00084E80E942E2880910001813011F48FEF63
:1013E000E6CF6AE973E0FB0101900020E9F7BF0155
:1013F0006150710940EF57E08AE993E00E94992813
:10140000C8E0D0E0BE0180EF97E00E946E29811114
:10141000E6CF2596C83AFFE0DF07A1F7C7CF8823BC
:1014200019F084E80E942E2881E09091000191300B
:1014300009F080E08195BBCF8CE380931902109274
:1014400012021092110210920B0210920C021092D2
:10145000000208958CE3809319021092E001089530
:101460001092C703109212021092110210921602EB
:10147000109215021092170210925F058CE3809370
:10148000190210920E0208950E94300A109216025C
:10149000109215021092170210927B0510927F0392
:1014A00010925F051092C603109213021092E00191
:1014B00010920F0208950E94440A86E98093050164
:1014C000109239021092380210920702109206020E
:1014D000109247021092050210920402109200022C
:1014E0001092140283E68093060161ED8EEB0E9458
:1014F00054286EE98AE80E94542868EA8FE90E941D
:10150000542865ED83ED0E9454281092E801089557
:1015100080913A028D3051F410920D021092E00148
:1015200010920E0286E480931902089580913A0287
:10153000863059F520910D022F5F20930D02809186
:101540003C0290913D02853032E0930761F08A338E
:1015500031E0930741F0833032E0930721F080516E
:101560009240029770F48CE38093190280910E02EE
:10157000223080F110920D021092E00110920E02C2
:1015800008958CE380931902F5CF80913A0284305C
:1015900021F58CE38093190210925F058091CC03B2
:1015A0008E3331F480916005909161050A9720F0A7
:1015B00080910E02811107C010920D021092E0017D
:1015C0000E945B0ADBCF90910D029F5F90930D020A
:1015D000923080F60E942E28D1CF80913A02853039
:1015E000B9F480913E0290913F028A30910539F022
:1015F0009C012D7F2D30310511F04E9769F410922A
:101600000D028CE3809319021092E0010C945B0AA6
:1016100080913A0280913A0208950F931F93CF93DD
:10162000DF93D0913A02C0911702CE3909F4B5C0C8
:1016300008F070C0C53909F477C238F5CF3809F41D
:1016400016C388F4CC3809F4A2C0CE3809F475C1A9
:10165000109216021092150210921702DF91CF918C
:101660001F910F910895C23909F48BC1C43981F7D4
:10167000D13009F403C3809180038F5F809380038E
:10168000833008F0FBC28C2FCBC1C93909F4EDC1FE
:1016900088F4C63909F450C2C739D1F687E9D13088
:1016A00009F034C181E00E941C0A109213021092CA
:1016B000C703CECFCB3909F4B7C108F4EAC1CD399D
:1016C00039F6D13029F68AE392E00E949D03FC01AD
:1016D000892B09F4BDCF27812C3209F0BCC1379684
:1016E00080818C3209F0319680818C3209F03196FC
:1016F0004AE050E070E060E0CF0101960E946B2D5F
:10170000662329F08DEF860F823008F0A6C10E9473
:101710005B0A9ECFCA3AC8F4C63A08F0A9CFC13ACC
:1017200009F4A6CF58F4CF3909F4D2C0C03A09F071
:101730008FCFD13009F044C18FE8E8C0C23A09F434
:1017400053C1C43A09F494CF83CFC23D90F4CE3B49
:1017500008F422C2D63009F060C280913C02909118
:101760003D028134914009F45BC28C2F0E942E28E7
:101770005CC2C63D09F45BC2CD3F09F069CF8AE285
:1017800092E00E949D03892B09F472CFC0CF8DE8AF
:101790000E942E28109201025BCFD13009F058CF61
:1017A00084E592E00E949D03009709F451CF62E224
:1017B00070E00E943230009709F44ACFEC01219684
:1017C00062E270E0CE010E9432308C016CE270E087
:1017D000CE010E9432300115110509F439CF00976E
:1017E00009F436CFEC012196C017D10708F030CFAD
:1017F0006AE370E0CE010E943230009709F428CFEE
:101800008017910708F024CFFE0101900020E9F72E
:101810003197EC1BFD0B389708F41ACF88E0FE01D6
:10182000ABE0B1E001900D928A95E1F710921301BF
:1018300070910A017F3F19F41092410209CF209163
:101840000B012053330BEAE0E29FC001E39F900DB0
:10185000112420910C012053330B820F931F6CE352
:10186000689FA001699F500D112420910E01205303
:10187000330BE29FC001E39F900D112420910F01D3
:101880002053330B820F931F480F591F20910901DA
:1018900030E0769F200D311D112470910801809158
:1018A000070190E0769F800D911D11248217930708
:1018B0005CF04217530724F0841795070CF0BCCF57
:1018C0008FEF80934102C4CE42175307ACF3B4CFDD
:1018D000D13099F487E492E00E949D03892B59F05E
:1018E0008FEF809338021092400282E90E942E28E6
:1018F00010922702ADCE8EE8F9CFD53051F4809109
:101900003E0290913F020E9731F48FE90E942E28FB
:101910009FCED43021F080913A028038B1F7809187
:1019200027028F5F80932702843118F00E945B0AA0
:10193000DFCF84E180931902E8CFD13061F48FEFDB
:10194000809338021092400282E90E942E2882E39E
:10195000809319027DCED53079F480913E0290912A
:101960003F028031910521F48FEF8093400270CEC9
:101970000E9721F48EE8CACFD430E1F380913A0279
:10198000F9CFD13011F480EAC1CFD63089F48091FB
:101990003C0290913D028A3321E0920721F085308C
:1019A000924009F055CE8CE38093190282E9AECFC4
:1019B000D430E1F380913A02803809F049CEF6CF75
:1019C000D63081F480913C0290913D028A3321E02F
:1019D000920721F08530924009F03ACE84E180935D
:1019E0001902D1CF8AE0FBCFD13049F0D53081F454
:1019F00080913E0290913F020397029748F48091B4
:101A000014020E942E2810921402109280030AC021
:101A1000809180038F5F80938003833018F482EA83
:101A20000E942E2882E094CFD13089F481E492E0A4
:101A30000E949D03009709F40BCE4AE050E070E04D
:101A400060E006960E946B2D6093060101CE83E64E
:101A500080930601FDCD389643CE6B7F613009F04F
:101A6000F7CD8FEF8093E801F3CDD13049F0D53039
:101A700051F480913E0290913F024597029718F4ED
:101A800010920702E5CD809107028F5F80930702D5
:101A9000DFCDD13009F042C046E050E063E372E0B0
:101AA0008CEC93E00E94E22F892BC1F583E392E056
:101AB0000E949D036CE270E00E943230009771F149
:101AC0006CE270E00E943230009741F162E270E017
:101AD0000E943230009711F18C010F5F1F4F62E2BC
:101AE00070E0C8010E9432300097C1F00817190752
:101AF000A9F0801B910B8C30910514F08BE090E0E5
:101B0000EC01DD27AE01B80187E492E00E941730B6
:101B1000C95BDD4F1882109206029ACD80910602B1
:101B20008F5F8093060294CDD63009F47BCF85E990
:101B3000D13009F075CF76CFD13021F080913A02C3
:101B40008C30A1F48FEF8093130210928003809168
:101B5000010181117DCD8CE291E09093F40180939D
:101B6000F30184E18093190285EAD0CED43021F0CC
:101B700080913A02803849F4809180038F5F80938E
:101B80008003833010F486E9C1CED33011F4109273
:101B90001302109280035CCDD130A9F58CE292E063
:101BA0000E949D036AE070E00E943230009741F18C
:101BB000EC0121966DE070E0CE010E94323000977A
:101BC000F9F08C1B9D0B97FD019695958795893CA7
:101BD000A8F48093100243E752E060911002CE0116
:101BE0000E94772B82ED0E942E28809117028C5E36
:101BF0000E942E288FEF80930F022ACD88ECE9CF28
:101C000010920F0225CDD63021F010920F028CE3F6
:101C10009FCE8C2F0E942E28F8CFD43009F4A5CD6A
:101C200080913A02803809F4A0CD89E191CED43078
:101C300029F080913A02803809F0ABCF1092C703A7
:101C4000809180038F5F80938003833010F486ED52
:101C50005DCE1092800380E00E941C0A1092130255
:101C60001092C7031092120210921102F1CCD130DF
:101C700029F08FE80E942E2884E16ACE8091140218
:101C80000E942E28809114028A5A843108F0BBCE1B
:101C900010920F02B8CE0F931F93CF93DF938091D2
:101CA0003A0280913A02803821F08091180288230C
:101CB00081F080E880933A020E940D0B82E38093CA
:101CC00019028FEF80931802DF91CF911F910F912E
:101CD000089580913A02813829F520915B05309171
:101CE0005C0580916005909161052817390761F4C2
:101CF00040915B0550915C056DE176E08AEC93E0E4
:101D00000E940A30892B01F380915F058111DCCF9D
:101D100080E880933A028FEF8093180282E38093E9
:101D20001902D2CF80913A028A3009F042C083E290
:101D300092E00E949D0362E270E00E9432300097C0
:101D400039F18C010F5F1F4F62E270E0C8010E9401
:101D500032300097E9F0EC01C01BD10BC031C0F468
:101D6000DD27AE01B8018AE993E00E941730C6561C
:101D7000DC4F188280910602811110920602809138
:101D80000601882311F0833619F480E1809306015F
:101D900088E90E944028809117028A5A843110F401
:101DA00010920F0210921602109215021092170252
:101DB0008BCF80913A02833089F480E00E941C0A24
:101DC000109213021092C703109212021092110285
:101DD00080911702863D09F077CFE4CF80913A02D7
:101DE0008230D1F480911702863D11F40E940D0BD0
:101DF00080910B0281110BC08AE580930C028FEF5A
:101E00008093C70310921202109211025DCF80934B
:101E10000C0210920B02F3CF8CE192E00E949D0322
:101E2000009701F1FC01379681918032E9F390919E
:101E30000101911114C0813391F48FEF809344021A
:101E400084E190E0A0E0B0E08093B8039093B90300
:101E5000A093BA03B093BB038BE0809381031092ED
:101E60003A0232CF80913A028C3071F480910101B4
:101E7000882309F429CF1092130287E9DF91CF91CB
:101E80001F910F910C942E2880913A02893061F4B1
:101E900080911702863D11F40E940D0B80E00E9494
:101EA0001C0A1092C703AECF80913A02873081F3AB
:101EB00080913A02883029F585E192E00E949D03E5
:101EC0006CE270E00E9432300097A1F04AE050E0EE
:101ED00070E060E001960E94992E9B01215031092B
:101EE0002431310538F489EA860F0E942E2881E0DA
:101EF00080931902809117028A5A843108F450CFD6
:101F0000E3CE80913A028E3011F484E1F1CF8091DA
:101F10000E0281110E94880A8091600590916105EE
:101F2000892B09F4D1CE80913A02882309F4CCCED2
:101F3000DF91CF911F910F910C940D0B811105C072
:101F4000862F0E942E2880E008951092160210928B
:101F500015026093170240931402C9010E94D41E17
:101F60008FEF08950F93CF93DF939FEF90935F05CB
:101F70001092C603811149C085E08093EE01109252
:101F8000ED0183ED80930E02909373024AE060EFBF
:101F900077E083E792E00E94E22800E020E040EF53
:101FA00057E062E572E083E792E00E94B22C4CE7D2
:101FB00055E0FA0101900020E9F7AF0141505109C5
:101FC0006CE775E00E94FD2A8357924080931002CF
:101FD000C0911002C15080917302C81B46E050E0CE
:101FE0006EE072E08FE196E00E94BA2F4AE065E26F
:101FF00076E08C2F90E00E9444308AEF80930401B9
:10200000DF91CF910F910C94F01E85E08093EE014B
:102010001092ED0184ED80930E0200917C05909367
:1020200073024AE060EF77E083E792E00E94E228E3
:1020300020E040EF57E062E572E083E792E00E9423
:10204000B22CEC0140917D0550E06EE775E00E94F6
:10205000173080917D058C0F9D2F911DB5CFEF928C
:10206000FF920F931F93CF93DF9300D01F92CDB7B2
:10207000DEB790910F0291114DC080910E02811137
:1020800049C08091C703811145C08091130281111D
:1020900041C08091170281113DC0809119028111C8
:1020A00039C020915F0581E0211101C080E08111DC
:1020B00032C02091C10026FD2EC02091390222237A
:1020C00051F120913A0201E0211125C01091AE0793
:1020D000E12EF12C1D3909F49BC208F072C01239AF
:1020E00009F4B4C330F51D3809F494C3B0F41B38B7
:1020F00009F44AC308F061C31A3809F4BDC380E08B
:102100000F900F900F90DF91CF911F910F91FF9043
:10211000EF90089581E000E0D9CF1F3809F424C37F
:1021200008F482C3103909F4C7C3113941F78FEF9E
:10213000E7CF173909F4CFC1B8F4153909F407C34B
:1021400008F0F3C11439D9F68091EE0781110AC065
:1021500080914302811106C08091EF07811102C076
:10216000F99B96C384E947C1193909F477C208F489
:1021700086C11A3909F49BC21B3909F69091C7032D
:10218000911115C02091110230911202232B79F484
:102190009091450291110BC090915F05911107C07C
:1021A000811105C08091E001882309F423C2809148
:1021B0000601833611F08111BACF80E180930601C8
:1021C000B6CF123D08F081C01E3B08F02BC1153A76
:1021D00009F4B9C1B0F41E3909F492C221E6210F05
:1021E000E22FF0E0E151FF4F45915491FEE02F9F27
:1021F0009001112427503F4F612F802F0E949E0F86
:1022000096CF1A3A58F3911196C08091E80188232D
:1022100009F491C08091C70381118DC08091110292
:1022200090911202892B09F086C0809119028111C8
:1022300082C08091E00181117EC080910E028111E7
:102240007AC080911702823909F475C08091EE0737
:10225000811171C08091430281116DC08091EF079F
:10226000811169C0F99967C061E081E00E94772817
:10227000811161C065ED83ED0E94772881115BC0FB
:1022800068E986E90E947728811155C0002309F486
:1022900052C01092160210921502109317028FEF7F
:1022A00080930F0246E050E067E072E08FE196E035
:1022B0000E94BA2F4AE065E276E0C701895A910987
:1022C0000E9444300E94F01E32CF153D09F452C0E6
:1022D00080F4123D11F546E452E06DE473E083E7CB
:1022E00092E00E94942B009709F05CC010920F02BC
:1022F0001ECF183D09F482C01E3F09F4E7C2163D07
:1023000009F0FDCE8091E801882329F0809119021F
:10231000882309F438C186ED6EC08091C70381110E
:102320000AC08091110290911202892B21F48091B0
:102330001902882311F0812F5EC08091EE07811170
:10234000FACF809143028111F6CF8091EF0781117E
:10235000F2CFF999F0CF002371F310921602109288
:1023600015021093170281E0143D09F080E00E94ED
:10237000B20FDDCE10925F054091100263E772E06C
:102380008DE196E00E94CE2C8091100290E0880FA3
:10239000991F0196FC01E45EF94F2AE120830E9417
:1023A000BB1EC5CE9E012F5F3F4FAE014E5F5F4FFC
:1023B000BE016D5F7F4F0E94EB2B9E012F5F3F4F51
:1023C000AE014E5F5F4FBE016D5F7F4F0E940E2CCE
:1023D0002B812093F9012A812093F80129812093F0
:1023E000F7019093AC038093AB0341EA6CE077E094
:1023F0000E94A92A88ED0E942E2899CE8091EE078E
:102400008111F8CF809143028111F4CF8091EF07C1
:102410008111F0CFF999EECF8BE0809381030E9478
:10242000DA0664CF911187CF8091C703811183CFE2
:102430008091110290911202892B09F07CCF80913A
:102440004502811178CF80915F05811174CF0023FF
:1024500009F471CF10921602109215021093170210
:1024600046E050E060E072E08FE196E00E94BA2F13
:102470004AE065E276E0C7018D5B910921CF80914A
:10248000EE0781110AC080914302811106C080913C
:10249000EF07811102C0F99B02C088E9ACCF8BE045
:1024A000809381030E94CA09882361F08091010111
:1024B000882379F089EF91E00E949D03892B11F424
:1024C0000E94CA0687E90E942E288FEF809300029F
:1024D00017CE86E9F8CF80910E02811118C0809145
:1024E000C703811114C080911702811110C080911F
:1024F0005F0581110CC08091C10086FD08C08091EC
:102500003902882321F080913A02882311F087E96B
:1025100072CF109216021092150287E9809317026B
:1025200087EF91E00E94D41E02CE86E9002309F4D1
:1025300062CF109216021092150286E9809317025C
:1025400085EF91E0EFCF80911902882311F085EAA1
:1025500052CF8091C10086FDFACF80913902882345
:10256000B1F380913A028111F2CF8091170281116B
:10257000EECF109216021092150285EA8093170290
:102580008EEE91E0CFCF8091C7038111D0CD002393
:1025900009F4C1CE109216021092150286ED8093B6
:1025A000170285E18093810384E680931F066EE520
:1025B00073E080E296E00E943D308EE593E0FC01FE
:1025C00001900020E9F7CF018F5593408F5F90E095
:1025D000FC01E15EF94F2BE32083805E994FFC0103
:1025E00010820E94F01E8CE291E090931202809380
:1025F00011029DCD8BE9002309F4FDCE1092160245
:10260000109215028BE98093170289EE91E08ACF30
:102610009091C70391118BCD20911102309112023C
:10262000232B09F084CD90914502911180CD90919A
:102630005F0591117CCD81117ACD8091E0018111EE
:1026400076CD8DE9002309F4D6CE109216021092B1
:1026500015021093170282EE91E064CF9091C703A8
:10266000911114C02091110230911202232B71F4A8
:102670009091450291110AC090915F05911106C099
:10268000811104C08091E001882319F010920702A3
:102690004ECD89E9002309F4AECE109216021092B5
:1026A000150289E98093170289ED91E03BCF909163
:1026B000C703911114C02091110230911202232BF3
:1026C00071F49091450291110AC090915F059111AA
:1026D00006C0811104C08091E001882319F0109296
:1026E000060225CD8AE9002309F485CE1092160250
:1026F000109215028AE98093170282ED91E012CFC1
:102700009091C703911113CD2091110230911202C3
:10271000232B09F00CCD90914502911108CD909199
:102720005F05911104CD811102CD8091E0018111ED
:10273000FECC8EE9002309F45ECE109216021092B0
:1027400015028EE9809317028BEC91E0EBCE85E9C0
:10275000002309F450CE1092160210921502109325
:10276000170284EC91E0DECE8FE8002309F443CE1B
:1027700010921602109215021093170281EA8093AC
:1027800014028FEA91E0CECE8CE80E942E2884E1DC
:1027900080934502109261051092600510927005B9
:1027A00080B7826080BFF8948091C1008068809378
:1027B000C100789400004598BACC80910102811143
:1027C000B6CC80914502882311F08CE814CE80911C
:1027D000C10086FDFACF109261051092600510923B
:1027E000700580B7826080BFF8948091C1008068D6
:1027F0008093C100789400004598109216021092C0
:1028000015028CE88093170284E18093010286EA26
:1028100091E088CE8FEF809339028FE90E942E28B5
:1028200088E28093190283CC8EE8002309F4E3CD7B
:1028300010921602109215028EE88093170269E931
:1028400071E08FE196E00E94C32F3CCD809126027B
:10285000882311F080EACFCD8FEF8093260282E9A2
:10286000002309F4C8CD109216021092150210939D
:10287000170280E991E056CE0E944B0E80913A02F9
:10288000813819F084E18093040110923A024FCC10
:10289000002309F467CC109216021092150284E905
:1028A0008093170265E871E08FE196E00E94C32FE4
:1028B00080E98093140206CD80913802882309F4C0
:1028C00036CC85E90E942E2881E995CD8091EE07CE
:1028D00081110AC080914302811106C08091EF07E7
:1028E000811102C0F99B02C08EEF85CD0023E1F378
:1028F00010921602109215028EEF809317026CEC64
:1029000077E08FE196E00E943D30DCCC80911902A7
:10291000882339F0815080931902811102C01092EE
:1029200018028091E4019091E501009729F0019748
:102930009093E5018093E4018091F3019091F4017B
:10294000009771F001979093F4018093F301892B24
:1029500039F480911302882319F087E90E942E2808
:10296000809101028823C1F081508093010281117E
:1029700013C01092160210921502109217028CE8E2
:102980000E942E2810923B02F8948091C1008F7B08
:102990008093C100789400000E948F20882319F052
:1029A0008BE80E942E2880910C02882341F08150F0
:1029B00080930C02811103C087E90E942E28809128
:1029C000110290911202009771F0019790931202F8
:1029D00080931102892B39F482E00E941C0A109224
:1029E00013021092C703809125028F5F8093250206
:1029F000803309F04EC08BE90E9440288091450247
:102A0000882319F08150809345028091E801882342
:102A100009F45EC080910601833611F0811158C01F
:102A20008091080290910902883522E0920750F4C3
:102A30000196883522E0920709F443C09093090279
:102A40008093080280910702863020F4809106026C
:102A5000843110F00E945B0A8091E701882339F0ED
:102A600081508093E701811102C00E945B0A80912E
:102A7000E801811132C08091040290910502019613
:102A80009093050280930402813B944050F10C9492
:102A90005B0A843311F48DE9AFCF883311F48AE9EE
:102AA000ABCF8C3311F489E9A7CF803508F4A6CFDA
:102AB0008091E80110922502882309F49FCF8EE9C6
:102AC0009BCF10920902109208020E945B0ABACFB3
:102AD0001092090210920802B5CF109205021092CE
:102AE0000402089580913A02882309F457C08AE8C5
:102AF0000E942E288091C603882329F085ED0E942C
:102B00002E281092C6038091E801882309F455C04D
:102B100080910E02882309F450C080912302909185
:102B200024020196883823E1920708F03CC0909374
:102B3000240280932302809117029091130288232C
:102B400009F4A8C02091220282136AC091116AC0C0
:102B50008C3831F09BE2980F44EF51E0923010F442
:102B600040EE5EE29DE2980F923010F44CED55E09D
:102B700020912002309121022F5F3F4F241735070B
:102B800008F5309321022093200210921F02109228
:102B90001E02809117028093220208950E94E4226F
:102BA0008111A5CFA7CF109224021092230284E0B6
:102BB00080933A020E94880ABECF1092240210929B
:102BC0002302B9CF10922102109220028D3F29F1E9
:102BD000873901F192E7980F9230E0F09CE6980F68
:102BE0009230C0F091E6980F9A30A0F096E5980FD9
:102BF000983280F0109214020E94440A1092160239
:102C0000109215028DEF8093170210921F060E94FA
:102C1000F01EBBCF80931402EFCF0E945B0AB5CFAA
:102C20009923C1F180913A02811134C0F8948091C6
:102C3000600590916105789420911E0230911F02E9
:102C40002817390720F490931F0280931E02809169
:102C50001E0290911F020A9708F49BCF80912002D8
:102C6000909121020196843F21E0920728F49093ED
:102C70002102809320028DCF109221021092200217
:102C800081E00E941C0A10921F0210921E020E94F4
:102C90005B0A7FCF1092210210922002992309F43F
:102CA00074CF77CFBF92CF92DF92EF92FF920F93C4
:102CB0001F93CF93DF938091AE0790910F029111F4
:102CC0002BC090910E02911127C09091C7039111D2
:102CD00023C09091130291111FC09091170291117E
:102CE0001BC090911902911117C090915F0521E0CE
:102CF00030E0911102C030E020E0232B69F4909184
:102D0000C10096FD09C090913902992329F0909154
:102D10003A02992309F478C0893809F077C065C070
:102D20008091EE07811161C08091430281115DC0E5
:102D30008091EF07811159C0F99957C08AE28093B9
:102D40007C050DE715E085E0D82E93E2C92E2AE038
:102D5000B22EC0913B03CD9D7001112488E0E80E96
:102D6000F11CC7010E9458338F3F41F14FEFB8016A
:102D7000C7010E944A29E801C80FD11DC8828E01EF
:102D80000E5F1F4FB98280913B038F5F80933B039F
:102D90009E012D5E3F4F2C51364050F48F3FC9F6B7
:102DA0001A8283ED0E942E2881E08093E00120C0EA
:102DB0008F3FB1F389E80E942E28F2CFCF5FC093F6
:102DC0003B03CF3F31F6E5E00C371E0791F0F801E9
:102DD000108283ED0E942E2881E08093E00109C0DB
:102DE0008091E001882309F49BCF89E80E942E2876
:102DF000CFEF8C2FDF91CF911F910F91FF90EF902C
:102E0000DF90CF90BF900895893851F3C0E0F1CFA3
:102E100008950E94C01D0E94A6090C94691ECF93BC
:102E2000DF931F92CDB7DEB78091EE07811131C0DD
:102E30008091430281112DC08091EF07811129C03B
:102E4000F99927C0198291E080914402811101C053
:102E500090E081E04091B8035091B9036091BA03CA
:102E60007091BB03452B462B472B09F480E0981744
:102E700011F081E0898385E090E00E9458339981C8
:102E8000891739F041E065E070E0CE0101960E94BB
:102E9000402A0F90DF91CF9108950E9409170E9458
:102EA000861480918103882331F0815080938103BF
:102EB000811199C0409A8091350290913602009715
:102EC00039F001979093360280933502892B11F4E3
:102ED000109237028091E301882319F180911D023D
:102EE00081111FC08091E8018823D9F080913C03B3
:102EF00081508E3F98F480910E0281110FC06CE3D7
:102F000073E082E592E00E943D306CE870E08CE76F
:102F100095E00E94C32F83ED0E942E288FEF8093AF
:102F20001D028091E301811102C010921D02809167
:102F3000AE07882309F482C09DE2980F923008F012
:102F400076C090913402981372C0809132029091B1
:102F500033028639910508F048C0019690933302F8
:102F60008093320280910E02882309F489C08091F7
:102F70002C0290912D028C3221E0920708F061C062
:102F8000019690932D0280932C028091FF0188235B
:102F900009F48CC08091FD019091FE018436910569
:102FA00008F075C08091FD019091FE01019690930B
:102FB000FE018093FD018091EE01882309F489C010
:102FC0009091ED019F5F9093ED01963028F0109263
:102FD000ED0181508093EE018091ED01823008F483
:102FE00076C0409A0895409866CF64ED83ED0E94C4
:102FF000542880912E0290912F028F3F980729F03C
:10300000019690932F0280932E0282E90E9440281D
:10301000109237021092360210923502109233024B
:10302000109232021092340210920E029BCF8093C3
:103030003402109233021092320294CF1092340272
:10304000F8CF10922D0210922C020E94560310927B
:103050000E0210920D0210925F051092E001809115
:103060002B028F3F19F08F5F80932B0280912B02F0
:10307000833008F48ACF10922B020E945B0A85CF1E
:1030800010922D0210922C0210922B027ECF8FEF05
:103090008093FC01F89488E198E00FB6F894A89525
:1030A000809360000FBE90936000FFCF8091FA0183
:1030B0009091FB01892B09F47ECF8091FA019091C8
:1030C000FB0101979093FB018093FA0174CF409824
:1030D00008958091E801811102C040981CC0809140
:1030E00081038111FACF809106018031B0F4809183
:1030F0001C028F5F80931C02823318F081E0809362
:103100001C0280911C02883241F38B3231F38E52C3
:10311000843018F3409A0C940F1710921C02F1CFD0
:103120000E945F1E0E9472150C94DC29F894809115
:103130006E008D7F80936E00789400008091EC018A
:10314000811109C0F89480916E00826080936E00B6
:103150007894000008951092EC018091EB0188238F
:1031600029F081E08093EA011092EB01F8948091BC
:103170006E00826080936E00789400008091EA0176
:1031800080FF33C080911B028F5F8A3079F180937A
:103190001B020000F89400B601FE26C08091C10019
:1031A0008F778093C100789480916005909161053C
:1031B000892B11F1809170058F5F809370058333A7
:1031C000D8F0459A8091C1008F778093C10080B775
:1031D0008D7F80BF1092C9031092C80310925E05C4
:1031E00010925D051092C5037894089510921B0209
:1031F00083E08093EA01CDCFF8948091C10080688C
:103200008093C10078940000EFCFA89582E084BD40
:1032100083E085BD8FE387BDEEE6F0E080818260CC
:10322000808383B7817F83BF0895CF93DF9344E08A
:1032300050E061E070E082E893E00E9448338091C2
:10324000820381508E3FF0F081E48093F0078093F9
:10325000820382E48093F1078093830383E4809365
:10326000F2078093840384E48093F30780938503BB
:10327000F999FECF44E050E061E070E082E893E02D
:103280000E9460338EEF9FE00E9458338F3F09F415
:10329000F5C0809300018FEF9FE00E9458338F3F6D
:1032A00009F4F7C0809301018AEF9FE00E94583330
:1032B00080930A018BEF9FE00E94583380930901AD
:1032C0008CEF9FE00E945833809308018DEF9FE0C0
:1032D0000E9458338093070189EF9FE00E94583382
:1032E0008F3F09F4E1C08093F50185EF9FE00E94D4
:1032F0005833C82F86EF9FE00E945833CF3F09F024
:10330000D6C08F3F09F0D3C080E293E090930301D1
:103310008093020181E09091F501911101C080E05C
:10332000609102010E94C20380910A018851873E88
:1033300078F0809109018C53833C50F08091080112
:103340008851873E28F0809107018C53833C28F5F3
:10335000F999FECF6FEF8AEF9FE00E947033F999E1
:10336000FECF6FEF8BEF9FE00E947033F999FECF95
:103370006FEF8CEF9FE00E947033F999FECF6FEFF3
:103380008DEF9FE00E9470338FEF80930A0180934E
:10339000090180930801809307011092410287EF91
:1033A0009FE00E9458338F3F09F48DC08093E20163
:1033B000C0EFDFE0CE010E9458338F3F31F4F9991E
:1033C000FECF60E0CE010E9470332196C53F8FE0B2
:1033D000D80781F7C6EEDFE0CE010E9458338F3F59
:1033E00031F4F999FECF60E0CE010E94703321964E
:1033F000CD3E2FE0D20781F71092370210923602AD
:103400001092350210920E0280911A028F3F19F02D
:103410008F5F80931A02F999FECF60911A028CEDAA
:103420009FE00E947033F999FECF62E080E00E9435
:10343000C20341E150E068EC7FE08CE393E00E943E
:10344000483310924C0380910B018033A1F480919A
:103450000C01803381F480910E01803361F48091FE
:103460000F01803341F480913C0381508E3F18F46A
:103470008FEF8093E301DF91CF91089581E08093F6
:103480000001F999FECF61E08EEF9FE00E9470335A
:1034900002CF81E080930101F999FECF61E08FEFC7
:1034A0009FE00E94703300CF1092F5011ECF982F3D
:1034B0008C2F9093030180930201019780329340F7
:1034C00008F022CF27CF1092E20172CFCF92DF9285
:1034D000EF92FF920F931F93CF93DF93CDB7DEB799
:1034E000A5970FB6F894DEBF0FBECDBF1091AE0703
:1034F000143809F4E2C050F4133808F0A7C01330B0
:1035000008F05CC01230E1F080E049C0163809F4E0
:1035100021C208F4A6C1173809F475C21838A1F7FA
:103520008091EE0781110AC080914302811106C08B
:103530008091EF07811102C0F99BDEC288E80FC0BD
:103540008091EE0781110AC080914302811106C06B
:103550008091EF07811102C0F99B04C082E00E94B4
:103560002E281CC081E48093F0078093820382E4BC
:103570008093F1078093830383E48093F207809321
:10358000840384E48093F3078093850364E081E0FF
:1035900090E00E94672A83E3809381038FEFA596D2
:1035A0000FB6F894DEBF0FBECDBFDF91CF911F9154
:1035B0000F91FF90EF90DF90CF9008958091EE07EC
:1035C00081110AC080914302811106C08091EF07EA
:1035D000811102C0F99B02C0812FC1CF0DEF010FF5
:1035E00040E250E06FEF70E080EF97E00E94203003
:1035F000011120C081E48093F1078093820382E46B
:103600008093F2078093830383E48093F30780938E
:10361000840384E48093F407809385031092F50774
:10362000109244021092B8031092B9031092BA0398
:103630001092BB0360E220E2029FC00111240E94AD
:10364000672A81E0810F0E942E28A5CF8091EE0786
:1036500081110AC080914302811106C0F090EF07EA
:10366000F11002C0F99B02C083E879CF10E000E0BE
:10367000C8010E945833F801E751FF4FE4918E17BB
:1036800011F0FF24FA940F5F1F4F0630110581F7E8
:1036900008E010E0C8010E9458338F3F41F40F5FEB
:1036A0001F4F083A8FE01807A9F7FF2011F083E0B9
:1036B00056CF0E941519409A71CF8091EE07811163
:1036C0000AC080914302811106C08091EF078111E9
:1036D00002C0F99B02C084E842CFD0904102D110D1
:1036E0005DCF8E010B5E1F4F6AE973E0C8010E9437
:1036F0003D30F80101900020E9F7BF0161507109E8
:1037000040EF57E0C8010E94992880910001813064
:1037100091F038E0E32EF12CB70180EF97E00E94A2
:103720006E2981115EC0F5E0EF0EF11C28EAE21669
:103730002FE0F20689F78091F501882329F0DD203A
:1037400009F452C0DD24DA9481E09091F5019111E1
:1037500001C080E061EF7FE00E946B2A81E0D11020
:1037600080E062EF7FE00E946B2A8091F501882360
:1037700059F1D11029C0F80101900020E9F73197E3
:10378000CF01801B910B182F64EF7FE00E946B2A02
:103790001330D0F0BE016F5F7F4F86E893E00E9448
:1037A0003D3086E893E0FC0101900020E9F7CF016D
:1037B00087589340039740F063EF7FE081E00E94D9
:1037C0006B2A86E80E942E2880910101882309F443
:1037D000E5CE80910001813009F03FC00E94CA0609
:1037E000DDCEDD24DA94A7CFF80101900020E9F7BF
:1037F0003197E01BF10BCE0101967C01EA3058F1C4
:10380000E950FF0BB8016E0F7F1F0E943D30F7019A
:1038100001900020E9F7BF016150710940EF57E0C6
:10382000C7010E94992880910001813009F48CCF52
:1038300028E0E22EF12CB70180EF97E00E946E297C
:10384000811180CFF5E0EF0EF11C28EAE2162FE09F
:10385000F20689F779CFB801D8CFDD2009F49ECEE2
:10386000BDCF8091EE0781110AC080914302811182
:1038700006C08091EF07811102C0F99B02C085E864
:103880006ECE8EE593E00E945D03811187CE6EE5DA
:1038900073E0FB0101900020E9F7BF01615071095D
:1038A00040EF57E08EE593E00E949928E0900201F6
:1038B000F0900301FCE1EF16F3E0FF0620F09BE13E
:1038C000E92E93E0F92E08E010E0D12CC12CCE14A3
:1038D000DF0409F463CEC8010E94583398012B5FBE
:1038E0003F4F8F3F91F565E0C8010E94672A8091A4
:1038F000F50108E010E0F12CE12C882309F44ECE0C
:10390000C8010E9458338F3F19F09FEFE91AF90A56
:103910000B5F1F4F083AEFE01E0791F780910201FD
:1039200090910301E816F90608F438CE1092F501DB
:1039300069EF7FE080E00E946B2A109200016EEF39
:103940007FE080E00E946B2A29CE8FEFC81AD80A48
:103950008901BDCF8091EE0781110AC08091430299
:10396000811106C08091EF07811102C0F99B02C04E
:1039700086E8F5CD66E873E0FB0101900020E9F7E9
:10398000BF0161507109AE014F5F5F4F86E893E060
:103990000E94992886E893E00E945D038111FECD84
:1039A00085E0FE013196A0EFB7E001900D928A9577
:1039B000E1F708E010E0C8010E9458338F3FE1F4BE
:1039C00065E0C8010E94672A8091F50108E010E0D7
:1039D000F12CE12C882309F4E1CDC8010E94583371
:1039E0008F3F19F02FEFE21AF20A0B5F1F4F083AD0
:1039F0008FE0180791F792CF0B5F1F4F083AFFE057
:103A00001F07C9F6CBCD8091EE0781110AC08091C6
:103A10004302811106C08091EF07811102C0F99B1A
:103A200002C087E89CCD6EE573E0FB0101900020A9
:103A3000E9F7BF0161507109AE014F5F5F4F8EE53D
:103A400093E00E9499288EE593E00E945D03D82EB2
:103A5000882369F06DE473E082E592E00E943D30D6
:103A60006BEC70E08CE795E00E94C32F36C085E0D8
:103A7000FE013196A0EFB7E001900D928A95E1F733
:103A80008AE8E82E8FE0F82E0AE113E0C7010E94D1
:103A900058330F5F1F4F8F3F11F565E0C7010E943C
:103AA000672ADD24DA946DE473E082E592E00E94F7
:103AB0003D30DD20F1F01F930F938FEB91E09F934A
:103AC0008F938CE795E09F938F930E945E300F90C9
:103AD0000F900F900F900F900F9083ED40CDF5E079
:103AE000EF0EF11C003223E0120781F610E000E037
:103AF000DACF61EA70E0B6CF6EE573E0FB010190CA
:103B00000020E9F7BF016150710940EF57E08EE5F1
:103B100093E00E94992808E010E0B80180EF97E058
:103B20000E946E29882379F010925E0340EF57E0DF
:103B30006FE573E08EE593E00E94992865E0C80187
:103B40000E94672A2BCD0B5F1F4F083AFFE01F072B
:103B500021F724CD0E942F10811106C00E94661A01
:103B6000811102C00E9452160C946C28E82FF0E0DC
:103B7000E255FC4F9081907F81E009F080E008954C
:103B80009091B703892F8D7F8093B7038091AE0307
:103B9000807F90FD56C081114BC08091C0039091F1
:103BA000C103A091C203B091C3034091BC035091E3
:103BB000BD036091BE037091BF0384179507A607EC
:103BC000B70798F40196A11DB11D8093C00390938F
:103BD000C103A093C203B093C303481759076A07F0
:103BE0007B0719F481E08093B7038091B70390912C
:103BF000C403891781F08093C403982F9260909337
:103C0000B70380FD53C01092C0031092C1031092FD
:103C1000C2031092C3038091AD03882341F09091B9
:103C2000B7039D7F9093B70381508093AD030895B0
:103C30001092C0031092C1031092C2031092C303EA
:103C4000D4CF882351F18091B3039091B403A09114
:103C5000B503B091B6034091AF035091B0036091AA
:103C6000B1037091B20384179507A607B70708F050
:103C7000BCCF0196A11DB11D8093B3039093B403F3
:103C8000A093B503B093B603481759076A077B079B
:103C900009F0ABCF1092B703A8CF1092B3031092E4
:103CA000B4031092B5031092B6039FCF1092B303E2
:103CB0001092B4031092B5031092B603ACCF80916A
:103CC000AE03189B869581601899880F8093AE0388
:103CD00008958091B8039091B903A091BA03B0916F
:103CE000BB03209144020097A105B10591F0019713
:103CF000A109B10991F481E0211180E0282F1092EF
:103D0000B8031092B9031092BA031092BB038093C8
:103D10004402222359F05D9A08958093B80390934A
:103D2000B903A093BA03B093BB03F3CF5D98089592
:103D300084E190E0A0E0B0E08093AF039093B00303
:103D4000A093B103B093B2038093BC039093BD03DF
:103D5000A093BE03B093BF0308951092C4031092C2
:103D6000B8031092B9031092BA031092BB038EE10C
:103D70008093AD03089590935C0580935B0510924A
:103D8000650510926405E0ECF0E08081806480833A
:103D9000F894E1ECF0E08081806480837894000006
:103DA0008FEF80933B020895CF93DF93FC0181E472
:103DB00080931D0684E580931E06AFE1B6E093E094
:103DC000ED0184918D93811108C08DE08883892F46
:103DD00090E0DF91CF910C94BB1E31969F5FF0CFA6
:103DE000EDE1F6E081E4808384E5818301900020A9
:103DF000E9F7CF018E5196409927FC01E35EF94F18
:103E00002DE0208301960C94BB1E78941F920F9294
:103E10000FB60F9211240BB60F922F933F938F93EF
:103E20009F93EF93FF9320916405309165058091F6
:103E30005B0590915C0528173907A8F0F8948091EC
:103E4000C1008F7B8093C10078940000FF91EF91B7
:103E50009F918F913F912F910F900BBE0F900FBEAE
:103E60000F901F901895349910C08091640590911F
:103E70006505FC01E35EF94F20810196909365058D
:103E8000809364052093C600E1CF8FEF80933B02BF
:103E9000DDCF8F938FB78F938091C1008F77809301
:103EA000C10078948BB78F938091C6000F924F9387
:103EB0001F9211242F933F93EF93FF93AF93BF93E0
:103EC0009F9320916005309161058F3F09F4E5C013
:103ED000EAECF3E0A901203991E0390708F0CAC003
:103EE0002115310559F19091CA038D3009F59D30A6
:103EF000F9F09A30E9F09091C503911119C091E859
:103F000090933A02459AF8949091C1009F779093CC
:103F1000C10090B79D7F90BF789400001092C903B4
:103F20001092C80310925E0510925D051092C503B1
:103F30002115310519F090819D30F9F08A30E9F4AE
:103F40009091C503911119C091E890933A02459A56
:103F5000F8949091C1009F779093C10090B79D7F96
:103F600090BF789400001092C9031092C803109279
:103F70005E0510925D051092C5038F01A9014F5F88
:103F80005F4FDF01A20FB31F00B601FE5DC02430FA
:103F9000310508F459C08A3009F056C0BD0161509E
:103FA0007109EB0198819D3009F04EC06150710993
:103FB000EB0198819A3009F447C061507109EB0117
:103FC00098819D3009F440C0EF0191819A30E1F56C
:103FD00090819D30C9F560915D0570915E0570938B
:103FE000C9036093C80350935E0540935D059091AB
:103FF000C5039F5F9093C50360916C0570916D053B
:1040000070936F0560936E0560916A0570916B0502
:1040100070936D0560936C056091680570916905FA
:1040200070936B0560936A056091C8037091C90332
:10403000709369056093680560915D0570915E05F8
:10404000709367056093660590915F05992361F011
:104050002330310549F4803239F49091CC039E33FA
:1040600019F49FEF9093C6038C939A01E40FF51F08
:1040700010820FC030E020E080E880933A02109276
:10408000C9031092C80310925E0510925D0510924C
:10409000C5033093610520936005109270059F91D0
:1040A000BF91AF91FF91EF913F912F911F904F9151
:1040B00000B601FE08C0F8948091C100806880932A
:1040C000C100789400000F908F918BBF8F918FBFAC
:1040D0008F91189583E08093C4001092C500E1ECA5
:1040E000F0E08081886180838BB18C7F8BB951989F
:1040F000449845983D9808954F9B0FC01092050134
:104100001092610510926005519A8BB183608BB952
:104110003D9A459A449A8FEF089580E008958091E2
:1041200005018823B9F191E0980F90930501913A28
:1041300039F1A8F49F30D9F030F49230D1F09330B7
:10414000E9F080E0089587528430D8F70E947C20FF
:1041500091E0811101C090E0892F819508959F3FE2
:10416000A0F4953F98F7983C49F0973D51F7569841
:10417000E8CF56980E947C2081110BC0569AE1CF5F
:104180001092390210923802DCCF81E08093050151
:10419000D8CF8FEF0895FC014217130609F040F4C1
:1041A000DB01A653BC4F90E0491304C081E04913E2
:1041B00080E008952D9184912813F8CF31969F5F68
:1041C000F3CF8FB7F8941092C9031092C8031092DE
:1041D0005E0510925D058FBF08952F923F924F921A
:1041E0005F926F927F928F929F92AF92BF92CF9287
:1041F000DF92EF92FF920F931F93CF93DF9348E0EC
:10420000B42E57E0852E69E0962E73E0772EE8E015
:104210006E2EF5E15F2EA2E04A2EBDE03B2E222459
:1042200023949FB7F8948091C503811128C09FBF44
:1042300080917B05882301F1815080937B05E82FD5
:10424000F0E0EF58FA4F808180933A02108280911B
:104250003A02DF91CF911F910F91FF90EF90DF9085
:10426000CF90BF90AF909F908F907F906F905F9016
:104270004F903F902F90089510923A02EACF8530E8
:1042800008F084E0E82FF0E0EE0FFF1FEA59FA4F44
:10429000C080D180118210828150E82FF0E0EE0FB3
:1042A000FF1FEA59FA4F208131818093C5039FBFD8
:1042B000C216D30698F580917B058A3010F0909253
:1042C0007B05E901CC19DD09249786010E5F1F4F9C
:1042D000C90186539C4FFC013397E0803197A08041
:1042E000F601E653FC4FF5804BE4E4121CC0EFE40A
:1042F000AE124AC10597FC018081803209F460C189
:104300002630310508F45CC1E0917B0581E08E0F19
:1043100080937B05F0E0EF58FA4F2082BA94B110F9
:1043200080CF80E096CFF7E4FF1214C09E0146E0F4
:10433000B80189E094E00E94CB20882359F0E091F5
:104340007B0581E08E0F80937B05F0E0EF58FA4FFC
:104350003082E4CF4FE4A41215C09E0145E0B801BD
:1043600083E094E00E94CB20882361F0E0917B05FC
:1043700081E08E0F80937B05F0E0EF58FA4F84E0E8
:104380008083CCCFE7E4EE1215C09E0147E0B80170
:104390008BEF93E00E94CB20882309F4F9C0E091D1
:1043A0007B0581E08E0F80937B05F0E0EF58FA4F9C
:1043B0004082B4CFF4E4EF12EBC09E014CE0B801B0
:1043C0008EEE93E00E94CB20882309F4E1C0E091B7
:1043D0007B0581E08E0F80937B05F0E0EF58FA4F6C
:1043E0008CE0CECF8DE4F81214C09E0146E0B801F7
:1043F00080EE93E00E94CB20882311F1E0917B05B1
:1044000081E08E0F80937B05F0E0EF58FA4F5082E9
:1044100085CFE4E5FE1214C09E0146E0B80189EDA7
:1044200093E00E94CB20882359F0E0917B0581E046
:104430008E0F80937B05F0E0EF58FA4F60826ECFCD
:10444000F5E4AF1214C09E014AE0B8018EEC93E08F
:104450000E94CB20882359F0E0917B0581E08E0FEC
:1044600080937B05F0E0EF58FA4F708257CF45E418
:10447000E41214C09E014BE0B80182EC93E00E946C
:10448000CB20882311F1E0917B0581E08E0F809392
:104490007B05F0E0EF58FA4F908240CF89E5E812B3
:1044A00014C09E0144E0B8018DEB93E00E94CB2044
:1044B000882359F0E0917B0581E08E0F80937B0586
:1044C000F0E0EF58FA4F808229CFE5E4FE1223C0D6
:1044D0009E014BE0B80181EB93E00E94CB20882342
:1044E00009F41CCF4AE050E070E060E0C601885259
:1044F0009C4F0E94992E70933F0260933E02E09180
:104500007B0581E08E0F80937B05F0E0EF58FA4F3A
:1045100045E0408303CF83E5F81200CF9E014BE0D6
:10452000B80185EA93E00E94CB208823C1F04AE0DD
:1045300050E070E060E0C60188529C4F0E94992EC6
:1045400070933D0260933C02E0917B0581E08E0F09
:1045500080937B05F0E0EF58FA4F86E011CF9E0183
:1045600046E0B8018EE993E00E94CB20882309F44D
:10457000D5CEE0917B0581E08E0F80937B05F0E046
:10458000EF58FA4F4EE0C5CF87E4F81609F4CECEC7
:1045900049E4F41227CF9E0146E0B80187EE93E08C
:1045A0000E94CB20882309F44BCFE0917B0581E06A
:1045B0008E0F80937B05F0E0EF58FA4F8AE0E0CE53
:1045C000E7E4FE12CACEB2CECF930E94ED2088233C
:1045D000D9F080913A02843021F0833111F081309A
:1045E00089F4CFB7F8940E94E120459AF89480911D
:1045F000C1008F778093C10080B78D7F80BF789492
:104600000000CFBF80913A02CF910895FF920F939F
:104610001F93CF93DF938C01F801C081D181F88083
:104620008F2D90E00E949C2F892BF1F480918203C2
:10463000F8121FC099818091830398131AC09A8140
:1046400080918403981315C09B81809185039813F2
:1046500010C02496F801D183C0838FEFDF91CF91F2
:104660001F910F91FF9008952196F801D183C08387
:10467000D3CF80E0F3CF44E050E063E374E00E94E6
:10468000AD2F21E0892B09F020E0822F08956F9251
:104690007F928F929F92AF92BF92CF92DF92EF92D2
:1046A000FF920F931F93CF93DF935C01762E642EBE
:1046B000F50100811181F801808190E00E949C2F1A
:1046C000892BB9F5F8E07F9EC0011124D12CC12CB3
:1046D0009C01285C3B4F4901FC01E75CFB4F7F01DB
:1046E0007614B8F4F401EC0DFD1DE491CE2FD0E06A
:1046F000B7016C0D7D1DAE01C8010E94AD2FF8E021
:10470000CF0ED11C892BD9F4C00FD11FF501D18355
:10471000C083872DDF91CF911F910F91FF90EF9074
:10472000DF90CF90BF90AF909F908F907F906F90D1
:1047300008950F5F1F4FF50111830083B9CF739464
:10474000CFCFEF92FF920F931F93CF93DF93EC01A4
:104750007B01088119814AE050E0BC01C8010E9438
:104760006B2DF701608371838283938381E02881BD
:1047700039812017310709F480E0DF91CF911F9133
:104780000F91FF90EF900895DF92EF92FF920F93B9
:104790001F93CF93DF937C01D62EF701C081D18187
:1047A000088110E0C8010E949C2F892BA1F48D2D57
:1047B00090E00E94A52F0817190791F42196F701A0
:1047C000D183C0838FEFDF91CF911F910F91FF9025
:1047D000EF90DF9008952196F701D183C083DDCF5C
:1047E00080E0F1CFDF92EF92FF920F931F93CF9370
:1047F000DF938C01D62EF801C081D181FE01819119
:104800007F0190E00E949C2F892B99F48D2D90E0E0
:104810000E94A52F982F9E012F5F3F4F88818823EC
:1048200061F0E9019813F7CFF801318320838FEF0E
:1048300006C0F801F182E082DECF9923A9F3DF916F
:10484000CF911F910F91FF90EF90DF900895CF923D
:10485000DF92EF92FF920F931F93CF93DF938C0120
:10486000D62EF72EE42EF801C081D181888190E008
:104870000E949C2F892B81F4CD2DDF2D6E01E1103C
:1048800010C0F6011082DF91CF911F910F91FF9020
:10489000EF90DF90CF9008952196D801CD93DC93CF
:1048A000E2CFD801ED91FC91F0808F2D90E00E9435
:1048B0009C2F892B31F7F992EA94FF2011F3D8014C
:1048C0008D919C91119701968D939C93D7CF8F9248
:1048D0009F92AF92BF92CF92DF92EF92FF920F938F
:1048E0001F93CF93DF93CDB7DEB764970FB6F894DD
:1048F000DEBF0FBECDBF6C015B01042FF601E0806F
:10490000F180D7018C9190E00E949C2F892B09F0B7
:1049100043C010E04701F70181917F01882341F0F6
:10492000143130F48032B1F30E9486288D30D9F5ED
:10493000812F193008F489E08950E12F1A3008F0EE
:10494000E9E0A50130E020E00150110B90E02E17C6
:1049500018F420173107C4F1EA0DFB2DF11D108268
:10496000F5018081882329F0D6018C9211969C92C2
:104970008FEF64960FB6F894DEBF0FBECDBFDF9108
:10498000CF911F910F91FF90EF90DF90CF90BF904C
:10499000AF909F908F9008956FEFE61AF60AD601B8
:1049A000ED92FC92ABCFF7013197808190ED980F9B
:1049B0009A3008F0AFCFE1E0F0E0EC0FFD1FE10F1F
:1049C000F11D80831F5FA6CFDC01A20FB31F61E042
:1049D00070E06C0F7D1FA60FB71F6C91DA016D930D
:1049E000AD012F5F3F4FB3CFEF92FF920F931F9315
:1049F000CF93DF93CDB7DEB76F970FB6F894DEBFD6
:104A00000FBECDBF9F8F8E8F7C0182E3F701A0EF99
:104A1000B7E001900D928A95E1F7CE014E960E9483
:104A200006232E8D9F8D811108C0822F0E943B236B
:104A3000882309F471C08BE06FC0022F192FF80191
:104A400081918F01811121C042E160E0CE014E963B
:104A50000E944723823108F0DAC2E82FF0E0ED5CD3
:104A6000FA4D0C944E2D50259925A6251B25092875
:104A70008225B225DA2507280728FC258626412726
:104A8000B827BA27BF27C527D12790E00E94A52FB6
:104A9000F80131978083D3CF0F5F1F4F1F8F0E8F89
:104AA0000E8D1F8DF801808190E00E949C2F892B34
:104AB00099F7C8018E199F09FC01E051F84F34E0C5
:104AC00021914FEB420F4A3128F020532A3010F049
:104AD00082E022C03150A1F78051984FFC01408103
:104AE0005181628173814093820350938303609369
:104AF00084037093850344E061E070E00E94402AE3
:104B000083E00AC04EE06EE573E0CE014E960E944F
:104B10006724811180C286E06F960FB6F894DEBFDD
:104B20000FBECDBFDF91CF911F910F91FF90EF90FE
:104B300008954EE06EE573E0CE014E960E94672424
:104B4000882331F285E80E942E28DACF4EE06EE508
:104B500073E0CE014E960E946724882309F4B8CFF3
:104B600088E8F1CF4AE068E0CE014E960E944723E4
:104B7000883071F481E0809300016EEF7FE00E9445
:104B80006B2A8FEF809301016FEF7FE081E00FC010
:104B9000893009F061C281E0809300016EEF7FE00F
:104BA0000E946B2A109201016FEF7FE080E00E946B
:104BB0006B2AA6CF4AE068E0CE014E960E944723BA
:104BC000109200016EEF7FE0883011F480E0D7CFC3
:104BD000893011F480E0E4CF80E00E946B2A80915C
:104BE000F501882309F48CCF69EF7FE080E00E9413
:104BF0006B2A1092F50184CFBE016A5E7F4FCE0111
:104C00004E960E94A123882331F16AE3CE014E968D
:104C10000E94C4238823F9F0BE016E5E7F4FCE014F
:104C20004E960E94A1238823B1F06AE3CE014E96EE
:104C30000E94C423882379F0BE016F5F7F4FCE01AD
:104C40004E960E94A12321E030E0811102C030E0A5
:104C500020E0232BE9F48FEF8093F6016CE274E0FF
:104C60008CE795E00E94C32F8CE795E0FC01019052
:104C70000020E9F7CF016BE071E001970E943D3021
:104C80006DE473E082E592E00E943D3083ED5BCFFE
:104C90008E899F89A88DB98D88319105A105B105AF
:104CA00008F016CF4A895B896C897D894C335105A0
:104CB0006105710508F00CCF09811A812B813C81B7
:104CC0000C3311052105310508F002CF1F930F9316
:104CD0005F934F939F938F9387E491E09F938F937C
:104CE0008CEC97E09F938F930E945E308EEF0E9432
:104CF0002E288FEF8093F6010FB6F894DEBF0FBE1B
:104D0000CDBFFECE0F5F1F4F1F8F0E8F0E8D1F8DDD
:104D1000F801808190E00E949C2F892B99F743E055
:104D200050E068E274E0C8010E94CA2F892B01F5A7
:104D30006AEF7FE08FEF0E946B2A6BEF7FE08FEFCF
:104D40000E946B2A6CEF7FE08FEF0E946B2A6DEF61
:104D50007FE08FEF0E946B2A8FEF80930A01809390
:104D60000901809308018093070110924102C8CE87
:104D7000BE01665E7F4FCE014E960E94A12388231E
:104D800009F4A6CE6AE3CE014E960E94C42388237E
:104D900009F49ECEBE016A5E7F4FCE014E960E9400
:104DA000A123882309F494CE63E2CE014E960E949B
:104DB000F223BE016E5E7F4FCE014E960E94A1236C
:104DC000882309F485CE6AE3CE014E960E94C4235F
:104DD000882309F47DCEBE016F5F7F4FCE014E96D2
:104DE0000E94A123882309F473CE8A8D9B8DAC8DFC
:104DF000BD8D88319105A105B10508F069CE4E89B8
:104E00005F89688D798D4C3351056105710508F016
:104E10005FCE4A895B896C897D894831510561057E
:104E2000710508F055CE49815A816B817C814C33E4
:104E300051056105710508F04BCE6AEF7FE00E94D5
:104E40006B2A6BEF7FE08E890E946B2A6CEF7FE00C
:104E50008A890E946B2A6DEF7FE089810E946B2A0C
:104E60008A8D80930A018E89809309018A898093B3
:104E7000080189818093070143CE0F5F1F4F1F8F69
:104E80000E8F0E8D1F8DF801808190E00E949C2F67
:104E9000892B99F742E050E065E274E0C8010E9476
:104EA000CA2F892B09F047C00E5F1F4F1F8F0E8F2F
:104EB00080E293E0A0E0B0E089839A83AB83BC8377
:104EC000EE8CFF8CF7011081812F90E00E949C2FC7
:104ED000892BA1F410531A30B8F008E010E0C80193
:104EE0000E945833F82E2FEF821709F496C00B5FFB
:104EF0001F4F083A8FE0180791F7EACDFFEFEF1A3E
:104F0000FF0AFF8EEE8EDCCFBE016F5F7F4FCE01BA
:104F10004E960E94A123882309F4DACD89819A81D3
:104F2000AB81BC810197A109B10980329340A105F1
:104F3000B10598F2CDCD43E050E061E274E0C801E4
:104F40000E94CA2F892B09F0C3CD69EF7FE080E072
:104F50000E946B2A1092F50188EF9FE00E9458335F
:104F60008F3F09F4CDCD809300016EEF7FE01FCE1F
:104F700088E0D2CD1092E20167EF7FE017CE8FEF8D
:104F80008093E20167EF7FE001CE4EE06EE573E0D3
:104F9000CE014E960E946724882309F499CD87E8B4
:104FA000D2CD41E18E010F5F1F4FB801CE014E9669
:104FB0000E946724882309F48BCDF801019000201A
:104FC000E9F73197E01BF10B8DEF8E0F873008F07A
:104FD0007FCD41E04E0F68EC7FE0C8010E94402A7F
:104FE000B8018CE393E00E943D306DE473E082E50C
:104FF00092E00E943D3060E174E08CE795E00E9411
:10500000C32FB8018CE795E00E9427303FCE81E0A6
:1050100083CD84E081CD85E07FCD8EEF9FE00E943F
:10502000583368EF7FE00E946B2A65EF7FE089814B
:105030000E946B2A66EF7FE08A810E946B2A898139
:105040009A81909303018093020169EF7FE081E0F0
:105050000E946B2AF092F50181E085CFEEEAF7E03D
:1050600030E020E09191911105C02255384FF901AF
:10507000808308952F5F3F4F2E31310599F70895B2
:10508000EEEAF7E030E020E09191981761F091119D
:1050900005C02255384FF901808308952F5F3F4F97
:1050A0002E31310589F7089590E0E92FF0E0E255BF
:1050B000F84F2081281770F0621760F0292F2D31EA
:1050C00028F01092CB079E3181F7089531813193FA
:1050D0002F5FF5CF9F5FF7CFEEEAF7E081818193F5
:1050E00087E0EB3CF807D1F71092CB070895EEEA82
:1050F000F7E09191981710F0691730F497E0EC3CC5
:10510000F907B9F780E008958FEF08958B3279F0B1
:1051100030F4833251F08A3231F08DE008958053BB
:105120008A30D8F708958BE008958CE008958AE0DE
:10513000F9CFAF92BF92CF92DF92FF920F931F935E
:10514000CF93DF93182FEB016A0145E050E06FEF3A
:1051500070E0C6010E9420308C2F811B182F2197F0
:1051600000E0823058F4DF91CF911F910F91FF90B2
:10517000DF90CF90BF90AF900895092F88810E9453
:105180008628F82EF29480EFF822FE0182915F01CA
:105190000E9486288F29113061F4E5018F6010E0AC
:1051A00091E0900FF601E00FF11D80831111E5CF22
:1051B000DACF22971250F4CFE82FF0E0E853FB4FFC
:1051C00084910895CF93DF939C01EB011882BC0179
:1051D00080E0DB016F5F7F4F9C919F3F19F085302E
:1051E00009F052C0A217B30709F452C0642F70E04F
:1051F00090E0880F991F11976817790744F4DB0135
:105200001197B7FDDB01B595A795A20FB31FEC91E0
:105210008E2F8F708F3009F039C0E295EF70F0E07B
:10522000E853FB4F84918883882319F021961197C6
:1052300081E0A217B30720F1EC91EF70F0E0E853A2
:10524000FB4FE491E883BE01EE2319F06F5F7F4FBF
:105250008F5FEB018417A1F02196EC91E295EF703E
:10526000F0E0E853FB4F9491FB0190838F5F481768
:1052700039F01197BD016F5F7F4F26173707C9F6C9
:105280001882DF91CF9108958F5FA3CF80E0D1CFB7
:1052900080E0F7CFFF920F931F93CF93DF9300D05F
:1052A00000D01F92CDB7DEB78B01F42E45E050E061
:1052B000BC01CE0101960E9448334F2DB801CE01AA
:1052C00001960E94E2280F900F900F900F900F9080
:1052D000DF91CF911F910F91FF9008950F931F932E
:1052E000CF93DF93EC018B0188818F3F21F1CB01BC
:1052F0000E9458338F3FF9F0C8010E945833382F6D
:10530000307F9991292F207F303F79F0203F69F03D
:10531000321311C08F709F708F3039F09F3029F099
:10532000891309C00F5F1F4FE7CF8FEFDF91CF9138
:105330001F910F91089580E0F9CF0F931F93CF93A2
:10534000DF9300D000D01F92CDB7DEB78B01FC01F8
:1053500001900020E9F73197BF01681B790B680FB6
:10536000792F711DAE014F5F5F4F0E949928B801E0
:10537000CE0101960E946E290F900F900F900F9012
:105380000F90DF91CF911F910F9108958093EC07BB
:105390009093ED07109242026093430292BD81BD4B
:1053A000F89A90B58091F007981729F080BDF8948D
:1053B000FA9AF99A78940895F99935C08091EE0790
:1053C000811108C080914302811104C08091EF07D0
:1053D000882349F180914202F89A20B5E82FF0E045
:1053E000E051F84F9081291301C08F5F90914302E3
:1053F0008917D0F4282F30E04091EC075091ED0749
:10540000420F531F52BD41BDF89A40B52051384F4D
:10541000F9019081491729F090BDF894FA9AF99A08
:1054200078948093420208959091EE071092EE07CF
:10543000909343029923F9F0E0EFF7E080E020A594
:1054400021938F5F9813FBCF8091220890912308BE
:105450008093EC079093ED0792BD81BDF89A90B5CB
:105460008091F007981729F080BDF894FA9AF99A7C
:10547000789480E0D6CF9FE092BD9FEF91BDD1CFD1
:105480001F93CF93DF934423F1F0C42F172FD62F10
:10549000BC0150E080EF97E00E941730D093EC07FA
:1054A0001093ED0710924202C093430212BDD1BD8A
:1054B000F89A90B58091F007981729F080BDF8947C
:1054C000FA9AF99A7894DF91CF911F91089561111A
:1054D0000C94C62908951F93CF93DF93182FEB01E7
:1054E000CB010E945833811749F01093F00761E017
:1054F000CE01DF91CF911F910C94C629DF91CF91FE
:105500001F9108950F931F93CF93DF9300D000D086
:10551000CDB7DEB78C0119821A821B821C820E94D1
:1055200058338983C80101960E9458338A83C80181
:1055300002960E9458338B8369817A818B819C818A
:105540000F900F900F900F90DF91CF911F910F91BF
:105550000895CF92DF92EF92FF920F931F93CF9314
:10556000DF93DC011196FC01F080F41618F0FF24A3
:10557000FA94F40EEB0140E0E12CE0E050E887E023
:1055800090E04F110DC0640F711DFB011082DF917F
:10559000CF911F910F91FF90EF90DF90CF900895E2
:1055A0002E2D30E00C9110E0C52ED12CC094D0945B
:1055B0000C211D2102C0000F111FEA94E2F7E00F39
:1055C000F12FF11DE751FA4FE491E9934F5FF42F6A
:1055D000F770EF2E79F0EC91E523F0E08C01021BDF
:1055E000130B02C0F595E7950A95E2F756955058CA
:1055F0001196C7CFE0E050E8C4CFCF92DF92EF9290
:10560000FF920F931F93CF93DF938C01CA01861BE8
:10561000970BE8018993815090E020E04FE750E03C
:1056200037E0EE24EA94F12CDE01281748F1F80166
:1056300080818770D9F0FB01E20FF11DE081F0E07D
:10564000E751FB4F24914FE750E0092E02C0440F71
:10565000551F0A94E2F7E22FF0E0E423F52302C09D
:10566000F695E7959A95E2F7E8831196CD01DF91DB
:10567000CF911F910F91FF90EF90DF90CF90089501
:105680006B01C20ED11CD601EC91F0E0E751FB4F4B
:10569000E491DA01092E02C0AA0FBB1F0A94E2F7B7
:1056A000F0E0AE23BF23092E02C0B695A7950A9459
:1056B000E2F7F601B181EB2FF0E0E751FB4FE49107
:1056C000B32FB91B67010B2E02C0D694C7940A945E
:1056D000E2F7EC2101C0EE0FBA95EAF7EA2BE99365
:1056E0009F5F973011F42F5F90E02F5F9DCFFC01FB
:1056F000DA0170E0CD01841B950B8617970708F03F
:10570000089590819A3360F49053292F2295207F39
:1057100091819A3338F49053920F9D933296EACF49
:105720009753F3CF9753F8CF1F93CF93DF93DC01B9
:10573000EA018C91873C50F0DB011C928FEF88834B
:1057400090E080E0DF91CF911F91089518828C91B5
:1057500090E00196A80FB91F8C918B7F11F08FEF0D
:10576000888311962C911197213130F7FD013396E2
:1057700012968C91982F9F7E31E0913809F030E09D
:10578000813929F48BE2DB018C936F5F7F4FAB0192
:1057900010E00EC08081992311F0829531968F70B0
:1057A000805D311101C080E3DA018D93AD011F5F8F
:1057B000912F91701213EECFDB01A10FB11D1C923E
:1057C000911101C031978281882311F08FEF888376
:1057D000CF010396B7CFFC019081A92FAF708AE06B
:1057E00092959F70A89F900D1124DB019C9391814D
:1057F000692F6F7092959F70689F900D1124DA0148
:105800009C939281492F4F7092959F70489F900D65
:105810001124D9019C93CF0103960895FC01908136
:10582000A92FAF708AE092959F70A89F900D1124C8
:10583000DB019C939181692F6F7092959F70689F97
:10584000900D1124DA019C939281492F4F7092950B
:105850009F70489F900D1124D9019C93CF0104960D
:105860000895CF93DF93DC01FB0180818B3299F4A3
:10587000319681E9EF0109900020E9F79E0121505E
:1058800031092E1B3F0B211108C0CD0101961C923E
:10589000DF91CF91089581E8EDCF2C93AD014E5F5C
:1058A0005F4F11968C93C90199270196959587951D
:1058B000682F742FDA012A2F271B261718F0840F60
:1058C000951FE6CF208120533181332331F032966A
:1058D0003295307F232B2D93EECF3196206FFBCF67
:1058E000CF93DF93EC01DB018C91811106C0CE01D7
:1058F00001961882DF91CF9108958B3209F51196A8
:1059000081E9FD0101900020E9F731979F012A1BF1
:105910003B0B33272F5F3F4F35952795622F91E043
:10592000920F9883AE014E5F5F4F8983742FFA0107
:105930008E2F871B861730F0CA01820F931FDACF94
:1059400081E8DFCF8C91805311969C911197992318
:1059500031F012969295907F892B8193E9CF119621
:10596000806FFBCFEF92FF920F93CF937B01C22FFB
:10597000BA010E94702C21E1FC0120831182B70141
:1059800002960E94312CFC01C08301832AEA228303
:105990000396CF910F91FF90EF900895CF93DF93EF
:1059A0001F92CDB7DEB79C01562FDB018A2F851BD6
:1059B000841720F00F90DF91CF9108959D91892F4A
:1059C000807F898382958983E981F0E0E852FB4FEB
:1059D0008491F90180839F70E92FF0E0E852FB4F3A
:1059E0008491F90181832E5F3F4FE0CF88E19BE0F6
:1059F0000FB6F894A895809360000FBE9093600056
:105A00000E94A2030E94A2030E94A2030E94A2037A
:105A100081E087B988B980E28AB90E9415190E948D
:105A20006A200E94051978948091EA0180FD0E9405
:105A300005198091EA0181FD0E944D178091EA01CC
:105A400080FF06C00E9490180E94AA1D1092EA01D1
:105A5000F8948091EC01811109C083B7816083BF04
:105A600078948895F89483B78E7F83BF78940E944A
:105A70009618DACF97FB072E16F4009407D077FD1F
:105A800009D00E94572D07FC05D03EF490958195D2
:105A90009F4F0895709561957F4F0895EE0FFF1FFA
:105AA0000024001C0BBE0790F691E02D0994AA1B60
:105AB000BB1B51E107C0AA1FBB1FA617B70710F0F9
:105AC000A61BB70B881F991F5A95A9F7809590952B
:105AD000BC01CD0108953F924F925F926F927F92E9
