:100000000C94D6020C94F5020C94F5020C94F502B3
:100010000C94F5020C94F5020C94F5020C94F50284
:100020000C94F5020C94F5020C94F5020C94F50274
:100030000C94F5020C94F5020C94F5020C94F50264
:100040000C94C4030C94F5020C94F5020C94F50284
:100050000C94CE1D0C94F5020C948A1D0C94F502A0
:100060000C94F5020C94F5020C94F5020C94F50234
:100070000C94F5020C94F5020C94F5020C94F50224
:100080000C94F5020C94F5020C94F502FF414243E6
:1000900044000000A1A2A3A5A6A7A8932B637069A2
:1000A0006E3F00000000000000002B636E6D693D94
:1000B000322C312C322C31002B6D6F72696E673D02
:1000C0003100000000002B636C69703D31000000BE
:1000D000000000002B646465743D312C31302C31FC
:1000E00000002B63616C6D3D3100000000000000DA
:1000F0002B6372736C3D31000000000000002B6325
:100100007573643D31000000000000002B637062D5
:10011000773D32362C22312200002B636C74733D04
:1001200030000000000000002B636D69633D302C3F
:100130003135002B636D6764613D36002B63706958
:100140006E3D223139373622002B6966633D322CF1
:1001500032002B63706D733D22534D222C22534D80
:10016000222C22534D22002B6364736362002B63A5
:10017000636C6B3F002B636F70733F002B63706287
:10018000723D3236002B637265673F002B637371DB
:10019000002B7674733D3100610068002B434D5491
:1001A000493A002B636D67643D002B636D67723DB8
:1001B000002B636D67733D002B434D54493A002B70
:1001C00044544D463A002B434C49503A003E002BD4
:1001D000434D47523A002B434F50533A002B435262
:1001E00045473A002B4353513A002B4350494E3A6E
:1001F000205245414459002B43434C4B3A00313D7A
:1002000052435620323D42535920333D434E5420F1
:10021000343D51534D20353D51414C20363D464EE5
:100220004420373D414444002055373D0020553699
:100230003D002055353D0055343D002055333D00EF
:100240002055323D0055313D00534B525942413A01
:100250000044454255470A007777772E736F6E66E4
:10026000792E706C004861726D6F6E6F6772616D90
:100270003A2057796C61637A6F6E79002044544D4F
:10028000460020434C495000547279623A20507520
:10029000626C69637A6E7900547279623A205072A6
:1002A000797761746E79005374617475733A204183
:1002B0006B7479776E79005374617475733A205A50
:1002C00061626C6F6B6F77616E7900557A79746BD0
:1002D0006F776E6963792000557A79746B6F776EEA
:1002E00069637920005379676E616C2047534D2014
:1002F00000437A61733A200041433830302D545323
:10030000002B435553443A002B434D532045525242
:100310004F523A002B434D45204552524F523A001E
:1003200042555359004E4F204449414C544F4E457D
:10033000004E4F2043415252494552002B434D54E9
:10034000493A002B44544D463A002B434C49503A0D
:10035000004D4F20434F4E4E4543544544004D4FB2
:100360002052494E47004552524F52002B434D47B1
:10037000533A004F4646004F4E004F4646005469E0
:100380006D653A2000433344340004434F44450034
:10039000000003414444000000000344454C0000B9
:1003A00000000458585858000000065245504F525B
:1003B00054000455534552000000044F50454E0070
:1003C000000005434C4F5345000004434C49500086
:1003D00000000444544D46000000035345540000FF
:1003E00000000454494D4500000006534B52594249
:1003F00041000544454255470000055354415254BD
:1004000000000453544F5000000030313233343573
:10041000363738392B2A2321210030313233343515
:1004200036373839414243444546003F3F3F3F3F1E
:100430003F3F3F3F3F0A3F3F0D3F3F3F3F3F3F3F33
:100440003F3F3F3F3F3F3F3F3F3F3F20212223026F
:1004500025262728292A2B2C2D2E2F3031323334D4
:1004600035363738393A3B3C3D3E3F004142434404
:1004700045464748494A4B4C4D4E4F5051525354B4
:1004800055565758595A3F3F3F3F113F6162636489
:1004900065666768696A6B6C6D6E6F707172737494
:1004A00075767778797A3F3F3F3F3F3F3F3F3F3F09
:1004B0003F3F3F3F3F3F3F3F3F3F3F3F3F3F3F3F4C
:1004C0003F3F3F3F3F3F3F3F3F3F3F3F403F012494
:1004D000033F5F3F3F3F3F3F3F3F3F3F3F3F3F3F48
:1004E0003F3F3F3F3F3F3F3F3F3F603F3F3F3F5BDF
:1004F0000E1C093F1F3F3F3F3F3F3F3F5D3F3F3F98
:100500003F5C3F0B3F3F3F5E3F3F1E7F3F3F3F7B98
:100510000F1D3F04053F3F073F3F3F3F7D083F3FE3
:100520003F7C3F0C063F3F7E3F3F3F40A324A5E872
:10053000E9F9ECF2C70AD8F80DC5E53F5F3F3F3F48
:100540003F3F3F3F3F3F3FC6E6DFC920212223A474
:1005500025262728292A2B2C2D2E2F3031323334D3
:1005600035363738393A3B3C3D3E3FA14142434462
:1005700045464748494A4B4C4D4E4F5051525354B3
:1005800055565758595AC4D6D1DCA7BF6162636427
:1005900065666768696A6B6C6D6E6F707172737493
:1005A00075767778797AE4F6F1FCE00011241FBEC5
:1005B000CFEFD0E4DEBFCDBF11E0A0E0B1E0E2EAD2
:1005C000F3E600E00BBF02C007900D92A03CB1071C
:1005D000D9F727E0A0ECB1E001C01D92A33FB2071C
:1005E000E1F70E94F72A0C94CF310C94000010928E
:1005F000DE011092DD011092DC010895CF93DF93AC
:10060000FC0101900020E9F7BF01615071094DEB39
:1006100057E00E949A26C8E0D0E0BE018DEB97E03B
:100620000E946F27811108C02596C83AFFE0DF07B6
:10063000A1F7DF91CF9108958FEFFBCF8091F60165
:1006400097E5980F8C5E943108F081E90C9441266F
:1006500080910E0290910F028F3F980729F001962A
:1006600090930F0280930E028AE08093CD01109246
:10067000CC010E94F70281E90C944126BC0187E974
:1006800093E00C94F12D8FEF9FE80197F1F700C0F4
:1006900000008FEF9FE80197F1F700C000008FEF97
:1006A0009FE80197F1F700C000008FEF9FE80197E6
:1006B000F1F700C000008FEF9FE80197F1F700C04D
:1006C0000000A8950895CF93DF93CDB7DEB72897A4
:1006D0000FB6F894DEBF0FBECDBF9091BB0791114E
:1006E0002BC090912102911127C09091BC079111CC
:1006F00023C0F99921C0209115022983309113025A
:10070000209114023A832B832091ED012C83EBE797
:10071000F7E02191225D223008F49F5F27E0E9395C
:10072000F207B9F79D838E836F8347E062ED7FE028
:10073000CE0101960E94412828960FB6F894DEBF9C
:100740000FBECDBFDF91CF910895809108028F5FDA
:10075000843618F48093080208951092080280915C
:10076000070291E0811190E090930702811102C08D
:1007700040980895409A089580917B03807F11F4FA
:10078000409A08954098089578941F920F920FB65A
:100790000F9211240BB60F922F938F939F93EF9389
:1007A000FF938091C8018F5F8093C801823128F048
:1007B0001092C8018FEF8093CA014F9B59C000B6B9
:1007C00001FC16C080911802811112C010922E05F2
:1007D00010922D0510923D0580B7826080BFF8947D
:1007E0008091C10080688093C10078940000459892
:1007F00034992FC0F8948091C10086FF29C0809160
:10080000C1008F7B8093C100789480911902882366
:10081000C9F080911702811104C08091F6018B38D4
:1008200089F4109219028091310590913205FC01F2
:10083000E651FA4F2081019690933205809331055D
:100840002093C600F8948091C10080648093C10019
:1008500078948FEF8093CB01FF91EF919F918F91CF
:100860002F910F900BBE0F900FBE0F901F901895F9
:10087000459AF8948091C1008F738093C10080B72E
:100880008D7F80BF78940000E4CFDF92EF92FF92DB
:100890000F931F93CF93DF938C01DC01ED90FC90BD
:1008A00048E050E068EF72E0C7010E94BB2DE7010D
:1008B00029968AE0D82EF701D08661EF72E0CE014A
:1008C0000E94C42D09900020E9F721976BE071E0A8
:1008D000CE010E94282E09900020E9F72197DE0121
:1008E000DD92CD014BE050E065EE72E00E94BB2D41
:1008F00080910601803230F59091C701992311F162
:100900002C96B4E68B9FC00111246FE170E00E9429
:100910003B2BCB014AE0BE010E94452E09900020EE
:10092000E9F72197FE01319685E288831082D8018C
:10093000ED93FC93DF91CF911F910F91FF90EF907A
:10094000DF9008958DE28C878D87FE013F968E871C
:10095000EDCFAF92BF92CF92DF92EF92FF920F93C3
:100960001F93CF93DF938C01FC01C081D1814CE0B8
:1009700050E068ED72E0CE010E94BB2D2C9688E01D
:10098000C82ED12CF12CE12CB12CA12CC6010E9437
:1009900059318F3F99F1FFEFAF1ABF0AE5E0CE0E54
:1009A000D11CF8EACF16FFE0DF0681F74AE0BE016E
:1009B000C5010E94452E09900020E9F721976E019C
:1009C0008FEFC81AD80A8FE288834AE0B601C701C0
:1009D0000E94452EF60101900020E9F7CF01019712
:1009E000F80191838083DF91CF911F910F91FF9048
:1009F000EF90DF90CF90BF90AF9008958FEFE81AFF
:100A0000F80ACCCFCF92DF92EF92FF920F931F9311
:100A1000CF93DF938C01FC01C081D1814CE050E089
:100A20006BEC72E0CE010E94BB2D2C9688E0E82E84
:100A3000F12CD12CC12CC7010E9459318F3F89F173
:100A4000C394F5E0EF0EF11C88EAE8168FE0F80693
:100A500091F74AE0BE018C2D90E00E94452E09904E
:100A60000020E9F721977E01EFEFEE1AFE0A8FE2F0
:100A700088834AE0B7018D2D90E00E94452EF70152
:100A800001900020E9F7CF010197F801918380835D
:100A9000DF91CF911F910F91FF90EF90DF90CF905A
:100AA0000895D394CECF1F93CF93DF9300D0CDB7CB
:100AB000DEB78AE2809349058BE495E09A838983C7
:100AC0001AE010934A05CE0101960E944504E9817F
:100AD000FA81CF0101969A8389831083CE01019612
:100AE0000E94A904E981FA81CF0101969A83898342
:100AF00010832091C20189819A8167EB72E02111F4
:100B000002C067EA72E00E94C42DE981FA81019077
:100B10000020E9F7DF011197FA83E9838AE08C93DB
:100B20002091000189819A8168E972E0222311F005
:100B300068E872E00E94C42D89819A81FC010190CD
:100B40000020E9F7CF0101979A8389832091010161
:100B500062E872E0211102C06CE772E00E94C42DCD
:100B6000E981FA8101900020E9F7DF011197FA830A
:100B7000E9838AE08C9380910A018F3FE9F465E66E
:100B800072E089819A810E94C42DE981FA810190E5
:100B90000020E9F7DF011197FA83E9838AE08C935B
:100BA00068E572E089819A810E94C42D0F900F90B0
:100BB000DF91CF911F910895909107011F929F930C
:100BC000909108011F929F93909109011F929F930A
:100BD0001F928F9387E191E09F938F938A818F93E8
:100BE00089818F930E945F2E0FB6F894DEBF0FBEEF
:100BF000CDBFCBCF0F931F93CF93DF9300D000D007
:100C00001F92CDB7DEB7FC0101900020E9F7BF01CC
:100C100061507109AE014F5F5F4F0E949A260AE84A
:100C20001FE0B801CE0101960E946F27811110C00C
:100C30000B5F1F4F083AFFE01F0799F70F900F90C7
:100C40000F900F900F90DF91CF911F910F9108950A
:100C50008FEFF4CF8FEF8093220284E190E0A0E049
:100C6000B0E08093850390938603A0938703B093AD
:100C700088030895CF92DF92FF920F931F93CF9333
:100C8000DF93CDB7DEB72A970FB6F894DEBF0FBE5D
:100C9000CDBF109279078FEF8093DE011092DD01B6
:100CA0001092DC0189ED96E00E943923182F809183
:100CB000D501811160C08091D6011F928F938091E0
:100CC000D7011F928F938091D8011F928F9388E351
:100CD00091E09F938F938BE091E09F938F930E947D
:100CE0005F2E8091D6011F928F938091D7011F9222
:100CF0008F938091D8011F928F9387E491E09F9307
:100D00008F9389E997E09F938F930E945F2E8DEFD9
:100D10000E942F2620910A010FB6F894DEBF0FBE65
:100D2000CDBF2F3F09F45AC03091D8016CE38091B8
:100D3000D70190E0369F800D911D1124409109014B
:100D400050E0269F400D511D112470910801209103
:100D5000070130E0769F200D311D1124241735073F
:100D60007CF18417950754F141E0281739070CF0FE
:100D700040E040931F021092D5018091C201882368
:100D800081F18DEF810F823060F187EF9FE00E944B
:100D90005931813031F562E00E9463030E941E03E5
:100DA0002A960FB6F894DEBF0FBECDBFDF91CF916C
:100DB0001F910F91FF90DF90CF90089541E0D9CF20
:100DC000841795074CF441E0281739070CF040E0F0
:100DD000842F80931F02CFCF80E0FBCF10921F02A1
:100DE000CACF8CEF810F823078F480911502883061
:100DF00058F061E081E00E9463030E941E030E949C
:100E000028030E94F702CCCF8091ED018111F1CF30
:100E1000EBE7F7E020E090E08191882329F02F5F55
:100E2000825D823008F49F5F87E0E939F807A1F717
:100E30002332F8F69630E8F61C3018F7E12FF0E090
:100E4000EC5DF84F0C944F2B3007010701076A083F
:100E50003A077008D408DF08580701070107E908B6
:100E600081E08093CD011092CC0163E080E00E948C
:100E70006303C7CF809115028F5F809315028CE2C8
:100E800091E090931402809313026AE173E080E38F
:100E900092E00E943E2E0E94530582ED0E942F2672
:100EA00082E08093CD011092CC0160E081E0DFCF41
:100EB00061E572E089E495E00E94C42D09E415E043
:100EC000F80101900020E9F78F010150110969E450
:100ED00072E0C8010E94C42DF80101900020E9F7DA
:100EE000CF0101976C0181EF9FE00E945931805D35
:100EF000F601808382EF9FE00E945931805DF60108
:100F0000818383EF9FE00E945931805DF6018283E7
:100F100084EF9FE00E945931805DF6018383860152
:100F20000B5F1F4F9AE0F92EF48265E472E0C8016E
:100F30000E94C42DF80101900020E9F78F010150B3
:100F4000110986EE9FE00E9459314AE0B80190E015
:100F50000E94452EF80101900020E9F78F01015011
:100F6000110960E472E0C8010E94C42DF8010190EB
:100F70000020E9F78F010150110987EE9FE00E94E0
:100F800059314AE0B80190E00E94452EF8010190E5
:100F90000020E9F78F01015011096BE372E0C801ED
:100FA0000E94C42DF80101900020E9F78F01015043
:100FB000110988EE9FE00E9459314AE0B80190E0A3
:100FC0000E94452EF80101900020E9F731978F012A
:100FD0000F5F1F4FF08267E372E0C8010E94C42DCB
:100FE000F80101900020E9F78F010150110989EE05
:100FF0009FE00E9459314AE0B80190E00E94452EDE
:10100000F80101900020E9F78F010150110962E316
:1010100072E0C8010E94C42DF80101900020E9F798
:101020008F01015011098AEE9FE00E9459314AE078
:10103000B80190E00E94452EF80101900020E9F7E8
:101040008F01015011096DE272E0C8010E94C42DA8
:10105000F80101900020E9F78F01015011098BEE92
:101060009FE00E9459314AE0B80190E00E94452E6D
:10107000F80101900020E9F78F010150110968E2A1
:1010800072E0C8010E94C42DF80101900020E9F728
:101090008F01015011098CEE9FE00E9459314AE006
:1010A000B80190E00E94452EF80101900020E9F778
:1010B000CF010197FC01F192CF016EEF71E00E9428
:1010C000C42D6AE173E080E392E00E943E2E82ED3F
:1010D0000E942F2682E08093CD011092CC0191CE08
:1010E000809115028F5F809315028CE291E09093BE
:1010F0001402809313026AE173E080E392E00E949D
:101100003E2E6BE273E0FB0101900020E9F7BF0186
:1011100061507109AE014F5F5F4F8BE293E00E9417
:101120009A2688E0C82ED12CB601CE0101960E94E5
:101130006F27182F811136C0F5E0CF0ED11C88EA39
:10114000C8168FE0D80681F76BE273E089E495E07A
:101150000E943E2E6AE671E089E495E00E94282E06
:101160006DE671E0111102C060E771E089E495E07D
:101170000E94282E82ED0E942F2682E08093CD01CE
:101180001092CC018091BB07811109C0809121028E
:10119000811105C08091BC07811101C08FB3612FFF
:1011A00082E065CE1FEFD0CF6AE173E080E392E08A
:1011B0000E943E2E6FE871E089E495E086CF6AE1F7
:1011C00073E080E392E00E943E2E1092190388E8BB
:1011D0007FCF63E882E00E947826811112CE89E1F8
:1011E0008093CD011092CC0183E00E942F2609CE7E
:1011F000809106029091840390FF06C0883C88F499
:101200008F5F809306020895883C60F063E882E077
:101210000E947826811103C083E00E942F2610923D
:10122000060208958233D8F363E882E00E947826AC
:101230008111F5CF82E0F1CFCF93DF9387E693E082
:101240000E94FA059091C201992331F0811104C0E6
:1012500080E0DF91CF91089590911F02992311F0C2
:101260008823B1F38091670390910101911129C006
:10127000882319F084E80E942F2680910001813094
:1012800011F48FEFE6CF67E673E0FB0101900020D9
:10129000E9F7BF01615071094DEB57E087E693E034
:1012A0000E949A26C8E0D0E0BE018DEB97E00E9434
:1012B0006F278111E6CF2596C83AFFE0DF07A1F737
:1012C000C7CF882319F084E80E942F2681E09091EF
:1012D0000001913009F080E08195BBCF8CE38093D1
:1012E000F8011092F1011092F0011092EA011092AF
:1012F000EB011092DF0108958CE38093F8011092C6
:10130000C0010895109294031092F1011092F0011F
:101310001092F5011092F4011092F60110922C0532
:101320008CE38093F8011092ED0108950E948209E8
:101330001092F5011092F4011092F60110924805F6
:1013400010924C0310922C05109293031092F2010C
:101350001092C0011092EE0108950E94960986E94C
:101360008093050110921702109216021092E60166
:101370001092E501109225021092E4011092E3010F
:101380001092DF011092F30183E68093060160ED75
:101390008DEB0E9455266DE989E80E94552667EA83
:1013A0008EE90E94552664ED82ED0E94552610922A
:1013B000C7010895809118028D3051F41092EC010C
:1013C0001092C0011092ED0186E48093F801089517
:1013D00080911802863059F52091EC012F5F2093FF
:1013E000EC0180911A0290911B02853032E0930744
:1013F00061F08A3331E0930741F0833032E09307A4
:1014000021F080519240029770F48CE38093F801B0
:101410008091ED01223080F11092EC011092C00118
:101420001092ED0108958CE38093F801F5CF80913F
:101430001802843021F58CE38093F80110922C057A
:10144000809199038E3331F480912D0590912E0572
:101450000A9720F08091ED01811107C01092EC01F4
:101460001092C0010E94AD09DBCF9091EC019F5F0B
:101470009093EC01923080F60E942F26D1CF80917C
:1014800018028530B9F480911C0290911D028A30B7
:10149000910539F09C012D7F2D30310511F04E97CB
:1014A00069F41092EC018CE38093F8011092C00172
:1014B0000C94AD09809118028091180208950F9341
:1014C0001F93CF93DF93D0911802C091F601CD39CD
:1014D00009F4B5C008F070C0C43909F477C238F512
:1014E000CE3809F416C388F4CB3809F4A2C0CD383D
:1014F00009F475C11092F5011092F4011092F601F1
:10150000DF91CF911F910F910895C13909F48BC1DB
:10151000C33981F7D13009F403C380914D038F5F44
:1015200080934D03833008F0FBC28C2FCBC1C839A8
:1015300009F4EDC188F4C53909F450C2C639D1F6B1
:1015400086E9D13009F034C181E00E946E09109221
:10155000F20110929403CECFCA3909F4B7C108F44E
:10156000EAC1CC3939F6D13029F68DED91E00E94EF
:101570003E03FC01892B09F4BDCF27812C3209F0F1
:10158000BCC1379680818C3209F0319680818C32D3
:1015900009F031964AE050E070E060E0CF0101963A
:1015A0000E946C2B662329F08DEF860F823008F0A5
:1015B000A6C10E94AD099ECFC93AC8F4C53A08F049
:1015C000A9CFC03A09F4A6CF58F4CE3909F4D2C055
:1015D000CF3909F08FCFD13009F044C18EE8E8C08F
:1015E000C13A09F453C1C33A09F494CF83CFC13D42
:1015F00090F4CD3B08F422C2D63009F060C280914D
:101600001A0290911B028134914009F45BC28C2F25
:101610000E942F265CC2C53D09F45BC2CC3F09F095
:1016200069CF8DEC91E00E943E03892B09F472CFC3
:10163000C0CF8CE80E942F261092E0015BCFD13002
:1016400009F058CF87EF91E00E943E03009709F41C
:1016500051CF62E270E00E94332E009709F44ACF26
:10166000EC01219662E270E0CE010E94332E8C01E3
:101670006CE270E0CE010E94332E0115110509F4D1
:1016800039CF009709F436CFEC012196C017D10766
:1016900008F030CF6AE370E0CE010E94332E00974D
:1016A00009F428CF8017910708F024CFFE0101909C
:1016B0000020E9F73197EC1BFD0B389708F41ACF9F
:1016C00088E0FE01ABE0B1E001900D928A95E1F770
:1016D0001092130170910A017F3F19F410921F02BA
:1016E00009CF20910B012053330BEAE0E29FC001A8
:1016F000E39F900D112420910C012053330B820F96
:10170000931F6CE3689FA001699F500D11242091E5
:101710000E012053330BE29FC001E39F900D112473
:1017200020910F012053330B820F931F480F591F35
:101730002091090130E0769F200D311D1124709118
:1017400008018091070190E0769F800D911D112482
:10175000821793075CF04217530724F0841795070C
:101760000CF0BCCF8FEF80931F02C4CE42175307FB
:10177000ACF3B4CFD13099F48AEE91E00E943E03ED
:10178000892B59F08FEF8093160210921E0281E987
:101790000E942F2610920502ADCE8DE8F9CFD530EC
:1017A00051F480911C0290911D020E9731F48EE944
:1017B0000E942F269FCED43021F0809118028038CD
:1017C000B1F7809105028F5F80930502843118F094
:1017D0000E94AD09DFCF84E18093F801E8CFD130DA
:1017E00061F48FEF8093160210921E0281E90E942D
:1017F0002F2682E38093F8017DCED53079F4809155
:101800001C0290911D028031910521F48FEF80938D
:101810001E0270CE0E9721F48DE8CACFD430E1F3CA
:1018200080911802F9CFD13011F48FE9C1CFD630B1
:1018300089F480911A0290911B028A3321E0920769
:1018400021F08530924009F055CE8CE38093F80169
:1018500081E9AECFD430E1F380911802803809F0ED
:1018600049CEF6CFD63081F480911A0290911B02B6
:101870008A3321E0920721F08530924009F03ACE78
:1018800084E18093F801D1CF8AE0FBCFD13049F0D9
:10189000D53081F480911C0290911D02039702972C
:1018A00048F48091F3010E942F261092F3011092C8
:1018B0004D030AC080914D038F5F80934D038330A9
:1018C00018F481EA0E942F2682E094CFD13089F467
:1018D00084EE91E00E943E03009709F40BCE4AE0AB
:1018E00050E070E060E006960E946C2B6093060169
:1018F00001CE83E680930601FDCD389643CE6B7F03
:10190000613009F0F7CD8FEF8093C701F3CDD1306F
:1019100049F0D53051F480911C0290911D024597F9
:10192000029718F41092E601E5CD8091E6018F5FF1
:101930008093E601DFCDD13009F042C046E050E0AF
:1019400066ED71E089E993E00E94E32D892BC1F5F2
:1019500086ED91E00E943E036CE270E00E94332E1F
:10196000009771F16CE270E00E94332E009741F114
:1019700062E270E00E94332E009711F18C010F5F3C
:101980001F4F62E270E0C8010E94332E0097C1F041
:1019900008171907A9F0801B910B8C30910514F0E2
:1019A0008BE090E0EC01DD27AE01B80185E292E02A
:1019B0000E94182ECB5DDD4F18821092E5019ACD62
:1019C0008091E5018F5F8093E50194CDD63009F4D5
:1019D0007BCF84E9D13009F075CF76CFD13021F0BB
:1019E000809118028C30A1F48FEF8093F201109255
:1019F0004D038091010181117DCD8CE291E09093A6
:101A0000D3018093D20184E18093F80184EAD0CE9F
:101A1000D43021F080911802803849F480914D0330
:101A20008F5F80934D03833010F485E9C1CED330AE
:101A300011F41092F20110924D035CCDD130A9F552
:101A40008FEC91E00E943E036AE070E00E94332E2A
:101A5000009741F1EC0121966DE070E0CE010E940B
:101A6000332E0097F9F08C1B9D0B97FD01969595F1
:101A70008795893CA8F48093EF0141E552E060919D
:101A8000EF01CE010E94782981ED0E942F268091DE
:101A9000F6018C5E0E942F268FEF8093EE012ACDF7
:101AA00088ECE9CF1092EE0125CDD63021F01092CE
:101AB000EE018CE39FCE8C2F0E942F26F8CFD430DE
:101AC00009F4A5CD80911802803809F4A0CD89E1F0
:101AD00091CED43029F080911802803809F0ABCF34
:101AE0001092940380914D038F5F80934D03833058
:101AF00010F485ED5DCE10924D0380E00E946E09DA
:101B00001092F201109294031092F1011092F001E0
:101B1000F1CCD13029F08EE80E942F2684E16ACEE4
:101B20008091F3010E942F268091F301895A84311C
:101B300008F0BBCE1092EE01B8CE0F931F93CF9357
:101B4000DF938091180280911802803821F08091F3
:101B5000F701882381F080E8809318020E945F0AD1
:101B600082E38093F8018FEF8093F701DF91CF91AB
:101B70001F910F91089580911802813829F52091C5
:101B800028053091290580912D0590912E05281763
:101B9000390761F440912805509129056AEE75E0F6
:101BA00087E993E00E940B2E892B01F380912C058D
:101BB0008111DCCF80E8809318028FEF8093F701CA
:101BC00082E38093F801D2CF809118028A3009F025
:101BD00042C086EC91E00E943E0362E270E00E9407
:101BE000332E009739F18C010F5F1F4F62E270E0D6
:101BF000C8010E94332E0097E9F0EC01C01BD10B05
:101C0000C031C0F4DD27AE01B80187E693E00E9441
:101C1000182EC959DC4F18828091E501811110926C
:101C2000E50180910601882311F0833619F480E1E3
:101C30008093060187E90E9441268091F601895A26
:101C4000843110F41092EE011092F5011092F4011B
:101C50001092F6018BCF80911802833089F480E0D6
:101C60000E946E091092F201109294031092F101F9
:101C70001092F0018091F601853D09F077CFE4CF15
:101C8000809118028230D1F48091F601853D11F4E3
:101C90000E945F0A8091EA0181110BC08AE580935E
:101CA000EB018FEF809394031092F1011092F001F9
:101CB0005DCF8093EB011092EA01F3CF8FEB91E0BF
:101CC0000E943E03009701F1FC013796819180321A
:101CD000E9F390910101911114C0813391F48FEFD8
:101CE0008093220284E190E0A0E0B0E0809385033D
:101CF00090938603A0938703B09388038BE080932F
:101D00004E031092180232CF809118028C3071F479
:101D100080910101882309F429CF1092F20186E90C
:101D2000DF91CF911F910F910C942F268091180273
:101D3000893061F48091F601853D11F40E945F0ABB
:101D400080E00E946E0910929403AECF8091180239
:101D5000873081F380911802883029F588EB91E073
:101D60000E943E036CE270E00E94332E0097A1F0C7
:101D70004AE050E070E060E001960E949A2C9B01DE
:101D8000215031092431310538F488EA860F0E9448
:101D90002F2681E08093F8018091F601895A8431E1
:101DA00008F450CFE3CE809118028E3011F484E114
:101DB000F1CF8091ED0181110E94DA0980912D050A
:101DC00090912E05892B09F4D1CE80911802882399
:101DD00009F4CCCEDF91CF911F910F910C945F0A43
:101DE000811105C0862F0E942F2680E00895109251
:101DF000F5011092F4016093F6014093F301C901DB
:101E00000E94591D8FEF08950F93CF93DF939FEF9B
:101E100090932C0510929303811149C085E0809323
:101E2000CD011092CC0182ED8093ED01909351028F
:101E30004AE06DEB77E081E592E00E94E32600E066
:101E400020E04DEB57E060E372E081E592E00E9414
:101E5000B32A49E455E0FA0101900020E9F7AF0107
:101E60004150510969E475E00E94FE288155924075
:101E70008093EF01C091EF01C15080915102C81BC6
:101E800046E050E061EB71E08CEE95E00E94BB2DE6
:101E90004AE062EF75E08C2F90E00E94452E8AEFB9
:101EA00080930401DF91CF910F910C94751D85E013
:101EB0008093CD011092CC0183ED8093ED010091D0
:101EC0004905909351024AE06DEB77E081E592E09D
:101ED0000E94E32620E04DEB57E060E372E081E5ED
:101EE00092E00E94B32AEC0140914A0550E06BE475
:101EF00075E00E94182E80914A058C0F9D2F911D30
:101F0000B5CFEF92FF920F931F93CF93DF9300D043
:101F10001F92CDB7DEB79091EE0191114DC0809127
:101F2000ED01811149C080919403811145C08091D8
:101F3000F201811141C08091F60181113DC0809173
:101F4000F801811139C020912C0581E0211101C0D7
:101F500080E0811132C02091C10026FD2EC0209169
:101F60001702222351F12091180201E0211125C00E
:101F700010917B07E12EF12C1C3909F49BC208F06B
:101F800072C0113909F4B4C330F51C3809F494C394
:101F9000B0F41A3809F44AC308F061C3193809F4D7
:101FA000BDC380E00F900F900F90DF91CF911F91F4
:101FB0000F91FF90EF90089581E000E0D9CF1E3897
:101FC00009F424C308F482C31F3809F4C7C31039C5
:101FD00041F78FEFE7CF163909F4CFC1B8F41439C0
:101FE00009F407C308F0F3C11339D9F68091BB0790
:101FF00081110AC080912102811106C08091BC0725
:10200000811102C0F99B96C383E947C1183909F4CD
:1020100077C208F486C1193909F49BC21A3909F646
:1020200090919403911115C02091F0013091F1012C
:10203000232B79F49091230291110BC090912C05E0
:10204000911107C0811105C08091C001882309F456
:1020500023C280910601833611F08111BACF80E14D
:1020600080930601B6CF113D08F081C01D3B08F0FA
:102070002BC1143A09F4B9C1B0F41D3909F492C264
:1020800022E6210FE22FF0E0EE56FF4F45915491EA
:10209000FEE02F9F9001112424563F4F612F802F87
:1020A0000E94F00E96CF193A58F3911196C0809184
:1020B000C701882309F491C08091940381118DC0D8
:1020C0008091F0019091F101892B09F086C08091F7
:1020D000F801811182C08091C00181117EC0809180
:1020E000ED0181117AC08091F601813909F475C042
:1020F0008091BB07811171C08091210281116DC057
:102100008091BC07811169C0F99967C061E081E0E5
:102110000E947826811161C064ED82ED0E947826CC
:1021200081115BC067E985E90E947826811155C05D
:10213000002309F452C01092F5011092F40110939B
:10214000F6018FEF8093EE0146E050E06AEA71E01D
:102150008CEE95E00E94BB2D4AE062EF75E0C7016E
:10216000885A91090E94452E0E94751D32CF143D58
:1021700009F452C080F4113D11F544E252E06AE1E5
:1021800073E081E592E00E949529009709F05CC018
:102190001092EE011ECF173D09F482C01D3F09F4D5
:1021A000E7C2153D09F0FDCE8091C701882329F0D3
:1021B0008091F801882309F438C185ED6EC08091C3
:1021C000940381110AC08091F0019091F101892B53
:1021D00021F48091F801882311F0812F5EC0809155
:1021E000BB078111FACF809121028111F6CF809136
:1021F000BC078111F2CFF999F0CF002371F310924F
:10220000F5011092F4011093F60181E0133D09F0FD
:1022100080E00E94040FDDCE10922C054091EF016A
:1022200061E572E08AEE95E00E94CF2A8091EF018D
:1022300090E0880F991F0196FC01E751FA4F2AE1BF
:1022400020830E94401DC5CE9E012F5F3F4FAE01EF
:102250004E5F5F4FBE016D5F7F4F0E94EC299E0174
:102260002F5F3F4FAE014E5F5F4FBE016D5F7F4FEF
:102270000E940F2A2B812093D8012A812093D70115
:1022800029812093D601909379038093780341EAC2
:1022900069ED76E00E94AA2887ED0E942F2699CE4C
:1022A0008091BB078111F8CF809121028111F4CF79
:1022B0008091BC078111F0CFF999EECF8BE080932C
:1022C0004E030E943A0664CF911187CF8091940308
:1022D000811183CF8091F0019091F101892B09F058
:1022E0007CCF80912302811178CF80912C058111C0
:1022F00074CF002309F471CF1092F5011092F4010C
:102300001093F60146E050E063EA71E08CEE95E050
:102310000E94BB2D4AE062EF75E0C7018C5B91091A
:1023200021CF8091BB0781110AC0809121028111C8
:1023300006C08091BC07811102C0F99B02C087E9E9
:10234000ACCF8BE080934E030E941C09882361F080
:1023500080910101882379F08CE991E00E943E038D
:10236000892B11F40E942A0686E90E942F268FEFFE
:102370008093DF0117CE85E9F8CF8091ED018111BF
:1023800018C080919403811114C08091F6018111CD
:1023900010C080912C0581110CC08091C10086FD78
:1023A00008C080911702882321F0809118028823A9
:1023B00011F086E972CF1092F5011092F40186E9CE
:1023C0008093F6018AE991E00E94591D02CE85E9C9
:1023D000002309F462CF1092F5011092F40185E90F
:1023E0008093F60188E991E0EFCF8091F80188238E
:1023F00011F084EA52CF8091C10086FDFACF80911E
:1024000017028823B1F3809118028111F2CF8091D5
:10241000F6018111EECF1092F5011092F40184EAD9
:102420008093F60181E991E0CFCF809194038111EF
:10243000D0CD002309F4C1CE1092F5011092F40121
:1024400085ED8093F60185E180934E0384E68093C9
:10245000EC056BE273E08DEE95E00E943E2E8BE280
:1024600093E0FC0101900020E9F7CF018C529340EA
:102470008F5F90E0FC01E451FA4F2BE320838351FE
:102480009A4FFC0110820E94751D8CE291E090939E
:10249000F1018093F0019DCD8AE9002309F4FDCE7E
:1024A0001092F5011092F4018AE98093F6018CE80C
:1024B00091E08ACF9091940391118BCD2091F001FE
:1024C0003091F101232B09F084CD909123029111D9
:1024D00080CD90912C0591117CCD81117ACD809188
:1024E000C001811176CD8CE9002309F4D6CE10927B
:1024F000F5011092F4011093F60185E891E064CFA4
:1025000090919403911114C02091F0013091F10148
:10251000232B71F49091230291110AC090912C0504
:10252000911106C0811104C08091C001882319F067
:102530001092E6014ECD88E9002309F4AECE109248
:10254000F5011092F40188E98093F6018CE791E09F
:102550003BCF90919403911114C02091F0013091E0
:10256000F101232B71F49091230291110AC09091F3
:102570002C05911106C0811104C08091C0018823EF
:1025800019F01092E50125CD89E9002309F485CEE3
:102590001092F5011092F40189E98093F60185E724
:1025A00091E012CF90919403911113CD2091F001FD
:1025B0003091F101232B09F00CCD90912302911160
:1025C00008CD90912C05911104CD811102CD8091FF
:1025D000C0018111FECC8DE9002309F45ECE10927A
:1025E000F5011092F4018DE98093F6018EE691E0F9
:1025F000EBCE84E9002309F450CE1092F50110923D
:10260000F4011093F60187E691E0DECE8EE8002318
:1026100009F443CE1092F5011092F4011093F601E3
:1026200080EA8093F30182E591E0CECE8BE80E94B0
:102630002F2684E18093230210922E0510922D05FF
:1026400010923D0580B7826080BFF8948091C100F0
:1026500080688093C100789400004598BACC80913E
:10266000E0018111B6CC80912302882311F08BE820
:1026700014CE8091C10086FDFACF10922E051092E3
:102680002D0510923D0580B7826080BFF89480913F
:10269000C10080688093C100789400004598109232
:1026A000F5011092F4018BE88093F60184E18093A8
:1026B000E00189E491E088CE8FEF809317028EE9E4
:1026C0000E942F2688E28093F80183CC8DE80023B6
:1026D00009F4E3CD1092F5011092F4018DE8809396
:1026E000F6016CE371E08CEE95E00E94C42D3CCDC8
:1026F00080910402882311F08FE9CFCD8FEF809372
:10270000040281E9002309F4C8CD1092F50110926A
:10271000F4011093F60183E391E056CE0E949D0DE3
:1027200080911802813819F084E18093040110929D
:1027300018024FCC002309F467CC1092F5011092D7
:10274000F40183E98093F60168E271E08CEE95E094
:102750000E94C42D8FE88093F30106CD809116026C
:10276000882309F436CC84E90E942F2680E995CD90
:102770008091BB0781110AC080912102811106C09E
:102780008091BC07811102C0F99B02C08DEF85CDFD
:102790000023E1F31092F5011092F4018DEF809384
:1027A000F60169E977E08CEE95E00E943E2EDCCCE4
:1027B0008091F801882339F081508093F8018111CC
:1027C00002C01092F7018091C3019091C40100975B
:1027D00029F001979093C4018093C3018091D201A5
:1027E0009091D301009771F001979093D30180935A
:1027F000D201892B39F48091F201882319F086E9FE
:102800000E942F268091E0018823C1F0815080939F
:10281000E001811113C01092F5011092F4011092A1
:10282000F6018BE80E942F2610921902F8948091ED
:10283000C1008F7B8093C100789400000E94141F18
:10284000882319F08AE80E942F268091EB018823C3
:1028500041F081508093EB01811103C086E90E9411
:102860002F268091F0019091F101009771F001976E
:102870009093F1018093F001892B39F482E00E945A
:102880006E091092F20110929403809103028F5FFF
:1028900080930302803309F04EC08AE90E944126EA
:1028A00080912302882319F0815080932302809124
:1028B000C701882309F45EC080910601833611F0B8
:1028C000811158C08091E7019091E801883522E09C
:1028D000920750F40196883522E0920709F443C02C
:1028E0009093E8018093E7018091E601863020F41F
:1028F0008091E501843110F00E94AD098091C601FC
:10290000882339F081508093C601811102C00E9452
:10291000AD098091C701811132C08091E30190918E
:10292000E40101969093E4018093E301813B94409C
:1029300050F10C94AD09843311F48CE9AFCF883396
:1029400011F489E9ABCF8C3311F488E9A7CF803536
:1029500008F4A6CF8091C70110920302882309F4DE
:102960009FCF8DE99BCF1092E8011092E7010E9462
:10297000AD09BACF1092E8011092E701B5CF1092DD
:10298000E4011092E301089580911802882309F46C
:1029900057C089E80E942F2680919303882329F04D
:1029A00084ED0E942F26109293038091C701882303
:1029B00009F455C08091ED01882309F450C080913D
:1029C0000102909102020196883823E1920708F0F3
:1029D0003CC090930202809301028091F601909195
:1029E000F201882309F4A8C02091000282136AC072
:1029F00091116AC08B3831F09CE2980F44EF51E09E
:102A0000923010F440EE5EE29EE2980F923010F4A5
:102A10004CED55E02091FE013091FF012F5F3F4FBB
:102A20002417350708F53093FF012093FE0110921B
:102A3000FD011092FC018091F6018093000208953F
:102A40000E9469218111A5CFA7CF10920202109296
:102A5000010284E0809318020E94DA09BECF10922E
:102A6000020210920102B9CF1092FF011092FE01F2
:102A70008C3F29F1863901F193E7980F9230E0F00D
:102A80009DE6980F9230C0F092E6980F9A30A0F031
:102A900097E5980F983280F01092F3010E94960902
:102AA0001092F5011092F4018CEF8093F6011092D0
:102AB000EC050E94751DBBCF8093F301EFCF0E9400
:102AC000AD09B5CF9923C1F180911802811134C0AD
:102AD000F89480912D0590912E0578942091FC0119
:102AE0003091FD012817390720F49093FD01809360
:102AF000FC018091FC019091FD010A9708F49BCFA5
:102B00008091FE019091FF010196843F21E09207A0
:102B100028F49093FF018093FE018DCF1092FF0166
:102B20001092FE0181E00E946E091092FD01109248
:102B3000FC010E94AD097FCF1092FF011092FE01AF
:102B4000992309F474CF77CFBF92CF92DF92EF929F
:102B5000FF920F931F93CF93DF9380917B07909108
:102B6000EE0191112BC09091ED01911127C0909130
:102B70009403911123C09091F20191111FC0909183
:102B8000F60191111BC09091F801911117C090911D
:102B90002C0521E030E0911102C030E020E0232B31
:102BA00069F49091C10096FD09C090911702992394
:102BB00029F090911802992309F478C0883809F017
:102BC00077C065C08091BB07811161C080912102EF
:102BD00081115DC08091BC07811159C0F99957C01E
:102BE0008AE2809349050AE415E085E0D82E93E255
:102BF000C92E2AE0B22EC0911903CD9D7001112477
:102C000088E0E80EF11CC7010E9459318F3F41F165
:102C10004FEFB801C7010E944B27E801C80FD11D33
:102C2000C8828E010E5F1F4FB982809119038F5F9A
:102C3000809319039E012D5E3F4F295E354050F46D
:102C40008F3FC9F61A8282ED0E942F2681E0809381
:102C5000C00120C08F3FB1F388E80E942F26F2CF39
:102C6000CF5FC0931903CF3F31F6E5E009341E076B
:102C700091F0F801108282ED0E942F2681E080936E
:102C8000C00109C08091C001882309F49BCF88E866
:102C90000E942F26CFEF8C2FDF91CF911F910F91A4
:102CA000FF90EF90DF90CF90BF900895883851F358
:102CB000C0E0F1CF08950E94451C0E94F8080C94D2
:102CC000EE1CCF93DF931F92CDB7DEB78091BB0789
:102CD000811131C08091210281112DC08091BC07EA
:102CE000811129C0F99927C0198291E080912202AF
:102CF000811101C090E081E04091850350918603ED
:102D00006091870370918803452B462B472B09F46C
:102D100080E0981711F081E0898385E090E00E94BF
:102D200059319981891739F041E065E070E0CE01B1
:102D300001960E9441280F90DF91CF9108950E9443
:102D40005B160E94D81380914E03882331F0815086
:102D500080934E0381116CC0409A80911302909130
:102D60001402009739F00197909314028093130294
:102D7000892B11F41092150280917B07882309F4A6
:102D800082C09EE2980F923008F076C090911202B5
:102D9000981372C0809110029091110286399105AA
:102DA00008F048C001969093110280931002809120
:102DB000ED01882309F489C080910A0290910B02E9
:102DC0008C3221E0920708F061C0019690930B02CB
:102DD00080930A028091DE01882309F48CC08091DF
:102DE000DC019091DD018436910508F075C0809179
:102DF000DC019091DD0101969093DD018093DC016F
:102E00008091CD01882309F489C09091CC019F5F06
:102E10009093CC01963028F01092CC018150809391
:102E2000CD018091CC01823008F476C0409A08959B
:102E3000409893CF63ED82ED0E94552680910C025D
:102E400090910D028F3F980729F0019690930D0203
:102E500080930C0281E90E94412610921502109283
:102E6000140210921302109211021092100210928A
:102E700012021092ED019BCF809312021092110268
:102E80001092100294CF10921202F8CF10920B02FF
:102E900010920A020E94F7021092ED011092EC01CA
:102EA00010922C051092C001809109028F3F19F0F9
:102EB0008F5F8093090280910902833008F48ACFE2
:102EC000109209020E94AD0985CF10920B02109258
:102ED0000A02109209027ECF8FEF8093DB01F894F3
:102EE00088E198E00FB6F894A895809360000FBE33
:102EF00090936000FFCF8091D9019091DA01892BE6
:102F000009F47ECF8091D9019091DA0101979093D5
:102F1000DA018093D90174CF409808958091C70158
:102F2000811102C040981CC080914E038111FACFDC
:102F3000809106018031B0F48091FB018F5F809316
:102F4000FB01823318F081E08093FB018091FB014B
:102F5000883241F38B3231F38E52843018F3409A29
:102F60000C9461161092FB01F1CF0E94E41C0E94A8
:102F7000C4140C94DD27F89480916E008D7F8093AB
:102F80006E00789400008091CB01811109C0F89403
:102F900080916E00826080936E00789400000895A6
:102FA0001092CB018091CA01882329F081E080939F
:102FB000C9011092CA01F89480916E0082608093DA
:102FC0006E00789400008091C90180FF33C0809129
:102FD000FA018F5F8A3079F18093FA010000F8944A
:102FE00000B601FE26C08091C1008F778093C1009A
:102FF000789480912D0590912E05892B11F1809167
:103000003D058F5F80933D058333D8F0459A8091CD
:10301000C1008F778093C10080B78D7F80BF1092F1
:1030200096031092950310922B0510922A05109288
:103030009203789408951092FA0183E08093C90175
:10304000CDCFF8948091C10080688093C1007894BE
:103050000000EFCFA89582E084BD83E085BD8FE3BB
:1030600087BDEEE6F0E080818260808383B7817F58
:1030700083BF0895CF93DF9344E050E061E070E0B8
:103080008FE493E00E94493180914F0381508E3F3D
:10309000F0F081E48093BD0780934F0382E4809336
:1030A000BE078093500383E48093BF07809351034E
:1030B00084E48093C00780935203F999FECF44E0E3
:1030C00050E061E070E08FE493E00E9461318EEFA8
:1030D0009FE00E9459318F3F09F4D2C080930001D4
:1030E0008FEF9FE00E9459318F3F09F4D4C0809345
:1030F00001018AEF9FE00E94593180930A018BEF12
:103100009FE00E945931809309018CEF9FE00E945B
:103110005931809308018DEF9FE00E9459318093CF
:10312000070189EF9FE00E9459318F3F09F4BEC02B
:103130008093D40185EF9FE00E945931C82F86EF1C
:103140009FE00E945931CF3F09F0B3C08F3F09F093
:10315000B0C080E293E0909303018093020181E08C
:103160009091D401911101C080E0609102010E9410
:10317000630380910A018851873E78F080910901AC
:103180008C53833C50F0809108018851873E28F091
:10319000809107018C53833C28F5F999FECF6FEF9E
:1031A0008AEF9FE00E947131F999FECF6FEF8BEFAC
:1031B0009FE00E947131F999FECF6FEF8CEF9FE095
:1031C0000E947131F999FECF6FEF8DEF9FE00E9461
:1031D00071318FEF80930A01809309018093080178
:1031E0008093070110921F0287EF9FE00E945931E0
:1031F0008F3F09F46AC08093C201C0EFDFE0CE01C7
:103200000E9459318F3F31F4F999FECF60E0CE0131
:103210000E9471312196C53F8FE0D80781F7C6EE35
:10322000DFE0CE010E9459318F3F31F4F999FECF92
:1032300060E0CE010E9471312196CD3E2FE0D20791
:1032400081F710921502109214021092130210923C
:10325000ED018091F9018F3F19F08F5F8093F901A3
:10326000F999FECF6091F9018CED9FE00E947131D8
:10327000F999FECF62E080E0DF91CF910C94630377
:1032800081E080930001F999FECF61E08EEF9FE02D
:103290000E94713125CF81E080930101F999FECF21
:1032A00061E08FEF9FE00E94713123CF1092D40133
:1032B00041CF982F8C2F90930301809302010197A7
:1032C0008032934008F045CF4ACF1092C20195CF8B
:1032D000CF92DF92EF92FF920F931F93CF93DF93E2
:1032E000CDB7DEB7A5970FB6F894DEBF0FBECDBF42
:1032F00010917B07133809F4A7C030F41230F1F0B5
:1033000008F05AC080E049C0153809F4A8C108F493
:10331000D2C0163809F41CC21738A1F78091BB0738
:1033200081110AC080912102811106C08091BC07E1
:10333000811102C0F99B65C287E80FC08091BB076D
:1033400081110AC080912102811106C08091BC07C1
:10335000811102C0F99B04C082E00E942F261CC08C
:1033600081E48093BD0780934F0382E48093BE077E
:103370008093500383E48093BF078093510384E4D8
:103380008093C0078093520364E081E090E00E9444
:10339000682883E380934E038FEFA5960FB6F894C9
:1033A000DEBF0FBECDBFDF91CF911F910F91FF9078
:1033B000EF90DF90CF9008958091BB0781110AC0F4
:1033C00080912102811106C08091BC07811102C049
:1033D000F99B02C0812FC1CF0DEF010F40E250E0F9
:1033E0006FEF70E08DEB97E00E94212E011120C05D
:1033F00081E48093BE0780934F0382E48093BF07EC
:103400008093500383E48093C0078093510384E446
:103410008093C107809352031092C2071092220238
:1034200010928503109286031092870310928803EE
:1034300060E220E2029FC00111240E94682881E01E
:10344000810F0E942F26A5CF8091BB0781110AC052
:1034500080912102811106C0F090BC07F11002C0DA
:10346000F99B02C083E879CF10E000E0C8010E9418
:103470005931F801E457FF4FE4918E1711F0FF2402
:10348000FA940F5F1F4F0630110581F708E010E036
:10349000C8010E9459318F3F41F40F5F1F4F083A16
:1034A0008FE01807A9F7FF2011F083E056CF0E94A4
:1034B0003A18409A71CF8091BB0781110AC0809160
:1034C0002102811106C08091BC07811102C0F99BC5
:1034D00002C084E842CFD0901F02D1105DCF8E0190
:1034E0000B5E1F4F67E673E0C8010E943E2EF80195
:1034F00001900020E9F7BF01615071094DEB57E0E1
:10350000C8010E949A2680910001813091F028E044
:10351000E22EF12CB7018DEB97E00E946F2781110D
:103520005EC0F5E0EF0EF11C28EAE2162FE0F2068D
:1035300089F78091D401882329F0DD2009F452C055
:10354000DD24DA9481E09091D401911101C080E0F2
:1035500061EF7FE00E946C2881E0D11080E062EF93
:103560007FE00E946C288091D401882359F1D1100A
:1035700029C0F80101900020E9F73197CF01801BA5
:10358000910B182F64EF7FE00E946C281330D0F06D
:10359000BE016F5F7F4F83E593E00E943E2E83E57F
:1035A00093E0FC0101900020E9F7CF01845593409E
:1035B000039740F063EF7FE081E00E946C2886E88B
:1035C0000E942F2680910101882309F4E5CE809185
:1035D0000001813009F03FC00E942A06DDCEDD24C3
:1035E000DA94A7CFF80101900020E9F73197E01BAA
:1035F000F10BCE0101967C01EA3058F1E950FF0B46
:10360000B8016E0F7F1F0E943E2EF701019000202F
:10361000E9F7BF01615071094DEB57E0C7010E9406
:103620009A2680910001813009F48CCF98E0E92E30
:10363000F12CB7018DEB97E00E946F27811180CFAD
:10364000F5E0EF0EF11C28EAE2162FE0F20689F70A
:1036500079CFB801D8CFDD2009F49ECEBDCF8091BF
:10366000BB0781110AC080912102811106C080919F
:10367000BC07811102C0F99B02C085E86ECE8BE2C7
:1036800093E00E94FE02811187CE6BE273E0FB01A2
:1036900001900020E9F7BF01615071094DEB57E03F
:1036A0008BE293E00E949A26E0900201F0900301E1
:1036B000FCE1EF16F3E0FF0620F08BE1E82E83E05B
:1036C000F82E08E010E0D12CC12CCE14DF0409F450
:1036D00063CEC8010E94593198012B5F3F4F8F3F45
:1036E00091F565E0C8010E9468288091D40108E046
:1036F00010E0F12CE12C882309F44ECEC8010E9481
:1037000059318F3F19F09FEFE91AF90A0B5F1F4FEC
:10371000083AEFE01E0791F78091020190910301B2
:10372000E816F90608F438CE1092D40169EF7FE06C
:1037300080E00E946C28109200016EEF7FE080E034
:103740000E946C2829CE8FEFC81AD80A8901BDCFF4
:103750008091BB0781110AC080912102811106C0AE
:103760008091BC07811102C0F99B02C086E8F5CDAB
:1037700063E573E0FB0101900020E9F7BF016150B0
:103780007109AE014F5F5F4F83E593E00E949A2677
:1037900083E593E00E94FE028111FECD85E0FE01EB
:1037A0003196ADEBB7E001900D928A95E1F708E014
:1037B00010E0C8010E9459318F3FE1F465E0C80173
:1037C0000E9468288091D40108E010E0F12CE12CDF
:1037D000882309F4E1CDC8010E9459318F3F19F0C7
:1037E0002FEFE21AF20A0B5F1F4F083A8FE018071B
:1037F00091F792CF0B5F1F4F083AFFE01F07C9F602
:10380000CBCD6BE273E0FB0101900020E9F7BF0133
:10381000615071094DEB57E08BE293E00E949A26CC
:1038200008E010E0B8018DEB97E00E946F27882335
:1038300079F010922B034DEB57E06CE273E08BE2D2
:1038400093E00E949A2665E0C8010E946828A4CDF2
:103850000B5F1F4F083AFFE01F0721F79DCD0E9425
:10386000810F811106C00E946819811102C00E9457
:10387000A4150C946D26E82FF0E0E558FC4F9081DC
:10388000907F81E009F080E0089590918403892F72
:103890008D7F8093840380917B03807F90FD56C051
:1038A00081114BC080918D0390918E03A0918F0365
:1038B000B09190034091890350918A0360918B03EA
:1038C00070918C0384179507A607B70798F40196A3
:1038D000A11DB11D80938D0390938E03A0938F0340
:1038E000B0939003481759076A077B0719F481E0E2
:1038F000809384038091840390919103891781F0D0
:1039000080939103982F92609093840380FD53C01D
:1039100010928D0310928E0310928F0310929003D9
:1039200080917A03882341F0909184039D7F909346
:103930008403815080937A03089510928D0310922E
:103940008E0310928F0310929003D4CF882351F1ED
:103950008091800390918103A0918203B0918303B1
:1039600040917C0350917D0360917E0370917F03B1
:1039700084179507A607B70708F0BCCF0196A11DCD
:10398000B11D8093800390938103A0938203B09331
:103990008303481759076A077B0709F0ABCF1092DA
:1039A0008403A8CF109280031092810310928203A7
:1039B000109283039FCF1092800310928103109284
:1039C000820310928303ACCF80917B03189B869572
:1039D00081601899880F80937B03089580918503F7
:1039E00090918603A0918703B091880320912202D1
:1039F0000097A105B10591F00197A109B10991F4D2
:103A000081E0211180E0282F109285031092860317
:103A1000109287031092880380932202222359F088
:103A20005D9A08958093850390938603A0938703FE
:103A3000B0938803F3CF5D98089584E190E0A0E00F
:103A4000B0E080937C0390937D03A0937E03B093BA
:103A50007F038093890390938A03A0938B03B09391
:103A60008C0308951092910310928503109286039F
:103A700010928703109288038EE180937A03089551
:103A800090932905809328051092320510923105F4
:103A9000E0ECF0E0808180648083F894E1ECF0E079
:103AA000808180648083789400008FEF8093190276
:103AB0000895CF93DF93FC0181E48093EA0584E5C8
:103AC0008093EB05ACEEB5E093E0ED0184918D932E
:103AD000811108C08DE08883892F90E0DF91CF911C
:103AE0000C94401D31969F5FF0CFEAEEF5E081E443
:103AF000808384E5818301900020E9F7CF018B5E0C
:103B000095409927FC01E651FA4F2DE0208301965C
:103B10000C94401D78941F920F920FB60F921124AF
:103B20000BB60F922F933F938F939F93EF93FF9337
:103B30002091310530913205809128059091290519
:103B400028173907A8F0F8948091C1008F7B8093E3
:103B5000C10078940000FF91EF919F918F913F9168
:103B60002F910F900BBE0F900FBE0F901F901895C6
:103B7000349910C08091310590913205FC01E651D5
:103B8000FA4F20810196909332058093310520935E
:103B9000C600E1CF8FEF80931902DDCF8F938FB7EF
:103BA0008F938091C1008F778093C10078948BB7F9
:103BB0008F938091C6000F924F931F9211242F93E1
:103BC0003F93EF93FF93AF93BF939F9320912D0566
:103BD00030912E058F3F09F4E5C0E7E9F3E0A90134
:103BE000203991E0390708F0CAC02115310559F193
:103BF000909197038D3009F59D30F9F09A30E9F0F6
:103C000090919203911119C091E890931802459AEE
:103C1000F8949091C1009F779093C10090B79D7FD9
:103C200090BF789400001092960310929503109222
:103C30002B0510922A05109292032115310519F0D7
:103C400090819D30F9F08A30E9F4909192039111BE
:103C500019C091E890931802459AF8949091C10088
:103C60009F779093C10090B79D7F90BF789400009C
:103C7000109296031092950310922B0510922A052C
:103C8000109292038F01A9014F5F5F4FDF01A20FD6
:103C9000B31F00B601FE5DC02430310508F459C0E1
:103CA0008A3009F056C0BD0161507109EB0198815D
:103CB0009D3009F04EC061507109EB0198819A3036
:103CC00009F447C061507109EB0198819D3009F4F6
:103CD00040C0EF0191819A30E1F590819D30C9F5A6
:103CE00060912A0570912B0570939603609395035C
:103CF00050932B0540932A05909192039F5F9093D8
:103D000092036091390570913A0570933C05609378
:103D10003B05609137057091380570933A056093C3
:103D200039056091350570913605709338056093BB
:103D300037056091950370919603709336056093F3
:103D4000350560912A0570912B05709334056093B9
:103D5000330590912C05992361F02330310549F406
:103D6000803239F4909199039E3319F49FEF909328
:103D700093038C939A01E40FF51F10820FC030E07B
:103D800020E080E880931802109296031092950329
:103D900010922B0510922A051092920330932E0553
:103DA00020932D0510923D059F91BF91AF91FF91FA
:103DB000EF913F912F911F904F9100B601FE08C0E7
:103DC000F8948091C10080688093C10078940000CD
:103DD0000F908F918BBF8F918FBF8F91189583E03C
:103DE0008093C4001092C500E1ECF0E0808188610E
:103DF00080838BB18C7F8BB95198449845983D98BE
:103E000008954F9B0FC01092050110922E0510923D
:103E10002D05519A8BB183608BB93D9A459A449A8E
:103E20008FEF089580E00895809105018823B9F10E
:103E300091E0980F90930501913A39F1A8F49F30E1
:103E4000D9F030F49230D1F09330E9F080E0089569
:103E500087528430D8F70E94011F91E0811101C080
:103E600090E0892F819508959F3FA0F4953F98F7A2
:103E7000983C49F0973D51F75698E8CF56980E94E4
:103E8000011F81110BC0569AE1CF109217021092B8
:103E90001602DCCF81E080930501D8CF8FEF089523
:103EA000FC014217130609F040F4DB01A956BC4F90
:103EB00090E0491304C081E0491380E008952D91FA
:103EC00084912813F8CF31969F5FF3CF8FB7F89482
:103ED000109296031092950310922B0510922A05CA
:103EE0008FBF08952F923F924F925F926F927F9271
:103EF0008F929F92AF92BF92CF92DF92EF92FF92FA
:103F00000F931F93CF93DF9348E0B42E57E0852E95
:103F100069E0962E73E0772EE8E06E2EF5E15F2ED5
:103F2000A2E04A2EBDE03B2E222423949FB7F894B2
:103F300080919203811128C09FBF809148058823FA
:103F400001F1815080934805E82FF0E0E25CFA4FE0
:103F5000808180931802108280911802DF91CF91A6
:103F60001F910F91FF90EF90DF90CF90BF90AF9097
:103F70009F908F907F906F905F904F903F902F9089
:103F8000089510921802EACF853008F084E0E82FF7
:103F9000F0E0EE0FFF1FED5CFA4FC080D180118280
:103FA00010828150E82FF0E0EE0FFF1FED5CFA4F1A
:103FB00020813181809392039FBFC216D30698F56A
:103FC000809148058A3010F090924805E901CC199B
:103FD000DD09249786010E5F1F4FC90189569C4F4A
:103FE000FC013397E0803197A080F601E956FC4F41
:103FF000F5804BE4E4121CC0EFE4AE124AC1059711
:10400000FC018081803209F460C12630310508F45A
:104010005CC1E091480581E08E0F80934805F0E097
:10402000E25CFA4F2082BA94B11080CF80E096CF44
:10403000F7E4FF1214C09E0146E0B8018CE693E05D
:104040000E94501F882359F0E091480581E08E0FAF
:1040500080934805F0E0E25CFA4F3082E4CF4FE411
:10406000A41215C09E0145E0B80186E693E00E94C7
:10407000501F882361F0E091480581E08E0F809306
:104080004805F0E0E25CFA4F84E08083CCCFE7E4BF
:10409000EE1215C09E0147E0B8018EE593E00E9444
:1040A000501F882309F4F9C0E091480581E08E0F84
:1040B00080934805F0E0E25CFA4F4082B4CFF4E42C
:1040C000EF12EBC09E014CE0B80181E593E00E9445
:1040D000501F882309F4E1C0E091480581E08E0F6C
:1040E00080934805F0E0E25CFA4F8CE0CECF8DE49F
:1040F000F81214C09E0146E0B80183E493E00E94E8
:10410000501F882311F1E091480581E08E0F8093C4
:104110004805F0E0E25CFA4F508285CFE4E5FE12FC
:1041200014C09E0146E0B8018CE393E00E94501F4A
:10413000882359F0E091480581E08E0F809348056F
:10414000F0E0E25CFA4F60826ECFF5E4AF1214C08B
:104150009E014AE0B80181E393E00E94501F88234A
:1041600059F0E091480581E08E0F80934805F0E01A
:10417000E25CFA4F708257CF45E4E41214C09E010E
:104180004BE0B80185E293E00E94501F882311F1B3
:10419000E091480581E08E0F80934805F0E0E25CF5
:1041A000FA4F908240CF89E5E81214C09E0144E0A6
:1041B000B80180E293E00E94501F882359F0E091FB
:1041C000480581E08E0F80934805F0E0E25CFA4FED
:1041D000808229CFE5E4FE1223C09E014BE0B801A6
:1041E00084E193E00E94501F882309F41CCF4AE029
:1041F00050E070E060E0C6018B559C4F0E949A2C05
:1042000070931D0260931C02E091480581E08E0FBF
:1042100080934805F0E0E25CFA4F45E0408303CF2D
:1042200083E5F81200CF9E014BE0B80188E093E0EF
:104230000E94501F8823C1F04AE050E070E060E027
:10424000C6018B559C4F0E949A2C70931B02609361
:104250001A02E091480581E08E0F80934805F0E056
:10426000E25CFA4F86E011CF9E0146E0B80181E0A2
:1042700093E00E94501F882309F4D5CEE0914805B1
:1042800081E08E0F80934805F0E0E25CFA4F4EE04B
:10429000C5CF87E4F81609F4CECE49E4F41227CF4F
:1042A0009E0146E0B8018AE493E00E94501F8823F3
:1042B00009F44BCFE091480581E08E0F80934805CB
:1042C000F0E0E25CFA4F8AE0E0CEE7E4FE12CACE0C
:1042D000B2CECF930E94721F8823D9F0809118022A
:1042E000843021F0833111F0813089F4CFB7F89414
:1042F0000E94661F459AF8948091C1008F77809341
:10430000C10080B78D7F80BF78940000CFBF8091BF
:104310001802CF910895FF920F931F93CF93DF93CD
:104320008C01F801C081D181F8808F2D90E00E942E
:104330009D2D892BF1F480914F03F8121FC09981B4
:104340008091500398131AC09A8180915103981359
:1043500015C09B8180915203981310C02496F801D8
:10436000D183C0838FEFDF91CF911F910F91FF9089
:1043700008952196F801D183C083D3CF80E0F3CF95
:1043800044E050E065E873E00E94AE2D21E0892B07
:1043900009F020E0822F08956F927F928F929F9272
:1043A000AF92BF92CF92DF92EF92FF920F931F9343
:1043B000CF93DF935C01762E642EF501008111818D
:1043C000F801808190E00E949D2D892BB9F5F8E0DD
:1043D0007F9EC0011124D12CC12C9C0126573C4F3B
:1043E0004901FC01E557FC4F7F017614B8F4F40154
:1043F000EC0DFD1DE491CE2FD0E0B7016C0D7D1DBD
:10440000AE01C8010E94AE2DF8E0CF0ED11C892B61
:10441000D9F4C00FD11FF501D183C083872DDF915F
:10442000CF911F910F91FF90EF90DF90CF90BF90B1
:10443000AF909F908F907F906F9008950F5F1F4F68
:10444000F50111830083B9CF7394CFCFEF92FF9220
:104450000F931F93CF93DF93EC017B0108811981A8
:104460004AE050E0BC01C8010E946C2BF701608358
:1044700071838283938381E02881398120173107FA
:1044800009F480E0DF91CF911F910F91FF90EF90A1
:104490000895DF92EF92FF920F931F93CF93DF93D4
:1044A0007C01D62EF701C081D181088110E0C801BE
:1044B0000E949D2D892BA1F48D2D90E00E94A62DA8
:1044C0000817190791F42196F701D183C0838FEF64
:1044D000DF91CF911F910F91FF90EF90DF900895A2
:1044E0002196F701D183C083DDCF80E0F1CFDF9249
:1044F000EF92FF920F931F93CF93DF938C01D62EF1
:10450000F801C081D181FE0181917F0190E00E947C
:104510009D2D892B99F48D2D90E00E94A62D982F2A
:104520009E012F5F3F4F8881882361F0E901981336
:10453000F7CFF801318320838FEF06C0F801F182B5
:10454000E082DECF9923A9F3DF91CF911F910F91E4
:10455000FF90EF90DF900895CF92DF92EF92FF925D
:104560000F931F93CF93DF938C01D62EF72EE42E5B
:10457000F801C081D181888190E00E949D2D892B16
:1045800081F4CD2DDF2D6E01E11010C0F6011082F7
:10459000DF91CF911F910F91FF90EF90DF90CF901F
:1045A00008952196D801CD93DC93E2CFD801ED9107
:1045B000FC91F0808F2D90E00E949D2D892B31F78A
:1045C000F992EA94FF2011F3D8018D919C911197F3
:1045D00001968D939C93D7CF8F929F92AF92BF926B
:1045E000CF92DF92EF92FF920F931F93CF93DF93BF
:1045F0007C015B01942EF70100811181F80180811B
:1046000090E00E949D2D892B19F5802E6501C02F09
:10461000D12F8E012196F80180810E9487268D304E
:10462000E9F4F6011082F5018081882321F0F70179
:10463000118300838FEFDF91CF911F910F91FF9036
:10464000EF90DF90CF90BF90AF909F908F900895A4
:104650000F5F1F4FF70111830083CDCF8C2F881977
:104660008915F8F6FE0131978081F60181936F017B
:10467000D0CFEF92FF920F931F93CF93DF93CDB7DD
:10468000DEB762970FB6F894DEBF0FBECDBF9A8B30
:10469000898B7C0182E3F701ADEBB7E001900D92CD
:1046A0008A95E1F7CE0141960E948B2129899A894A
:1046B000811108C0822F0E94C021882309F46FC095
:1046C0008BE06DC0022F192FF80181918F018111AC
:1046D0001FC040E160E0CE0141960E94CC218031B4
:1046E00008F096C2E82FF0E0E858FC4D0C944F2BF0
:1046F0009323DC23E92360230A26C523F5231D2405
:10470000082608263F24C9248425FB25FD250226EA
:1047100090E00E94A62DF80131978083D5CF0F5FDE
:104720001F4F1A8B098B09891A89F801808190E043
:104730000E949D2D892B99F7C8018E199F09FC01B4
:10474000E354F84F34E021914FEB420F4A3128F007
:1047500020532A3010F082E022C03150A1F7835458
:10476000984FFC01408151816281738140934F03D6
:1047700050935003609351037093520344E061E0FF
:1047800070E00E94412883E00AC04EE06BE273E0D3
:10479000CE0141960E94EC2281113EC286E06296D3
:1047A0000FB6F894DEBF0FBECDBFDF91CF911F9142
:1047B0000F91FF90EF9008954EE06BE273E0CE0111
:1047C00041960E94EC22882331F285E80E942F2630
:1047D000DACF4EE06BE273E0CE0141960E94EC220C
:1047E000882309F4B8CF87E8F1CF4AE068E0CE012A
:1047F00041960E94CC21883071F481E080930001C1
:104800006EEF7FE00E946C288FEF809301016FEFC5
:104810007FE081E00FC0893009F01FC281E0809302
:1048200000016EEF7FE00E946C28109201016FEF93
:104830007FE080E00E946C28A6CF4AE068E0CE01CD
:1048400041960E94CC21109200016EEF7FE08830EB
:1048500011F480E0D7CF893011F480E0E4CF80E01C
:104860000E946C288091D401882309F48CCF69EFD1
:104870007FE080E00E946C281092D40184CFBE01BA
:10488000675F7F4FCE0141960E942622882331F137
:104890006AE3CE0141960E9449228823F9F0BE01C5
:1048A0006B5F7F4FCE0141960E9426228823B1F094
:1048B0006AE3CE0141960E944922882379F0BE0125
:1048C0006F5F7F4FCE0141960E94262221E030E0AB
:1048D000811102C030E020E0232BE9F48FEF8093B8
:1048E000D5016EE773E089E495E00E94C42D89E468
:1048F00095E0FC0101900020E9F7CF016BE071E049
:1049000001970E943E2E6AE173E080E392E00E94EC
:104910003E2E82ED5BCF89859A85AB85BC8588313B
:104920009105A105B10508F016CF4D815E816F811B
:1049300078854C3351056105710508F00CCF09816C
:104940001A812B813C810C3311052105310508F0BA
:1049500002CF1F930F935F934F939F938F9387E49F
:1049600091E09F938F9389E997E09F938F930E94A3
:104970005F2E8DEF0E942F268FEF8093D5010FB60B
:10498000F894DEBF0FBECDBFFECE0F5F1F4F1A8B58
:10499000098B09891A89F801808190E00E949D2D78
:1049A000892B99F743E050E06AE773E0C8010E9461
:1049B000CB2D892B01F56AEF7FE08FEF0E946C28E9
:1049C0006BEF7FE08FEF0E946C286CEF7FE08FEF42
:1049D0000E946C286DEF7FE08FEF0E946C288FEFB4
:1049E00080930A0180930901809308018093070155
:1049F00010921F02C8CEBE01635F7F4FCE01419669
:104A00000E942622882309F4A6CE6AE3CE014196AD
:104A10000E944922882309F49ECEBE01675F7F4F22
:104A2000CE0141960E942622882309F494CE63E2A7
:104A3000CE0141960E947722BE016B5F7F4FCE016F
:104A400041960E942622882309F485CE6AE3CE018E
:104A500041960E944922882309F47DCEBE016F5FF2
:104A60007F4FCE0141960E942622882309F473CEFF
:104A70008D859E85AF85B88988319105A105B105E1
:104A800008F069CE49855A856B857C854C33510584
:104A90006105710508F05FCE4D815E816F8178857B
:104AA000483151056105710508F055CE49815A819B
:104AB0006B817C814C3351056105710508F04BCE4B
:104AC0006AEF7FE00E946C286BEF7FE089850E948F
:104AD0006C286CEF7FE08D810E946C286DEF7FE089
:104AE00089810E946C288D8580930A018985809335
:104AF00009018D818093080189818093070143CE4C
:104B00000F5F1F4F1A8B098B09891A89F801808161
:104B100090E00E949D2D892B99F742E050E067E7D5
:104B200073E0C8010E94CB2D892B09F047C00E5FAE
:104B30001F4F1A8B098B80E293E0A0E0B0E08983DD
:104B40009A83AB83BC83E988FA88F7011081812FAF
:104B500090E00E949D2D892BA1F410531A30B8F0DB
:104B600008E010E0C8010E945931F82E2FEF82179B
:104B700009F454C00B5F1F4F083A8FE0180791F7F4
:104B8000EACDFFEFEF1AFF0AFA8AE98ADCCFBE010D
:104B90006F5F7F4FCE0141960E942622882309F441
:104BA000DACD89819A81AB81BC810197A109B109D4
:104BB00080329340A105B10598F2CDCD43E050E09D
:104BC00063E773E0C8010E94CB2D892B09F0C3CDA8
:104BD00069EF7FE080E00E946C281092D40188EF9A
:104BE0009FE00E9459318F3F09F4CDCD80930001A1
:104BF0006EEF7FE01FCE88E0D2CD1092C20167EF4A
:104C00007FE017CE8FEF8093C20167EF7FE001CE88
:104C100081E0C5CD84E0C3CD85E0C1CD8EEF9FE0BE
:104C20000E94593168EF7FE00E946C2865EF7FE0B9
:104C300089810E946C2866EF7FE08A810E946C283F
:104C400089819A81909303018093020169EF7FE04B
:104C500081E00E946C28F092D40181E0C7CFEBE79D
:104C6000F7E030E020E09191911105C02558384FD0
:104C7000F901808308952F5F3F4F2E31310599F759
:104C80000895EBE7F7E030E020E09191981761F0AC
:104C9000911105C02558384FF901808308952F5F81
:104CA0003F4F2E31310589F7089590E0E92FF0E06C
:104CB000E558F84F2081281770F0621760F0292F0F
:104CC0002D3128F0109298079E3181F70895318197
:104CD00031932F5FF5CF9F5FF7CFEBE7F7E081814F
:104CE000819387E0E839F807D1F710929807089583
:104CF000EBE7F7E09191981710F0691730F497E01F
:104D0000E939F907B9F780E008958FEF08958B32FC
:104D100079F030F4833251F08A3231F08DE0089529
:104D200080538A30D8F708958BE008958CE0089579
:104D30008AE0F9CFAF92BF92CF92DF92FF920F93AA
:104D40001F93CF93DF93182FEB016A0145E050E0EA
:104D50006FEF70E0C6010E94212E8C2F811B182F4F
:104D6000219700E0823058F4DF91CF911F910F918D
:104D7000FF90DF90CF90BF90AF900895092F88816A
:104D80000E948726F82EF29480EFF822FE0182918D
:104D90005F010E9487268F29113061F4E5018F6041
:104DA00010E091E0900FF601E00FF11D80831111EA
:104DB000E5CFDACF22971250F4CFE82FF0E0E65F8C
:104DC000FB4F84910895CF93DF939C01EB011882F0
:104DD000BC0180E0DB016F5F7F4F9C919F3F19F02A
:104DE000853009F052C0A217B30709F452C0642FEE
:104DF00070E090E0880F991F11976817790744F4C5
:104E0000DB011197B7FDDB01B595A795A20FB31F85
:104E1000EC918E2F8F708F3009F039C0E295EF70D2
:104E2000F0E0E65FFB4F84918883882319F0219698
:104E3000119781E0A217B30720F1EC91EF70F0E039
:104E4000E65FFB4FE491E883BE01EE2319F06F5F4C
:104E50007F4F8F5FEB018417A1F02196EC91E295D3
:104E6000EF70F0E0E65FFB4F9491FB0190838F5F62
:104E7000481739F01197BD016F5F7F4F261737072D
:104E8000C9F61882DF91CF9108958F5FA3CF80E09C
:104E9000D1CF80E0F7CFFF920F931F93CF93DF9393
:104EA00000D000D01F92CDB7DEB78B01F42E45E0C5
:104EB00050E0BC01CE0101960E9449314F2DB8014E
:104EC000CE0101960E94E3260F900F900F900F9055
:104ED0000F90DF91CF911F910F91FF9008950F9345
:104EE0001F93CF93DF93EC018B0188818F3F21F1DA
:104EF000CB010E9459318F3FF9F0C8010E9459310E
:104F0000382F307F9991292F207F303F79F0203F33
:104F100069F0321311C08F709F708F3039F09F305D
:104F200029F0891309C00F5F1F4FE7CF8FEFDF9183
:104F3000CF911F910F91089580E0F9CF0F931F93A8
:104F4000CF93DF9300D000D01F92CDB7DEB78B0197
:104F5000FC0101900020E9F73197BF01681B790B34
:104F6000680F792F711DAE014F5F5F4F0E949A2627
:104F7000B801CE0101960E946F270F900F900F90FD
:104F80000F900F90DF91CF911F910F910895809313
:104F9000B9079093BA07109220026093210292BD44
:104FA00081BDF89A90B58091BD07981729F080BD12
:104FB000F894FA9AF99A78940895F99935C08091FD
:104FC000BB07811108C080912102811104C080912A
:104FD000BC07882349F180912002F89A20B5E82F78
:104FE000F0E0E354F84F9081291301C08F5F909156
:104FF00021028917D0F4282F30E04091B907509151
:10500000BA07420F531F52BD41BDF89A40B5235411
:10501000384FF9019081491729F090BDF894FA9A18
:10502000F99A78948093200208959091BB0710928A
:10503000BB07909321029923F9F0EDEBF7E080E0B4
:1050400020A521938F5F9813FBCF8091EF0790915C
:10505000F0078093B9079093BA0792BD81BDF89A83
:1050600090B58091BD07981729F080BDF894FA9A01
:10507000F99A789480E0D6CF9FE092BD9FEF91BDE2
:10508000D1CF1F93CF93DF934423F1F0C42F172F79
:10509000D62FBC0150E08DEB97E00E94182ED093E4
:1050A000B9071093BA0710922002C093210212BDD3
:1050B000D1BDF89A90B58091BD07981729F080BDB1
:1050C000F894FA9AF99A7894DF91CF911F91089504
:1050D00061110C94C72708951F93CF93DF93182F66
:1050E000EB01CB010E945931811749F01093BD07A4
:1050F00061E0CE01DF91CF911F910C94C727DF9122
:10510000CF911F9108950F931F93CF93DF9300D0FA
:1051100000D0CDB7DEB78C0119821A821B821C82A7
:105120000E9459318983C80101960E9459318A83AE
:10513000C80102960E9459318B8369817A818B81E3
:105140009C810F900F900F900F90DF91CF911F9146
:105150000F910895CF92DF92EF92FF920F931F93DA
:10516000CF93DF93DC011196FC01F080F41618F068
:10517000FF24FA94F40EEB0140E0E12CE0E050E86B
:1051800087E090E04F110DC0640F711DFB0110828C
:10519000DF91CF911F910F91FF90EF90DF90CF9013
:1051A00008952E2D30E00C9110E0C52ED12CC09426
:1051B000D0940C211D2102C0000F111FEA94E2F7C8
:1051C000E00FF12FF11DE55DFA4FE491E9934F5F98
:1051D000F42FF770EF2E79F0EC91E523F0E08C01DD
:1051E000021B130B02C0F595E7950A95E2F7569559
:1051F00050581196C7CFE0E050E8C4CFCF92DF926D
:10520000EF92FF920F931F93CF93DF938C01CA010C
:10521000861B970BE8018993815090E020E04FE7CF
:1052200050E037E0EE24EA94F12CDE01281748F133
:10523000F80180818770D9F0FB01E20FF11DE08158
:10524000F0E0E55DFB4F24914FE750E0092E02C0EE
:10525000440F551F0A94E2F7E22FF0E0E423F52310
:1052600002C0F695E7959A95E2F7E8831196CD018D
:10527000DF91CF911F910F91FF90EF90DF90CF9032
:1052800008956B01C20ED11CD601EC91F0E0E55DF2
:10529000FB4FE491DA01092E02C0AA0FBB1F0A944A
:1052A000E2F7F0E0AE23BF23092E02C0B695A79522
:1052B0000A94E2F7F601B181EB2FF0E0E55DFB4FD8
:1052C000E491B32FB91B67010B2E02C0D694C7948B
:1052D0000A94E2F7EC2101C0EE0FBA95EAF7EA2B47
:1052E000E9939F5F973011F42F5F90E02F5F9DCF80
:1052F000FC01DA0170E0CD01841B950B861797073E
:1053000008F0089590819A3360F49053292F2295E4
:10531000207F91819A3338F49053920F9D93329667
:10532000EACF9753F3CF9753F8CF1F93CF93DF93E1
:10533000DC01EA018C91873C50F0DB011C928FEF7D
:10534000888390E080E0DF91CF911F9108951882CB
:105350008C9190E00196A80FB91F8C918B7F11F072
:105360008FEF888311962C911197213130F7FD0131
:10537000339612968C91982F9F7E31E0913809F0E8
:1053800030E0813929F48BE2DB018C936F5F7F4F32
:10539000AB0110E00EC08081992311F08295319607
:1053A0008F70805D311101C080E3DA018D93AD0112
:1053B0001F5F912F91701213EECFDB01A10FB11D72
:1053C0001C92911101C031978281882311F08FEFD7
:1053D0008883CF010396B7CFFC019081A92FAF70CE
:1053E0008AE092959F70A89F900D1124DB019C93F9
:1053F0009181692F6F7092959F70689F900D112415
:10540000DA019C939281492F4F7092959F70489F2B
:10541000900D1124D9019C93CF0103960895FC01AE
:105420009081A92FAF708AE092959F70A89F900DF0
:105430001124DB019C939181692F6F7092959F706D
:10544000689F900D1124DA019C939281492F4F702F
:1054500092959F70489F900D1124D9019C93CF0184
:1054600004960895CF93DF93DC01FB0180818B329A
:1054700099F4319681E9EF0109900020E9F79E0146
:10548000215031092E1B3F0B211108C0CD0101967F
:105490001C92DF91CF91089581E8EDCF2C93AD015F
:1054A0004E5F5F4F11968C93C90199270196959590
:1054B0008795682F742FDA012A2F271B261718F0DB
:1054C000840F951FE6CF208120533181332331F0A3
:1054D00032963295307F232B2D93EECF3196206F6D
:1054E000FBCFCF93DF93EC01DB018C91811106C0E0
:1054F000CE0101961882DF91CF9108958B3209F584
:10550000119681E9FD0101900020E9F731979F0193
:105510002A1B3B0B33272F5F3F4F35952795622F73
:1055200091E0920F9883AE014E5F5F4F8983742F95
:10553000FA018E2F871B861730F0CA01820F931F46
:10554000DACF81E8DFCF8C91805311969C9111972F
:10555000992331F012969295907F892B8193E9CF10
:105560001196806FFBCFEF92FF920F93CF937B0149
:10557000C22FBA010E94712A21E1FC01208311820D
:10558000B70102960E94322AFC01C08301832AEAF5
:1055900022830396CF910F91FF90EF900895CF93C0
:1055A000DF931F92CDB7DEB79C01562FDB018A2F08
:1055B000851B841720F00F90DF91CF9108959D9166
:1055C000892F807F898382958983E981F0E0E65E77
:1055D000FB4F8491F90180839F70E92FF0E0E65E34
:1055E000FB4F8491F90181832E5F3F4FE0CF88E12B
:1055F0009BE00FB6F894A895809360000FBE90933F
:1056000060000E9443030E9443030E9443030E94E0
:10561000430381E087B988B980E28AB90E943A18C9
:105620000E94EF1E0E942A1878948091C90180FD83
:105630000E942A188091C90181FD0E949F168091C5
:10564000C90180FF06C00E94B5170E942F1C10924E
:10565000C901F8948091CB01811109C083B78160A1
:1056600083BF78948895F89483B78E7F83BF7894AE
:105670000E94BB17DACF97FB072E16F4009407D0D1
:1056800077FD09D00E94582B07FC05D03EF4909579
:1056900081959F4F0895709561957F4F0895EE0F06
:1056A000FF1F0024001C0BBE0790F691E02D09940B
:1056B000AA1BBB1B51E107C0AA1FBB1FA617B70738
:1056C00010F0A61BB70B881F991F5A95A9F7809554
:1056D0009095BC01CD0108953F924F925F926F92D9
:1056E0007F928F929F92AF92BF92CF92DF92EF9272
:1056F000FF920F931F93CF93DF935C016B017A01AD
:105700006115710519F0FB0191838083E114F104A7
:1057100051F0C7010297839730F040E030E020E07D
:1057200090E06BC05E01E5012196F5011081812FAB
:1057300090E00E949D2D892BA9F71D3201F521963D
:10574000F501118101E0E114F10409F4E6C0F0E192
:10575000EF16F10409F088C0103359F488818F7D69
:10576000883509F07CC0198122960260F0E1EF2EA5
:10577000F12C812C912CA12C88E0B82E92C01B32E8
:1057800021F4E5012296F501118100E0DCCFEAE089
:10579000EE16F10409F4C7C0F0E1EF16F10409F0C8
:1057A00073C0E7CF78E0E72EF12C812C912CA12C4F
:1057B00060E1B62E76C021E0ADC0302F3170C1144B
:1057C000D10431F0222371F12197F601D183C083F6
:1057D00027FF2EC060E070E080E090E8311104C047
:1057E0006FEF7FEF8FEF9FE722E230E03093F20719
:1057F0002093F107462F372F282F642F732F822FE6
:10580000DF91CF911F910F91FF90EF90DF90CF909C
:10581000BF90AF909F908F907F906F905F904F90D0
:105820003F90089501FF04C02297F601D183C08301
:10583000332341F090958095709561957F4F8F4F00
:105840009F4FD8CF97FFD6CF82E290E09093F20798
:105850008093F1076FEF7FEF8FEF9FE7CBCF10E3E0
:10586000E114F10409F49ECF28E0E216F10409F4F2
:105870009CCF0CF08CCF812C912CA12CE0E4BE2E7F
:1058800082E0E816F10469F060E070E080E090E802
:1058900097010F2C000C440B550B0E9493314901CA
:1058A0005A0120E060E070E0CB0127010F2C000CD2
:1058B00066087708FE0150ED352E310E39E03315BC
:1058C00070F43FEB310F49EC342E3A3138F03FE9B8
:1058D000310F3A3108F071CF39EA332E310E3E14D0
:1058E0001F040CF06ACF27FD15C086169706A80680
:1058F000B90678F0A30192010E948331630D711DF6
:10590000811D911D61307105810520E8920708F421
:1059100052CF2FEF21961081CDCF103309F41ECF37
:105920002AE0E22EF12C9CEC892E982CA82C9CE0ED
:10593000B92EB7CF3F924F925F926F927F928F9224
:105940009F92AF92BF92CF92DF92EF92FF920F930E
:105950001F93CF93DF935C016B017A016115710591
:1059600019F0FB0191838083E114F10449F0C70130
:105970000297839728F060E070E0CB019BC05E0146
:10598000E5012196F5011081812F90E00E949D2D67
:10599000892BA9F71D3209F05CC02196F501118110
:1059A00001E0E114F10409F4BBC0F0E1EF16F104E9
:1059B00009F09BC0103341F488818F7D883509F050
:1059C0008FC0198122960260E0E1EE2EF12C88242E
:1059D0008A94982CA82CFFE0BF2E20E060E070E0B5
:1059E000CB0127010F2C000C66087708FE0150ED53
:1059F000352E310E39E0331568F43FEB310F49ECA9
:105A0000342E3A3130F03FE9310F3A31B0F539EA0E
:105A1000332E310E3E141F0484F52F3FB9F0861645
:105A20009706A806B90638F1A30192010E948331B6
:105A3000232D30E050E040E0620F731F841F951F5C
:105A40006217730784079507B0F021E02196108153
:105A5000CDCF1B3221F4E5012296F501118100E042
:105A6000A0CF78E0E72EF12C88248A94982CA82CDB
:105A70006FE1B62EB2CF2FEFE9CFC114D10431F0D0
:105A8000222351F12197F601D183C08300FF07C083
:105A900090958095709561957F4F8F4F9F4F2F3FC9
:105AA00049F482E290E09093F2078093F1076FEF60
:105AB0007FEFCB01DF91CF911F910F91FF90EF907E
:105AC000DF90CF90BF90AF909F908F907F906F901E
:105AD0005F904F903F90089501FFD8CF2297D3CF8A
